:020000040806ec
:1000000000000608585907080000e40c0a00040321
:1000100004026e0000000000cc4b0708f44a0708f9
:10002000fc490708a44a0708f44907085c4b07087d
:1000300008b5024b1b685b6c019308bdd001040836
:1000400008b5024b1b68db68019308bd9c010408de
:1000500008b5024b1b689b6b019308bd9c0104080b
:1000600008b5024b1b68db6b019308bd9c010408bb
:1000700008b5024b1b685b6b019308bdb80104080f
:1000800008b5024b1b685b69019308bdb001040809
:1000900010b54468a31843600023934201d10120a6
:1000a00010bdc85ce0540133f7e710b54468a318ed
:1000b000436039b9012010bde05cc854013393425c
:1000c000fad1f7e70023fae70028adbf00f160405e
:1000d000054b00f00f0000f56140b4bf185c90f8cc
:1000e00000030009704700bf14ed00e001f00701b4
:1000f00070b5c1f107040d1d042c28bf0424062d82
:1001000098bf00214ff0010588bf033920fa01f69e
:1001100005fa04f405fa01f1013c013934400140cb
:100120001460196070bd0000024b1860024b19602a
:10013000704700bf3cc5012040c50120024b18603c
:10014000024b1960704700bf44c5012048c501201b
:10015000704770477047704770477047202908b54f
:1001600006d1044b1b681bb182690ab150689847dd
:10017000002008bd78bf01200c22034b02fb003396
:100180009b685868704700bf0cc9012010b5044631
:10019000fff75eff0c22084b02fb04339b685c6a8e
:1001a000da691b6a9a4236bfa418d41ae41afff718
:1001b00057ff204610bd00bf0cc9012038b50446ca
:1001c0000d46fff7e3ff002815ddfff741ff0c2286
:1001d0000a4b02fb04339a68136a5169cc5c35b947
:1001e000516a136a0133994298bf5b1a1362fff791
:1001f00037ff204638bd4ff0ff30fbe70cc9012028
:100200007fb5eff31083db070bd4164a5368c3f3b3
:10021000080323b35368c3f30803532ba3f110015e
:1002200002d1002004b070bd4320d468fff74cff1a
:10023000064648b2fff748ff0546c4f302246a4663
:100240002146304601abfff751ff03ab02aa21461e
:100250002846fff74bff009a029b9a42e1d2012009
:10026000e0e700bf00ed00e00c235843024b185cb0
:10027000003818bf012070470cc901200c235843d7
:100280000a4a1318105c80b1586870b19b685868ae
:1002900058b1074a92f8a220032a05d193f84a00e0
:1002a000003818bf01207047002070470cc901209a
:1002b0009cc1012010b50446fff7e0ffa8b1fff78d
:1002c000c7fe0c220a4b02fb043399688c8d0a6b23
:1002d000496b34b18a4236bf611a521a5218631ef2
:1002e0009c1afff7bdfe204610bd4ff0ff34fae721
:1002f0000cc90120f8b504460f462046fff7daff87
:10030000051e05dc6b1c03d0fff77aff0028f4d133
:10031000fff79efe06462046fff7b0ffb0b1002d66
:1003200014dd0c230b4803fb0404a2680124136ba7
:10033000916acf54136b918d0133994298bf5b1a28
:1003400013633046fff78cfe2046f8bd4ff0ff34b4
:10035000f7e700bf0cc9012070b50446fff750ff56
:1003600098b10c23094d03fb04552046fff786ff87
:10037000ae6830b12046fff79dffb38d013b984238
:10038000f3d196f84930012bfbd070bd0cc9012088
:10039000084bda7d02f0ff0052b1074a92f8a22022
:1003a000032a04d1987d003818bf0120704700202f
:1003b000704700bfa4bc01209cc101203d4a82b00f
:1003c000937a002b70d04ff0e0210020d1f8103d3f
:1003d00023f00603c1f8103d374b196841f00101c5
:1003e00019609860196821f0847121f480311960d6
:1003f00032495960196821f480211960d860009051
:100400000190196841f480311960196801f40031d4
:100410000191009901310091019919b90099b1f543
:10042000a06ff2d11b6813f4003318bf01230193ae
:10043000019b012b25d1204b99689960996841f463
:1004400000419960996841f4a05199601c49596034
:10045000196841f08071196019688901fcd540f272
:10046000037018490860996821f003019960996840
:1004700041f00201996010498b6803f00c03082bce
:10048000fad14ff00061104b9960937a63b1136910
:100490009b68db0708d5d2f89c30d2f89c2023f06b
:1004a000030161f3070313604ff48022074b5a6185
:1004b00002b070479cc10120003802401030002477
:1004c0001a3c4005003c024000ed00e0003c0140c9
:1004d000122301480b8070475cbc012004230148b3
:1004e0000b8070476ebc012010b143f6305303609f
:1004f00000487047f8000708416b91b142690369f1
:100500009a420ed0426903699a42f6d04369026961
:100510009342fcd0c26801339342a8bf9b1a436147
:10052000ebe77047a0f13c00fff7e6bfc26a836ac1
:100530009a4212d0094b1b881b060ed5c36a826ae9
:100540009342fcd0c269416ad25c01338b42a8bf9e
:100550005b1ac36293b2014a93807047004800401f
:100560001fb550b1064b0292cde900310023102295
:100570006946039309f0eafe012005b05df804fb2b
:10058000910006081fb540b1054b0392cde901313a
:100590000c2201a909f0dafe012005b05df804fb88
:1005a000ab000608024b5b6803b11847704700bff9
:1005b0004cc50120024b9b6803b11847704700bf30
:1005c0004cc50120024bdb6803b11847704700bfe0
:1005d0004cc50120044b42685a6082689a60c26828
:1005e000da6002691a6170474cc5012007b5094bf2
:1005f000d3f8283101934bb1042202300deb0201f4
:1006000009f0a4fe002003b05df804fb4ff0ff30ba
:10061000f9e700bf8cc50120024bc3e90101da6094
:100620000020704768c501200048704768c5012058
:10063000034b93f84200c31e58425841704700bf15
:100640008cc50120002070476ff0770070470000d4
:1006500020b1044bc3e95101002070474ff0ff3037
:10066000704700bf8cc5012003460c20044a117856
:10067000044a00fb012207ca83e8070018467047b6
:1006800060c5012080fe060803289cbf014bc3f80b
:10069000e40170478cc5012000207047002070479e
:1006a000002070474ff0ff30704706288cbf0020b5
:1006b000012070474ff0ff3070474ff0ff30704718
:1006c0004ff0ff3070474ff0ff3070474ff0ff3072
:1006d00070470000642370b50e4686b001ad90fbf4
:1006e000f3f400211422284609f058feb11e072910
:1006f00039d8dfe801f004042f38323835351422b8
:100700001d49284609f022fe019ba3422edc059bd1
:10071000a3422ddd032355f82320a24201dd013b36
:10072000f9d206aa02eb830252f8142c06a9a01ae9
:10073000124c01eb8301604351f8104ca41a90fb5a
:10074000f4f00f4a534300eb93006423b0fbf3f043
:1007500006b070bd14220b49d3e714220a49d0e732
:1007600014220a49cde74ff00040f1e70020efe7ff
:100770004ff6ff70ece700bfbcfe0608e7ff18006d
:100780009cff630034ff0608e4fe06080cff060821
:10079000642370b50d4686b001ae90fbf3f41422cd
:1007a0000021304609f0fafd062d0bd004d8042da7
:1007b00033d04ff000402ee0083d012df9d814222f
:1007c0001a4901e014221a49304609f0bffd019b85
:1007d000a34225dc059ba34224dd032356f82320f6
:1007e000a24201dd013bf9d206aa02eb830252f8d4
:1007f000142c06a9a01a0f4c01eb8301604351f899
:10080000104ca41a90fbf4f00b4a534300eb9300f6
:100810006423b0fbf3f006b070bd14220749d3e7a0
:100820000020f8e74ff6ff70f5e700bff8fe060876
:10083000d0fe0608e7ff18009cff630020ff0608b3
:10084000024643690168c85c916801338b42a8bfc6
:100850005b1a53617047000070b50025054e064cc9
:10086000a41ba408ac4204d056f8043b98470135b9
:10087000f8e770bd9c550708a4550708014b1860a0
:10088000704700bf44bd012008b5024b1b685b6b7d
:10089000019308bda00102080c2008b5024a0349d3
:1008a000fff7f2fffee700bf410006087ced0608f7
:1008b00008b5024b1b685b69019308bda0010408e1
:1008c0000246b2f5800f13b508461c460bd153b152
:1008d0004ff0ff330649236001aafff7e9ff012823
:1008e00004bf019b23604ff0ff3002b010bd00bf7a
:1008f00091ed06080246b2f5800f13b508461c4676
:100900000bd153b14ff0ff330649236001aafff723
:10091000cfff012804bf019b23604ff0ff3002b0de
:1009200010bd00bfa1ed0608024610b5b2f5800f5c
:1009300008461c468ab017d1b3b109ab029308ab85
:10094000019307ab00930a4906ab05aafff7b0ff76
:10095000052809d1059b6360069ba360079be360a4
:10096000089b2361099b63614ff0ff300ab010bd03
:10097000afed0608024630b5b2f5800f08461c46ba
:100980008bb019d1c3b109ab029308ab019307ab8c
:1009900000930b4906ab05aafff78aff00280bdd81
:1009a00004f1080205ab02eb400153f8045b22f8a6
:1009b000025b8a42f9d160604ff0ff300bb030bd6e
:1009c000cced0608024630b5b2f5800f08461c464d
:1009d00087b017d1b3b105ab019304ab00930b49ba
:1009e00003ab02aafff764ff00280bdd04f1080245
:1009f00002ab02eb400153f8045b22f8025b8a422f
:100a0000f9d160604ff0ff3007b030bdeced060863
:100a10007fb530f480060d461c463fd1002b3dd0fb
:100a20002846214901aafff743ff012805d1019b70
:100a300003f1c8023a2a14d8666028461b4903ab62
:100a400002aafff735ff022828d16422029b5343f4
:100a5000039a9b1a03f5fa62312a0ed80023a36089
:100a60001ce003f12c022c2a02d861236360e4e726
:100a70008d33602b88bfff23f8e703f59671b1f53e
:100a8000967f01d82223eae740f2716103f29e7358
:100a90008b4207d83223b2fbf3f2a2604ff0ff3053
:100aa00004b070bdff23dae707ee060821ee060862
:100ab0000246b2f5800f13b508461c4662d1002be2
:100ac00060d06a46334901abfff7f2fe022859d1e4
:100ad0002378032b28d006d8013b012b1cd94ff0db
:100ae000004363601ee0053b022bf8d8009b632b9c
:100af0001dbf612253431f22ff2318bf93fbf2f354
:100b00006360019b632b1dbf222253430722ff23f7
:100b100018bf93fbf2f305e0009b632b18bf5b004b
:100b20006360019ba3602de0dde90031632905d1fd
:100b3000ff22632ba26029d1626023e00622c1f16b
:100b40000701514307312c29c8bf2c21632ba16019
:100b500016d032224a43fa2101fb03220e4ba2f5a2
:100b60005652043a9a4207db0c4b9a4206da642347
:100b700092fbf3f27932dfe70022dde76022dbe768
:100b8000ff2363604ff0ff3002b010bd5a00033204
:100b9000d2e700bf3bee0608bdd0ffffd9f5ffff4f
:100ba000024610b5b2f5800f08461c468ab018d12f
:100bb000bbb109ab029308ab019307ab00930b49a0
:100bc00006ab05aafff774fe05280ad1079a069b13
:100bd000120442ea0362099b1a43089b42ea032279
:100be00022604ff0ff300ab010bd00bf49ee06088a
:100bf00010b50446b4f5800f08461a4603d113b168
:100c00000249fff755fe4ff0ff3010bd64ee0608b5
:100c1000024610b5b2f5800f08461c4686b016d1c4
:100c2000abb105ab019304ab00930b4903ab02aa34
:100c3000fff73efe04280ad1039a029b120442eaff
:100c40000362059b1a43049b42ea032222604ff091
:100c5000ff3006b010bd00bf79ee060810b504469f
:100c6000b4f5800f08461a4603d113b10249fff7c5
:100c70001ffe4ff0ff3010bd95ee0608024610b57e
:100c8000b2f5800f08461c4686b015d1a3b10023eb
:100c90004ff0ff320593cde9032305ab00930849dc
:100ca00004ab03aafff704fe032805d1039b2360ce
:100cb000049b6360059ba3604ff0ff3006b010bd3e
:100cc000a2ee060810b50446b4f5800f08461a4691
:100cd00003d113b10249fff7ebfd4ff0ff3010bd18
:100ce000b6ee0608b0f5800f73b50e4614461d46e5
:100cf0001cd1dbb16b4630460f4901aafff7d8fd86
:100d0000022817d1009aa31a334413f8023c222b6d
:100d100010d1331913f8013c222b0bd1013ca41a3a
:100d20002868311909f012fb009b6b604ff0ff300f
:100d300002b070bd0023f8e7c3ee06082de9f047c6
:100d4000b0f5800f8a46904699468eb040d1002b70
:100d50003ed00bab07af09ae0dad0cac00935046c7
:100d6000334904970396029501940aab08aafff74a
:100d70009ffd072831d1079ba8eb0302524412f8cc
:100d8000042c222a29d10aeb080212f8032c222a69
:100d900023d1d9f80c20a8eb03019a42a8bf1a4628
:100da00003395144d9f8000009f0d0fa0b9b0a9a94
:100db0001b0443ea02630d9a13430c9a43ea02238d
:100dc000c9f80430099bc9f80830079bc9f80c30f2
:100dd0004ff0ff300eb0bde8f0870bab00935046ec
:100de000cde90367cde9014512490aab08aafff72f
:100df0005ffd072819d1079ba8eb0302524412f8a4
:100e0000022c222a11d10aeb080212f8012c222a04
:100e10000bd1d9f80c2008f1ff38a8eb03089a424f
:100e2000a8bf1a460aeb0801bce70023cee700bfc3
:100e3000d4ee0608d6ee060808b5024b1b685b6abe
:100e4000019308bda001040810b5d0f8483304464a
:100e50000bb11b6998470323002084f8a23010bd12
:100e600008b590f8a23080f8a330042380f8a230af
:100e7000d0f848330bb1db689847002008bd08b5af
:100e8000d0f84433db6903b19847002008bd08b5aa
:100e9000d0f844331b6a9847002008bd08b5d0f845
:100ea00044335b6a9847002008bd0000f8b5074648
:100eb0000e4600250d4b1c6854b901220c4b1a70cc
:100ec00025b90c4b1b680bb1304698472846f8bd36
:100ed000637943b1a3681b682bb13246214638467b
:100ee00098470544edb22468e6e700bf2cc801200e
:100ef00038c8012034c80120f8b5002507460e4641
:100f00000c4b1d700c4b1c6834b90c4b1b680bb19f
:100f1000204698472846f8bd637943b1a3685b68cb
:100f20002bb132462146384698470544edb2246835
:100f3000eae700bf38c801202cc8012034c80120ce
:100f400070b506460025084b1c680cb9284670bdd4
:100f500063793bb1a368db6823b1214630469847eb
:100f60000544edb22468f0e72cc8012070b50646b0
:100f70000025084b1c680cb9284670bd63793bb14d
:100f8000a3681b6923b12146304698470544edb25a
:100f90002468f0e72cc80120f8b5012607460d4665
:100fa00001f07f039e400b4b1c680cb9022010e03f
:100fb00063790bb92468f8e7a3685b69002bf9d063
:100fc00062691642f6d02a462146384698470028dc
:100fd000f0d1f8bd2cc80120f8b54ff48036074693
:100fe0000d4601f07f039e400b4b1c680cb902209c
:100ff00010e063790bb92468f8e7a3689b69002bbc
:10100000f9d062691642f6d02a46214638469847fa
:101010000028f0d1f8bd00bf2cc801202de9f04f09
:101020000025dff8e090384ed9f800300128336011
:10103000d9f804308346736099f80830aa463372b1
:1010400008bf02234ff009082c462f4608bf7371d2
:101050002e4b87b001912e4a1968b9b915b91546ba
:101060000134e4b22b4ad9f8093027482b60536881
:1010700008f109086b60137a34712b72019ba6f892
:101080000280a3f8008007b0bde8f08f931bc3f582
:101090008073adf816308b68cf749b6a9c463bb169
:1010a00058460df11603cde90212e047dde90212c0
:1010b000bdf81630abb1887c91f805c00744ffb28b
:1010c000bcf1000f0dd0d1f814c01cea0a0f08d1f2
:1010d00004449844ca604aea0c0ae4b21a441ffa6b
:1010e00088f8022f0cd1931bc3f580739bb2082b99
:1010f000adf8163004d9032701341546e4b209329d
:101100000968aae732fc060880bf01202cc801202c
:1011100089bf01203bfc060838b504460d46fef7a2
:1011200097ff064b1b6823b1002cfbd0a342f9d1db
:101130005d71bde83840fef793bf00bf2cc80120a9
:101140002de9f8431b4c8046894617462646fef794
:101150007fff00232579c5b91c2253434ff0ff328e
:10116000f418626140f201126582c4f80880c4f884
:101170001890f550e560104da280296881b92c6067
:101180000e4a13680133136005e00133042b04f1a8
:101190001c04dfd10024fef763ff2046bde8f8837e
:1011a0002fb90b4609680029fbd11c60e8e72c60c9
:1011b000f150e5e7bcc701202cc8012030c8012050
:1011c000f8b5144642228e691a8002220d468a74ae
:1011d0001a882046264909f0b9f8eb7ca370a3725f
:1011e000eb7c0a33e371eb7c0a332374eb7c013331
:1011f000a376eb7c84f82230013384f82330ef7c33
:101200005fb9fef725ff1b4b1b685bbbfef728ff92
:10121000012f0cbf83238a23b3730121b37b2046a4
:1012200084f82630eb7c013384f82d30eb7c0a33d4
:1012300084f83330737b84f83630327b84f83d2079
:10124000b37b02f07f0203f07f0301fa02f201fa9e
:1012500003f31343727b02f07f02914043ea0143a0
:101260006b61f8bd5a79002aced00137ffb2cbe7c7
:101270006cfd06082cc8012070b5144601262022fa
:101280000d461a808e741a882046074909f05ef8c8
:10129000eb7c2046a370054b1b7b237503f07f037b
:1012a0009e406e6170bd00bfaefd0608a4bc01206b
:1012b0000023c0e90011c0e902328b781a440261b0
:1012c00091f903301a4442610878003818bf0120b0
:1012d000704738b5416803460a78002a34d001f1d6
:1012e0000a0242608c7a2cb9c2680168fff7e0fffd
:1012f000204638bd48780a7900f03005302d09d1f4
:10130000cc7a04f03004302c18d10c7bff2c15d192
:101310000120eee700f0f004202c0fd14879424381
:1013200015b9986801309860087b10441a69024426
:101330001a6191f90d100a445a61e9e700f0c00002
:10134000802808bf0422ebe71046d2e7f8b506680c
:101350000446154626b90120e2682a44e260f8bd39
:10136000c368876813449f4201d20020f7e7b04763
:101370000028f0d1f9e710b543780a4613f03001a0
:10138000044686b03fd0202990f9030005d160b112
:10139000105cb0fa80f0400907e03029f8d010293d
:1013a00005d120b1105c80f0010006b010bd13f033
:1013b000c00f0dd103f00f03052b01d11078e8e722
:1013c000062bfbd0092b01d12079e2e7072b05d0b2
:1013d00023791344934212d10120e6e76846d4f8fa
:1013e0000610fff765ff0028f6d004990198fff773
:1013f000c2ff0028d9d06846fff76bfff3e712f869
:10140000011b0029e6d00020cfe7802a7fb51146d6
:1014100073f10002044607d201228df8041001a9dd
:10142000fff794ff04b070bd002201ae61f07f00b1
:10143000cdb2c90941ea4361db0951ea030c06f860
:10144000010b104602f10102f0d104ab034405f098
:101450007f0103f80c1c204601a9e1e7134641ea8d
:10146000c2025b0ffff7d1bf4a780b4602f00f02b2
:10147000092a10d8dfe802f00d0d0d05090b0b0b42
:101480000f0b05211a78fff7e9bf0121fae70221c6
:10149000f8e70021f6e70020704700002de9f0474b
:1014a00015464a78064602f0c003402b0c4686b02b
:1014b00000f0d28053061bd46a4b02f00f0153f8a0
:1014c000217094f90330bbb12b44627802f0c00064
:1014d000802805d12d68291e18bf01218df807101d
:1014e00002f03001202936d019d8f9b110292dd0b9
:1014f000002006b0bde8f08702f03002102a0ad1c1
:1015000029462046fff737ff80f001008df80700dd
:101510000df10703d9e701238df80730f8e73029eb
:10152000e6d11a7823789a4213d101e0002ddfd05a
:1015300021463046fff798ff0028d9d02a46214699
:1015400030463b4606b0bde8f04718471b78002bf5
:10155000eed10120cde794f9031059b393f8008040
:10156000b8f1000ff5d0802802d063799845bfd834
:1015700002f00f02042a4cd8022130462278fff7ed
:101580006dff0028b4d0637803f00f03032b14d150
:101590004fea88094a4600233046fff736ff002805
:1015a000a6d0316829bb4a46304606b0bde8f047b0
:1015b000fff7ccbe94f80580d2e7042b02d14feaa6
:1015c000c809e7e71022002102a808f0e7feaa46b2
:1015d0004ff000095246214602a8b847002888d09b
:1015e000237909f10109c8459a44f3d8ddf814902c
:1015f000d0e74ff000092a4621463046b847002878
:101600003ff476af237909f10109c8451d44f2d8aa
:101610009fe74ff0000921463046fff725ff0028dd
:101620003ff466af637803f0c002802a12d103f062
:101630000f03053b012b0dd82a6821463046b847d9
:1016400000283ff455af237909f10109c8451d442d
:10165000e1d87ee72a46f0e72b68002b3ff479af0c
:101660002a1d6fe778fc060830b587b00546684646
:10167000fff71efe10b9012007b030bd0199049a92
:101680004b7803f00f03082b1cd114681cb9684673
:10169000fff71ffeeee723685a682ab12146284665
:1016a000904768b90020e7e7996828464b7803f02f
:1016b000c003802b14bf6268221dfff7effef0e726
:1016c000a468e3e72846fff7e9fe0028dfd1e9e751
:1016d0007fb50d461646002110220446684608f0e4
:1016e0005dfe324629466846fff7beff08b1039b00
:1016f000236004b070bd70b5002304460d46164645
:10170000fff783fe30b1324629462046bde87040df
:10171000fff71cbe70bd2de9ff410e4617460021a4
:1017200010220446684608f039fe3a4631466846bb
:10173000fff79aff48b34ff00008039d43462a463f
:101740002046fff762fe00b3216831b92a462046e1
:10175000fff7fcfd04b0bde8f081e268a3682a440d
:101760009a4212d863683a46009168463146cde9fc
:101770000135cdf80c80fff777ff039ae368aa42a2
:101780001344e360019b6360e4d00020e2e713466a
:101790000a79012a04d193f90020d317fff735be47
:1017a000022a02d1b3f90020f7e7042a01d11a680e
:1017b000f3e7082a02d1d3e90023efe700207047be
:1017c00013460a79012a03d11a780023fff71dbeb8
:1017d000022a01d11a88f8e7042a01d11a68f4e72d
:1017e000082a02d1d3e90023f0e7002070470b79e3
:1017f000012b0bd192f90030d917da1841eb010314
:101800000029bcbfd243db43fff7ffbd022b02d14f
:10181000b2f90030f0e7042b01d11368ece7082b94
:1018200002d1d2e90031e8e70020704707b5d2e9dc
:1018300000130a0a8df801200a0c8df802201a0afa
:101840008df800108df80520090e1a0c8df8031084
:101850008df804308df806201b0e082269468df89d
:101860000730fff773fd03b05df804fb07b513689d
:101870001a0a8df805201a0c8df8062004228df81e
:1018800004300deb02011b0e8df80730fff75efdf3
:1018900003b05df804fb30b40c460546114612b99e
:1018a00030bcfff728bf6378127813f0c00003d173
:1018b0002479531ca34202d828460131f0e730bcfa
:1018c000704710b40b79497801f0c001802908bf36
:1018d0004ff0ff33114622b100229a4201d08c5cb6
:1018e00014b910bcfff707bf0132f6e7d1f80610b4
:1018f00009b1fff710bf0846704713460a79194629
:10190000fff7f9be30b50446154685b0a9b902689f
:10191000114b9a4211d0102d06d82a46694620460e
:10192000fff7f0ff05b030bd102269462046fff7f3
:10193000e9ff0028f6d0103dede7a368ab4201d2e5
:101940000020efe72a462046236898470028f7d072
:10195000a268521ba260e5e7ab00060810b58368d9
:1019600004460bb9002010bd0122036898470028e7
:10197000f8d0a368013ba360f5e72de9f341884661
:101980000df1070107461446fff7e8ff064658b970
:10199000bb6823b10026304602b0bde8f081002cc0
:1019a000f8d001232370f6e79df907309df8074032
:1019b000002b21da072504f07f0438460df10701da
:1019c000fff7ccff0028e5d09df807301f2d03f06e
:1019d0007f0214d93f2d34bfff2101211ab1002c01
:1019e000d8da9942d6d11a0605f10705e5d4232d98
:1019f00002d113f0700fcdd1c8f80040cbe7aa4058
:101a00001443f0e72de9f341002580460e462f46aa
:101a10002c4640460df10701fff7a0ffc0b19df82d
:101a200007c0a4f120030cf07f02c4f1200102fae8
:101a300003f322fa01f10b43a2401cf0800f45eaa8
:101a4000020547ea030704f1070404d1c6e9005779
:101a500002b0bde8f081462cdbd10020f8e713b5d9
:101a60000446052926d8dfe801f0030f17252523b2
:101a70000122204601a9fff745ff18b19df9043066
:101a8000002bf5db02b010bd08220021204602b079
:101a9000bde81040fff736bf002201a9fff76dff38
:101aa0000028efd000212046019afff72bffe9e73d
:101ab0000422eae70020e5e737b50d46002201a938
:101ac0000446fff75aff034618b90023184603b02f
:101ad00030bd94e8070085e8070001998a42f4d3f5
:101ae000a960a268521aa260f0e738b58a68054674
:101af0000c461ab9012063686b6038bd002120468e
:101b0000fff700ff0028f5d1f7e7000009480a4970
:101b100008b5884205d0094a824202d0121a08f05c
:101b200015fc0748074a0021121a08f037fc06483e
:101b300008bd00bf00bc0120b855070878bf0120d0
:101b400078bf012064c9012000bc01207fb50a468e
:101b500001466846fff7acfb30b1684600f0e6f896
:101b60006846fff7b6fbf7e707b05df804fb000037
:101b70002de9f0430b46516815464a78064612f0a7
:101b8000c00487b003d0402c73d000240ce002f0d6
:101b90000f0c644f02f03002202a57f82c702cd022
:101ba00006d8d2b1102a1ed0204607b0bde8f08377
:101bb000302af9d16b690a78bcf1070f1a7018d175
:101bc0006b6821461a79286908f0e8fb6b68296977
:101bd000d3f80600fff7baff0be02a693b4607b0cf
:101be000bde8f0431847d5e9042393421cbf012206
:101bf0001a702a6969683046f0e7022bd5f814801c
:101c000029d1bcf1040f26d803a9fff755ff0446dc
:101c10000028bad0059b2bb1696898f800304a7942
:101c20009a4209d8059b002bafd1304603a9fff794
:101c30005cff0028b8d1a8e708792a6903fb0022d5
:101c400003a8b84728b198f80030013388f800306d
:101c5000e0e70446e6e798f800300879591c2a695d
:101c600088f8001069684c799c428ed903fb0022e9
:101c7000c1e72f690fb13a6832b91946304607b04b
:101c8000bde8f043fff7ebbe022b07f1040816d1c5
:101c900003a9fff711ff00283ff477af42463b68e6
:101ca000696803a8984700283ff46faf059b002b95
:101cb000f4d1304603a9fff718ff044674e7012b5f
:101cc00021d0052b27d0002b7ff45faf1c46e946bf
:101cd00001340b2c3ff459af012249463046fff73f
:101ce00011fe00283ff451af19f9013b002befdb47
:101cf0000d4bcdf810d00393059442463b686968bc
:101d000003a89847d9e708226946fff7fbfd082496
:101d10000028edd139e704226946fff7f3fd0424da
:101d2000f6e700bf50fc0608ab00060830b5426875
:101d30000346527887b002f00f0108291dd1002513
:101d400003691c680cb907b030bd23682573996816
:101d500062686846fff7acfa63686846049304f16a
:101d60000c0305934b7803f0c003802b04bf231da5
:101d70000493fff7dbffa468e4e712f0c0012ad167
:101d800002f03000102814d1d3e90402824200d0be
:101d900011705a6818695378d2f8064003f00f039f
:101da000072b0bd10146204607b0bde83040fff7b6
:101db000cdbe9006edd55b691970c4e72146127956
:101dc00024b107b0bde8304008f0c0ba07b0bde8a4
:101dd000304008f0e3ba8029b5d1002100699206ad
:101de0000160b0d5e7e72de9f04f002491b005463a
:101df00004a8cde902448df80640a146fff758fa41
:101e0000a346ab68d3b924b162799df806309a42f3
:101e100052d1dde9053404a85d78fff75afa0028ad
:101e2000f7d115f0300f03d1059b1b7803b10134b6
:101e3000402c7bd8002c7ad101203ee028460df1c1
:101e400007020aa98df807b0fff797fd20b10a9f96
:101e50003fb901238df807309df80730002bd2d110
:101e60002ae0ddf814a04fead70807f00707059b22
:101e70001a78904504d15a7802f00f01082979d1d7
:101e800004a8fff726fa059eb245f0d1c1450dd84a
:101e9000059a537803f00f03082b4fd004a8fff7df
:101ea00018fa059b9e42f3d14ff0ff393946284678
:101eb000fff7d5fd0028a4d1002011b0bde8f08fb8
:101ec00099680b78984553d172680aa8fff7f0f922
:101ed000736828460e9306f10c030f934b780aaaf9
:101ee00003f0c003802b04bf331d0e934ff001039a
:101ef00039463373fff73cfe38e051f8040b0130ec
:101f0000dad101329342f8d114f01f0494d04ff08b
:101f1000ff3010aa02eb8303c4f1200420fa04f47a
:101f200053f8380c231a58425841c6e7402400227f
:101f3000630902a9e6e79a45b8d062e792f80090f3
:101f4000c145b3d8089bd5f808a01e68ab68002e21
:101f5000f1d09a457ff455af33681a689446002a49
:101f6000aed03b46424631462846e0470028a3d043
:101f7000b668ebe702f03002202a11d1dde9082132
:101f800091420dd19c4207d024b161799df8062081
:101f9000914291d18df806b01c460df106020992ce
:101fa0005b7813f0300f10d1069b3f2b0dd85a09e8
:101fb00010a901eb8202012103f01f0301fa03f3d0
:101fc00052f8381c0b4342f8383c3946284604aadc
:101fd000fff7cefd6ee737b50d4669461446fff7ad
:101fe00011fd30b1dde900122b79082b03d1c4e9d2
:101ff000001203b030bd042b4feae17009d10b464b
:1020000002462160824208bf8b420cbf01200020a3
:10201000efe7022b03d10bb22380da17f2e7012b93
:1020200002d14bb22370f8e70020e2e737b50d4646
:1020300069461446fff7e6fc70b12b79082b0dd1e9
:10204000dde90032c4e90032dde90001914208bf58
:1020500098420cbf0120002003b030bd042b03d1f7
:10206000009b23600022efe7022b03d1009b23801b
:102070009bb2f7e7012b04d1009b237003f0ff0311
:10208000f0e70020e8e773b50e4669461546fff70e
:10209000b9fc78b1dde900245308d207327943ea6c
:1020a000c4734fea540444bfdb43e443082a03d11a
:1020b000c5e9003402b070bd042a09d11a462b606c
:1020c000d917a14208bf9a420cbf01200020f1e7b6
:1020d000022a03d11ab22a80d117f2e7012a02d1cb
:1020e0005ab22a70f8e70020e4e713b51446042238
:1020f0000deb0201fff706fc08b1019b236002b063
:1021000010bd13b5144669460822fff7fbfb18b152
:10211000dde90023c4e9002302b010bd73b50d460c
:10212000144601a900220646fff727fc88b1019a50
:10213000ff2a10d86b78511c03f0c003802b0ad003
:102140002b798b4207d32146304601f8012bfff74c
:10215000d9fb02b070bd0020fbe7f7b50e4615466f
:1021600001a900220746fff708fc98b1019a002454
:10217000511c04d2737803f0c003802b01d1204698
:1021800008e033798b42fad329463846fff7bafb89
:10219000019bec5403b0f0bdf0b585b00d46d1f80d
:1021a000067001a906461446fff786fcb0b1d5f8c3
:1021b00006309bb16b7803f03003202b03d121460e
:1021c0003846fff7c3fc2246394601a8fff70bfe4d
:1021d00001a904463046fff788fc00b900242046d8
:1021e00005b0f0bdf7b50f46154601a90022064619
:1021f000fff7c3fb044638b10199ff290fd83a799c
:1022000029b9284608f0caf8204603b0f0bd8a4232
:1022100005d129463046fff775fb0446f4e7002454
:10222000f2e70121102007f0bdbe01210c2007f0cc
:10223000b9be00001fb58b88042b06d1ca880b4994
:1022400005f058fd002004b010bd052b0bd1002473
:102250008b78ca88022b17bfcde901440449adf839
:102260000c4001a9ece70220ede700bfa0fc060846
:10227000c8fc060830b44ef6c1640d880346a5427a
:102280000a4605d18c88052c02d130bcfff7d2bf9d
:102290000c49096811b9084630bc704748790028d4
:1022a000f7d09488cd7cac42f3d3887c2844844218
:1022b000efda88688468002cebd01846234630bcdf
:1022c000184700bf2cc8012070b5044668b1437898
:1022d000ee2b0ad18388042b07d143882bb9bde8a4
:1022e000704001464348fff7a5bf434b1b6833b31b
:1022f000002c60d02278414d2a7062786a70628822
:102300006a80a288aa80e288ea80e288002a49d00e
:1023100094f9001000293a4923da3a4e412a34bf91
:10232000324600220120aa60374a08702846116808
:102330009847044618b9a968ea8811b952b102242d
:102340000de0b14206d0531e3f2b03d8304607f0b4
:10235000fdffae60ea88a968264805f0cbfc204660
:1023600070bd0220402a08700dd8264aaa60e38872
:1023700003212048002480f8a110c0e98233002105
:1023800005f0c4fcebe700261f4a28461168ae6042
:102390009847aa68002ad2d0e388e9889942ced328
:1023a000eb80e5e7aa60184a28461168984704467a
:1023b000002cd4d0c3e70029c1d0114d2a78002abf
:1023c000bdd02a78022a09d10f4a0c4811689847d3
:1023d000044600230d4a2b701360e9e72b78012b8c
:1023e000d8b2f6d10a4b1b68002bf2d0094a11680b
:1023f0009847eee79cc101203cc50120f0c40120b4
:1024000098c10120fcc4012040c5012094c10120d5
:1024100044c5012048c5012005f086bb05f084bbfa
:1024200070b505460f4b104e1c68337803b17cb96c
:102430000e4b1b7853b10e4b1a6801321a601a68a2
:1024400047f22f539a4201d905f06efb002070bd70
:1024500063792bb1a368db6913b1214628469847fd
:102460002468e2e72cc8012038c8012098c1012067
:1024700094c10120044b1b782bb1044b1a6953689b
:102480006ff341035360704790c101209cc101204c
:10249000074b1b785bb107480269536843f002039e
:1024a0005360054b1b6813b100215b6818477047e8
:1024b00090c101209cc101208cc1012070b50c2469
:1024c0004443084d2b5d2e195bb1fff7e1ff7068a7
:1024d0000021fef721fe00232b55bde87040fff7d9
:1024e000c9bf70bd0cc9012038b5104d2c6824f04f
:1024f0007f4424f0ff04acb9fff7caff0c4b1b6804
:10250000032b05d8224621460a48fef719fe044649
:1025100001236b70ab786c600133ab70bde8384061
:10252000fff7a8bfab780133ab7038bd3cc80120c2
:1025300030c80120bcbc012070b5154d6b782bb3a1
:10254000ac78013ce4b2ac7004bbfff7a1ff6e684d
:10255000fdf77efd0f4a13685bb1a6b19e4212d112
:1025600000233371336864b123600b4a1368013b65
:102570001360fdf775fd00236b70bde87040fff739
:1025800079bf1360f1e71c461b68e5e770bd00bf2b
:102590003cc801202cc8012030c8012010b5084bd0
:1025a0000c46587850b1fff773ff002c14bfb222cd
:1025b0007122044b01209a82fff75cff10bd00bf1f
:1025c0003cc80120a4bc012010b40948134690f86f
:1025d000a220032a09d1074ca27d32b10122e27563
:1025e0000a46217b10bc05f05bbb10bc704700bfe6
:1025f0009cc10120a4bc0120084608b51946c37c33
:102600000a339a4206d18369186e08b105f06efa52
:10261000024801e00020088008bd00bf80c0012002
:1026200008b5024805f062fa014808bdf8ee060850
:1026300080c0012008b5024805f058fa014808bddd
:1026400001ef060880c00120f0b500248fb01d22e4
:102650000e4606a82146059407f0a0fe102101a809
:10266000fdf706fd05ad0146284601aba14205d1a7
:10267000314605f03bfa0d480fb0f0bd13f8012bc1
:1026800001344fea121c0cf13007392f88bf0cf1ce
:10269000570702f00f0205f8027b02f13007392fcd
:1026a00088bf02f1570705f8017cdfe780c00120f1
:1026b00008b5024805f01afa014808bd0aef0608f5
:1026c00080c0012008b5024805f010fa014808bd95
:1026d000b5fb060880c00120ee292de9f843074626
:1026e0000e46144604d1122314481380bde8f88323
:1026f000092905d11248114605f0f8f91148f5e706
:10270000114bdff848901d6899f8003003b115b9f6
:1027100000202080eae76b790bb92d68f4e7ab68fd
:10272000d3f82c80b8f1000ff7d023463246294663
:102730003846c0470028f0d0d8e700bf5afd060849
:1027400014ef060880c001202cc8012038c80120e1
:102750000f2a194608b504d1034805f0c7f9034804
:1027600008bd00201880fbe72fef060880c001207d
:10277000f0b5a3b0134690f8ac2104460d4600af67
:102780005abb0a4607f1080080217b60fef754fb24
:10279000002808db7f2809dc236802469b68204666
:1027a00007f1080198478c37bd46f0bd00f10803da
:1027b00023f007036e46adeb030d411c2a46684625
:1027c0007b68fef739fb002805db23680246694673
:1027d00020469b689847b546e5e70020e3e7000000
:1027e00037b51c4630f480030d460fd174b128462e
:1027f0000f4909f0c7fe48b128460e4901aafef765
:1028000057f8012806d12369032b0bdd4ff0ff3069
:1028100003b030bd2846084901aafef749f801284f
:10282000f4d1f0e75a1c2261019a44f82320ede725
:102830004def06085aef06085cef060808b505f0ec
:1028400049f9002008bd000013b504460c4b019364
:1028500005f040f9062c11d814200a4b00fb043077
:10286000d0f84c31013309d090f85441e4b201a8ba
:1028700005f086fb84f0010002b010bd0024f6e7ed
:10288000b8c701208cc5012070b5b0f5800f0e4689
:102890001c4688b01ed1ebb10021142203a802917e
:1028a00007f07cfd0022002302adc4e9002330467e
:1028b0002a460a490195fdf7fbff01280ad10a22a1
:1028c000284601a90af046f8019b5b1b002bc8bff4
:1028d000c4e900014ff0ff3008b070bd6eef06088c
:1028e000024670b508461c467ab973b103f15b0520
:1028f0002a461649fdf7dcff0128064605d1284681
:10290000134909f072fe18b126704ff0ff3070bd08
:102910002846104909f069fe10b104232370f4e73a
:1029200028460d4909f061fe08b10523f6e728465f
:102930000a4909f05afe08b10723efe7284608497b
:1029400009f053fe0028e0d00823e7e787ef0608e8
:1029500090ef06089aef0608a4ef0608aeef060807
:10296000b8ef06081fb502461c4608468bb1b2f503
:10297000800f12d16a460e49fdf79aff002808dd44
:1029800069460c4809f0b5f800280cbf0323022360
:1029900023704ff0ff3004b010bdb2f5901ff8d196
:1029a000054909f022fe0028f3d00123f0e700bf1b
:1029b000c2ef0608d5ef0608dbef0608b0f5800f7a
:1029c00038b50d461c460dd163b10023074823706e
:1029d00009f0d0fd29460246044809f0d3fd08b9a4
:1029e000012323704ff0ff3038bd00bff8ef060819
:1029f000024630b5b2f5800f08461c4687b034d188
:102a0000002b32d0002363220493cde902234ff040
:102a1000ff3304ad059302ab01931649009503ab58
:102a200005aafdf745ff00281fdd059b0128e3638c
:102a30001bd00421284609f0ccfd637c02280cbf82
:102a400043f0010303f0fe03637403a807f0a6fa42
:102a50006082284607f0a2fa9df80830a082092b70
:102a60008ebf0023044ad35c23704ff0ff3007b0c1
:102a700030bd00bf05f0060844fc0608f0b5054669
:102a800035f4800508461c468fb030d12b2107f065
:102a90003ffc064658b32822294604a806af07f093
:102aa0007dfc30461449009704ab03aafdf700fff4
:102ab00003281cd1039b012b19d104a809f05afd4e
:102ac0000eab184400f8295c384609f053fd0eabf4
:102ad0001844234600f8215c04aa0ead144603cc2a
:102ae000ac4218605960224603f10803f6d14ff05a
:102af000ff300fb0f0bd00bf29f0060808b505f0a3
:102b000043fa80f00100c0b2404208bd08b504f0ad
:102b10008dfd80f00100c0b2404208bd08b50549f6
:102b2000406808f0e6ff06f03ffd80f00100c0b20b
:102b3000404208bdb5fb060808b506f0d7fa80f09c
:102b40000100c0b2404208bd08b506f083fa18b1d2
:102b5000fdf730fd002008bd4ff0ff30fbe700001f
:102b600038b5114d044695f843300bb905f00cfa11
:102b700010220e4904f1170009f018fd15220c4926
:102b8000a01c09f013fd23882b2b0ad995f84020af
:102b9000442ba26205d91922064904f12c0009f040
:102ba00005fd002038bd00bf8cc50120f4c5012003
:102bb000cfc5012048c6012010b5154b044693f837
:102bc000403086b0082b1fd0684606f09dfd684651
:102bd00005f09eff20b94ff0ff30606006b010bdd9
:102be000019b029a6360a36900209b1aa360039a69
:102bf000e3699b1ae360049a236a9b1a2361059a8e
:102c0000636a9b1a6361e9e74ff0ff30e6e700bfb4
:102c10008cc501202de9f047234b044693f8403042
:102c200086b0082b3dd0684606f06efd684605f07c
:102c30006fff28b94ff0ff30606006b0bde8f08745
:102c4000ddf80880a268a669019b42449642e569c6
:102c5000ddf80ce0206addf810c0616a059f636052
:102c60000ddce3680eeb0309a94508db23690cebd7
:102c7000030a824503db63693b4499420cdda6eb02
:102c80000806a5eb0e05a0eb0c00c91ba660e560cd
:102c9000206161610020d0e7c4e90629c4e908a3e6
:102ca000f8e74ff0ff30c8e78cc5012008b5074ba7
:102cb00093f84030082b06d006f096fc80f0010017
:102cc000c0b2404208bd4ff0ff30fbe78cc5012089
:102cd00008b5074b93f84030082b06d006f0ccfc23
:102ce00080f00100c0b2404208bd4ff0ff30fbe76a
:102cf0008cc5012010b4019c0b466168648809ba38
:102d000064ba0192a2b210bc06f018bb2de9ff41d3
:102d10000546ddf830800e46414617460a9c06f00f
:102d2000f7fb284606f082f800281adb50ea080074
:102d300017d033462846009703aa02a906f0acf83c
:102d400000280edd02212180bdf80c10029bbdf889
:102d5000082049ba52ba6180190e1b0c21716371a7
:102d6000e28004b0bde8f0811fb50024cde9024443
:102d7000079c0194069c0094fff7c8ff04b010bda7
:102d8000901f194610b518bf012005f0affb04468f
:102d9000002106f0bdfb204610bd08b506f026fa5e
:102da00080f00100c0b208bd07b530b103686846c5
:102db000da17cde9003207f0b9f903b05df804fb8a
:102dc00008b507f0cbfb08bd38b504460d46002911
:102dd0003bd190f8a130032b1ad1d0f80822d0f8bb
:102de000f4319a4216d9c178d21a012908bfd0f815
:102df000f811c0f8082204bfc918c0f8f8119342ae
:102e000028bf13460021d0f8f8219bb204f07effc2
:102e1000002038bdd0f848339bb1db698bb190f806
:102e2000a220032a0dd101212846984748b1d4f8a1
:102e300044331b692bb194f8a220032a01d1204608
:102e40009847204604f047ffe2e7d0f844339b69f7
:102e5000002bddd090f8a220032ad9d19847d7e7dc
:102e6000002310b504461946402204f0f3ff002366
:102e700040228021204604f0edff012384f8a23097
:102e8000d4f8483313b15b68a0789847002010bd90
:102e900010b5054c03231022217b04f0dbff00203a
:102ea0000123e075a37510bda4bc012010b5034c2f
:102eb000217b04f0a6ff0020a07510bda4bc01205a
:102ec00038b58c69054694f84a3013b1002384f86c
:102ed0004a3094f84b30abb194f849301bb12846d6
:102ee000217b05f035f82846217b04f08aff617bc1
:102ef000284604f086ffa17b237b8b4202d0284624
:102f000004f07fff94f84a2000230ab184f84a3085
:102f1000228b84f8493084f84830e361236262628e
:102f2000ff22236384f84b3063636365e363e264e9
:102f300084f85830002038bd70b505468c69fff71d
:102f4000bfff022340222846217b04f083ff022397
:102f5000617b4022284604f07dffa17b237b8b42ce
:102f600004d003230822284604f074ff012300261e
:102f70002846214684f84b3084f8486004f0e6fe89
:102f8000304670bd70b58c69054694f849306bb316
:102f900094f84a306bb1a36b0133a36340f6c313bb
:102fa000a26b9a4205d994f84a3013b1002384f8f1
:102fb0004a3094f84a3003f0ff0673b92846217b63
:102fc00004f0c6ff334632462846217b04f068fef3
:102fd00026636663e66384f8496094f848301bb959
:102fe0002146284604f0b2fe002070bd626be36b00
:102ff000a18d1a440023914298bf521a6263e36381
:10300000226b636b9a422cbfd31acb1a002be4d0ed
:103010000122402b84f8492028bf40230022a263cc
:10302000e363a16a626b0a44217b04f039fed4e7b2
:1030300010b5064c42f08001237b994204d104f084
:1030400087ff0020e07510bd0220fce7a4bc012032
:1030500013b58c69e26cff2a07d0236d009304f14d
:10306000400304f099fdff23e364002002b010bd8b
:1030700008b5024b1b68db6c019308bdd001040846
:1030800008b5024b1b685b6d019308bdd0010408b5
:10309000014b1868fff7f4bfb8c7012008b5024b11
:1030a0001b689b68019308bd9c01040808b5024b8e
:1030b0001b685b69019308bd9c01040810b50446b8
:1030c000fff7f4ffa368c01a10bd38b5ff23002531
:1030d00080f8bc31c0e97055c0e97355c0e9765538
:1030e00080f8c83180f8d4310446fff7dfffc4e927
:1030f000785038bd08b505f0f9ff05f0abff30b1e9
:10310000fdf758fa0348fff7e0ff002008bd4ff035
:10311000ff30fbe7c8c5012008b5024b1b681b68e0
:10312000019308bdb001040808b5024b1b689b68f9
:10313000019308bdb001040808b5024b1b681b6968
:10314000019308bdb001040813b5124b019304f0bc
:10315000c1fc114b93f839206ab193f8382052b969
:1031600001242820214683f83840fff7ddff21465f
:103170002820fff7e1ff4ff04022d2f80c3801a8d9
:1031800023f02003c2f80c3804f0fafe002002b04d
:1031900010bd00bfb8c701208cc5012010b50f2499
:1031a00001f00703c90800eb8100016a9b009c4005
:1031b00021ea04010162016a9a400a43026210bdd9
:1031c00008b590f8393093b190f838307bb10023ce
:1031d000042180f838302820fff7a6fffff79cff76
:1031e000072290f86614d0f86004fff7d7ff4ff07d
:1031f0004022d2f80c3843f02003c2f80c3808bd46
:1032000007b5074b019304f065fc0648fff7d8ffac
:1032100001a804f0b5fe002003b05df804fb00bf78
:10322000b8c701208cc5012090f8ac3110b5044618
:1032300023b90121034b044a04f020fc012384f844
:10324000ac3110bd48f00608b5fb060890f8ac316b
:1032500010b5044623b10121034b044a04f00efccf
:10326000002384f8ac3110bd7af00608b5fb0608df
:1032700010b10348fff7d8bf0148fff7e7bf00bf11
:10328000c8c501200eb403b503aa52f8041b01926d
:10329000fff76efa02b05df804eb03b07047000070
:1032a00013b50446114b019304f014fcd4f8a0317b
:1032b0008c2201330021c4f8a03104f5887007f096
:1032c0006df84ff0ff3301a8c4f81031c4f8243171
:1032d000c4f83831c4f84c31c4f86031c4f87431e2
:1032e000c4f8883104f04cfe02b010bdb8c701200c
:1032f00038b504460f4a01210f4b04f0bffb237978
:1033000042f2107513f0f70f18bf642500212a2030
:10331000fff712ff28460025fff7c0fe01212a20f3
:10332000fff70aff2046c4e92955fff7b9ffc4f8a3
:10333000b85138bdb5fb0608acf0060838b50546ef
:103340002620fcf79dfee8b9d5f8a031002b02dd60
:1033500095f89d01a8b140f24c40fff79ffe262052
:10336000fcf78efed5f8a03104463bb92846fff79e
:1033700097ff231e18bf012385f89d31201e18bf1b
:10338000012038bd0120fce70148fff7d7bf00bf8f
:10339000c8c501200023142210b500f5887002fb77
:1033a00003f404598c4204d00133072bf7d14ff0ba
:1033b000ff33184610bd000038b5044608460d46d8
:1033c00009f0d8f8122814d9224809f0d3f8214975
:1033d0000246284609f0d6f808b9032038bd1e4831
:1033e00009f0c8f81c490246284609f0cbf8002825
:1033f000f3d0204609f0bef8042808d9174809f090
:10340000b9f816490246204609f0bcf808b9002070
:10341000e4e7134809f0aef811490246204609f0e6
:10342000b1f808b90220d9e70e4809f0a3f80d4910
:103430000246204609f0a6f80028f3d00a4809f011
:1034400099f809490246204609f09cf8b0fa80f044
:103450004009c3e748ff060850ff060866ff060854
:1034600058ff06085fff06086cff0608054808b508
:1034700000f143015830fff79fff034b1870002005
:1034800008bd00bf8cc5012060c5012010b50446f1
:10349000406808b1037863b9a3680bb11b7843b9de
:1034a000e3680bb11b7823b90020fff7dfff08b1f9
:1034b000606810bd074b1a7832b9074a92f840206d
:1034c000082a04bf02221a700c221b785343034ab5
:1034d000d058eee760c501208cc5012080fe0608ab
:1034e00010b50446fff7d2ffd4e9021205f030f917
:1034f00030b1fdf757f80120fdf764f8002010bd4a
:103500004ff0ff30fbe70246c3680069181a44bf5a
:103510009368c0187047000038b5224ca2892388f0
:1035200092069bb217d59d0615d51f49081dcd687b
:10353000fff7e9ff2d1a012d2adda2880869cc6862
:10354000431ca342d2b2a8bf1b1b4c699c42fcd0b7
:103550004c6822540b61134b9a891b8810069bb24e
:1035600010d519060ed51048fcf7e0ffc26a836a31
:103570009a4201bf4ff04022d2f80c3823f080036a
:10358000c2f80c38074b1a88120748bf9b8838bd11
:103590004ff04022d2f80c3823f02003c2f80c3848
:1035a000d9e700bf004800408cc501202de9f74f46
:1035b000436b04468a469146002b4cd062b390463a
:1035c0004ff0402b00f11c030093514646460098f3
:1035d000656afff798ff2d1a6a1e002a20dcb8ebf7
:1035e0000606f2d0dbf80c38204623f08003cbf837
:1035f0000c38fcf79bffe26aa36aa8eb06089a4224
:1036000018bfdbf80c38b2441cbf43f08003cbf882
:103610000c38b8f1000fd8d1484603b0bde8f08fa0
:10362000a76a656ae069ed1bb542a8bf35469542b9
:10363000a8bf154638442a46019106f087fe636a02
:103640002f449f420199a8bfff1a761ba762294405
:10365000bdd14646c6e74ff0ff39dde7a0f13c009b
:10366000fff7a4bf2de9f04f041d85b0019020465f
:103670001546fff748ff88460146019b2046de6855
:10368000fff741ff8d42a8bf0d460027361a731e73
:103690000293002d40f3a680002300933946204674
:1036a00004f05efc824b009a53f83260002e00f06a
:1036b000c8804ff00009ca463178002900f0be806a
:1036c0000af1010b5d45c0f2b4802046fdf7b8f861
:1036d00096f800c0bcf1250f0ed196f801c0bcf1e0
:1036e000640f1cd14ff00009a0f130025ffa82fc98
:1036f000bcf1090f07d9023616f8012b824240f0bf
:10370000a080da46d8e70a230bf1010b5d4503fbe5
:103710000929c0f28e802046fdf792f8e4e7bcf15b
:10372000630f10d1d14409f10109cb4503d14ff00a
:10373000ff390236e0e70bf1010b5d4579db2046ee
:10374000fdf77ef8f1e7bcf1730f01d00136d3e746
:10375000222876d1da460bf1010b5d4569db204664
:10376000fdf76ef82228f5d10af1020b5d4560db0a
:1037700020460236fdf764f8bee70fb13a464ce04a
:10378000009a4b4b03ebc2065246756841462046f1
:1037900004f032f8054345e0baf1000f2fd00136ae
:1037a000b5421ddb2046fdf74bf800231af8030055
:1037b0000aeb03010391009318b30136b5420fdb06
:1037c0002046fdf73df80399009b0978814201d11d
:1037d0000133ebe79af800301a1a53425341e5e7f8
:1037e000029b13b14ff0ff351ce0002f4cd0c5e712
:1037f000b5f5820f52d1002fc0d104220de0002e6a
:1038000042d00c232b4a03fb0b2bdbf80850b5f5f9
:10381000e00fedd1002fb1d102224146204603f046
:10382000ebff05460198fff7cbfc284605b0bde845
:10383000f08f029b002bd5d11fb19fe7baf1000f8b
:103840009bd1009b0133052b00937ff427af4ff0f2
:10385000000bdff860903946204604f081fbd9e97f
:10386000006a06b3731e002613f8011f009303932a
:10387000002991d00136b542b2db2046fcf7e0ffcb
:10388000009b19788142efd00bf1010bbbf1140fb3
:1038900009f10c09dfd10137013dfae6002f7ff471
:1038a0006daf324672e7baf1000f7ff478afebe705
:1038b000d0000708e0ff0608a0f13c00fff7d2bee9
:1038c000f8b500254ff0ff365848fcf7b1fb584bd0
:1038d000584cc3e900659d60574b40f2014040f2ef
:1038e0000147236001f0eefea0606060384665612c
:1038f000a5612561e76001f0e5fe504b2062e061c3
:1039000004f59670e562c4e90c55a56267622587e7
:10391000e36305f0f9feff2329467c2204f1400011
:1039200084f80432c4e97f55c4e98255c4e9855559
:1039300084f8f86184f8106206f030fd29464022d0
:1039400004f1e80006f02afd29468c2204f5a67051
:1039500006f024fd032740f20113c4f84c61c4f8bb
:103960006061c4f87461c4f88861c4f89c61c4f8eb
:10397000b061c4f8c461a4f8fe60c4f80061012617
:1039800084f8e851c4e93855c4e97c55c4e9875541
:10399000c4e98975c4f82851a4f8d851c4f8dc5199
:1039a000a4f8e05184f8e251c4f84451a4f8dc30a2
:1039b000c4f8ec51c4f8e461fff7aefb0546204bb8
:1039c00031461a6b42f002021a631a6b42f004028b
:1039d0001a63d0f87c34b0f8802429201a83fff7ca
:1039e000a3fbd5f89834b5f89c2431461a832a20d5
:1039f000fff79afbd5f8b434b5f8b82431465a83aa
:103a00002b20fff791fb39462620fff78dfb0d4b4e
:103a100003f1080224332260e3630b4a0b4bc3e932
:103a20000122da6010221a80f8bd00bfb8c7012059
:103a30007cc501208cc50120b0ff0608c0ff060828
:103a40000038024074ff0608b5fb060868c501206f
:103a500000487047b5fb060808b5024b1b681b6d94
:103a6000019308bda001020808b5024b1b68db6d7d
:103a7000019308bda00102082de9f341002206468a
:103a80000d4600910120294b2949fff7edff294ff1
:103a9000274cdff8a4803544ae423dd016f8013bf8
:103aa000a3f120025e2a18d8252b06d1234b002231
:103ab00021460120fff7d8ffeee7222b01d1204b52
:103ac000f5e75c2b01d11f4bf1e700931e4b002261
:103ad00021460120fff7c8ffdee7072b01d11b4b72
:103ae000e5e7082b01d11a4be1e7092b01d1194b6e
:103af000dde70a2b01d1184bd9e70b2b01d1174b6e
:103b0000d5e70c2b01d1164bd1e70d2b01d1434644
:103b1000cde700933b46dae700220120114b044930
:103b200002b0bde8f041fff79fbf00bfbcf0060840
:103b3000c3f00608ecf00608e9f00608cbf006082a
:103b4000cef00608d1f00608d4f00608d7f0060833
:103b5000daf00608ddf00608e0f00608e3f00608f3
:103b6000e6f00608ce41070873b5d0f8e831044600
:103b7000022b0d46164614ddfff798fa0af042fdb7
:103b80000da3d3e900230af0b7fd0022cde900011f
:103b90000b4b01200b49fff767ff31462846fff723
:103ba0006bff3246294620462368db6802b0bde839
:103bb00070401847aff30080fca9f1d24d62503f2e
:103bc000f3f00608c3f0060830b50d46144b85b077
:103bd0000446039303f07eff062d1ad8142000fb41
:103be0000544d4f81031013311d00e4b00220120ce
:103bf0000d490095fff738ff4ff0ff33c4e9443318
:103c0000002384f81831c4f81c3184f820310124d1
:103c100000e0002403a804f0b3f9204605b030bd4d
:103c2000b8c7012006f10608c3f00608000000002e
:103c30002de9f04fadf29c4d059390f8ac31044660
:103c40000491079203f0ff062bb14ff0ff300df205
:103c50009c4dbde8f08f904d2b688bb1fff726fa95
:103c60008e4b1a682b68801a984209d9c4f8ec6008
:103c700084f8a5612e60fcf79dfc2046fff725fa2d
:103c8000fff714fa069023684ff488621b682046f9
:103c900016a99847d4f8e8318046022b00f10103b9
:103ca00040f3a880012b11d80120fff7f7f9059bfd
:103cb000013306d0fff7faf9069bc01a059b98421c
:103cc000c3d894f8ac31002bddd0bee710f47f03ed
:103cd00085b200f08380b3f5a00f00f08180b3f5ca
:103ce000881f7fd0b3f5901f7ed0b3f5c00f7dd075
:103cf000b3f5800f7cd06a4e6a4ab3f5401f18bff7
:103d00001646fff7d3f902960af07cfc60a3d3e9cc
:103d100000230af0f1fc0022cde90001624b0120f2
:103d20006249fff7a1fe294616a8fff7a5fe08f491
:103d30007f09b9f5800f40f0fb815d490caa0df1b8
:103d40005b00fcf7b5fd012857d10c9b00220093c6
:103d50005649584bfff788fed4f808311bb10c992f
:103d6000d4f80c01984754490eaa0df15b00fcf7fa
:103d70009ffd012840f0f480504d4c490022504beb
:103d80000095fff771fe29460ea807f0b2fe28b98c
:103d9000c4f8ec0084f8a501fcf714fc049b002b8c
:103da00082d0079b4846049d1ffa88f216a9a847af
:103db000431c7ff44cafb9f5881f00f0be81b9f504
:103dc000901f00f0bd81b9f5401f00f0bc81b9f52e
:103dd000c00f7ff469af6ff0040038e7394e90e709
:103de000394e8ee7394e8ce7394e8ae7394e88e7ef
:103df000394e86e7012b9ad856e72379082b23d032
:103e000036490caa0df15b00fcf752fd01281bd1cd
:103e10000c9b002200932549314bfff725fe94f8b7
:103e2000a531002b9fd00c9b1b4d022b0cbf0123f7
:103e3000002384f8a63129d0fff738f9174b186012
:103e400043f698232b608ee726490bab0caa0df1a5
:103e50005b00fcf72dfd022848d10c992046fff7a6
:103e600099fa05460b9b0090cde901130120002231
:103e70001d4b0e49fff7f8fd681c3ff474af14208a
:103e800000fb05450b9bc5f81c316ce70023d9e707
:103e9000fca9f1d24d62503f78c5012064c50120d4
:103ea0002bf106082bf9060833f10608c3f00608c3
:103eb00045f1060857f106080df206088044070888
:103ec0001af206082ff1060817f106081bf106087a
:103ed0001ff1060823f1060827f106086df1060810
:103ee00078f10608baf106088df1060897490bab80
:103ef0000caa0df15b00fcf7dbfc0228add0944965
:103f00000bab0caa0df15b00fcf7d2fc0228a4d08d
:103f100090490bab0caa0df15b00fcf7c9fc022821
:103f20009bd08d490caa0df15b00fcf7c1fc012868
:103f300006467ff418af0c992046fff72bfa05468a
:103f4000cde90001002285493046854bfff78cfd05
:103f5000691c3ff408af29462046fff735fe02e70b
:103f60004ff6ff734ff0ff3a0bad0aae09af0df1fc
:103f7000300b0b93cde902677a490195cdf800b07b
:103f80000dab0eaa0df15b00cdf828a0cdf824a052
:103f9000cdf834a0fcf78cfc022800f38280009559
:103fa0005b46cde9016770490eaa0df15b00fcf795
:103fb0007ffc01280546cdf834a07ff7efae6b49b2
:103fc0000ea807f096fd00286dd10c9e052e8cbf23
:103fd0004ff0ff3676b2fff769f894f9bc31c4f8b8
:103fe000c001b3421cbf84f8bc61c4f8c4010d9b7e
:103ff000bbb92379082b40f088805d490ea807f0f3
:1040000078fd20b90223c4f8b801c4f8b031d4f85f
:10401000b031022b05d100212046564b564a03f001
:104020002dfd2379082b1dd194f8a531d3b194f936
:10403000d43123f00403012b14d04d490ea807f00e
:1040400058fd064670b901464c4b20464a4a03f0db
:1040500015fdc4f8ec6084f8a561fcf7abfa2046c6
:10406000fff733f8022d3ff499ae4ff6ff720b9b2a
:10407000934218bfa4f8c230032d3ff48fae0a9bc1
:104080005a1c18bfc4f8c430042d7ff787ae9df8c2
:104090002430092b8ebf0023394ad35c84f8ac301e
:1040a0007ce6451e8be737490ea807f022fd90b944
:1040b0000c9e052e8cbf4ff0ff3676b2fef7f6ff52
:1040c00094f9c831c4f8cc01b3421cbf84f8c8616c
:1040d000c4f8d0018be726490ea807f00afd002896
:1040e0007ff45cae0c9e052e8cbf4ff0ff3676b28f
:1040f000fef7dcff94f9d431c4f8d801b3421cbff9
:1041000084f8d461c4f8dc0171e718490ea807f0ff
:10411000f0fc30b90223c4f8b0310023c4f8b83140
:1041200075e718490ea807f0e4fc0028f2d06ee706
:10413000049b002b7ff435ae3de66ff0010086e571
:104140006ff0020083e56ff0030080e5b9f1060827
:10415000c8f10608c7f10608d5f10608c3f006083d
:10416000e0f106082ff2060847f206085cf206089e
:1041700069f2060870f20608b5fb06088ff2060819
:1041800044fc060862f2060870b50c46194905465b
:10419000fff778f80022002c40f6b833114618bf1c
:1041a0004ff47a732846fff743fd421c04461fd1a3
:1041b0002b79082b1cd06b79022b19d12720fbf708
:1041c0005ffffef773ff0646fef770ff801bb0f53a
:1041d0007a6f0dd80022c82311462846fff728fd24
:1041e00004462720fbf74cff631cedd00128ebd0e1
:1041f000204670bda8f206082de9f041854b8cb031
:104200000446039303f066fcfef786ff0546d0f8ec
:104210007c34b0f8802401211a832920fef784ff22
:10422000d5f89834b5f89c2401251a8301212a2059
:10423000fef77aff29462b206571fef775ff0021f6
:104240002b20fef779ff03212620fef76dff94f85f
:104250009c319bb97048fff756f901466f48fff74c
:1042600052f96f4bcde900106e4a2946204603f003
:1042700005fc284603f0eafa84f89c516a4b0026b4
:1042800093f820203146a2f14203052b4ff0200382
:1042900088bf4ff0ff32cde90436644b98bf12b2ad
:1042a000019200931e20334604aafff7d5fb354642
:1042b00019235f1e002b40d000212920fef73cff70
:1042c0003220fef7ebfe01212920fef735ff0a2000
:1042d000fef7e4fe00212920fef72eff9620fef7d0
:1042e000ddfe01212920fef727ff6420fef7d6fe20
:1042f000236820465b68984794f8ac3103f0ff08c8
:104300001bb12046fef7a2ff454601212046fff7dc
:104310003bff023023d194f89d3113b92046fef7bc
:10432000bfff0123002684f89d31fef7bffeb74290
:10433000c4f8a400c4f8a8601ada002120463c4b57
:10434000384a03f09bfb35b32046fef76dff00258e
:1043500003a803f015fe28460cb0bde8f0812fb984
:1043600026b92046fef7c4ff0a2701263b46a0e7f0
:1043700030492046fef786ff42f2107320462e4950
:10438000221dfff755fc2379082bdcd1304603f0c2
:104390005dfa6671d7e7c8232a4629462046fff70b
:1043a00047fc26492046fef76dff42f210732a466d
:1043b00029462046fff73cfc0230c9d1204920465f
:1043c000fef760ff42f210732a4629462046fff7a7
:1043d0002ffc0230bcd11b492046fef753ff42f2ae
:1043e00010732a4629462046fff722fc0230afd13f
:1043f00015492046fef746ff42f210732a46294629
:104400002046fff715fc0230a2d16420fef746fedd
:1044100001259de7b8c70120a8c5012090c501204e
:10442000adf20608b5fb06080078ff1fdff20608ac
:1044300000f306081af30608e128060824f3060824
:104440002bf3060837f306084bf306082de9f34172
:104450000c4610b1002900f02581934b934d019338
:1044600003f038fb95f8d831d3b900252f462e46f6
:10447000a84601a803f084fdb8f1000f00f0e48025
:10448000002c00f09c80731e062b00f2cf80dfe82a
:1044900013f070009a009c00cd00b700c900cb005b
:1044a00095f8d931002be0d00121814b814a05f1eb
:1044b0003c0003f0e3fa012003f070f98046002885
:1044c000d3d07d4905f13c00fef7dcfe00227b4b9a
:1044d000114605f13c00fff7abfb0230c5d178492e
:1044e00005f13c00fef7cefe744b764905f1e8027b
:1044f00005f13c00fff79cfb0230b6d195f8403047
:10450000012b14d185f8e8306f497048fef7bafee8
:1045100042f210736e4a6f49a2f1ac00fff788fbbc
:104520000230a2d195f8e860d5e93b75a1e7082be8
:10453000ead195f8e830052b02d1062385f8e8305a
:1045400065496248fef79efe002242f21073114652
:104550005e48fff76dfb023087d1ff235f49c5e955
:104560003b335a48fef78efe42f21073584a5c49bc
:10457000d2e702232371632f17bf64234ff000405b
:10458000a7f16f005843012ea06064d1632d74d051
:10459000544b33f81530632f236171d02179fcf728
:1045a00099f8632d1fbf0723c5f10705c5eb054526
:1045b00095fbf3f508bf4ff00045e0606561002012
:1045c00002b0bde8f0810323d4e70423ff2f237159
:1045d00059d14ff00040ff2da0605dd032236b43d6
:1045e000a3f69213ff2f236159d02179fcf772f8bb
:1045f000ff2de0604cd021792069fcf7c9f849e033
:1046000006232371ff2f17bf64234ff00040a7f14b
:104610008d005843ff2da0603ed032236b43a3f59d
:10462000fa63dfe70823ece70923eae70022032e19
:1046300022710cd8dbb2012b9dd94ff00043a3604f
:1046400023610023e36063616ff06300b8e7053e18
:10465000022ef2d8d6e7632d0fd00723c5f107024b
:10466000c2eb421292fbf3f3063294db0a22c3f14f
:104670001f035343a3f5b9738de74ff000438ae757
:104680004ff000408de76423a7f179005843a2e77b
:104690004ff00040606192e74ff00043a2e74ff017
:1046a0000040a5e710488be7b8c701208cc5012062
:1046b0005bf30608b5fb06088ef30608e0930400da
:1046c0009cf30608f1290608a7f30608c8c50120cf
:1046d00074c60120b10a0608bcf30608b0f3060848
:1046e000110a0608d0ff0608f2feffff08b42de904
:1046f000f34305460e46174609ac54f8049b0e4b8f
:10470000dff838800193009403f0e4f9224649462b
:104710004046fef72df83b46324629464046fff715
:1047200087fa044601a803f02bfc204602b0bde83e
:10473000f04301b0704700bfb8c70120c8c50120d1
:1047400070b5444d064695f84030a0b0082b7ed099
:10475000414b009303f0bef995f8d841002c6bd083
:1047600095f8d941002c67d000243c4b01213c4aec
:1047700005f13c0003f082f9152221460ca80b94a8
:1047800005f00cfe30460ba9224603f04ff93449e0
:104790000ba807f0aef9002857d001a804f01affc3
:1047a00001a804f021ff00284fd01522214613a8ac
:1047b000129405f0f3fdbdf80c3023b9012212a9c3
:1047c00001a803f033f906a804f004ff06a804f0da
:1047d00053ff0446002838d00025152229461aa880
:1047e000199505f0dbfd19a906a82a4603f01ef964
:1047f0001c490ba807f07df920b912a919a807f0e8
:1048000078f9c8b10ba919a807f073f9a0b1012074
:1048100002f0c4ff044678b113490baa1348fef70f
:1048200031fd002249f6404311461048fff700fad7
:10483000023014bf00240124684603f0a1fb84f079
:104840000100c0b2404220b070bd0024f4e74ff038
:10485000ff30f8e78cc50120b8c70120c9f306086e
:10486000b5fb060880440708f8f30608c8c5012010
:10487000f7b5044600285ad0304b019303f02af9cb
:10488000012002f08bff0646b8b9002601a803f00c
:1048900077fb002e4dd0e388002b4cd02389002bd2
:1048a00049d04ff6ff7362899a4244d0e3682448a6
:1048b000013318bf002003b0f0bd22492248fef7a3
:1048c000e1fc0022214b11461f48fff7b1f90230ed
:1048d0001f4ddad11f4905f13c00fef7d3fc1b4bfd
:1048e0001d4905f1e80205f13c00fff7a1f902308e
:1048f000cbd123880f2bc8d9224605f1f40705f543
:10490000827c3b4603cb6345106051601f4602f139
:104910000802f6d10023102263702270a370e370a6
:1049200095f84030012b08bf85f8e830aee70b481a
:10493000c1e70b48bfe70248bde700bfb8c7012089
:10494000e8feffff8ef30608c8c50120e0930400cf
:104950008cc501209cf30608f1290608f2feffff32
:1049600050fbfffff7b5734c94f8d8310bb900201a
:104970002be094f8d931002bf9d094f8e83103f00a
:10498000ff07002bf3d16c4e019603f0a3f83846d5
:1049900002f004ff0546d0b90146684a04f13c0024
:1049a000674b03f06bf80123c4f8285184f8e83111
:1049b000a4f8e051fbf7fefd04f13c00fef785fb97
:1049c00001a803f0ddfa4ff0ff3003b0f0bd01a8fd
:1049d00003f0d6fafef76afbd4f8f031c01ab0f54e
:1049e0007a7f10d3019603f075f83b463a46394674
:1049f00004f13c00fff71cf9fef758fbc4f8f00186
:104a000001a803f0bdfa94f8e031002b6bd094f8c4
:104a1000e131c3b1d4f8f431002ba8d0fef746fb46
:104a2000d4f8f431c01a47f22f5398429fd9019617
:104a300003f050f8012002f0b1fe002859d101a87e
:104a400003f09efa93e7009603f044f8019603f012
:104a500041f894f8e0315bb9002501a803f090fa21
:104a60006846002d3dd103f08bfa6ff00100ace7f2
:104a7000012002f093fe07460028edd00121314bc2
:104a80002e4a314802f0faff94f8e151002de3d1ab
:104a90002e492d48fef7f6fb2a4629462c4b2a487c
:104aa000fff7c6f8421c05d1d4f8ec310133c4f845
:104ab000ec31d2e70230cfd126492348fef7e2fba2
:104ac000254a42f210732549a2f1ec00fff7b0f835
:104ad000431ce9d00230bfd101233d4684f8e131c7
:104ae000bbe703f04dfa94f8e131002b3ff43faf00
:104af00090e7fef7dbfa94f84030c4f8f401082b95
:104b00000bd117491048fef7bdfb00224ef660237b
:104b100011460d48fff78cf891e712490a48fef755
:104b2000b1fb00224ef6602311460748fff780f8dc
:104b30000d49e7e78cc50120b8c70120b5fb060881
:104b400009f4060824f40608c8c5012057f406082d
:104b500020bf020066f40608b4c60120110c060846
:104b600075f4060881f406088cf406082de9f04f68
:104b70001e46894689b019460546144604f0c8fc0d
:104b80007eb1dff890b1cdf818b002f0a3ff01209c
:104b900002f004fe78b906a803f0f2f94ff0ff37ef
:104ba00005e0284604f042f9071e00d0e9dc38464b
:104bb00009b0bde8f08f06a803f0e2f9fef776fa37
:104bc000142300276b43dff850a101900393002cbe
:104bd00070d0b4f5806fb4bf23464ff48063cdf836
:104be00014b0029302f076ff062d31d8039b0aeb36
:104bf0000308d8f84c3101332ad0002002f0cefd52
:104c000030b398f8543103f0ff06002b50d02846fb
:104c100004f00cf9031e49db029a9342a8bf134625
:104c2000002b2dddd8f84c213c493d48fef72afbee
:104c30003c4942f210733a4806aacdf81890fef7a4
:104c4000f7ff411c06d1daf8ec310133caf8ec3138
:104c500000260ae0821c0ed1079bd8f85821e41ade
:104c6000d21ac8f858211f44994405a803f088f9be
:104c7000002eacd192e70330ead102f0b3fce7e7b3
:104c8000d8f85031013309d1002325481a46194676
:104c9000fef7ceff431c5e425e41e6e7fef706faf2
:104ca000019bc01ad8f850319842edd90024dce7b6
:104cb0000646fbe7cdf818b002f00cff062d24d80d
:104cc0001420154e00fb0565d5f84c3101331cd07e
:104cd000d5f85831cbb9012002f060fda8b1d5f864
:104ce0004c21114906f13c00fef7ccfa42f2107358
:104cf0002246214606f13c00fef79aff013002bf32
:104d0000d6f8ec310133c6f8ec3106a803f038f9d7
:104d10004de700bfb8c701208cc5012098f40608f4
:104d2000c8c50120e50c0608a9f406082de9f04fd6
:104d300042f21079564c85b0564b009294f84020c0
:104d40000646082a08bf99461423884603fb0043f9
:104d5000009f0193002fdff840b103ad67ddb7f589
:104d6000806fba46cdf80cb0a8bf4ff4806a02f04d
:104d7000b1fe062e58d8019bd3f84c31013353d0e5
:104d8000012002f00bfd40b9284603f0f9f84ff07e
:104d9000ff37384605b0bde8f08f04f0f7f98346d9
:104da0000028f1d0019a5346d2f84c213b493c48a7
:104db000fef768fa00224b4611463948fef738ffe5
:104dc000431c10d1d4f8ec310133c4f8ec314ff06e
:104dd000000b284603f0d4f8bbf1000fd7d0d04425
:104de000a7eb0a07b6e7011d0ed1524641462c48f3
:104df000fef7bafe00224b4611462948fef718ff7f
:104e0000421cdfd0831ce4d00330e0d102f0eafb87
:104e100094f84030082b01d1ac2801d00b28d6d112
:104e2000284603f0adf895e7284603f0a9f8cdf839
:104e30000cb002f04ffe062e23d8142000fb0646cd
:104e4000d6f84c3101331cd0d6f85881b8f1000f98
:104e500017d1012002f0a2fc98b1d6f84c211149db
:104e60000f48fef70ffa42f21073424641460c48d3
:104e7000fef7defe013002bfd4f8ec310133c4f896
:104e8000ec31009b2846df1b03f07af881e700bf76
:104e90008cc50120c0d40100b8c70120b9f40608b0
:104ea000c8c50120a9f40608fff740bf2de9f04f5f
:104eb000af4bb04c93b00693064602f00bfe94f84d
:104ec000d8310bb9002537e194f8d931002bf9d04e
:104ed00094f84030002bf5d0012002f05ffc07462b
:104ee0000028efd0a44a0121a44b04f13c0002f0b9
:104ef000c5fd4ff0ff33a24904f13c000793fef7d4
:104f0000c1f942f210739f4907aa04f13c00fef771
:104f10008ffe0230d6d1079b012b77d194f8403019
:104f2000082b40f0838000259749c4f8e450974847
:104f3000fef7a8f900224ef6602311469348fef7cb
:104f400077fe0230bed1fef7b1f8c4f8f40103f0e9
:104f50002dfe0546002840f0ef8094f84030082be5
:104f600040f040818a498df817008848fef78af999
:104f700042f210730df1170286498448fef758fe7d
:104f800085498248fef77ef92822294608a805f0bf
:104f900005fa42f2107381497c4808aafef748fee0
:104fa00002308fd17e4908a806f0a3fd00284dd01d
:104fb0003d4600217548fff7e7f8023082d1794974
:104fc0007248fef75ff90022774b11466f48fef7f3
:104fd0002ffe02307ff476af9df81730002b40f0a3
:104fe000b280002d3fd0644b0122002e18bf334603
:104ff0006e496648fef746f9002242f210731146e8
:105000006248fef715fe02302dd05be7684904f1d7
:105010003c00fef737f90022634b114604f13c00d7
:10502000fef706fe02307ff44daf77e7614957483f
:10503000fef728f900224ef6602311465348fef78a
:10504000f7fd02307ff43eaf5b4970e74a490aa89a
:10505000002e18bf314606f04cfd0028a8d19df85f
:105060001730002ba5d100214848fff78df80230fa
:105070007ff428af4ff0ff33414944480893fef7cf
:1050800001f942f210733f49404808aafef7d0fdeb
:1050900002307ff417af089b012b40f0af80022352
:1050a00046493a48c4f82431fef7ecf8444a454be7
:1050b0004549a2f1ac00fef7bbfd02307ff402af20
:1050c000d4f82431012b00f2a780fdf7efff8146d1
:1050d0002e48fdf7faffc846dff8e8a003f066fdaa
:1050e000054658b9fdf7e2ff384ba0eb090098429e
:1050f00004d894f8e831002b00f09c8094f9f83142
:10510000032b05d10021324b1b4a204802f0b6fc8c
:1051100094f90432032b05d100212e4b164a1b486b
:1051200002f0acfc94f91032032b05d100212a4b7c
:10513000114a164802f0a2fc06a802f021ff2846f8
:1051400013b0bde8f08f254b0b4a01210f4802f048
:1051500095fc23490d48fef795f8002242f21073a2
:1051600011460a48fef764fd02307ff4abae38e723
:10517000b8c701208cc50120b5fb0608caf4060893
:10518000fcf40608f508060815f50608c8c5012050
:105190003bf50608bd29060846f506087d2a0608df
:1051a00054f5060857f5060820bf0200bbf50608af
:1051b00007f5060822f506082ff506089cf30608f1
:1051c00074c60120e0930400f1290608c0270900f5
:1051d00049f7060863f706087df7060865f506082f
:1051e000aff50608bd49be48fef74cf842f2107311
:1051f0002a462946ba48fef71bfd34e7b949b848a4
:10520000fef740f80022b84b1146b548fef710fdf6
:1052100002307ff457ae42e7b449b148fef732f8a6
:105220000022b34b1146ae48fef702fd02307ff478
:1052300049ae4ae7fdf73affa94d0390fdf736ff67
:10524000039bc01a43f69723984200f26d8194f8ad
:10525000e83103f0ff02002b40f066810a2311467b
:105260002846fef7e5fc94f9f83123f00403012bfe
:1052700006d194f9043223f00403012b00f0548189
:1052800094f9103223f00403012b00f04d81994969
:1052900001f11500fef790f8032834d043f6982664
:1052a000d4f81c3203fb066694f84030082b32d148
:1052b000d4f81432002bc1d0d4f818229342bdd0b8
:1052c0008d48fdf7fbfe8642b8d894f91062002e97
:1052d00040f0ec808848fdf7f1fe4ff47a73b0fba4
:1052e000f3f00121854b0090854a284602f0c6fb69
:1052f000ff2384f81032d4f81c32c4e985660133e8
:10530000c4f81c32cbe0fdf7d1fed4f82032c01a2d
:105310005045c3d892e7d4f8fc31002b6cd0d4f8b8
:105320000022934268d07748fdf7c8fe864263d8d2
:1053300094f9f8714fbb7348fdf7c0fe4ff47a73d0
:10534000b0fbf3f06e4a01216f4b0090284602f04b
:1053500095fbff2384f8f83184f80432d4f81c322a
:10536000284601336149c4f81c32c4e97f77c4e997
:105370008277fdf787ff53463a4611462846fef7e7
:1053800057fc01307ff45aaf9ce5032f34d194f9d8
:105390000432032b7ff452af5a48fdf78ffe4ff4cf
:1053a0007a73b0fbf3f00026584b00900121284699
:1053b000534a02f063fbff23c4e97f66c4e98266b7
:1053c00084f8f83184f80432d4f81c32504901339f
:1053d0002846c4f81c32fdf755ff324631462846b0
:1053e000414bfef725fc01303ff46cad28463d49aa
:1053f000fdf748ff3c4b57e094f9f87127f004079c
:10540000012f7ff41bafd4f80832002b3ff416af06
:10541000d4f80c2293423ff411af3e48fdf74efe04
:1054200086423ff60baf94f90462002e7ff406af7c
:105430003848fdf743fe4ff47a73b0fbf3f04ff0ba
:10544000ff0b2f4a3946344b0090284602f016fbda
:10545000d4f81c32314901332846c4f81c32c4e95f
:10546000826684f804b2fdf70dff1f4b32463146c9
:105470002846fef7ddfb431c3ff424ad02303ff429
:10548000ddae39462846264b1d4ac4e97f66c4e98d
:10549000826684f8f8b184f804b202f0effa284684
:1054a0001249fdf7effe5346324666e7032e7ff4be
:1054b000c5ae1148fdf702fe4ff47a73b0fbf3f06e
:1054c0000121184b00900e4a284602f0d7fa002618
:1054d000ff23c4e9856684f8103275e73bf50608ba
:1054e000c8c5012007f5060820bf0200d5f506084b
:1054f000e0930400cfc501209cc70120d6f6060822
:10550000b5fb060884c70120e3f5060820f6060867
:1055100054f6060890c7012062f60608a0f60608b1
:10552000adf6060813f70608fdf7c0fd4ef660233a
:10553000a0eb080098427ff6d1adfdf7b7fd084912
:1055400080460848fdf79efe002242f21073114685
:105550000448fef76dfb02303ff4c0adb2e400bf7b
:105560003ff70608c8c5012008b50020fff79efcdc
:1055700080f00100c0b2404208bd000070b50f4d80
:105580002846fdf783ffd5e902650446fff78efc48
:1055900010b94ff0ff3070bd04f006f80028f8d0c5
:1055a0002a463146204603f0d3f80028f1d0faf716
:1055b000f9ff0120fbf706f80020ece768c50120a1
:1055c0002de9f047054686b0b1f802804f6841f2f8
:1055d000883103f09dff314b059302f07bfa062dd5
:1055e0000dd9002405a802f0cbfc0021284603f0c9
:1055f0008fff84f00100c0b206b0bde8f08714262a
:10560000dff89c9006fb0596d6f84c310133e8d0c4
:1056100096f8543103f0ff04002be2d1012002f090
:10562000bdf80028ddd003f0b1fd82460028d8d0b7
:1056300098fa98f81ffa88f83fba22460120194bc9
:105640001949cde90058fef70ffafbb20293c7f3f0
:1056500007230193c7f307430093cdf80c80d6f8d6
:105660004c2112493b0e09f13c00fdf70bfe104b9b
:105670002246214609f13c00fef7dafa431c05d127
:10568000d9f8ec310133c9f8ec31abe70230a8d1dd
:105690000123544686f85431a4e700bfb8c701205f
:1056a0008cc5012097f70608c3f00608b3f7060873
:1056b000d0fb010008b5024b1b681b6e019308bdaf
:1056c000a001020808b5024b1b681b68019308bdc6
:1056d000a00104080c2270b5434d044602fb0052a1
:1056e00093680e4686b093b96421404b01fb0031ac
:1056f0009160002869d140f281129a818a229a73be
:105700003b4a1a66642202fb04333a4ada65002ee9
:105710003fd00c2303fb04539b685a6932b11a8ba8
:1057200022b19a6a12b19b8d002b32d11422002132
:1057300001a804f033fe32883146142a28bf14220f
:1057400001a804f003fe029b43b940f20110fff7e9
:10575000b9ff40f201130290adf80c30049b33b94d
:105760008120fff7afff81230490adf81430faf7e2
:105770006ffc0c2303fb0453029a9b685a61bdf82b
:105780000c201a83049a9a62bdf814209a85faf7bd
:1057900067fc0c2303fb0453586818bbb4fa84f26b
:1057a0009e68154b52091b68032b03d831461348da
:1057b000fbf7c6fc0c23002103fb0454306060603f
:1057c00006b0bde87040fbf7a7bc01289ad140f2b3
:1057d0008222a3f870208b2283f87220084ac3f833
:1057e000c4208fe706b070bd0cc9012044c8012059
:1057f000d2f706085d01060830c8012074bc0120fc
:10580000e2f70608f8b50c231b4e054603fb0063c0
:105810009a680f460ab15b681bb900212846fff75a
:1058200059ff0c236b43f218f35c1bbb5468faf767
:105830000ffc124b1b680bb91c4607e0002cf9d07b
:105840009c42f7d163791c1e18bf0124faf708fcab
:1058500084b9fcf71dfe0c204543741960680121d2
:10586000fbf75afc01237355a3685f60bde8f8405d
:10587000fcf700bef8bd00bf0cc901202cc80120f8
:10588000002210b504464ff416511046fff7baff38
:10589000014b00201c6010bd78bf0120fff712bf34
:1058a000fff710bf08b5024b1b685b68019308bd8a
:1058b000a001040808b510b1fff7f4ff012008bdee
:1058c00008b510b1fff7eeff012008bdfff7eabff2
:1058d000fff7e8bf2de9f04f0646a44b9bb00492ba
:1058e000069302f0f7f826b90a20a14aa149faf76f
:1058f000cbff337863b9002506a802f041fb002de9
:1059000000f0ef810020049b1d601bb0bde8f08f0c
:10591000304606f02ffeff28edd83046964906f0b7
:10592000e8f80028e7d000250aab019309ab009303
:105930003046924908ab07aacde90755cde909558c
:10594000faf7b6ff04280ad1089d079b2d0445ea03
:1059500003650a9b1d43099b45ea0325cce74ff4e9
:105960000070874903f0d9fe0446002800f0b78193
:1059700003f0eefd00280eda2023cde91235814b2d
:105980002946009332202b4612aafef765f82046de
:10599000fff788ffb0e74ff47a79dff8eca17b4f8f
:1059a000304606f0e7fd00f1120bbbf5007f6ed824
:1059b000774a4ff00c081388204601339bb20293bc
:1059c00013800023cde912331493029b0c225bba9f
:1059d000adf8483001238df84a304ff4807312a996
:1059e000adf84c3004f0b2fc731e591c0846da4383
:1059f0000346151810f801cbbcf12e0f02d0bcf1f4
:105a0000000ff5d108f1010004f808505a1a20449b
:105a1000039304f09bfc039b45441a7805f10108ad
:105a2000002ae2d14ff48073023504f8082060198f
:105a300004220fa9adf83c30adf83e30022504f049
:105a400085fc4ff0ff38daf8dc317a68bb609342ae
:105a50001fd1234635224ff008313868cdf800b009
:105a600003f06cfc002816dbfdf720fb03904ff0e1
:105a70000008c820fdf712fbdaf8dc317a68cde9be
:105a80000b889342bb600ed04ff0ff333b60002584
:105a90007de7c7f8008003f03bfc012df7d003f051
:105aa00057fd0125cfe7386803f0c0f9002840f31f
:105ab000fe804ff40073386800930caa23460ba9ac
:105ac00003f0eaf9051e40f30781b5f5007fdedc3f
:105ad0000b9bb3f1083f40f0ea800b2dd7dd0c2281
