:020000040800f2
:10400000999996963fcc66fcf0ee0000204000089f
:104010008c310108ffffffffffffffffffffffffe6
:1040200000400008403201080000e50c20000200ba
:1040300002020d0000000000081c00080100000042
:104040000a490b4a0b4b9b1a03dd043bc858d0505e
:10405000fbdc0849084a0020521a02dd043a885065
:10406000fcdc00f01df80548004700006c4100082a
:1040700000500010603d0110800c0310e15b001047
:10408000014b1878014b18479c0300101545101080
:1040900008b5fff7f5ff014b186008bd605b001025
:1040a00070b5fff7f5ffbff34f8fbff36f8f0021a0
:1040b000264ac2f85012bff34f8fbff36f8f536978
:1040c00043f400335361bff34f8fbff36f8fc2f8d8
:1040d0008410bff34f8f43f6e074d2f88030c3f3ff
:1040e000c900c3f34e335b01014603ea040646ea06
:1040f000c1750139c2f86052f9d2203b13f1200f8b
:10410000f2d1bff34f8f536943f480335361bff350
:104110004f8fbff36f8fbff34f8fbff36f8f0c487d
:104120000c49884205d00c4a824202d00b4b121a2d
:1041300098470b480b49884207d00b4a824204d06b
:10414000bde87040054b121a184770bd00ed00e045
:10415000000000000000000000000000156d1010bd
:10416000000000000000000000000000000000004f
:10417000000000000000000000000000000000003f
:10418000000000000000000000000000000000002f
:10419000000000000000000000000000000000001f
:1041a000000000000000000000000000000000000f
:1041b00000000000000000000000000000000000ff
:1041c00000000000000000000000000000000000ef
:1041d00000000000000000000000000000000000df
:1041e00000000000000000000000000000000000cf
:1041f00000000000000000000000000000000000bf
:1042000000000000000000000000000000000000ae
:10421000000000000000000000000000000000009e
:10422000000000000000000000000000000000008e
:10423000000000000000000000000000000000007e
:104240000000000000000000000000002de9f34124
:1042500005460f461e46144612b3042220f00308fa
:104260004046089b0deb0201984720b14ff0ff300c
:1042700002b0bde8f081a8eb05000430844228bffd
:10428000044601aba5eb08002246394618440cf061
:104290007bfa042240460deb0201b0470028e5d12d
:1042a0002046e5e708b50846ff210cf094fa002007
:1042b00008bd2de9f04f8707c3b005460e461446ea
:1042c0009846ddf830910dd0cdf80090fff7beff95
:1042d000002804da4ff0ff3043b0bde8f08f05440a
:1042e0000644241a002c38d04d9b46ea050202f001
:1042f000030203f00103134324f0030713d147b172
:104300003a4631462846c0470028e3d13d443e4462
:10431000e41b4346224631462846cdf80090fff77d
:1043200095ffc017d8e7bb46bbf1000ff0d0bbf537
:10433000807fda4628bf4ff4807a3146524602a881
:104340000cf022fa5246284602a9c0470028c1d1e3
:10435000abeb0a0b55445644e6e72046bce7ffffab
:1043600038b504460d4600f015fa002304f1006448
:10437000e25cff2a07d101339d42f9d1012400f00c
:1043800021fa204638bd0024f9e72de9f04f044614
:104390008db009a817460291a34602f04bfadff848
:1043a0009491002f00f08d806049087902284dd14a
:1043b000096805290cbf4ff400234ff42023049310
:1043c0000cbf322338231bf0ff06039342d1b7f50d
:1043d000807f3e4628bf4ff48076da46029d0196e4
:1043e0004ff000088df81c808df81d8000f0d2f988
:1043f0004ff0010306208df81c3002f0a1f9c9f836
:104400000880049802f058f9039b4fea0a2c43ea0b
:104410000a600cf47f0c40ea0c004fea1a2c0cf4f2
:104420007f4c40ea0c00c9f860000198089b1c28ea
:1044300028bf1c2020f0030cac44654510d055f873
:10444000043b4ff00108c9f86030f6e700230493fd
:104450000223b8e7c6f58076be4228bf3e46bce7d9
:10446000b8f1000f00d0089310f0030e654614d089
:1044700082070ad535f802cbbef1020fadf820c095
:104480001ffa8cfca9f860c007d015f801cb8df895
:1044900020c05ffa8cfc89f860c0059002f026f914
:1044a0000598019b82441b1a07a8019302f0d8f9d2
:1044b000019b002b94d1029bb34433440293bf1b56
:1044c0006fe7042002f03cf9194b5b69db031ed552
:1044d00014f01f0304f1006208d004f10064013cf1
:1044e00024f01f0422f01f022034a31a1c46bff33d
:1044f0004f8f1a440e4b002ca2eb040103ddc3f8ce
:104500005c12203cf7e7bff34f8fbff36f8f0020a3
:10451000084b9860099a1a600a9ac3f81c210b9af2
:10452000c3f818210db0bde8f08f00bf38000010af
:1045300000ed00e0000008482de9ff4100230e4691
:104540008df800308df80130044600f023f9012386
:10455000202e8df8003039d0522e3ad0d82e3bd1b3
:104560004ff48035b4fbf5f46c4329462046fff741
:10457000f7fe804618bb194f01a802f05bf9062030
:1045800002f0def84046c7f8088002f095f82302f2
:10459000240a03f47f0304f47f44234333433b663c
:1045a00002f0a4f8042002f0cbf8c7f80880019bc1
:1045b0003b60029bc7f81c31039bc7f81831684663
:1045c00002f04ef9284604b0bde8f0814ff4805562
:1045d000c8e74ff40045c5e7014df0e70000084883
:1045e000f2fefffff0b5012400270546164687b00e
:1045f00003918df815408df8147000f0cbf80c4b3a
:104600003246009328460b4b039901978df81440ce
:10461000fff74ffe041e05db314605f1006002f096
:104620009ff83c4605a802f01bf9204607b0f0bdf4
:10463000395100101f5200102de9f04104460027a7
:104640004ff001080d46164686b08df80c708df8b7
:104650000d8000f09ff804f1006104a801918df82d
:104660000c8002f09bf83246019928460cf08cf839
:104670003146284602f074f804a802f0c9f803a8ed
:1046800002f0eef8384606b0bde8f081f8b50f0349
:10469000064605463c46c4b1abb213b9b4f5803ffb
:1046a0000fd2c5f30e0373b9b4f5004f2cbf5221de
:1046b00020212846fff740ff00280cdb0544241a80
:1046c000e9e7d821f5e72021f3e706f10060394654
:1046d00002f046f82046f8bd70b504460e460025a7
:1046e000b54207d0d8212046fff726ff002807db78
:1046f0000135f5e704f10060a90402f031f800206b
:1047000070bd2de9f0430f46804616460023012474
:10471000c3b048ea07058df804308df80540c5f3ad
:104720000b0500f037f806f0030306f6ff711d4392
:104730008df804404fea11311fd1384689b2fff796
:10474000a5ff041e1adbb5421fd2a6eb0509b9f579
:10475000807f28bf4ff4807902a94a4605eb080004
:10476000fff76aff041e09db4a4602a9e819fff7b2
:1047700039ff041e02db4d44e5e7054c01a802f0b9
:104780006ff8204643b0bde8f0830024f6e700bf91
:10479000f2feffff08b500f0defe084b1a68511c60
:1047a000196002b958601b680020012b01bf4ff04f
:1047b000e0231a69024b1a6008bd00bf2cfa0210f0
:1047c00034fa021030b5144c754623688db0012bb5
:1047d00001bf124b1a684ff0e0231a612368002bc7
:1047e0000fdc2c22002101a80bf0f5ff0c4b0495e7
:1047f00001930c4b02937b46002101a8039305f023
:1048000005fe2368013b236013b9606800f0a7fe32
:1048100000200db030bd00bf2cfa021034fa021097
:104820002c000a00c11e01105c21011000000000d4
:104830000000000000000000000000000000000078
:104840000000000000000000000000000000000068
:104850000000000000000000000000000000000058
:104860000000000000000000000000000000000048
:104870000000000000000000000000000000000038
:10488000000000000000000001000700010000001f
:104890000000000000000000000000000000000018
:1048a00001001600030000000000000000000000ee
:1048b00000000000000000000100170003000000dd
:1048c00000000000000000000000000000000000e8
:1048d00001001800030000000000000000000000bc
:1048e00000000000000000000000000000000000c8
:1048f00000000000000000000000000000000000b8
:1049000000000000000000000000000000000000a7
:104910000000000000000000000000000000000097
:104920000000000000000000000000000000000087
:104930000000000000000000000000000000000077
:10494000000000000000000019000200000000004c
:104950000000000000000000000000000000000057
:104960000000000000000000ff0002000000000046
:104970000000000000000000000000000000000037
:1049800000000000000000000106ff0002ffff0021
:10499000000000000105ff00010109000000000007
:1049a0000010ff00ffffff00000000000011ff00eb
:1049b000ffffff00000000000012ff00ffffff00ec
:1049c000000000000013ff00ffffff0000000000d8
:1049d0000103ff00ffffff0000000000001bff00bd
:1049e000ffffff00000000000007ff00ffffff00c7
:1049f000000000000008ff00ffffff0000000000b3
:104a0000000fff00ffffff00000000000101ff009a
:104a100004ffff00000000000102ff0005ffff008f
:104a2000000000000107ff0003011100000000006a
:104a30000104ff000001080000000000000cff005e
:104a4000ff01000000000000000dff00ff01010059
:104a500000000000000eff00ffffff00000000004c
:104a6000011aff00ffffff00000000000000ff0030
:104a7000ffffff0000000000011dff00ffffff001f
:104a800000000000011fff00ffffff00000000000a
:104a9000001eff00ff000100000000000117ff00e2
:104aa000ff000300000000000116ff00ff000200ed
:104ab000000000000004ff00ffffff0000000000f6
:104ac0000002ff00ffffff0000000000ff00ff00ea
:104ad00007ffff00000000008022004816050000cc
:104ae000f4010000000000000000000000000000d1
:104af00000000000000000000000000000000000b6
:104b000000000000000000000000000000000000a5
:104b10000000000000000000000000000000000095
:104b20000000000000000000000000000000000085
:104b30000000000000000000000000000000000075
:104b40000000000000000000000000000000000065
:104b50000000000000000000000000000000000055
:104b60000000000000000000000000000000000045
:104b70000000000000000000000000000000000035
:104b80000000000000000000000000000000000025
:104b90000000000000000000000000000000000015
:104ba0000000000000000000000000000000000005
:104bb00000000000000000000000000000000000f5
:104bc0008022004016050000f401000000000000f3
:104bd00000000000000000000000000000000000d5
:104be00000000000000000000000000000000000c5
:104bf00000000000000000000000000000000000b5
:104c000000000000000000000000000000000000a4
:104c10000000000000000000000000000000000094
:104c20000000000000000000000000000000000084
:104c30000000000000000000000000000000000074
:104c40000000000000000000000000000000000064
:104c50000000000000000000000000000000000054
:104c60000000000000000000000000000000000044
:104c70000000000000000000000000000000000034
:104c80000000000000000000000000000000000024
:104c90000000000000000000000000000000000014
:104ca0000000000000000000ffffffff0000000008
:104cb0007d780010837800108978001000000000d3
:104cc00000000000ff6360ffe803000000c2eb0b80
:104cd000443322115aa55aa5a55aa55a1122334484
:104ce0009669699669969669805b001000000000dd
:104cf000043d0110243d0110e43c011000000000bf
:104d000000000000000000000000000000000000a3
:104d10000000000000000000000000000000000093
:104d20000000000000000000000000000000000083
:104d30000000000000000000000000000000000073
:104d400000000000000000000000000000f0d8fba0
:104d500000f0d0f953b94ab9002908bf00281cbf98
:104d60004ff0ff314ff0ff3000f096b9adf1080c75
:104d70006de904ce00f01af8ddf804e0dde9022365
:104d800004b07047430803f05533c01a830800f09d
:104d9000333003f03333184400eb101000f00f30c1
:104da00000eb002000eb0040000e70472de9f04fb3
:104db000099d04460f46002b48d18a42944661d98a
:104dc000b2fa82f343b1c3f120019f4002fa03fc1f
:104dd0009c4020fa01f10f434fea1c411ffa8cfe60
:104de000220cb7fbf1f601fb167706fb0ef042ea48
:104df0000742904208d91ceb020206f1ff3702d2ab
:104e0000904200f237813e46121aa4b2b2fbf1f092
:104e100001fb102200fb0efe44ea0244a64508d91d
:104e20001ceb040400f1ff3202d2a64500f21c8103
:104e3000104640ea0640a4eb0e0400261db1dc40fb
:104e40000023c5e900433146bde8f08f8b4209d904
:104e5000002d00f0fd800026c5e9000130463146f6
:104e6000bde8f08fb3fa83f6002e4bd18b42c0f031
:104e7000f280824240f2ef803046002de3d0c5e957
:104e80000047e0e702b9ffdeb2fa82f3002b40f000
:104e90009d80891a4fea124e97b20126200cb1fb71
:104ea000fef20efb121140ea014107fb02f08842bc
:104eb0000fd91ceb010102f1ff382cbf4ff00109a3
:104ec0004ff00009884203d9b9f1000f00f0cf80fc
:104ed0004246091aa4b2b1fbfef00efb101100fb12
:104ee00007f744ea0144a74208d91ceb040400f187
:104ef000ff3102d2a74200f2b4800846e41b40ea28
:104f000002409be7c6f12007b34001fa06f422fafb
:104f100007fcf940b2404cea030c20fa07f34fead1
:104f20001c491c431ffa8cfe00fa06f3200cb1fb4f
:104f3000f9f809fb181140ea014108fb0ef088421c
:104f40000fd91ceb010108f1ff3a2cbf4ff0010b08
:104f50004ff0000b884203d9bbf1000f00f08d80a9
:104f6000d046091aa4b2b1fbf9f009fb101100fbfd
:104f70000efe44ea01418e4507d91ceb010100f108
:104f8000ff3401d28e457fd8204640ea0840a1eb8d
:104f90000e01a0fb029841454c46c64602d306d1fd
:104fa0004b4504d20138b9eb020468eb0c0e002d1e
:104fb00070d01a1b61eb0e0122fa06f301fa07f713
:104fc000f14000261f43c5e900713ce702fa03fceb
:104fd000c3f1200001fa03f221fa00f64fea1c4e59
:104fe00024fa00f11ffa8cf79c401143b6fbfef047
:104ff0000a0c0efb106642ea064200fb07f69642d8
:105000000ed91ceb020200f1ff382cbf4ff0010952
:105010004ff00009964202d9b9f1000f31d0404655
:10502000921b89b2b2fbfef60efb162241ea024148
:1050300006fb07f28a4207d91ceb010106f1ff3893
:1050400001d28a4223d84646891a46ea004625e715
:105050002e462846f7e6841a61eb030301201f461b
:105060000be76444023849e764440238e1e6023a57
:1050700061442ee7023e6244c6e6a8f1020861449c
:105080006fe702386244cbe7023861447de7023eb5
:105090006144d9e72e46d6e6704700bf034613f8b1
:1050a000012b002afbd1181a01387047084b094a16
:1050b0001b7830b10121117043b94ff0ff1005f09a
:1050c000a9bc107013b9e72005f028bd704700bfd8
:1050d000653d0110663d011038b5044c044dac42ed
:1050e00000d338bd54f8043b9847f8e7443d01101d
:1050f000543d01102de9f04f85b004f069fa01f03c
:1051000099fc042001f068fab54bb64c187004f015
:10511000e3fb00f05bfa0122b34b1a7004f02efca3
:1051200005f056f940f6e540a388834201d004f02b
:105130004dfca37c1bb10023a37404f03bfcab4be0
:10514000ab4d2b602389052b25d1aa4b01221a7068
:105150004af6aa23a28901209a4202bf0122a64b45
:105160001a7000f023fa4ff6ff7180b2adf80a0012
:10517000bdf80a309bb28b4200f08c804ef6fa529a
:10518000bdf80a309bb293420ed101209b4b1870a0
:1051900000f002fa31e045f255529342d8d1002294
:1051a000944b1a70964bd1e745f6fe22bdf80a30b3
:1051b0009bb2934202d10120924be8e7002005f018
:1051c00008f9d0b1bdf80a309bb2022b52d0032ba4
:1051d0005ad0012b5bd18a4a1370bdf80a300133d3
:1051e0009bb2adf80a30bdf80a10012089b200f078
:1051f000d3f904f0e3fb05f0eef8002001f00efd1a
:10520000814e00284dd13378dff8f8814bb100276b
:105210000123e771a37104f0cdfb784b1f7088f870
:10522000007098f800301bb10123a37404f0c2fb96
:10523000dff8c081704f98f80030012b40f0a28059
:105240004ff0ff1005f0e6fb04f0b7fb00236c4abb
:105250006e483b70137088f80030337005f0dafb4d
:105260000122664b1a7000f0cbfa00f0f9fa00f058
:1052700005fbfae70122604b1a700023a371e3716a
:10528000bdf80a301344abe701225c4b1a704ff6ad
:10529000ff73a6e70120adf80a00bdf80a1089b235
:1052a00076e704f040fd42f6e0630746dff86891d8
:1052b000dff84481dff844a1c9f80030002001f094
:1052c000adfc00289fd0d9f80030002b9bd033785c
:1052d00003f0ff0063b901f0b1fc42f21073984291
:1052e00006d96ff07f4005f095fb01233370e5e7a9
:1052f00098f8003003f0ff0ba3b9584601f09efc6c
:1053000041f6641398420dd9002fd7d04ff47f4057
:1053100005f080fb012384f806b084f807b088f814
:105320000030cbe79af8003003f0ff0063b901f0da
:1053300085fc40f6b733984206d9344805f06afb3d
:1053400001238af80030b9e7dff8b8b09bf80020f5
:1053500002f0ff03002ab1d11846019301f06efc60
:10536000b0f57a7f019ba9d3224a4ff0ff1013704a
:10537000234a88f80030137005f04cfb01238bf8aa
:1053800000309be73b78002b48d03b78012b21d1a4
:10539000e388012b0cbf6ff07f404ff47f4005f096
:1053a00039fb04f008fb014600287ff44faf286862
:1053b00000f0b6f800283ff449afbff34f8f14490f
:1053c000144bca6802f4e0621343cb60bff34f8f03
:1053d00000bffde700233b7004f0b6fa36e700bfdc
:1053e000653d0110b8000c00140a03100000060807
:1053f000603d0110663d0110643d0110743d0110d7
:10540000673d0110693d0110683d011000ffff007c
:1054100000ed00e00400fa056c3d0110164b1b780e
:1054200003f0ff02002b7ff411af1448019204f047
:1054300071fe0328019a03d11146462000f098f826
:10544000286803a900f06cf858b141f2883004f0e4
:10545000c3fa04f06afa039b58681b6876f0c2fe30
:10546000f4e604f06dff024600287ff4efae01463b
:10547000462000f07df8e9e6743d0110415f001020
:1054800010b5164b1a6812b11a68013a1a60144b1b
:105490001b782bb9134c23681bb12368013b236095
:1054a00010bd114b114a1b7812781343104a127821
:1054b000134302d10f4b1b7823b1e72005f046fbc5
:1054c0003223ece70c4b1b781bb90c4b1b78002be1
:1054d000e6d0e72005f03afb6423e0e76c3d0110dd
:1054e000653d0110703d0110643d0110673d0110e4
:1054f000663d0110683d0110693d0110743d0110c9
:10550000fff7eabd42680068101a704728b1808929
:10551000a0f120035842584170474ff6ff70f7e75b
:1055200038b5024604460d460146002004f0adfca5
:1055300008b9002038bd2146002004f08ffc214628
:105540000246002004f0dcfc0028f2d0002df1d04f
:1055500018342c60eee7eff3108072b67047c30783
:1055600000d462b670470000004b1847490910107c
:1055700010b50c460146022000f00ef8214603202b
:1055800000f00af8bde8104002f05abd72b60020e3
:105590007047002204f09ebc013809289ebf024bd0
:1055a0001b6843f820107047741b0110013809284c
:1055b0009dbf034b1b6853f820004ff0ff3070472e
:1055c000741b0110002070470020704770470020b6
:1055d0007047000000b5036895b0019343687446b6
:1055e000029383680d460393c3680493036905938c
:1055f0004369069383690793c36908933c4b9b6a8d
:105600009b013fd44b1e0e2b5ed8dfe803f0085df4
:10561000192a3b5d5d5d5d5d5d5d5d5d4c002c222d
:10562000002109a80bf0d7f8324b0c940993324ba8
:105630000a937b46002109a80b9304f0e7fefee7de
:105640002c22002109a80bf0c6f82c4b0c940993ce
:105650002b4b0a937b46002109a80b9304f0d6fe3e
:10566000ede72c22002109a80bf0b5f8254b0c948e
:105670000993254b0a937b46002109a80b9304f05c
:10568000c5fedce72c22002109a80bf0a4f81f4b73
:105690000c9409931e4b0a937b46002109a80b9397
:1056a00004f0b4fecbe72c22002109a80bf093f8fc
:1056b000184b0c940993184b0a937b46002109a8b8
:1056c0000b9304f0a3febae72c260021324609a86a
:1056d0000bf081f8114badf824608df826500a9339
:1056e0000c947b46002109a80b9304f08ffea6e7db
:1056f00000ed00e02c000100781b01102c000300dd
:10570000821b01102c0004008c1b01102c000500d2
:10571000951b01102c000f00a01b0110ac1b0110e9
:1057200001461ef0040f0cbfeff30880eff3098071
:10573000004a1047696400100f20fff7f1bf0120f5
:10574000fff7eebf0320fff7ebbf0420fff7e8bf32
:105750000520fff7e5bf08b504f03ff905f046fb6b
:10576000fff78efebde8084001f000ba00f1784076
:10577000fef738bf00f17840fef788bf00f17840af
:10578000fef75abf7fb50024104b054618689b886a
:1057900001900e4606224ff48d700df10a01cde9fd
:1057a0000244adf8083003f0dffda0420bdb45b149
:1057b0003eb10c2e3246284628bf0c2201a90af021
:1057c000e3ff0c2000e0204604b070bdcc1b0110ac
:1057d000042273b5002605460c464ff4be700deb4f
:1057e0000201019603f0c0fd002806db3046bdf83b
:1057f00004302b60bdf80630236002b070bd00009d
:1058000038b5124c12221249204602f0dbfe03f09a
:1058100093fa104d0146204602f0bcfe2946204670
:1058200002f0bdfe2846012103f0eef800212846d3
:10583000094a00f0e1fb28460121084a00f0dcfba0
:105840002046bde8384002f0eebe00bfbc56001056
:10585000d31b01107c3d0110e04e0110783d01107a
:1058600068467146034b1860034b196000f062fdf7
:1058700070470000104f02100c4f021008b5084886
:1058800000f0c5fb20b1074803f015f804f05cf800
:1058900003f052fa03f050fabde8084003f0e8ba0a
:1058a0007c3d0110bc56001008b50649064800f0c2
:1058b0008bf8064800f084febde80840044800f07c
:1058c00085be00bfbc5600107c3d0110e04e0110ab
:1058d000783d0110704710b500f58054606b10b131
:1058e0000368db689847a06b10b10368db689847d2
:1058f000002010bd00207047002070470220704734
:10590000032070470020704710b5044641f264112f
:1059100000f076fe204610bd38b500f58053b3f890
:1059200042300446934228bf134608461d4621b123
:105930001a4604f582510af027ff284638bd37b5cc
:1059400004691a468c42069b30d890f820500c1bf4
:105950008d4219d1c5b1817e0a2915d100f580513a
:1059600091f8641081b100f5835404342046cde9e8
:105970000023fff793fbdde900230146204603b037
:10598000bde8304002f07fbe022ccde900230dd8e7
:1059900004f20c4400eb8400406838b10168496aa5
:1059a000884704460028e4d103b030bd4ff0ff30f3
:1059b000fae70369ff22023380f8203000f58350b4
:1059c00004300bf0edb80000f8b5044603f010f811
:1059d000124b04f58055236000236376c4f81b3016
:1059e000a4f81f306362c5e90d33eb630c4b04f57b
:1059f000825203f12007164618685968083303c617
:105a0000bb423246f7d11868ff223060002105f111
:105a100064000af0e0fe2046f8bd00bfc41c01107f
:105a2000081b011070b58b880546042b0c4606d167
:105a3000cb880e4a686802f002fe002070bd052b7c
:105a400010d18b7813b9cb88094af3e700f13406fb
:105a50004ff48052002130460af0bdfe3246214606
:105a6000e388e7e7406802f006fee6e7771c0110ee
:105a7000e51b01104a7810b50a2a044610d00b2afb
:105a800012d0062a1bd14b881b0a212b06d10923d1
:105a900000f582521b32606802f0d1fd002012e056
:105aa000012300f11902f6e74b884068012b03d867
:105ab000637600231a46efe702f0ddfdeee740686b
:105ac00002f0d9fd012010bd38b51d460a23044659
:105ad000c1768376c3771ab10021406802f0cbfd0e
:105ae0002db129462046bde83840fff762bf84f853
:105af000205038bd10b5827e0446092a16d80123ed
:105b0000934013f41b7f11d002238376c3770023c5
:105b100080f820301a46406802f091fd606802f07b
:105b2000cafe606802f07ffd002010bd0023012244
:105b30000e212046fff7c8fff6e710b5837e024628
:105b4000022b01d0052b1cd10b685068c2f82a30fb
:105b50004b68c2f82e30138e53b103249476d47759
:105b60000024343202f8144c02f077fd002010bdfe
:105b7000062482f820309476d4771a4602f05ffd2e
:105b8000f4e7002301220e21fff79effeee710b598
:105b9000837e0a2b0bd102220023c277428380f836
:105ba00020301a46406802f04afd002010bd002354
:105bb00001220e21fff788fff7e708b5837e042b4b
:105bc00002d0073b012b06d8002301220e21fff74c
:105bd0007bff002008bd00f11f020123406802f096
:105be0002efdf6e72de9f041837e0446022b0d469b
:105bf00001d0092b56d12b68c4f82a306b68c4f841
:105c00002e30a38d9bb9294a84f820306263fb2291
:105c100084f8382002220523a276e27704f13402c8
:105c20002946606802f00bfd0020bde8f081012be1
:105c30002bd009264ff00008a6764046e67784f878
:105c4000208004f0b3ff012804f134070bd140f6a3
:105c50000a3363830a232046e3771549fff7a9fe39
:105c600043463a46dce7637ea28d03f20c4304eb25
:105c700083035868616a0368023ad3f8148001eb21
:105c80000232238e3946c04730b1002301220e2153
:105c90002046fff719ffc7e7238ea676e67784f83c
:105ca0002000dee7002301220e21f2e7002141fa65
:105cb0009f1c011038b5837e0446062b0d463bd051
:105cc000072b40d0032b43d1038e7bb30423837671
:105cd000c377002084f8200004f068ff01280fd16a
:105ce000a38d23b994f83430fa3b012b08d940f640
:105cf0000a3363830a2320461d49e377fff759fee1
:105d0000637e94f8282003f20c4304eb8303586865
:105d100004f11b0103681b6a984706232946606843
:105d200004f11b0202f08bfc002038bd05228276b4
:105d3000c27784f82030f0e707230022c37780f889
:105d400020204383e9e708238376c3770023f0e725
:105d50000a2b06d8012202fa03f340f2ef62134243
:105d6000dbd1002301220e212046fff7adfedbe749
:105d70009f1c0110ff2380f828300023c0f82a3030
:105d8000c0f82e3000f58050c36370470223002115
:105d900010b50446c37780f820104383fff7eaff6d
:105da000616204f58054606b10b103689b6898478a
:105db000a06b10b103689b689847002010bd10b518
:105dc000827e0446092a12d80123934013f41b7fd4
:105dd0000dd002230022c377438380f82020fff7f1
:105de000c9ff1346606802f02afc002010bd0023a2
:105df00001220e212046fff767fef6e708b54b7833
:105e0000062b21d8dfe803f004080c1014181c003e
:105e1000bde80840fff76ebebde80840fff78dbe45
:105e2000bde80840fff7debebde80840fff742bf0f
:105e3000bde80840fff7abbebde80840fff7bdbeb8
:105e4000bde80840fff7bbbf406802f014fc01202a
:105e500008bd4ef6c16208b50b88934206d18b8807
:105e6000052b0ad1bde80840fff7dcbd4ef6c06245
:105e7000934202d18b88042bf3e70b7813f0600f69
:105e8000c3f3411206d0012a08d0406802f0f3fba8
:105e9000002008bdbde80840fff7ecbdbde80840a4
:105ea000fff7acbf38b5837e0446042b04d0072b24
:105eb00000f09480002038bd858d002d61d1028ec8
:105ec000002a00f0818090f83430922b80f828303e
:105ed00053d009d8212b0fd0412b17d0002be9d05c
:105ee000002301220f216de0fa2b3cd0fb2bf7d1d0
:105ef00004f020ff05233ce0052a60d1d0f83530be
:105f0000c277436280f820504283d3e7052a23d129
:105f1000284604f04bfe012809d140f60a3363837a
:105f20000a2320463349e377fff743fdc2e7637e48
:105f30002a4603f20c4304eb83035868d4f8351067
:105f40000368db699847002839d105230022e377ed
:105f500084f820206383ade7012a30d12b46114617
:105f6000fff7b2fda6e745f6fe210120fff714fb7f
:105f70000623e37784f82050ece72b4601220e211c
:105f8000eee7012d20d0002004f010fe0128c4d03f
:105f9000637ea28d03f20c4304eb83035868616aad
:105fa0000368023a9d6901eb0232238e04f1340149
:105fb000a8470028c9d06ff4e1639842add0002310
:105fc00001220e212046cbe7012220460023114664
:105fd000fff77afd2046fff7cdfe6be708238376b7
:105fe000c377002380f820304ff4fa7300f5805413
:105ff000e3635fe79f1c011001299fbf01f20c4181
:1060000000eb81014a60012088bf00207047837e39
:10601000082b09d100f58053d86b30b10138d86313
:10602000b0fa80f040097047002070477047f8b51b
:10603000044600200d4602f04ff806460f46d4e80d
:10604000af3f002b0ddc002002f046f8aa1947f103
:106050000003904271eb0303f1d3bff35b8f002089
:10606000f8bd5a1ed4e8ef1f994204bf44e800204f
:106070000028e8d10120f3e710b50446182100f00c
:10608000bffa204610bdf8b506460d46fff763fa85
:10609000746884469cb1f168b26805f1080323f086
:1060a00003030c1b121b043393424ff000020bd866
:1060b000c1e90023f268134402f10804f36060466a
:1060c000fff74dfa2046f8bd15461446316971b107
:1060d0004f68bb4205d83cb1606887423cbf15465b
:1060e0000c460a460968f2e715460c46f9e7002c0b
:1060f000e5d023684db12b602b467269944208bfee
:106100007361002344f8083bd9e73361f5e770b5c4
:106110000d460446fff71ffa002d39d055f8041c30
:10612000e268a5f108035e18b24214d1521ae26087
:106130000025626962b35168e3685618b34227d1fb
:106140005b1ae360236913b119688a421cd1636149
:10615000e3b92361ede726690022314621b18b4284
:1061600088bf0a460968f9e72ab906b9636145f8a4
:10617000086c2361dce7116845f8081c136061694d
:106180009142d5d16361d3e70b46dce71d60d0e7d0
:10619000bde87040fff7e3b913b50146019006482a
:1061a000fff771ff044618b10021019a0af013fbb2
:1061b000204602b010bd00bfec4e0210fff7ecbf4e
:1061c00008b501460148fff7a2ff08bdec4e0210da
:1061d0007047704738b5044604200d46fff7dcffd2
:1061e00000b10560206038bd08b501680148fff7bf
:1061f0008eff08bdec4e02100368bff35b8f53e8bf
:10620000002f013243e800210029f8d17047000037
:10621000034630b5154a75461268006802f5c87223
:1062200093428db01dd10121fff701ff0446a8b9ab
:106230000f4b104a1b6812689d4610472c220146de
:1062400001a80af0c8fa0c4b049501930b4b02937a
:106250007b46214601a8039304f0d8f820460db0f0
:1062600030bd4ff0ff31fff7e2fef8e7e44e0210d9
:10627000104f02100c4f02102c000a00001d0110dc
:106280000121fff7a7bffff7afbffff7c1bffff7c0
:10629000b3bf000008b5fff75ef9034b1a68511c45
:1062a000196002b9586008bd044f021030b5114c96
:1062b000754623688db0002b0fdc2c22002101a82d
:1062c0000af089fa0c4b049501930c4b02937b4620
:1062d000002101a8039304f099f82368013b23608f
:1062e0002bb960680db0bde83040fff738b90db08c
:1062f00030bd00bf044f02102c000a001c1d01100d
:106300000af042ba0022014b1a607047e84e0210b0
:10631000009a034b01201a60019a024b1a607047e1
:10632000e84e0210e44e02100022014b1a60704742
:10633000e84e0210034b1b6813b1034a106818475c
:10634000704700bfe84e0210e44e0210074b0849a8
:1063500000225960d9604ff4803199600549c3e942
:1063600004221960044b1a605a607047ec4e021008
:10637000e44e0110481d0110044f02107047002028
:1063800070470020c8708870487070477047b1f53a
:10639000804f06d81144b1f5804f8cbf00200120fa
:1063a0007047002070470020704710b50446042154
:1063b00000f026f9204610bd10b50446042100f077
:1063c0001ff9204610bd000008b5002004f0eefbc8
:1063d000034a044b012814bf1046184608bd00bfed
:1063e000581d0110811d011008b5002004f0defbce
:1063f000034a044b012814bf1046184608bd00bfcd
:10640000aa1d0110cb1d011013b50c4611461a46ea
:106410000368cde900121b69984738b1dde9001225
:1064200020460af0b1f9002002b010bd0120fbe7c0
:1064300037b514461a4603680d461b69214601927a
:10644000984738b129462046019a03b0bde830404c
:1064500001f0a2ba012003b030bd13b50c461146bd
:106460001a460368cde900121b69984738b1dde987
:106470000012204602b0bde8104001f0c9ba012068
:1064800002b010bd08b5002004f090fb18b9bde8bb
:10649000084004f071bc002008bd000001f1784301
:1064a000b3f5000f10b50c4601d9002010bd02f164
:1064b00078420a44b2f5000ff7d8fff7e3ff38b18e
:1064c000044b9c42f2d303f5c0139c42edd3ede79d
:1064d0000120ebe70000300810b503680c461b698b
:1064e000984780b1fff7ceff28b1094b9c4202d3f9
:1064f000084b9c4209d301212046fff73bf90038a5
:1065000018bf012010bd0120fce70020fae700bf02
:106510000000060800001e08f0b514461d4603687a
:106520000e4687b02a4621461b69984710b90120bc
:1065300007b0f0bdfff7a6ff40b92a463146204616
:10654000fff714f9003818bf0120f1e7194b9c42fe
:10655000f3d3194a9442f0d29c42184f23d101231d
:10656000172d3b7022d91822002168460af033f912
:10657000002332460221684603f0d8fbb0b941f24d
:106580006f73bdf80a209a4210d93870c4f30b0318
:10659000002bd2d105f6ff712046090bfff7eaf870
:1065a0000028cad0c3e73b78002befd06ff4e1603e
:1065b000bee700bf0000060800001e08144f0210ce
:1065c000014b0360704700bff41d0110014b0360d5
:1065d000704700bf241e01100422002313b5044697
:1065e0000deb020140f2da60019301f0d5f9019b55
:1065f0001c4054ea00030cbf0120002002b010bd73
:10660000704700001d46744600b58db02c22002155
:1066100001a80af0e0f8054b0494cde901357b466a
:10662000002101a8039303f0f1fefee72c000a000d
:10663000744600b58db02c22002101a80af0cbf8d9
:10664000054b04940193054b02937b46002101a85e
:10665000039303f0dbfefee72c000c00ac1e0110e0
:106660000078b0fa80f0400970470123037070474a
:106670007047000010b5084c237853b9b2f5004fad
:1066800007d8064a0260064a18460a6001222270ac
:1066900010bd0448fce700bf28fa021018cf021012
:1066a000154f0210fcfeffff0022014b1a707047cd
:1066b00028fa021000207047064b196821f4407137
:1066c0001960196821f4702119601a681043186064
:1066d000704700bf00000848034b9a6a910602d435
:1066e0009a6ad207f9d470470000084838b50123e8
:1066f000114800258360fff7efff104c01228560f1
:106700004260d0f81c31234043f00203c0f81c3132
:10671000036843f440730360036823f47023036049
:10672000052380f860308260fff7d6ff90f8603074
:10673000db07e3d438bd00bf000008480000ffffbe
:1067400038b504460020054da860fff7b5ff85f871
:106750006040bde83840fff7c9bf00bf00000848ef
:1067600010b50d4c6369db0315d51f3120f01f02f6
:106770000b189b1a23f01f03bff34f8f1a44002bf3
:10678000a2eb030103ddc4f87012203bf7e7bff36f
:106790004f8fbff36f8f10bd00ed00e00023f7b502
:1067a000037043604ff09043d3f82c220546520308
:1067b0000c461ed5d3f8046216f4806019d1ff236d
:1067c0008df8073007234ff49871104f0deb03023b
:1067d000b84704f17841b1f5005f0dd2fef7bbfe7a
:1067e0004ff0904346f480666860c3f8046201236a
:1067f0002b70284603b0f0bd9df80730db07f8d4b6
:10680000a1f5a031b1f5962ff3d2e7e7310a1010c8
:1068100010b50378044653b14ff09042d2f80432d9
:1068200023f48063c2f804324068fef798fe2046e5
:1068300010bd0000094b19680160d3f81c114160bc
:10684000d3f818118160d3f81c2142f44032c3f808
:106850001c210322c3f81821704700bf000008481c
:1068600010b5037804460bb1fdf7acff204610bd10
:1068700000207047002070476ff0770070470000dd
:106880000022024b1a605a60704700bf2cfa0210b7
:1068900038b5182343430c4c0546e218e35c012b42
:1068a00011d150881279c2f34001920748bf1946ae
:1068b00000f0c6fb182000fb054401216088bde8fc
:1068c000384000f0abbb38bd1c57001008b5044b76
:1068d000588b00f0a3fd012303fa00f0013808bd36
:1068e0001c570010182238b550430c4b0c461d188d
:1068f0001b5c012b10d12b79d9070dd50020fff798
:10690000e5ff03462a7921469207688848bf191b8c
:10691000bde8384000f05cbd38bd00bf1c5700101a
:1069200070b50d461446064601460120fff7daff12
:1069300029460220fff7d6ff21460320fff7d2ffaa
:1069400031460520fff7ceff29460620fff7caff94
:106950002146bde870400720fff7c4bf70b505466b
:106960000020fff7b3ff164e0446337f708b13f001
:10697000020f1cd000f04cfd201a80b2288096f83f
:106980003430708e13f0020f14d000f041fd231a42
:1069900098b2688096f84c30b6f84a0013f0020faf
:1069a0000bd000f035fd241aa0b2a88070bd00f015
:1069b0002ffde3e700f02cfdebe700f029fdf4e705
:1069c0001c570010064a137903f0020310b91bb9d3
:1069d000002102e0002bfbd10121508800f030bbe8
:1069e0001c570010fff754bf0023fff799bf002189
:1069f000fff7b4bf08b50020fff768ff80b208bdfd
:106a00000021fff7dfbf0000f8b5094d00242f4635
:106a1000182606fb04731b79db0702d5688800f093
:106a200023fd0134082c05f11805f2d1f8bd00bf93
:106a30001c570010704700000022024b1a705a6069
:106a400000f09abd38fa02101fb50023cdf80930c6
:106a5000062302468df80830084b40010129185ad8
:106a600003eb421407d102ab0093a378044900f072
:106a7000adfd04b010bd00f08bfefae7dc5700104e
:106a8000497900100021094b03eb40129180da781c
:106a90003ab993f8233003f0ff0213b9044b1a708c
:106aa0005a600121c0b2fff7cfbf00bfdc57001012
:106ab00038fa021010b500210124074bc0b203ebd5
:106ac00040139980dc70fff7bfff044b1a7812b9ae
:106ad0000a221c705a6010bddc57001038fa0210f0
:106ae00008b5034b4001185a00f044f9c0b208bd84
:106af000dc5700102de9f0411a4c054622780f466c
:106b000002f0ff030ab923706360174e4fea45187d
:106b100006eb45139b7836f80800012b0cbf0321c8
:106b2000022100f07bfa012f03d139462846fff7f6
:106b30008bff36f8083006eb0807ff2b0fd02846ee
:106b4000fff7ceffbb785a1e53425341834206d112
:106b50000123fb70227812b923700a236360bde819
:106b6000f08100bf38fa0210dc57001010b5294b35
:106b70001a7842b35a6832b35a68013a5a60586870
:106b800008bb0a22244c5a60e378ebb1fff7a8ff58
:106b9000d0b9a3889bb2fbb1a3880a339bb2a38070
:106ba000238cff2b0fd094f8233033b30120fff751
:106bb00097ff94f822305a1e53425341834210d01b
:106bc000238cff2b19d110bde378002be8d00020d7
:106bd000e070fff757ffe3e7a3880a339bb2a38077
:106be000dae7a38c9bb21bb9a38c0a339bb2a384b4
:106bf000a38c0a339bb2a384e5e794f82330002bdf
:106c0000e1d00023012084f82330bde81040fff7d5
:106c100039bf00bf38fa0210dc570010024606499f
:106c200001eb4013db78d8b22ab90b8cff2b1cbfc9
:106c300091f8233018437047dc5700100146084a8a
:106c400002eb40139b8898b241b9138cff2b05d0ff
:106c5000938c9bb2834284bf908c80b2704700bffc
:106c6000dc570010004870471c58001010b504464f
:106c7000fff7f8ff0c236343c218c35c507840ea67
:106c8000431000f03f0010bd1b2870b504460e46af
:106c90000dd8fff7e7ff0c2505fb0405eb789e42b6
:106ca00004d0062b02d1204600f0defbee7070bd52
:106cb000072810b517d0132817d0142817d0152877
:106cc00017d0192817d01a280cd1052303220b4cf2
:106cd0005b0002fa03f0226801fa03f322ea0002e1
:106ce0001343236010bd0023f0e70123eee70223e6
:106cf000ece70323eae70423e8e700bf40fa0210c9
:106d000007280cd013280ad0142808d0152806d03c
:106d1000192804d0a0f11a035842584170470120a5
:106d2000704710b50446fff79dff0c235c43005de0
:106d3000ff3818bf012010bd10b50446fff792ffc1
:106d40000c2303fb0400837803f0fb00012802d02e
:106d5000083b5842584110bd1b2810b5044606d8c0
:106d6000fff780ff0c2303fb0400807810bdff2099
:106d7000fce700001b2870b5044601d9002036e06e
:106d8000fff7cfff0028f9d02046fff7b9ff98b9e9
:106d9000fff768ff0c2505fb04052046fff766ff9b
:106da000aa78082aead840f22f13d340db07e5d5aa
:106db000bde87040134b18472046fff7bdff002881
:106dc000e6d0072c14d0132c14d0142c14d0152c6e
:106dd00014d0192c14d01a2cd0d105200a4a430003
:106de0001068d84000f00300032808bf002070bde1
:106df0000020f3e70120f1e70220efe70320ede7b1
:106e00000420ebe74d28101040fa021010b50c4694
:106e1000fff72cff022c0cd8074a084952f8203003
:106e2000095d23f4406343ea812342f820300020c7
:106e300010bd0348fce700bf00040048e51e011038
:106e4000f2feffff2de9f0431b2804460e4689b0f1
:106e500003d96a4809b0bde8f083fff762ff002854
:106e600000f0c880002ef4d0fff7fcfe4ff00c09b4
:106e700009fb040920463579fff7f8fea4f106085e
:106e80001ffa88f8b8f1010f074622d84ff0904258
:106e9000d2f83032062c23f00103c2f8303230d160
:106ea000fff7e0fe90f8571099b907200191fff71e
:106eb000ddfe534bc0b2019998470720514a5368f1
:106ec00023f000635360fff7d1fe01994e4bc0b22f
:106ed0009847ff2d14bf012100212046fff7d4fe63
:106ee0001422002102a809f076fc092d07971dd86d
:106ef000092d1dd8dfe805f0212b1f571c211c1c74
:106f00001f5dfff7affe90f84b100029e1d106207e
:106f10000191fff7abfe3a4bc0b2019998473b4a4b
:106f20000620536823f008035360cce7ff2d3cd0c4
:106f30004ff0ff308ee702230393052d01d0082d7b
:106f400033d17268324b1340b3f5807f2dd10123ca
:106f50000293082d0cbf022100212b4bf8b2984759
:106f60007379db0709d505f0fb03012b01d0082d50
:106f700003d13846b179274b9847274b02a8984749
:106f8000204689f80250fff771fe00211c4bc0b269
:106f900098472046f179fff739ff2046fff7b0fe0a
:106fa000c0b9002056e701230393029b012bd7d1e0
:106fb000cfe7b8f1010ff8d8002003f0f7fd012862
:106fc000f3d04ff09042d2f8303243f00103c2f8d0
:106fd0003032eae72046fff7affe0028e1d07079b3
:106fe00010f0010504d0b1792046fff761fed8e723
:106ff0000321f9e76ff077002ce700bff2fefffff7
:10700000b92f1010004001486d2f101000440148a6
:107010000001ff00712810105527101007b500223d
:10702000064b8df804106946adf805208df8072051
:107030000093fff707ff03b05df804fb08000100b1
:107040001b28f8b504460e4648d8fff76afe00280c
:1070500044d00c25fff706fe65432844c378062b71
:1070600003d101212046fff7d9ff2046fff774fe28
:107070000746fff7f7fd415d00eb050c0125184ab7
:10708000184b002908bf13469cf8012005fa02f2ac
:10709000ceb1052f01d0082f11d1596821ea020283
:1070a0005a602046fff72cfec0b12046fff744fe91
:1070b000a0b131462046bde8f840fff7f9bd196898
:1070c0000a431a60ede7196821ea02021a609cf887
:1070d00001105a688d4015435d60e2e7f8bd00bfbe
:1070e0000040014800440148e82358430c2310b4f1
:1070f00003fb0103104c07ee902a23441a7c012362
:107100009340013bf8ee676a07ee903af8ee677a33
:10711000231886eea77ad3ed037af8ee677a67ee46
:10712000277afceee77a0a46205817ee901a034bae
:107130005df8044b184700bf6c590010e1be001009
:107140001b2810b504460bd8fff78cfd0c2303fb5e
:1071500004004279012a03d883791ab9052b03d98f
:10716000002010bd112bfae70120fae730b5837932
:107170000446022b89b030d019491a4b0122084627
:107180009847a3797bb92346ff250820012104f104
:10719000d8025d74187419760c339342f9d100212a
:1071a0002068114b984702ad18220021284609f0ab
:1071b00012fb28460d4b98476379294694f9042021
:1071c00020688df81c3000950023094da847064b18
:1071d0000121206898470223a371002009b030bd27
:1071e000000001c0216010106d32101055321010d7
:1071f0005d34101038b50446fff734fd0c2202fb55
:10720000040043798179e820434302fb01330c4dac
:107210001d442b7e022b12d12046fff727fd094b80
:107220000021c0b2984700212046fff7effd01235f
:107230002b762046bde838400021fff725bd38bd3c
:107240006c590010b92f10102de9f04f89b0064687
:1072500090460091fff774ff002876d0fff702fdfb
:10726000524ba8f103029a426fd80c277743384457
:10727000457990f806a0e8204d4c00fb05439b792a
:10728000022b5cd1fff7eefc4ff0e80938440c27e5
:1072900090f805b0837909fb0bf907fb03972744a6
:1072a0003a7e02f0fd02012a24d10021142203a813
:1072b000019309f090fa3f4a03a89047019b54f8c4
:1072c00009001a4603a93c4b9847022330463b76f7
:1072d0007e74fff7cbfc394bc0b2bbf1000f37d146
:1072e0000a21984701213046fff790fd06213046dc
:1072f000fff7cafce8236b43e218c2f808800c22af
:1073000002fb0a3301222344197c8a400099013a86
:107310008a4294bf5a615961294a0023b2fbf8f6a8
:10732000b6f5803fd9b216d3ff2b03f1010111d07e
:107330000233b2fbf3f3b3fbf8f60b46f0e705fbc1
:107340000040fff713ff00289cd009b0bde8f08f84
:107350000921c6e7ff214ff0e80808fb05f70022e6
:10736000e059184b984704eb0709e059711e164b7a
:1073700098474c46c9f80c600026237ef1b2022bd8
:1073800003d128466269fff7affe0136122e04f1e1
:107390000c04f2d1e8234ff0807251465d43044b58
:1073a00058590a4b09b0bde8f04f18477d96980030
:1073b0006c59001011be001025be0010b92f10101e
:1073c000005a620255bd0010a9bd001039bf00105f
:1073d0004ff4fa72fff738bf10b50446fff7b0fe5e
:1073e00008b9002010bdfff73dfc0c2101fb040093
:1073f000e8244379054a6343d418a479022cf0d1d8
:10740000807901fb003313445869ebe76c59001095
:1074100008b5fff7e1ff80b208bd000070b5044673
:10742000fff78efe08b9002070bdfff71bfc0c2390
:1074300003fb040044798679e8200a4d00fb0453dd
:107440009b79022b07d1e8235c430c2303fb064402
:107450002c44207ce8e704fb0050fff787fe00285f
:10746000f1d0e0e76c590010f8b50746fff768fe69
:1074700060b3fff7f7fb0c23e82603fb0700447912
:10748000134d06fb04f3ea189279022a1ed100225a
:107490008179e8580f4b98473846fff7abfe00223a
:1074a00004fb0653197e022910d00132122a03f17f
:1074b0000c03f7d1e8235c4300212859064b984779
:1074c000064b2859984701232e19b371f8bd00bf08
:1074d0006c59001039bf00106d3210109535101026
:1074e00083b21b2b07d81846034b03eb00104368ed
:1074f0000bb180681847704744fa021030b5012478
:1075000000f01f00134d84401348002908bf28468f
:10751000022a816e12d121438166c26b012b0cbffe
:107520002243a243c263039a836c012a0cbf234304
:10753000a3438364036b1c43046330bde54321ea2a
:1075400004018166816b012a0cbf214329408163bc
:10755000e3e700bf00400148004401480022114613
:10756000044b01321c2ac3e90111197003f1100305
:10757000f7d1704744fa02102de9f74300252e4653
:107580000f4cdff84080dff840902378012b0ed1bc
:10759000a8b2fff76bfb0023074619461a46009670
:1075a000c04700213846c847c4e901662670013546
:1075b0001c2d04f11004e8d103b0bde8f08300bf36
:1075c00044fa0210a9251010412610102de9f04fa1
:1075d0002ded028b1b2885b01d460446cde9021215
:1075e000109b05d9464805b0bdec028bbde8f08f75
:1075f0002bb11a78052a02d8db785b07f2d4fff7a3
:1076000031fb0c238146204603fb04fbfff72efbd6
:1076100039f80b300646b3f5d85f03d040f201329b
:10762000934207d14ff09042d2f8303223f0010359
:10763000c2f8303200213046324b9847012d48d0f5
:10764000022d4ad0002d4bd04ff00008c24619f849
:107650000b30002b48d10a2304212b4a2b482c4ff6
:10766000b84704202b4b984719f80b30002708ee39
:10767000103a0021284bf0b298474346524618ee84
:10768000101a30460097fff739ff2246304623494b
:10769000234b984743464ff0010819f80b10524608
:1076a00030460097fff72aff1e4a029802eb0413a8
:1076b000586003982101986002f8018020464146f5
:1076c0001d73fff7e1fa304641460e4b98473846a6
:1076d00089e7a8464ff0010ab9e74ff00008f9e73b
:1076e000a8464ff0020ab2e7012b7ff47baf0a23d2
:1076f00008210d4a0548064fb8470820b2e700bfe9
:10770000f2feffff412610100040014879261010bc
:10771000a96a1010b9691010b92f101075830010e4
:10772000ed28101044fa0210004401481b282de9ee
:10773000f743054621d8dff85080070119b908eb57
:107740000703c3e901112846fff790fa0024064613
:10775000224623462146dff834900094c84721464c
:107760003046074b98472846214608f80740fff760
:107770008bfa204603b0bde8f0830248fae700bf69
:1077800041261010f2feffff44fa0210a925101046
:1077900000221146fff7cabf38b5094c25682846b4
:1077a00000f019fd214651f8040b403005f082fa33
:1077b000206800f097fd2846bde8384000f00dbd78
:1077c00008fc02100b46014610b5044651f8040ba4
:1077d000044a403005f0f1fcb0fa80f35b0984f80c
:1077e0003c3010bde81e0110014690f83c0038b155
:1077f000002381f83c3051f8040b403005f05abab0
:107800007047000000212de9f04f0446cfb0084634
:10781000754600f0b1fd0646206078b901462c227d
:107820000ca808f0d8ff464b0f950c93454b0d93d1
:107830007b4631460ca80e9302f0e8fd27683846d7
:1078400000f0c9fc206800f0cbfc78b12c220021ac
:107850000ca808f0c0ff3a4b0f950c933a4b0d93d0
:107860007b4600210ca80e9302f0d0fd206837491a
:107870000caa403004f0a4fb00285ed10d9b40f21e
:107880000316002b18bf032631462046fff79aff48
:1078900078b12c22002101a808f09dff284b049507
:1078a00001932b4b02937b46002101a8039302f026
:1078b000adfdf30527d5ff230026dff88490dff820
:1078c00098a08df8033004f1040820680123414694
:1078d0000df10302403004f059fdb0f1000b0ddc56
:1078e0002c22002101a808f076ffcde9019a049529
:1078f0007b46002101a8039302f088fd42f2c603f3
:107900005e449e42e1d92046fff76eff78b12c22fb
:10791000002101a808f05fff094b049501930d4b6e
:1079200002937b46002101a8039302f06ffd3846c5
:1079300000f053fc4fb0bde8f08f40f20316a3e710
:107940002c000a00f51e0110091f0110e81e01108d
:10795000301f0110671f0110511f011038b50b4d6a
:10796000d5e88f3f13f001040ed12846fef778fecc
:1079700050b1074880f83c40fff744ff2846fef727
:1079800074fe044808f0dcfe014838bd04fc021017
:1079900008fc02102d8600102de9f84381460020d6
:1079a0000e469046fdf70efefff7d8ff0546076826
:1079b000384600f010fc01212846fff703ff00289d
:1079c0000cda00f007fd0446384600f006fc002003
:1079d000fdf7fafd04eae470bde8f8832c4654f89c
:1079e000040b00234a462146403004f008ff0028db
:1079f00006da00f0effc04462846fff7f5fee3e761
:107a00002868434632462146403004f094fef2e7af
:107a10002de9f8430646012089469046fdf7d2fd40
:107a2000fff79cff05460768384600f0d4fb0221ab
:107a30002846fff7c7fe00280cda00f0cbfc04460e
:107a4000384600f0cafb0120fdf7befd04eae470f1
:107a5000bde8f8832c4654f8040b00234a4621461f
:107a6000403004f0ccfe002806da00f0b3fc0446f7
:107a70002846fff7b9fee3e7286843463246214629
:107a8000403004f083fcf2e728b100f50053d3f84e
:107a9000f01afef709be704738b5002505600446a8
:107aa000fef708fe00280bdb012304f50050c0f8a8
:107ab000f85ac0f8fc5ac0f8083b80f80c5b28461e
:107ac00038bd00002de9f743054699461746002ac0
:107ad0003bd0a9b30a789ab3a2f10803072b34d894
:107ae000012696404ff000083246284601a9cdf8fd
:107af0000480fef7bffd041e1edb2b68019a03f510
:107b00000053c3f8f02a2b6803f50053c3f8f46a56
:107b10002b6803f50053c3f8007b2a6802f5005276
:107b2000c2f8049b2868fff7b7ff041e0bda286829
:107b3000fff7aaffc5f80080204603b0bde8f08338
:107b40004ff40046cee74446f6e7014cf4e700bfa9
:107b5000f2feffff2de9f04f00f500549046d4f8f7
:107b6000082b8146002a8a4689b076dd00263546f4
:107b7000b3465b0003f00207d4f8fc1ab9b3d4f89b
:107b8000003bd4f8f80a0593d4f8f03ad4f8042b63
:107b90001844059b984700280cdac4f8080bd4f861
:107ba000083b002ba8bfc8f80050d4f8080b09b058
:107bb000bde8f08fd4f8fc3a834203d2284bc4f8d6
:107bc000083bece7d4f8f82ad4f8f41a02448a42c5
:107bd000c4f8f82a07d1c4f8f8ba181ac4f8fc0a8d
:107be00028b10223ebe7f8d96ff0f903e7e70eb10c
:107bf0000123e4e794f80c6bd8f800302eb19d42d5
:107c000001d2184bdbe70023d9e75b1bd4f8f82a35
:107c10000693d4f8f43a07a99b1a0793d4f8f03adc
:107c200048461a4401910092029706aa0aeb050100
:107c300005f0cafa0028e4db0128079b0bd038b90d
:107c4000012284f80c2bc4f8fc3a069b1d4493e7f0
:107c5000002bf8d1c8e70646f5e76ff0d100a6e79c
:107c6000defeffffe8feffff2de9f043164647f674
:107c7000fd721f464b1e9bb29342f1460446884656
:107c80008db000f2918000f180050021202228466d
:107c900008f0a1fd454bf106c4f880306388a4f8d4
:107ca0008480a4f8863010d02c22002101a808f08e
:107cb00092fd3f4bcdf8109001933e4b02937b46d3
:107cc000002101a8039302f0a1fb002239463046af
:107cd000c4e9226702f0fef8b4f8a8300022012bb4
:107ce000c4f890002ad11421284602f0f3f8c4f811
:107cf0009400149bc4f8a030159bc4f8a43063888a
:107d0000a3802d4b5b69da0323d5eb061fbf05f17a
:107d10001f0323f01f0325f01f02203312bf9b1afd
:107d20002a462023bff34f8f23491a44002ba2eb8e
:107d300003000addc1f87002203bf7e71c2128464a
:107d400002f0c8f8c4f89c00d3e7bff34f8fbff32d
:107d50006f8f2946207800f05ff900f0cff90546d3
:107d6000164ea38862889bb29a421bd100f0c6f9d6
:107d7000401bb042f5d9a38862889bb29a42f0d1e9
:107d80006ff09f0000234ff6ff72c4e92833638829
:107d9000a28001339bb2934208bf002363800db0e1
:107da000bde8f0830020ede70548f8e72000020079
:107db0002c000a00841f011000ed00e0404b4c0035
:107dc000f2feffff2de9f0410c46424905464b69a2
:107dd000df0324d5d4e90223561c49d1581c49d1cc
:107de0000023c1f88430bff34f8f43f6e076d1f81b
:107df0008030c3f3c900c3f34e335b01024603ea8c
:107e0000060c4ceac277013ac1f86072f9d2203b05
:107e100013f1200ff2d1bff34f8fbff36f8f218883
:107e2000002263182046043953f8046c02f052f81b
:107e3000b04234d00023c4e902336388a5f8a830e7
:107e4000a28822b9ab88e1889bb2994234d005f16f
:107e500008038035ab4239d01988914238d15e6829
:107e6000002e35d0204699683346bde8f0411847ca
:107e7000d10608d022f01f01013b13440a4623f02b
:107e80001f0320335b1abff34f8f12491a44002b94
:107e9000a2eb0300bfddc1f85c02203bf7e7e1681d
:107ea0000029cad0a0680028c4d0002202f012f82d
:107eb00023699842bed1c0e7d5f8a0301bb1204657
:107ec000d5f8a41098474ff6ff73ab80bde8f0815a
:107ed0000c33bfe700ed00e0022310b5a0f8a83096
:107ee000002343804ff6ff73044647f6ff7201708c
:107ef000838000f18c0100f108030c338b4202d027
:107f000023f80c2cf9e70349207800f07af8204692
:107f100010bd00bfed8d001037b504460c4dd5e8ff
:107f20008f1f11f001010bd128460191fef798fb3c
:107f3000019928b10748fff7cfff2846fef795fbc8
:107f400004480378a34218bf002003b030bd00bf2f
:107f500048fc02100050001070b5d6b2304600f058
:107f600067f8164b04465b69d9031dd5c206038822
:107f70001fbf00f1ff315b1823f01f0320f01f0526
:107f80001abf20335b1b0546bff34f8f0b4a1d44be
:107f9000002ba5eb030103ddc2f85c12203bf7e7e1
:107fa000bff34f8fbff36f8f3cb13046fff7b4ff85
:107fb0002146bde87040fff705bf70bd00ed00e051
:107fc00008b5fff7a9ff00280cbf6ff0a90000203b
:107fd00008bd10b586b0cde904210393fff79cffdf
:107fe00060b1dde90332099c05990194089c009475
:107ff000fff73afe00eae07006b010bd6ff0a9008e
:10800000fae70f2808b504d80022f9f0dffd0020b8
:1080100008bd4ff0ff30fbe7044b00f1080243f8c6
:10802000221001461846f9f041bd00bf0060004033
:10803000024b083053f82000704700bf0060004832
:1080400000b589b0bff34f8fbff36f8f4ff0e022c1
:10805000136923f00103136172b60024012017494c
:10806000174b984720460821164bcde90544cde92a
:1080700003440794984704aa03a93220124b984757
:10808000039b05a80593049bcde906340f4b984745
:10809000bff34f8fbff36f8f01200d4b98474ff405
:1080a000fa700c4b98472346224603212046cde91f
:1080b0000044fff78eff20bffde700bfefbeadde3f
:1080c00091081010d50810109dbf0010e5bf0010da
:1080d00031c000109509101008b5074b98477d2155
:1080e000a0fb010180084ff47a72002340ea8170fe
:1080f0008908fcf72ffe08bd1532101008b5044b97
:1081000098477d23a0fb03309b0843ea807008bd9d
:108110001532101008b50020fff7deff08bd000083
:10812000f0b50d4e0a44914214d0076811f8013b96
:1081300083ea070505f00f0556f8254084ea171471
:1081400084ea131303f00f0356f8233083ea141460
:108150000460e8e7f0bd00bfbc1f011000207047bd
:10816000036893f884203ab1d3f89c33c0690b4478
:1081700058430121fcf78aba6ff0d100704770b400
:108180000c4619460368154693f88460039a46b175
:10819000d3f89c33c0691c4400fb045070bcfcf74e
:1081a00021ba6ff0d10070bc704770b40c4619460c
:1081b0000368154693f88460039a46b1d3f89c335c
:1081c000c0691c4400fb045070bcfcf735ba6ff06a
:1081d000d10070bc7047002070470020704700003d
:1081e0002de9f04105468cb07646fff7f4ff95f88f
:1081f0008440002c66d1012305f1400705f10808f1
:108200004146384685f8843003f016ff30b3053018
:108210000fd12c22214601a808f0ddfa2c4b049640
:1082200001932c4b02937b46214601a8039302f055
:10823000edf86ff07f4002f0edfbe72002f04afc22
:108240004146384604f036fe044600283cd14146fb
:10825000384603f0f1fe0446002835d195f89843de
:10826000b4b938461c4904f0bdfe88b111300fd0b6
:108270002c22214601a808f0aefa154b0496019372
:10828000164b02937b46214601a8039302f0bef8e9
:1082900095f88440b4b92c22002101a808f09bfa7b
:1082a0000b4b049601930e4b02937b46002101a8d1
:1082b000039302f0abf82846fff78fff20460cb07f
:1082c000bde8f0810024f6e7002385f88430e2e77a
:1082d0002c000a00fc1f0110222001102720011091
:1082e0005920011038b50546fff775ff95f8844011
:1082f000a4b105f1400003f0dbfe002204464ff478
:1083000000216ff00040eb6c85f8842033b1c3e9a5
:108310000710c3e901225a611b68f7e72846fff7f7
:108320005cff204638bd00000f4b8060c3600f4be0
:1083300003610f4b43610f4b83614ff48073c0e9be
:1083400007334ff4805343628023c36200f18803f4
:10835000036300f5c473436300f52273836300f580
:108360002673c363704700bf3f9000101390001046
:10837000f58f0010f18f001008b502461248016811
:10838000d1b901230360114880f89813104981f88e
:1083900098334ff4c063c0f89c334ff4007383628a
:1083a0004ff4f073c1f89c334ff490738b62fff776
:1083b000bbff0846fff7b8ff22b1012a044818bfe7
:1083c000002008bd0148fce78c0303104cfc0210a0
:1083d000ecff0210002807da3430322803d8034bb0
:1083e00033f9100070470248704700bf7620011033
:1083f00094f8ffffc0e90312436100207047406911
:10840000704738b51546d0e902239342044607d297
:10841000d21a4068aa4228bf2a46184408f0b4f984
:10842000e26801202a44e26038bd10b58c1c9c42f1
:108430000fd862b10323147002f8013f03460144d0
:108440008b4204d013f8010b02f8010ff8e7204625
:1084500010bd6ff0bd00fbe707b503688df807108e
:1084600001221b680df10701984703b05df804fb7a
:108470002de9f04f013980461546994689b0062905
:108480007fd8dfe801f004137e7e7e540400c46dc3
:108490004c4528bf4c462ab100f11c012246284613
:1084a00008f072f9204609b0bde8f08f4068002856
:1084b00069d0036808f10806db6c984708f11c03d3
:1084c0004ff00008c7434ff0050a44460393039b4f
:1084d0009e42e7d0306830b3037a23b30368524634
:1084e000d3f828b041463b46d84730680368d3f8f4
:1084f00020b0d5b12919139ba9eb04020093129b5c
:10850000d84700280fdb0444306803685b6b98474a
:108510008044306803689b6b9847824430680368e6
:108520001b6b984707430436d1e72946e3e700244d
:108530000921164b04a8cde90432cde90614fff752
:108540008bff062104a8fff787ff214604a8fff749
:1085500083ff022104a8fff77fff214604a8fff74d
:108560007bff214604a8fff777ff402104a8fff70f
:1085700073ff012104a8fff76fff214604a8fff74e
:108580006bff03488fe76ff0d1008ce7fc200110f0
:10859000f2feffff416001b148600020704730b536
:1085a00000f1080200f11c05aa42144607d0236816
:1085b0000432002bf8d121604860184630bd6ff0be
:1085c000c700fbe7402a28bf402210b50446c26519
:1085d0001c3008f0d9f8e06d10bd406810b1036898
:1085e0001b6d18470846704770b50546802914bfb3
:1085f00001204ff4803000260c46696900fa06f32a
:10860000194206f1010609d12ab119436868696166
:10861000fff7e3ff686144ea060070bd102eedd15c
:108620006ff0a900f9e708b5406828b103689b68b6
:10863000984700eae07008bd6ff0d100fbe710b486
:10864000406828b10468246ca4465df8044b604778
:108650006ff0d1005df8044b704710b4406828b14a
:108660000468646ca4465df8044b60476ff0d10069
:108670005df8044b7047406810b103689b6c184765
:108680006ff0d100704730b548b1c9b18d1cb3eb64
:10869000450f4fea450415d34b1c0ab9a01e30bd47
:1086a0005b001370032300215370231f0138134410
:1086b00010f8015f0232157051709a42f8d1ede75f
:1086c0000846ece76ff0bd00e9e700002de9f04750
:1086d000042996b00c4692461d461e9e06d84c1e96
:1086e000032c20d8dfe804f028673167ee2974d026
:1086f000fa2977d000f1080800f11c07b84500f00e
:10870000868058f8040b0028f8d0037a002bf5d0a7
:1087100003680096d3f8249052462b462146c8475a
:108720000028ebdb44e033462a460221394816b0e4
:10873000bde8f047fff779be33462a4608213648a0
:1087400016b0bde8f047fff79ebf00241422214673
:1087500007a8069408f03ff80c210deb0100cde9c5
:1087600003440594fdf70ef806ab8446184603aaa9
:10877000a44518d012f8011b02334fea111e0ef166
:108780003007392f88bf0ef1570701f00f0103f8aa
:10879000027c01f13007392f88bf01f1570703f838
:1087a000017c0134e4e733462a461821fff76bffca
:1087b00016b0bde8f08700213c2207a8069108f01a
:1087c0000af8402106a800f027fe06a8fcf766fc80
:1087d000334601462a4606a8e8e733462a461021d2
:1087e0000e48a4e70020cde9060002f0dff960b9e9
:1087f00002f0c2fa0a4b0b4a002808bf13461b6856
:1088000006932a4633460821e5e7074bf8e76ff061
:10881000a900cde7e6200110e92001100021011098
:10882000dc200110e1200110736d3d702de9f8434b
:108830000d464ff000094ff0010800f1080400f167
:108840001c07bc4214d0206868b1037a5bb103688e
:1088500029469b689847061e206806da0368294661
:10886000db689847b1460434ebe780f81880fae7f4
:108870004846bde8f8832de9f041002488462746a4
:1088800000f1080600f11c05ae4211d0306868b155
:10889000037a5bb1037e4bb103684146db689847be
:1088a00034ea200428bf044633681f760436ebe719
:1088b0002046bde8f08110b5436804464bb1002165
:1088c000fff7d9ff60680368db68984700eae0704b
:1088d00010bd6ff0d100fbe770b50e4600f1080542
:1088e00000f11c04a5420dd055f8040b0028f9d066
:1088f000037a002bf6d0036831461b69984700289d
:10890000f0db70bd6ff0a900fbe72de9f0470c46e6
:108910001646994600f1080700f11c0501f0800891
:10892000bd4217d057f8040b0028f9d0037a002b6a
:10893000f6d00368b8f1000f09d0d3f818a04b4661
:1089400032462146d0470028eadbbde8f087d3f85d
:108950001ca0f4e714f07f0f0cbf00206ff0a900fb
:10896000f3e710b4406828b104682468a4465df8b1
:10897000044b60476ff0d1005df8044b704710b4b2
:10898000406828b104686468a4465df8044b6047f9
:108990006ff0d1005df8044b70474368002b0cbfab
:1089a0006ff0d100002070474368002b0cbf6ff0c0
:1089b000d10000207047406808b1fff737bf6ff063
:1089c000d1007047406808b1fff755bf6ff0d10084
:1089d0007047406808b1fff77fbf6ff0d100704764
:1089e000406808b1fff791bf6ff0d10070470000f9
:1089f000044ac0e900210022c0e903220272426158
:108a00000276704718210110017270477047704755
:108a10006ff0770070470000806830b18378042bd6
:108a200002d8024ad05670470020704763220110d6
:108a3000002070476ff07700704701230373002018
:108a400070470000004870470a000500084670475c
:108a500001207047704710b504464ff41a71fdf7b6
:108a6000cffd204610bd00002de9f0410c46816885
:108a7000f046064615461f468eb081b92c2203a843
:108a8000019107f0a8fe0f4bcdf8188003930e4b11
:108a900004937b46019903a8059301f0b7fc6a1e75
:108aa000022a96bf094b00229a5cb068e1b2bbb2c1
:108ab00005f07efc002814bf6ff0630000200eb0ac
:108ac000bde8f0812c000a00642101106022011031
:108ad00070b50d468168764604468eb079b92c2271
:108ae00003a8019107f077fe0d4b069603930d4bfb
:108af00004937b46019903a8059301f087fc05f0d8
:108b00007f03042b0ad8a068e9b205f05afc0028bc
:108b10000cbf00206ff063000eb070bd0248fbe791
:108b20002c000a0080210110defeffff70b50d460b
:108b30008168764604468eb079b92c2203a801914b
:108b400007f049fe0b4b069603930b4b04937b46b1
:108b5000019903a8059301f059fca368e9b2d8690b
:108b600007f0eefa002814bf6ff0630000200eb08b
:108b700070bd00bf2c000a009c21011070b50d468d
:108b80008168764604468eb079b92c2203a80191fb
:108b900007f021fe0b4b069603930b4b04937b4689
:108ba000019903a8059301f031fca368e9b2d869e3
:108bb00007f0f9fa002814bf6ff0630000200eb030
:108bc00070bd00bf2c000a00b82101102de9f04152
:108bd0000f468168f046054616461c468eb081b9a0
:108be0002c2203a8019107f0f6fd174bcdf8188051
:108bf0000393164b04937b46019903a8059301f058
:108c000005fcdeb1d4b11fb1fb889c4228bf1c46d5
:108c1000b4f5007fa7b213d805f110032246314600
:108c2000184607f0b1fd3a460146a86805f0dbfb9f
:108c300020b16ff063000eb0bde8f0810020fae7cc
:108c40003a463146f1e700bf2c000a00d42101105a
:108c5000f0b581687746044615461e468fb079b94f
:108c60002c2203a8019107f0b6fd0d4b0697039344
:108c70000c4b04937b46019903a8059301f0c6fbb6
:108c800015b900200fb0f0bd002efad02946a0681b
:108c9000b2b205f0b4fb0028f3d06ff06300f1e747
:108ca0002c000a00f021011070b590f85c320546e6
:108cb00003f0ff0683b9012300f5047080f84c30ff
:108cc00005f030fb20b16ff0630085f85c6270bd89
:108cd00005f5097005f058fb0020f8e7f0b5144cd5
:108ce0000027a4460646134b00f5047547608760cd
:108cf00007730360bce80f000fc5dcf800301434c4
:108d00002b6006f509750fcc0fc50fcc0fc50fcc26
:108d10000fc5236830462b6086f85c72c6f858721f
:108d200086f85d72c6f86072c6f86472f0bd00bf66
:108d30002c1b01107022011010b50a4cd4e88f3f93
:108d4000db070cd42046fdf78bfc40b10648fff74b
:108d5000c5ff2046fdf789fc044807f0f1fc0248f6
:108d600010bd00bf94030310a8030310a1980010c6
:108d700070b50e46044605f08bfa082e054612d152
:108d80000c4a2368136063685360237803f01f0262
:108d9000012a08d162f346132370fff7cdffc0f814
:108da0005842284670bdfff7c7ff0023c0f858326d
:108db000f7e700bf9803031038b5d0f860520446b7
:108dc00055b10025c0f8605205f0daf9012384f8a6
:108dd0005d32c4f8645206e0d0f864325a1c632b4a
:108de000c0f86422f0d838bd10b505f0d1f983047d
:108df000044603d5fff7a0fffff7deff204610bdb6
:108e0000d0f858323bb104490a681a604a685a607f
:108e10000023c0f8583270479803031010b5044679
:108e20000b6808465b6d21609847204610bd10b561
:108e30000446006803689b6d9847204610bd37b50f
:108e400004460025014601a8fff7e8ff84f85d52bb
:108e500084f85c5205f094f905f0a0fa05f078fa70
:108e6000c4f8645201a8fff7e2ff284603b030bd02
:108e700073b50446244dd5e88f3fdb070ad4284656
:108e8000fdf7eefb30b1fff745f9204b186028469f
:108e9000fdf7ebfb94f85c3213b91d4b1b7873b3f1
:108ea000fff738f9194d2b68c01ab0f57a7f26d331
:108eb000fff730f994f85d322860154d0bb92b7827
:108ec000ebb10026214601a8fff7a8ff2368204642
:108ed000db68984701a8fff7aaff214684f85d6286
:108ee00001a8fff79bff236820469b68984701a8cd
:108ef000fff79dff94f85c321bb901232b7002b081
:108f000070bd2e70fbe700bf90030310a003031099
:108f1000a403031070b50d468168764604468eb0f2
:108f200079b92c2203a8019107f055fc174b06963e
:108f30000393174b04937b46019903a8059301f013
:108f400065fafff7f9fe014603a8fff767ffa3687c
:108f5000db69d3f88061304605f0d0f905f07f0079
:108f600005f040f90446002005f03cf905f056f9fb
:108f7000304605f0c5f9002c0cbf00246ff06304e7
:108f800003a8fff754ff20460eb070bd2c000a0066
:108f90000c2201102de9f0410c468168f04605468f
:108fa00017461e468eb081b92c2203a8019107f006
:108fb00012fc1d4bcdf8188003931c4b04937b4689
:108fc000019903a8059301f021fafff7b5fe0146c8
:108fd00003a8fff723ffe4b2dfb9d6b9ab68db69ba
:108fe000d3f88051284605f089f904f07f01324614
:108ff000304605f02df90446284605f081f98cb17c
:109000006ff0630403a8fff712ff20460eb0bde81f
:10901000f0813a46a868b3b244f0800105f0d7f970
:109020000028edd10024ede72c000a0028220110d1
:109030002de9f0410d468168f046044616461f466c
:109040008eb081b92c2203a8019107f0c4fb124b0a
:10905000cdf818800393114b04937b46019903a824
:10906000059301f0d3f9fff767fe014603a8fff768
:10907000d5fea0683246bbb205f07f0105f0adf920
:1090800000280cbf00246ff0630403a8fff7cffe95
:1090900020460eb0bde8f0812c000a0044220110e9
:1090a0002de9ff4180460c461746fff745fe014675
:1090b000054603a8fff7b2feb8f80230180aecb173
:1090c000022c18bf00240328d9b205f1100617d0ce
:1090d000cde900414ff40073014632462846fff7c0
:1090e00040fc0028babf0026304680b2388003a872
:1090f000fff79dfe304604b0bde8f0810124e2e7b1
:109100004ff4007328460093b8f804203346fff765
:1091100036fce6e773b50d460646fff70dfe04463e
:10912000014601a8fff77afea36803b9a6600023f1
:10913000c4f860522946c4f864322046fff73bfc6d
:10914000041eb8bf052401a8fff771fee0b202b00b
:1091500070bd73b50d460646fff7eefd04460146a9
:1091600001a8fff75bfea36803b9a6602946204665
:10917000fff728fc041eb8bf052401a8fff757fe1f
:10918000e0b202b070bd000037b50546fff7d4fd70
:109190000446014601a8fff741fea36803b9a56094
:1091a000002520460949c4f85852fff712fca8428e
:1091b00002db237b3bb12573052401a8fff737feb3
:1091c000204603b030bd1c46f7e700bf98030310ec
:1091d000fff7dabf37b50546fff7aefd0446014697
:1091e00001a8fff71bfea36803b9a5602046fff79f
:1091f000d4fb041eb8bf052401a8fff718fee0b297
:1092000003b030bd37b50546fff796fd044601466d
:1092100001a8fff703fea36803b9a5602046fff786
:10922000c3fb041eb8bf052401a8fff700fee0b28f
:1092300003b030bd37b50546fff77efd0446014655
:1092400001a8fff7ebfda36803b9a5602046002243
:109250008021eb88fff7c4fb0028acbf0024052465
:1092600001a8fff7e4fd204603b030bd37b5054641
:10927000fff762fd0446014601a8fff7cffda36892
:1092800003b9a5602046fff7bbfd0022eb8811461d
:10929000fff7a6fb0028acbf0024052401a8fff7b8
:1092a000c6fd204603b030bd73b50d460646fff738
:1092b00043fd0446014601a8fff7b0fda36803b9ca
:1092c000a660002320461a4645f08001fff788fb80
:1092d0000028acbf0024052401a8fff7a8fd204604
:1092e00002b070bdf7b50d4616460746fff724fde0
:1092f0000446014601a8fff791fda36803b9a760e2
:109300002046fff77dfd334600222946fff768fb24
:109310000028acbf0024052401a8fff788fd2046e3
:1093200003b0f0bd70b50546012d084616461c4633
:1093300009d11a463146fcf721fa0028b4bf6ff074
:10934000da00204670bd022d04d11a463146fbf7e3
:1093500073f9f2e7032d03d10120fdf78dfaece755
:109360006ff0a900eee700002de9f04706460d4634
:109370001746ff214ff48062154807f02cfa4ff092
:10938000050adff84c90dff84c804846c0474ff4a0
:1093900080614846fcf7fdf804464846c0474ff454
:1093a00080614846fcf7f5f8baf1010a034604d19a
:1093b000844204d06ff0f90008e09c42e5d10449f2
:1093c0003a462846314407f0dff90020bde8f0872f
:1093d00010060310990e101008b50b4611464ff0f9
:1093e00090421269520106d51a46084b9847012847
:1093f00008d1002008bd064b1b689b0302d5054819
:10940000f6f0aef86ff0da00f4e700bfad0f101021
:109410000c000010cc22011037b5002204460d4686
:10942000684601a90192fcf7d3f9019b2946012b5b
:1094300020460cbf034b044b044a07f057fb0020a7
:1094400003b030bdf52201100a23011007230110db
:10945000224910b50846224c0122a0472149012289
:109460000846a047204901220846a0471f4901227b
:109470000846a0471e4901220846a0471d4901226f
:109480000846a0471c4901220846a04701221b4963
:109490001b48a04701221b491b48a04701221b492a
:1094a0001b48a0471b4901220846a0471a49012230
:1094b0000846a047194901220846a0471849012239
:1094c0000846a047174901220846a0472346bde8a1
:1094d0001040012214491548184700bf000010c071
:1094e00021601010000008c0000004c0000002c08d
:1094f000000001c0000200c0000100c0040000c064
:109500000c0000c0010000c0030000c00000038088
:109510000000018000020080000100800400008043
:1095200002000080010000800100004003000040b4
:1095300010b54ff09044d4f8443380b923f48073cd
:1095400023f00103174ac4f84433c3f346031360fe
:10955000d4f8803223f00703c4f8803210bddb0753
:10956000fcd4d4f88032052043f00703c4f88032dd
:10957000d4f8443343f48073c4f844330a4b984717
:10958000084ad4f84433126823f0fe0343ea420346
:10959000c4f84433d4f8443343f00103c4f84433eb
:1095a000dce700bf100a0310490910104ff0904388
:1095b000d3f80822012042f08052c3f80822d3f8e1
:1095c000442342f40072c3f84423fff7b1bf000004
:1095d000f0b574468fb0bff34f8fbff36f8f00218c
:1095e000a14bc3f85012bff34f8fbff36f8f5a696f
:1095f00042f400325a61bff34f8fbff36f8fc3f84d
:109600008410bff34f8f43f6e075d3f88020c2f388
:10961000c900c2f34e325201014602ea050747ea89
:10962000c1760139c3f86062f9d2203a12f1200ff5
:10963000f2d1bff34f8f5a6942f480325a61bff3bf
:109640004f8fbff36f8f89499a688948d1609a68b4
:10965000884911619a68884951619a68874991617e
:109660009b68874a8749da610122874b1a6060222a
:10967000864b984707f0f6fafff7eafefff796ffea
:109680004ff08042136a43f001031362f8f06efb5f
:10969000fdf7eef878b12c22002103a807f09bf823
:1096a0007b4b069403937b4b04937b46002103a8da
:1096b000059300f0abfe01f0f5fa01f069fb002024
:1096c00001f074fa012802461ed1ff23019003a97c
:1096d0000e208df80c30fff747fea8b99df80c302e
:1096e000019a13f0010f0fd143f001030e2003a9db
:1096f0008df80c30fff770fe4ff09042d2f82c320c
:1097000043f48033c2f82c32002001f04ffa0128d4
:1097100004bf4ff09042d2f830324ff0010404bf42
:1097200023f00103c2f830324ff09042d2f82c32cd
:10973000d80344bf23f48033c2f82c32002001f058
:1097400035fa01281fbf4ff09042d2f8303243f073
:109750000103c2f83032444ad2f8fc3043f080733f
:10976000c2f8fc3000224c4b5a601a6842f00102e9
:109770001a60e0b20134fdf735f9082cf9d1fdf794
:10978000edfe01210020fdf7b5f94ff09042d2f82f
:10979000043503a823f4407343f40073c2f804357e
:1097a0003e4b98473e4b03a898473e4c3e49042009
:1097b000a0473e4bda68d10506d5da6822f48072fc
:1097c000da60da68d205fcd44ff0007300221a6028
:1097d0001b681bb14b213648f6f000f9354b984712
:1097e00030b10020344b984720f001010020a04701
:1097f0000023012031490c6c00fa03f214422ed1ef
:10980000db002f4803f1a04303f5414318602d48c6
:1098100058600b6c1a430a64bff34f8fbff36f8f0e
:109820000024114bc3f85042bff34f8fbff36f8f2b
:109830005a6942f400325a61bff34f8fbff36f8f02
:109840000e21214a0a23214d2148a8470e20214bf1
:10985000984720460fb0bde8f040fef7b1bb01339a
:10986000072bc8d1d8e700bf00ed00e0d36500109a
:1098700038000010d9650010df650010e5650010a4
:1098800031d00710f801080000000010156d10100d
:109890002c000a0016230110001000e051c0001037
:1098a00095c00010b1c10010100303020040014038
:1098b0003a230110c1c10010a1c1001000c1005025
:1098c00000500010e050001000600048a96a10101d
:1098d000212a1010b96910104ff47a720c4b1b68d2
:1098e000b3fbf2f3013bb3f1807f10d24ff0e022e3
:1098f000e02100205361074b83f82310906107207b
:10990000106183f823109b68034ada637047fee70f
:10991000605b001000ed00e0eb6500104ff0e0220e
:10992000136923f001031361704708b5bff34f8f2c
:10993000fff7f4fffdf780f8fcf79cfffdf764f8f4
:10994000bff34f8f08bd000001220b4b10b59a7377
:109950006ff02f020024da7350224ff4a0410a2046
:109960001c725a72fbf718fe22462146bde81040d1
:109970004620fbf7fdbd00bfb8000c0010b50b4c36
:109980000b4b22689a420fd01c22ff21201d06f0ab
:1099900022ff6ff03f0323706ff0530363706ff08b
:1099a0002103a3701a23e37010bd00bfb8000c00a0
:1099b000c0acde1a70470120704770470022024b8e
:1099c0009a72da72704700bfb8000c00014b9880a1
:1099d000704700bfb8000c0070477047836810b52f
:1099e0001bb9144b144a1a6010bd144a5269d103b2
:1099f00017d5da061fbf23f01f01033323f01f031f
:109a0000203316bf5a1a04220b46bff34f8f0b4c5c
:109a10001344002aa3eb020107dcbff34f8fbff30f
:109a20006f8f83681a68034bdde7c4f85c12203a35
:109a3000efe700bf3c5b0010e8feffff00ed00e039
:109a400038b50546012d144608461a4609d0022da0
:109a50000bd07db92146fbf791feb0fa80f04009aa
:109a600038bd2146faf7e8fdf7e7204606f08cfe00
:109a70000120f5e70020f3e710b50446012c084665
:109a800011461a4608d0022c09d064b9fbf76efec5
:109a9000b0fa80f0400910bdfaf7a4fdf8e706f02f
:109aa00073fe0120f7e70020f5e700002de9f04301
:109ab000adf5077d80460c46914600214ff4887233
:109ac00042a81f468e9d06f086fe00218f9b83953f
:109ad00068461d44274a42ab8df814728495009164
