:020000040806ec
:1000000000000608a85507080000fe080a000403bf
:1000100004026e0000000000304907085848070835
:1000200064470708084807085c470708c0480708ee
:1000300010b5012203680446984710b1a368013b3c
:10004000a36010bd10b54468a318436039b90120fe
:1000500010bde05cc85401339342fad1f7e70023a6
:10006000fae72de9f341002507460e46a8462c463f
:10007000bb680bb338460df10701fff7d9ffd8b1c4
:100080009df807c0a4f120030cf07f02c4f1200109
:1000900002fa03f322fa01f10b43a2401cf0800f95
:1000a00045ea020543ea080804f1070402d1c6e95b
:1000b000005802e0462cdbd1002002b0bde8f08100
:1000c000f7b50f4669461646fff7cbffb0b1dde93d
:1000d0000013002501f001044a0842eac37254ea01
:1000e00005014fea530314bfdd431d463b7914bf9e
:1000f000d4431446082b03d1c6e9004503b0f0bd34
:10010000042b08d122463460d317ab4206bfa2426b
:1001100001200020f2e7022b03d123b233801ab270
:10012000f2e7012b03d163b233705ab2ece700203f
:10013000e4e773b50c4669461646fff792ff68b1cf
:100140002379082b0cd1dde90045c6e90045dde93e
:100150000023ab4206bfa2420120002002b070bdc6
:10016000042b04d1009b00251c463360efe7022bd3
:100170004ff0000004d1009b33809cb20546e6e7b7
:10018000012bebd1009b337003f0ff04f6e737b58a
:100190000d4669461446fff764ff30b1dde90031d2
:1001a0002a79082a03d1c4e9003103b030bd042afa
:1001b00018464feae37108d11a4623600b468b427a
:1001c00006bf824201200020efe7022a04d11bb2c1
:1001d00023801ab2d317f2e7012a03d15bb223704e
:1001e0005ab2f7e70020e0e72de9f34183680646bd
:1001f0000d4614462bb974b90027384602b0bde845
:10020000f0810df10701fff713ff074630b9b3681e
:10021000002bf1d1efe701232370ede79df90730c3
:100220009df80740002b28da4ff0070804f07f0400
:10023000b368002be0d030460df10701fff7f8fe60
:100240000028d9d09df80730b8f11f0f03f07f02c6
:1002500015d9b8f13f0f34bfff2101211ab1002c8d
:10026000cada9942c8d11a0608f10708e0d4b8f1f1
:10027000230f02d113f0700fbed12c60bde702fa3c
:1002800008f21443efe737b50d46002201a90446f2
:10029000fff7aaff034618b90023184603b030bd84
:1002a00094e8070085e8070001998a42f4d3a96021
:1002b000a268521aa260f0e730b50446154685b030
:1002c000a9b90268114b9a4211d0102d06d82a46be
:1002d00069462046fff7f0ff05b030bd10226946a1
:1002e0002046fff7e9ff0028f6d0103dede7a368b0
:1002f000ab4201d20020efe72a4620462368984708
:100300000028f7d0a268521ba260e5e74500060866
:10031000f7b50f46154601a900220646fff764ff10
:10032000044638b10199ff290fd83a7929b92846ee
:100330000af08efa204603b0f0bd8a4205d1294664
:100340003046fff7b9ff0446f4e70024f2e7f7b5bb
:100350000e46154601a900220746fff745ffa0b14a
:100360000123019a0024d31804d2717801f0c0014e
:10037000802901d1204608e031799942fad32946f3
:100380003846fff799ff019bec5403b0f0bd73b5fd
:100390000d46144601a900220646fff725ff88b145
:1003a000019aff2a10d86b78511c03f0c003802bf0
:1003b0000ad02b798b4207d32146304601f8012b16
:1003c000fff77aff02b070bd0020fbe713b51446bb
:1003d00069460822fff770ff18b1dde90023c4e980
:1003e000002302b010bd13b5144604220deb020128
:1003f000fff762ff08b1019b236002b010bd38b562
:100400008a6805460c461ab9012063686b6038bdde
:1004100000212046fff750ff0028f5d1f7e713b57c
:100420000446052920d8dfe801f0030f151f1f1d22
:100430000122204601a9fff73fff18b19df90430c2
:10044000002bf5db02b010bd082200212046fff78b
:1004500033fff7e7002201a9fff7c6fe0028f1d01d
:10046000019af2e70422f0e70020ebe7f8b506680e
:100470000446154626b90120e2682a44e260f8bd28
:10048000c368876813449f4201d20020f7e7b04752
:100490000028f0d1f9e707b5136804220deb02013b
:1004a0000193fff7e3ff03b05df804fb07b50cca47
:1004b00000921a0a8df805201a0c8df804308df878
:1004c00006201b0e082269468df80730fff7ceff85
:1004d00003b05df804fbf0b5002b08bf802a064688
:1004e00014461d4685b007d28df80420012201a9cb
:1004f000fff7bcff05b0f0bd002201a864f07f0348
:1005000000f8013be30943ea4563ef093d46e1b2e8
:100510001c4654ea0507134602f10102eed104a875
:10052000034401f07f0103f80c1c304601a9dfe70a
:1005300070b40b79012b11d192f90040e5172619ff
:1005400045eb0501002c75f1000432460b46b8bf9f
:10055000f24370bcb8bfcb43fff7bdbf022b02d143
:10056000b2f90040eae7042b01d11468e6e7082b52
:1005700002d1d2e90045e2e7002070bc70470b7958
:10058000012b03d112780023fff7a5bf022b01d165
:100590001288f8e7042b01d11268f4e7082b01d187
:1005a0000ccaf1e7002070470b79012b04d192f9b6
:1005b0000020d317fff78fbf022b02d1b2f9002022
:1005c000f7e7042b01d11268f3e7082b01d10cca1d
:1005d000f0e70020704770b5002304460d4616462c
:1005e000fff779ff30b1324629462046bde870401a
:1005f000fff73cbf70bd13460a791946fff7ebbf02
:1006000010b40b79497801f0c001802908bf4ff080
:10061000ff33114622b100229a4201d08c5c14b9fa
:1006200010bcfff7d8bf0132f6e730b40c460546e0
:10063000114612b930bcfff7cebf6378127813f0c1
:10064000c00003d12479531ca34202d828460131ab
:10065000f0e730bc7047134641eac2025b0ffff778
:100660003abf4a780b4602f00f02092a10d8dfe899
:1006700002f00d0d0d05090b0b0b0f0b05211a7860
:10068000fff7e9bf0121fae70221f8e70021f6e7c9
:100690000020704710b54468a318436000239342bc
:1006a00001d1012010bdc85ce0540133f7e70023fd
:1006b000c0e90011c0e902328b781a44026191f955
:1006c00003301a4442610878003818bf012070478f
:1006d00038b5416803460a78002a34d001f10a028d
:1006e00042608c7a2cb9c2680168fff7e0ff2046af
:1006f00038bd48780a7900f03005302d09d1cc7a20
:1007000004f03004302c18d10c7bff2c15d10120c3
:10071000eee700f0f004202c0fd14879424315b9e0
:10072000986801309860087b10441a6902441a6185
:1007300091f90d100a445a61e9e700f0c0008028e1
:1007400008bf0422ebe71046d2e77fb50a46014610
:100750006846fff7acff30b1684600f007f868461e
:10076000fff7b6fff7e707b05df804fb30b5426866
:100770000346527887b002f00f0108291dd10025e9
:1007800003691c680cb907b030bd236825739968ec
:1007900062686846fff78bff63686846049304f15c
:1007a0000c0305934b7803f0c003802b04bf231d7b
:1007b0000493fff7dbffa468e4e712f0c00124d143
:1007c00002f03000102812d1d3e90402824200d096
:1007d00011705a6818695378d2f8064003f00f0375
:1007e000072b09d101462046fff7afffcbe7900664
:1007f000efd55b691970c6e72146127914b109f08b
:10080000ffffc0e70af024f8bde78029bbd1002133
:10081000006992060160b6d5ebe700002de9f043d0
:100820000b46516815464a78064612f0c00487b058
:1008300003d0402c71d000240ce002f00f0c614f6b
:1008400002f03002202a57f82c7029d006d8d2b1f5
:10085000102a1cd0204607b0bde8f083302af9d119
:100860006b690a78bcf1070f1a7016d16b682146c4
:100870001a79286909f0ecff6b682969d3f806003a
:10088000fff763ff09e02a69b8470446e2e7d5e9c4
:100890000423934201d001221a702a6969683ae060
:1008a000022bd5f8148029d1bcf1040f26d803a956
:1008b000fff7e9fc04460028bdd0059b2bb1696811
:1008c00098f800304a799a4209d8059b002bb2d19a
:1008d000304603a9fff793fd0028bbd1abe70879a9
:1008e0002a6903fb002203a8b84728b198f8003012
:1008f000013388f80030e0e70446e6e798f8003076
:100900000879591c2a6988f8001069684c799c425a
:1009100091d903fb00223046b6e72f690fb13a6840
:1009200022b919463046fff77afdaee7022b07f1f0
:10093000040815d103a9fff7a6fc00283ff47baffc
:1009400042463b68696803a8984700283ff473afa4
:10095000059b002bf4d1304603a9fff750fd94e727
:10096000012b21d0052b27d0002b7ff464af1c4630
:10097000e94601340b2c3ff45eaf01224946304674
:10098000fff79afc00283ff456af19f9013b002b02
:10099000efdb0d4bcdf810d00393059442463b6836
:1009a000696803a8984770e708226946fff784fc46
:1009b00008240028edd13ee704226946fff77cfcbd
:1009c0000424f6e7a4ff0608450006082de9f04fc9
:1009d000002493b0054606a8cde904448df80e40e6
:1009e000a146fff764fea346ab68d3b924b1627990
:1009f0009df80e309a4253d1dde9073406a85d78a0
:100a0000fff766fe0028f7d115f0300f03d1079be2
:100a10001b7803b10134402c7cd8002c7bd1012001
:100a20003fe028460df10f020ca98df80fb0fff73b
:100a3000dbfb20b10c9f3fb901238df80f309df8ef
:100a40000f30002bd2d12be007f00703ddf81ca0fc
:100a50004fead7080193079b1a78904504d15a783a
:100a600002f00f01082979d106a8fff731fe079e91
:100a7000b245f0d1c1450dd8079a537803f00f0362
:100a8000082b4fd006a8fff723fe079b9e42f3d109
:100a90004ff0ff3928460199fff7c1fc0028a3d188
:100aa000002013b0bde8f08f99680b78984553d1ba
:100ab00072680ca8fff7fbfd73682846109306f1d7
:100ac0000c0311934b780caa03f0c003802b04bfd6
:100ad000331d10934ff0010301993373fff79efe0e
:100ae00038e051f822000130dad101329342f8d1d6
:100af00014f01f0493d04ff0ff3012aa02eb8303cf
:100b0000c4f1200420fa04f453f8380c231a584294
:100b10005841c6e740240022630904a9e6e753458b
:100b2000b8d061e792f80090c145b3d80a9bd5f8d8
:100b300008a01e68ab68002ef1d053457ff454af77
:100b400033681a681746002aaed042463146284616
:100b5000019bb8470028a3d0b668ebe702f030024b
:100b6000202a11d1dde90a2191420dd19c4207d002
:100b700024b161799df80e20914291d18df80eb08b
:100b80001c460df10e020b925b7813f0300f10d162
:100b9000089b3f2b0dd85a0912a901eb82020121b3
:100ba00003f01f0301fa03f352f8381c0b4342f819
:100bb000383c2846019906aafff730fe6ee7f0b5eb
:100bc00085b00d46d1f8067001a906461446fff718
:100bd0005afbb0b1d5f806309bb16b7803f0300307
:100be000202b03d121463846fff7affd2246394678
:100bf00001a8fff7ebfe01a904463046fff7fffb13
:100c000000b90024204605b0f0bd10b543780a466f
:100c100013f03001044686b03fd0202990f903003c
:100c200005d160b1105cb0fa80f0400907e03029ce
:100c3000f8d0102905d120b1105c80f0010006b079
:100c400010bd13f0c00f05d023791344934220d177
:100c50000120f4e703f00f03052b01d11078e2e740
:100c6000062bfbd0092b01d12079dce7072bebd138
:100c70006846d4f80610fff71afd0028e8d004995a
:100c80000198fff7c2ff0028d9d06846fff720fd82
:100c9000f3e712f8011b0029d8d00020cfe70000ad
:100ca0002de9f04715464a78064602f0c003402b6e
:100cb0000c4686b000f0cd8053061bd4684b02f082
:100cc0000f0153f8217094f90330abb12b446278d3
:100cd00002f0c000802805d12d68291e18bf01210f
:100ce0008df8071002f03001202931d017d8e9b172
:100cf000102928d0002057e002f03002102a0ad133
:100d000029462046fff781ff80f001008df807009b
:100d10000df10703dbe701238df80730f8e73029f1
:100d2000e8d11a7823789a4210d101e0002de1d061
:100d300021463046fff795fc0028dbd02a462146a5
:100d40003046b84730e01b78002bf1d101202be072
:100d500094f9031059b393f80080b8f1000ff5d05f
:100d6000802802d063799845c4d802f00f02042a83
:100d70004cd8022130462278fff76dfc0028b9d00c
:100d8000637803f00f03032b14d14fea88094a4616
:100d900000233046fff79ffb0028abd0316829bb0a
:100da0004a463046fff762fb06b0bde8f08794f88c
:100db0000580d2e7042b02d14feac809e7e71022e9
:100dc000002102a809f044fdaa464ff0000952464e
:100dd000214602a8b8470028e6d0237909f1010985
:100de000c8459a44f3d8ddf81490d0e74ff00009d5
:100df0002a4621463046b84700283ff47baf237986
:100e000009f10109c8451d44f2d89fe74ff00009d8
:100e100021463046fff725fc00283ff46baf63788e
:100e200003f0c002802a12d103f00f03053b012b0f
:100e30000dd82a6821463046b84700283ff45aaffb
:100e4000237909f10109c8451d44e1d87ee72a4606
:100e5000f0e72b68002b3ff479af2a1d9847a3e7f2
:100e6000ccff060830b587b005466846fff71ffc83
:100e700010b9012007b030bd0199049a4b7803f0f6
:100e80000f03082b1cd114681cb96846fff720fc1f
:100e9000eee723685a682ab121462846904768b988
:100ea0000020e7e7996828464b7803f0c003802bc1
:100eb00014bf6268221dfff7f3fef0e7a468e3e7c2
:100ec0002846fff7edfe0028dfd1e9e72de9ff41d5
:100ed0000e461746002110220446684609f0b8fc69
:100ee0003a4631466846fff7bdff48b34ff0000869
:100ef000039d43462a462046fff7edfa00b32168da
:100f000031b92a462046fff7b1fa04b0bde8f081b6
:100f1000e268a3682a449a4212d863683a4600916c
:100f200068463146cde90135cdf80c80fff79affd0
:100f3000039ae368aa421344e360019b6360e4d030
:100f40000020e2e7d1f8061009b1fff7bfbf08465d
:100f500070477fb50d4616460021102204466846ac
:100f600009f076fc324629466846fff77bff08b158
:100f7000039b236004b070bd70b514460126202287
:100f80000d461a808e741a882046074909f038fced
:100f9000eb7c2046a370054b1b7b237503f07f037e
:100fa0009e406e6170bd00bf0201070810bc0120a9
:100fb000394b2de9f04f1a68384c012822605a68e5
:100fc0001b7a4ff00006237202bf322323720223e2
:100fd0008146b2464ff0090835463746626008bf81
:100fe00063712f4b87b001912e4a1968b1b916b9b8
:100ff00016460135edb22c4b28481a6808f109084d
:1010000032605a681b7a72603372019b2571a4f8b2
:101010000280a3f8008007b0bde8f08f131bc3f572
:101020008073adf816308b68cf74d3f828b0bbf15d
:10103000000f07d048460df11603cde90212d8473c
:10104000dde90212bdf81630abb1887c91f805c01d
:101050000744ffb2bcf1000f0dd0d1f814c01cea58
:101060000a0f08d105449844ca604aea0c0aedb256
:101070001a441ffa88f8022f0cd1131bc3f5807392
:101080009bb2082badf8163004d90327013516465c
:10109000edb209320968a9e71afc06087cbf0120f5
:1010a00070c4012085bf012023fc0608f8b54ff469
:1010b000803607460d4601f07f039e400b4b1c68af
:1010c0000cb9022010e063790bb92468f8e7a36833
:1010d0009b69002bf9d062691642f6d02a46214658
:1010e000384698470028f0d1f8bd00bf70c40120f1
:1010f000f8b5012607460d4601f07f039e400b4bd5
:101100001c680cb9022010e063790bb92468f8e779
:10111000a3685b69002bf9d062691642f6d02a46b3
:101120002146384698470028f0d1f8bd70c4012008
:1011300070b506460025084b1c680cb9284670bde2
:1011400063793bb1a3681b6923b1214630469847b8
:101150000544edb22468f0e770c4012070b506467e
:101160000025084b1c680cb9284670bd63793bb15b
:10117000a368db6823b12146304698470544edb2a9
:101180002468f0e770c40120f8b5002507460e4634
:101190000c4b1d700c4b1c6834b90c4b1b680bb10d
:1011a000204698472846f8bd637943b1a3685b6839
:1011b0002bb132462146384698470544edb22468a3
:1011c000eae700bf7cc4012070c4012078c401207c
:1011d000f8b507460e4600250d4b1c6854b9012290
:1011e0000c4b1a7025b90c4b1b680bb13046984755
:1011f0002846f8bd637943b1a3681b682bb132461a
:101200002146384698470544edb22468e6e700bf1a
:1012100070c401207cc4012078c4012008b5d0f836
:1012200044335b6a9847002008bd08b5d0f84433c2
:101230001b6a9847002008bd10b50446d0f8443317
:101240001b689847d4f848330bb19b689847002037
:1012500010bd08b5d0f84433db6903b198470020ce
:1012600008bd08b590f8a23080f8a330042380f8b8
:10127000a230d0f848330bb1db689847002008bd96
:1012800010b5d0f8483304460bb11b6998470323c7
:10129000002084f8a23010bd10b528244bb201f014
:1012a0007f02002bb4bf04fb020104fb01014ff0dd
:1012b0000104b4bfac3101f5f671db0f8c700a701c
:1012c0004b7000eb820053b182691368002b01da86
:1012d00043f0804343f400131360002010bd826b81
:1012e0001368f7e7282230b54cb201f07f03002cd9
:1012f000b4bf02fb030102fb01014ff001024ff0fa
:101300000005b4bfac3101f5f6719a40e40f0b70e3
:101310004c7092b2294600eb830364b19b6962f37f
:101320000f016ff3cf351d6002690020d36923eaf6
:101330000103d36130bd9b6b62f31f41f1e70000f5
:1013400010b5034c217bfff7cdff0020a07510bd29
:1013500010bc0120f0b5154628224fb201f07f04e1
:10136000002fb5bf02fb040102fb0101ac3101f506
:10137000f671ff0f0c704f708d60cb7007b1cc8091
:10138000022b4ff0010608bf002206fa04f64ff0c8
:10139000000c08bf0a71b6b200eb8404efb1a46977
:1013a00066f30f0c2668320410d4ca8802f00f01cd
:1013b00045f0805242f4004242ea8342094b42ea3d
:1013c00081521340084a32401343236002690020cf
:1013d000d3694cea0303d361f0bda46b66f31f4ce1
:1013e000e0e700bfff87cc13007833ec10b5054c65
:1013f00003231022217bfff7adff00200123e075be
:10140000a37510bd10bc0120002310b50446194679
:101410004022fff79fff0023402280212046fff754
:1014200099ff012384f8a230d4f8483313b15b68e4
:10143000a0789847002010bdf7b54b784e69012b76
:1014400041d1826914681369009336bb23f4c01339
:1014500023f07f0343f400230093009b1361c378c0
:10146000012b05d10b780d6900eb83039b695d614e
:10147000c4f3076363f07b0363f31f641460c378f2
:1014800043b94b6933b1012302690978506b8b4032
:1014900003435363002003b0f0bd8d689df8003016
:1014a000b5423cbf65f306034d614ff0010528bf0f
:1014b00066f306038df800309df8023065f3c4032f
:1014c0008df80230c9e70d78d1f808c000eb85052a
:1014d000ab6b0cf07f071c681b690093dab2c3f397
:1014e000074306bb67f306028df80020012262f372
:1014f000c4038df80230009aab6b1a61c378012bdc
:1015000005d10b780a6900eb83039b6b5a61c4f326
:10151000076363f07b0363f31f640b7800eb8300c6
:10152000836b1c60b6e7c1f814c0dbe7f0b54c78fc
:101530000a78012c4b6900eb82025ed197693c6806
:101540003a6902f0604253bb42f400223a61c37828
:101550000a78012b35d100eb82039b690a695a6135
:10156000cb78012b30d0c4f3076363f07b0363f3c4
:101570001f640b7800eb83039b691c60cb78012b05
:101580000bd1c3784bb98a8acc680978033200eb57
:101590008100c16f92109a422ad10020f0bd8e685e
:1015a000f518013db5fbf6f6304dc3f3120305ea1d
:1015b000c6452b431a43cb78012b08bf63f35e72f9
:1015c000c4e7cb78012b06d103699b68db050cd5fa
:1015d00044f08054c7e74b69002bc4d00123056950
:1015e00093406e6b33436b63bae744f00054bae741
:1015f00054f8230001330860cde7966b8f68346898
:10160000c7f3120532690bbb012365f3120263f3c2
:10161000dc423261c378012b05d10b780a6900ebfb
:1016200083039b6b5a61cb78012b03d14b79cbb1f0
:1016300044f00054c4f3076363f07b0363f31f6457
:101640000b7800eb8300836b1c60a6e73b44013bf7
:10165000b3fbf7f3c3f3090363f3dc426b4363f3b8
:101660001202d6e744f08054e4e700bf0000f81f00
:1016700008b5024b1b681b6e019308bda001020850
:1016800008b5024b1b681b6d019308bda001020841
:1016900008b5024b1b685b6b019308bda0010208f3
:1016a000014b1860704700bf44bd012070b5002594
:1016b000054e064ca41ba408ac4204d056f8043bcb
:1016c00098470135f8e770bddc510708f451070869
:1016d00009480a4908b5884205d0094a824202d021
:1016e000121a09f08df80748074a0021121a09f06a
:1016f000aff8064808bd00bf00bc0120085207082b
:1017000078bf012078bf012011ca012000bc012050
:1017100000210c2008b5024afff7bafffee700bf20
:10172000b1720608024643690168c85c91680133da
:101730008b42a8bf5b1a536170474ff0ff30704770
:101740004ff0ff3070474ff0ff3070474ff0ff30e1
:1017500070474ff0ff30704706288cbf00200120f3
:1017600070474ff0ff3070470020704700207047ef
:101770000020704703289cbf014bc3f8ec01704761
:10178000c8c1012003460c20044a0549127800fb19
:10179000021207ca83e8070018467047a4c1012057
:1017a000d401070820b1044bc3e95301002070475e
:1017b0004ff0ff30704700bfc8c101206ff07700c5
:1017c0007047002070470000034b93f84200c31e8f
:1017d00058425841704700bfc8c1012000487047b7
:1017e000a8c10120024bc3e90101da600020704763
:1017f000a8c1012007b5094bd3f8303101934bb193
:10180000042202300deb020108f0faff002003b0c1
:101810005df804fb4ff0ff30f9e700bfc8c10120bd
:10182000044b42685a6082689a60c268da60026952
:101830001a61704790c10120024b5b6803b11847e1
:10184000704700bf90c1012010b5144a034692f8ba
:10185000f011144601f0ff00d9b9d2f8f42102b911
:10186000cbb1d4f8f431012b0ed80d4806f080ff2f
:10187000431c0ad1d4f8f4310133c4f8f431d4f85c
:10188000f401b0fa80f0400910bd0230f7d1002316
:10189000f3e70020f8e70120f6e700bfc8c1012008
:1018a00004c2012013b50e4c0e4904f13c0006f0b1
:1018b00052ff4ff0ff330c49019301aa42f210731b
:1018c00004f13c0006f064fc013008bfd4f8f431a8
:1018d000019804bf0133c4f8f43102b010bd00bf59
:1018e000c8c10120e4eb0608cd2f060810b103485b
:1018f00006f090b9014806f07bb900bf04c2012090
:1019000010b5044606f09cfb2368c01a10bd000009
:10191000f8b5144642228e691a8002220d468a7456
:101920001a882046264908f06bffeb7ca370a3724f
:10193000eb7c0a33e371eb7c0a332374eb7c0133d9
:10194000a376eb7c84f82230013384f82330ef7cdb
:101950005fb906f03ffa1b4b1b685bbb06f032fa1f
:10196000012f0cbf83238a23b3730121b37b20464d
:1019700084f82630eb7c013384f82d30eb7c0a337d
:1019800084f83330737b84f83630327b84f83d2022
:10199000b37b02f07f0203f07f0301fa02f201fa47
:1019a00003f31343727b02f07f02914043ea014349
:1019b0006b61f8bd5a79002aced00137ffb2cbe770
:1019c000c000070870c4012070b505460f4b104ecb
:1019d0001c68337803b17cb90e4b1b7853b10e4ba6
:1019e0001a6801321a601a6847f22f539a4201d9d5
:1019f00006f096f9002070bd63792bb1a368db690e
:101a000013b12146284698472468e2e770c40120b4
:101a10007cc401208cc1012088c1012008b508f0d8
:101a2000f7ff08bd07b530b102686846d317cde9a6
:101a3000002308f0bdfd03b05df804fb014b1868fe
:101a400006f03ebbfcc3012038b5044608460d46ef
:101a50000bf024f8122814d922480bf01ff8214962
:101a6000024628460bf022f808b9032038bd1e486c
:101a70000bf014f81c49024628460bf017f8002812
:101a8000f3d020460bf00af8042808d917480bf0c9
:101a900005f81649024620460bf008f808b9002060
:101aa000e4e713480af0faff1149024620460af01b
:101ab000fdff08b90220d9e70e480af0efff0d49f3
:101ac000024620460af0f2ff0028f3d00a480af046
:101ad000e5ff0949024620460af0e8ffb0fa80f027
:101ae0004009c3e7d8020708e0020708f602070822
:101af000e8020708ef020708fc020708054808b5d6
:101b000000f143015830fff79fff034b187000208e
:101b100008bd00bfc8c10120a4c1012010b5044602
:101b2000406808b1037863b9a3680bb11b7843b967
:101b3000e3680bb11b7823b90020fff7dfff08b182
:101b4000606810bd074b1a7832b9074a92f84020f6
:101b5000082a04bf02221a701a780c235343034a3e
:101b6000d058eee7a4c10120c8c10120d401070864
:101b7000b0f5800f38b50d461c460dd163b100237a
:101b8000074823700af08aff2946024604480af0f3
:101b90008dff08b9012323704ff0ff3038bd00bf1f
:101ba000efeb0608014807f05bb900bf04c2012053
:101bb00008b5044807f0b4fa80f00100c0b2404212
:101bc00008bd00bf04c2012010b50446064b03f156
:101bd00008022433026040f83c3f07f0a1fa204697
:101be00006f0fafd204610bd0403070810b50446b0
:101bf000fff7eaff20464ff40d7107f0d7fb2046b0
:101c000010bd0000002230b5013813460132845c5b
:101c1000002cfad1dbb2094a01335b000b80137050
:101c200003235370022310f8015f05b930bd591c1e
:101c3000d554c9b20233dbb25454f4e77cc001205e
:101c4000084608b51946c37c0a339a4206d183690f
:101c5000186e08b1fff7d6ff024801e000200880a7
:101c600008bd00bf7cc001200f2a194608b504d169
:101c70000348fff7c7ff034808bd00201880fbe7b3
:101c8000fceb06087cc00120ee292de9f84307464d
:101c90000e46144604d1122314481380bde8f8837d
:101ca000092905d112481146fff7acff1148f5e7a5
:101cb000114bdff848901d6899f8003003b115b951
:101cc00000202080eae76b790bb92d68f4e7ab6858
:101cd000d3f82c80b8f1000ff7d0234632462946be
:101ce0003846c0470028f0d0d8e700bfae0007084c
:101cf0001aec06087cc0012070c401207cc40120bd
:101d000008b5044b186806f0e3f908b107f0f0fbda
:101d100008bd00bffcc3012008b5fff7f1ff00209c
:101d200008bd00002de9f8431b4c17468046894644
:101d300006f050f8002322462679c6b91c255d43db
:101d40004ff0ff335419636140f201131349c4f893
:101d50000880c4f8189066825651a3800b68e6602c
:101d600083b90c600e4a13680133136005e0013338
:101d7000042b04f11c04dfd1002406f023f82046d4
:101d8000bde8f8832fb91a461b68002bfbd11460fd
:101d9000e8e70c605351e5e700c4012070c401205e
:101da00074c4012038b504460d4606f013f8064bfe
:101db0001b6823b1002cfbd0a342f9d15d71bde8b3
:101dc000384005f0ffbf00bf70c4012010b50f24dc
:101dd00001f00703c90800eb8100016a9b009c40e9
:101de00021ea04010162016a9a400a43026210bdbd
:101df000104bda684378d243c2f30222c2f10401e5
:101e0000c9b28b400f2141fa02f28178dbb20a405d
:101e10001343094902781b01dbb20a4482f80033fc
:101e200001220378580903f01f0302fa03f341f873
:101e30002030704700ed00e000e100e037b56b4c6a
:101e40000546204605f0ceff4ff4e13384f83950c3
:101e50006363002d00f0b5800421282005f082ff87
:101e60000421272005f07eff0421252005f07affbc
:101e70000421242005f076ff5d4a136c43f480238f
:101e8000136405f077ff04466db190f866140722dd
:101e9000d0f86004fff79aff072294f84a14d4f8a8
:101ea0004404fff793ff072294f81214d4f80c04ab
:101eb000fff78cff94f8f6130722d4f8f003fff72e
:101ec00085ff4c4b01a80193fff792ff002d14bf33
:101ed0004ff440710021484a138a23f440531b04f5
:101ee0001b0c1382938923f4b05323f00c031b04bf
:101ef0001b0c43f00c039381938a9bb223f4407331
:101f00000b43938202f5f832936803f00c03042b21
:101f100060d0082b60d15068516840024cbf374bed
:101f2000374b01f03f01b3fbf1f35268c2f3881263
:101f300053432f4a5268c2f3014201325200b3fbad
:101f4000f2f32b4a2f499068c0f303100d5c9068a0
:101f5000eb40c0f382200c5c9268e340c2f3423253
:101f60008a5c1921244a4b439089642401044cbfa4
:101f70004ff461314ff4e121b3fbf1f1b1fbf4f324
:101f800092891801120404fb131327d5da003232a8
:101f9000b2fbf4f202f0070242ea0003164a9bb2d7
:101fa000138193899bb243f400539381164b1a68b3
:101fb00042f080021a601a6842f020021a6003b0f0
:101fc00030bd0121282005f0cdfe2946282005f04e
:101fd000c1fe49e7094bb4e7094bb2e71b013233b5
:101fe000b3fbf4f303f00f030343d7e7c8c10120a9
:101ff00000380240270000010048004080ba8c01f0
:102000000024f40000bc01200c48004070b52826d4
:10201000044601f07f056e43344406f1ac01c4e987
:102020002e22012600220144c4e9303284f8ad603a
:1020300084f8ac501db9fff7fff9002070bdfff721
:1020400075fafae710b51346c0e93222022280f889
:10205000a1200a460021fff7d9ff002010bd000093
:102060001fb58b88042b06d1ca880b49fff7eafffe
:10207000002004b010bd052b0bd100248b78ca883a
:10208000022b17bfcde901440449adf80c4001a96a
:10209000ece70220ede700bff4ff06081c0007088c
:1020a00030b44ef6c1640d880346a5420a4605d1f8
:1020b0008c88052c02d130bcfff7d2bf0c490968cf
:1020c00011b9084630bc704748790028f7d0948889
:1020d000cd7cac42f3d3887c28448442efda886814
:1020e0008468002cebd01846234630bc184700bf4c
:1020f00070c4012070b5282601f07f0506fb05f4a9
:1021000004f5f6710444c4f80032002384f8ec515d
:10211000c4f8f821c4f8043284f8ed31c37806fb22
:102120000505012b08bfc4f8fc2195f8ec310144ea
:102130001bb9fff781f9002070bdfff7f7f9fae747
:1021400010b5ca690b6a9a4224bf0b8b4b624c6a6a
:10215000cb690a6a34b1934224d302b9013ce31a31
:102160003f2b10d84c6aca690b6af4b19a421cd34f
:10217000402b1ad9cb694b620023cb610c6a4a6aa7
:10218000944200d10b6291f8483013b9012381f8d1
:102190004830ca694c694023497b2244fff7aaffb3
:1021a00001202be0013ad31adae791f8482002f037
:1021b000ff0322b3002391f90d2081f84830002a53
:1021c0004ff028024b7bbbbf03f07f0302fb0303ee
:1021d00002fb0303ac33a8bf03f5f6731a785b78f0
:1021e00000eb8200012b0cbf8369836b4ff0000072
:1021f00016bf1a681a6842f000621a6010bd1846cd
:10220000fce738b591f84a300c46934215460ed09b
:102210005ab100238b63cb634b630b6381f8493066
:1022200091f848300bb9fff78bff84f84a5038bd5e
:10223000f8b5212a0f4616461d468c6914d0222a6d
:1022400022d0202a07d11b6863602b7923726b7917
:102250006372ab79a372e46d24b12a4631463846e5
:10226000069ba0470020f8bd63682b7063681b0abb
:102270006b70e388ab70e379eb70237a2b71637a30
:102280006b71a37aab71e6e71b7884f8583013f0d2
:10229000010304d001222146fff7b3ffdbe794f8e6
:1022a0004a20002ad7d084f84a30d4e713b58c6985
:1022b000e26cff2a07d0236d009304f14003fff77f
:1022c000b7ffff23e364002002b010bd70b58c6936
:1022d00042f080031546227b06469a4202d0a27b3a
:1022e0009a4232d1012230462146fff78aff94f804
:1022f000492002f0ff003ab30021a163626be36b57
:10230000a08d1a44904298bf121a6263e163226b57
:10231000636b9a422cbfd31ac31a5bb1402b28bf00
:102320004023e363a16a626b30460a44217bfff7d6
:102330006dfe08e0282202fb0565d5f8c020402a82
:10234000efd084f84930002070bd0220fce738b59a
:102350008c690546617b914219d194f848305bb194
:10236000282000fb0151626ad1f80412e3690b4492
:102370009a4298bf9b1ae361012221462846fff743
:1023800040ff21462846fff7dbfe002038bd022033
:10239000fce70000002382b0019302680c4b116936
:1023a000013b019111d001990029f8da019b43f01a
:1023b00001030193019b13610168054b0a69013b0d
:1023c000019202d0019ad207f8d4002002b07047df
:1023d000410d0300094b826b82b013610093c378f7
:1023e000012b08d1836b00f54b725a61836b1a681d
:1023f0004ff080221a6002b0704700bf180008c07a
:1024000010b504468021fef747ff20460021fef765
:1024100043ff2046bde81040fff7dcbf38b5147815
:10242000034614f0600425d0202c0dd151780239d8
:10243000092919d8dfe801f0150a18181818181812
:1024400010059278204b5a60002411e001221f49a8
:102450001846fff7f7fdf7e753881b4a1b0a9360fe
:10246000f2e701221a49f3e71846fff7c9ff0224f1
:10247000204638bd55780a2d1ed00b2d1fd0062db5
:10248000f6d15088000a22280ad10f49d288888aba
:102490000969824228bf02461846fff7d3fde7e7e5
:1024a000212806d1d288c968092a28bf0922093102
:1024b000f2e721462246efe701220349ede7927851
:1024c000014b1a60d4e700bf10bc012014bc0120ee
:1024d00018bc0120f7b592f800c006461cf0600554
:1024e00014468b692ad0202d4bd1d5885278fdb166
:1024f0001cf0800f03f140070cd03b460095fff71e
:1025000097fe39463046e288fff79cfd00252846b5
:1025100003b0f0bdda64e28800211a650322e38883
:1025200080f8a120c0e982333a46fff7e3fdede7ea
:1025300002230093e318fff77bfee8e752780a2aac
:1025400013d00b2a15d0062a18d163881b0a212b19
:1025500008d1e288c968422a28bf42223046fff7e4
:1025600071fdd4e729462a46f8e7012203f110015c
:10257000f5e7a278092a01d81a61c8e7fff740fffa
:10258000c5e7fff73dff0225c1e7042310b580f83a
:10259000a130002304461a461946fff737fd2046ae
:1025a000fff718ff002010bd38b504460d4600297e
:1025b0003bd190f8a130032b1ad1d0f80822d0f8e3
:1025c000f4319a4216d9c178d21a012908bfd0f83d
:1025d000f811c0f8082204bfc918c0f8f8119342d6
:1025e00028bf13460021d0f8f8219bb2fff782fde7
:1025f000002038bdd0f848339bb1db698bb190f82f
:10260000a220032a0dd101212846984748b1d4f8c9
:1026100044331b692bb194f8a220032a01d1204630
:1026200098472046fff7b1ffe2e7d0f844339b69b3
:10263000002bddd090f8a220032ad9d19847d7e704
:10264000f0b590f82f1390f8312390f82e3390f8ce
:10265000305303eb012305eb022590f8331390f878
:10266000322390f82c6302eb0122012190f82d73a4
:1026700080f8a11006f01f0185b092b29bb2adb2f6
:10268000012904468df808608df80970adf80a300c
:10269000adf80c50adf80e20c0f8d02000f0468107
:1026a000022900f05781002940f0c28106f060063f
:1026b000402e19d1d0f84833002b00f0a980db69f7
:1026c000002b00f0a58002a89847bdf80e3023b972
:1026d00030b92046fff759ff9ae0002800f09880b3
:1026e0002046fff78dfe93e0092ff9d801a151f89c
:1026f00027f000bf9d28060817290608e1260608ce
:10270000bf280608e1260608e12706081d27060857
:10271000e12606087f2806081b2806081d0a022d48
:1027200027d0032d30d0012ddad1d0f84c330df164
:1027300006011b6880789847bdf80e30402b03d007
:1027400094f8a230012b02d10823adf80630bdf871
:102750000620002a5cd0bdf80e30002b58d09a42db
:1027600028bf1a460146adf806202046fff76afc4e
:102770004ee0d0f844230df10601926ad8b290479a
:102780004570c4f85003e2e7d9b20529807809d82a
:102790000139d4f84c3304290dd8dfe801f01113c6
:1027a00015171900ee2915d0d4f844330df106029f
:1027b000db6a9847cbe75b680df106019847c6e7ef
:1027c0009b68f9e7db68f7e71b69f5e75b69f3e707
:1027d0009b69f1e7d4f84c33db69002becd1e3e7dc
:1027e0002a437ff47daf90f8a21003293ff478af1d
:1027f00003f07f0663f30a12036980f8a4601d6882
:102800002a431a60fff7c1fe2eb1022384f8a230da
:10281000002005b0f0bd0123f8e7d9b2864d0129ab
:1028200029703ff65daf90f8a230022b0dd0032b3c
:102830007ff456afb1b9022380f8a230d0f8443308
:1028400080f8a0105b68984743e700293ff441af48
:102850000121032380f8a01080f8a2302046fef763
:10286000ebfc36e790f8a01001293ff432afd0f826
:1028700044335b689847297884f8a010eee7012a72
:102880007ff42eaf90f8a230022b05d0032b7ff4fb
:1028900027af00f1a00168e7684966e790f8a23029
:1028a000023b012b3ff61caf0122654b1a60d0f8aa
:1028b000a8200ab103221a600222614955e7012bc0
:1028c00008d1c4f8a830d4f8443320469b6802a944
:1028d0009847fee6022b9bd115f0ff0f98d10369b4
:1028e0002d0a013d5b68042d07d8dfe805f0030cd5
:1028f0000e101200012262f30613524a13600123e4
:1029000084f8a630e5e60222f5e70322f3e7042285
:10291000f1e70522efe790f8a220023a012a3ff6fc
:10292000dfae012b7ff474af0023cae790f8a2302a
:10293000032b7ff4d5aeedb20a2d3ff6d1aed0f821
:10294000443302a99b689847bdf80e30002b7ff4f2
:102950005fafbee6012fe9b22cd0032f1cd0002fb1
:102960007ff456af90f8a230022b54d0032b7ff4a3
:10297000b7ae15f0800f4ff02802334b53d001f063
:102980007f0102fb010191f8ae20002a49d001220b
:102990001a602d490222e8e690f8a220022a3ad0d5
:1029a000032a7ff49dae002b8dd14a068bd0fef713
:1029b00073fc88e790f8a220022a2cd0032a7ff427
:1029c0008fae002b7ff424af11f07f033ff481ae74
:1029d00028226db2002db4bf02fb030102fb0101ee
:1029e0004ff00002b4bfac3101f5f671ed0f0b7082
:1029f0008a704d7000eb83035db19a69c9781368e2
:102a000002396ff35553012998bf43f08053136087
:102a100059e79a6bf2e74b063ff4faaefef73cfc3f
:102a2000f6e60022b4e702fb010191f8ee21ace7e3
:102a300006f08001f2e700bfc6c1012080c101207d
:102a40007cc1012078bf012084c1012038b5044633
:102a5000002960d190f8a130022b17d1d0f8c830ee
:102a6000d0f8b42093421ed9c1789b1a012908bf1f
:102a7000d0f8b810c0f8c83004bf5218c0f8b82059
:102a80000021d0f8b8209bb2fff7c0fa94f8a63026
:102a9000012b06d1254a236912685a60002384f865
:102aa000a630002038bdd0f8cc30b3fbf2f502fbe5
:102ab000153565b99a420ad8d0f8d020934206d28b
:102ac0002b462a46fff7a2fac4f8d050dee7d4f826
:102ad00048339bb1db698bb194f8a220032a0dd156
:102ae00001210020984748b1d4f84433db682bb16a
:102af00094f8a220032a01d120469847052384f8a0
:102b0000a130002320461a461946fff7f3fa204663
:102b1000fff760fcbae7d0f844335b69002bc0d004
:102b200090f8a220032abcd19847bae778bf0120c9
:102b3000002382b00193019b43f010030193c3680b
:102b4000019a1a61c168054b0a69013b019202d0e2
:102b5000019ad206f8d4002002b07047410d03005c
:102b6000002382b00193019b43f020030193019b5a
:102b700061f38a130193c368019a1a61c168054b16
:102b80000a69013b019202d0019a9206f8d4002012
:102b900002b07047410d030008b50b0605d501f0e2
:102ba0007f01fff7ddff002008bdfff7c1fffae757
:102bb00010b5064c42f08001237b994204d1fff707
:102bc000ebff0020e07510bd0220fce710bc0120e7
:102bd00070b58c69054694f849306bb394f84a3067
:102be0006bb1a36b0133a36340f6c313a26b9a428c
:102bf00005d994f84a3013b1002384f84a3094f888
:102c00004a3003f0ff0673b9217b2846fff7c4ff63
:102c1000334632462846217bfff7f8f92663666380
:102c2000e66384f8496094f848301bb92146284689
:102c3000fff786fa002070bd626be36ba18d1a442a
:102c40000023914298bf521a6263e363226b636b65
:102c50009a422cbfd31acb1a002be4d00122402b6e
:102c600084f8492028bf40230022a263e363a16abd
:102c7000626b0a44217bfff7c9f9d4e738b58c6948
:102c8000054694f84a3013b1002384f84a3094f88a
:102c90004b30abb194f849301bb12846217bfff78c
:102ca0007bff217b2846fef71dfb617b2846fef754
:102cb00019fba17b237b8b4202d02846fef712fb37
:102cc00094f84a2000230ab184f84a30228b84f811
:102cd000493084f84830e36123626262ff22236353
:102ce00084f84b3063636365e363e26484f85830cf
:102cf000002038bd70b505468c69fff7bfff022381
:102d00004022217b2846fef725fb0223617b4022df
:102d10002846fef71ffba17b237b8b4204d00323b5
:102d200008222846fef716fb0123002621462846e6
:102d300084f84b3084f84860fff702fa304670bde3
:102d400008b5024b1b689b6b019308bda0010408ea
:102d500008b5024b1b685b6b019308bda00104081a
:102d600008b5024b1b681b6b019308bda00104084a
:102d700008b5024b1b68db6a019308bda00104087b
:102d800008b5024b1b685b6a019308bda0010408eb
:102d900008b5024b1b681b6a019308bda00104081b
:102da00008b5024b1b68db69019308bda00104084c
:102db0002de9f74305460e461446dff840900e4fc6
:102dc00000f108086b68a34213dd38f814304a4656
:102dd00006216846fff7e4ff6946304609f0e2f84d
:102de0006b6801349c42edda3946304609f0daf876
:102df000e8e703b0bde8f0831ced06087aee0608ac
:102e000008b5024b1b689b69019308bda00104082b
:102e100008b5024b1b685b69019308bda00104085b
:102e20001fb502461c4608468bb1b2f5800f12d181
:102e30006a460e49fff7ecff002808dd69460c489a
:102e400009f0bff800280cbf0323022323704ff0c2
:102e5000ff3004b010bdb2f5901ff8d1054909f05c
:102e600057fe0028f3d00123f0e700bf35ec060839
:102e700048ec06084eec06082de9f047b0f5800f47
:102e80008a46904699468eb040d1002b3ed00bab7f
:102e900007af09ae0dad0cac009350463349049713
:102ea0000396029501940aab08aafff7b1ff072821
:102eb00031d1079ba8eb0302524412f8042c222aba
:102ec00029d10aeb080212f8032c222a23d1d9f8bf
:102ed0000c20a8eb03019a42a8bf1a4603395144bb
:102ee000d9f8000007f08cfc0b9b0a9a1b0443eafc
:102ef00002630d9a13430c9a43ea0223c9f8043083
:102f0000099bc9f80830079bc9f80c304ff0ff3017
:102f10000eb0bde8f0870bab00935046cde90367d8
:102f2000cde9014512490aab08aafff771ff07284e
:102f300019d1079ba8eb0302524412f8022c222a53
:102f400011d10aeb080212f8012c222a0bd1d9f870
:102f50000c2008f1ff38a8eb03089a42a8bf1a46d4
:102f60000aeb0801bce70023cee700bf6bec0608c4
:102f70006dec0608b0f5800f73b50e4614461d467d
:102f80001cd1dbb16b4630460f4901aafff740ff69
:102f9000022817d1009aa31a334413f8023c222bbb
:102fa00010d1331913f8013c222b0bd1013ca41a88
:102fb0002868311907f024fc009b6b604ff0ff304c
:102fc00002b070bd0023f8e78fec060810b5044688
:102fd000b4f5800f08461a4603d113b10249fff732
:102fe00017ff4ff0ff3010bda0ec0608024610b5e9
:102ff000b2f5800f08461c4686b015d1a3b1002358
:103000004ff0ff320593cde9032305ab0093084948
:1030100004ab03aafff7fcfe032805d1039b236042
:10302000049b6360059ba3604ff0ff3006b010bdaa
:10303000adec060810b50446b4f5800f08461a46f4
:1030400003d113b10249fff7e3fe4ff0ff3010bd8b
:10305000c1ec0608024610b5b2f5800f08461c46c2
:1030600086b016d1abb105ab019304ab00930b490d
:1030700003ab02aafff7ccfe04280ad1039a029bf5
:10308000120442ea0362059b1a43049b42ea0322ac
:1030900022604ff0ff3006b010bd00bfceec060836
:1030a00010b50446b4f5800f08461a4603d113b193
:1030b0000249fff7adfe4ff0ff3010bdeaec060805
:1030c000f0b530f480050e461c468fb031d1304645
:1030d0002b2107f079fb064658b32822294604a87d
:1030e00006af07f0b5fb30461449009704ab03aabe
:1030f000fff78efe03281cd1039b012b19d104a8d6
:1031000009f0ccfc0eab184400f8295c384609f0f5
:10311000c5fc0eab1844234600f8215c04aa0ead92
:10312000144603ccac4218605960224603f10803f0
:10313000f6d14ff0ff300fb0f0bd00bfffec060836
:10314000024610b5b2f5800f08461c468ab018d169
:10315000bbb109ab029308ab019307ab00930b49da
:1031600006ab05aafff754fe05280ad1079a069b6d
:10317000120442ea0362099b1a43089b42ea0322b3
:1031800022604ff0ff300ab010bd00bf1eed0608f0
:103190000246b2f5800f13b508461c4644d1002bf9
:1031a00042d06a46364901abfff732fe02283bd1d6
:1031b000009a0199632a1ebf5300713b636007297f
:1031c000debf304b5b5ca3602378032b25d007d890
:1031d000013b012b1bd94ff00043c4e9033323e02b
:1031e000053b022bf7d8632a1dbf612353431f22df
:1031f000ff2318bf93fbf2f36329e3601dbf222373
:1032000059430723ff2118bf91fbf3f103e0632a21
:1032100018bf5200e260216106e0632908d1ff2354
:10322000632a236128d1e3604ff0ff3002b010bd64
:103230000623c1f107014b4307332c2bc8bf2c23b6
:10324000632a236116d032215943fa2303fb021368
:103250000d4aa3f55653043b934207db0b4a9342b6
:1032600006da642293fbf2f37933dce70023dae732
:103270006023d8e7ff23d6e753000333d3e700bf2b
:1032800039ed0608d0020708bdd0ffffd9f5ffffd2
:103290007fb530f480060d461c4658d1002b56d021
:1032a0002846324901aafff7b3fd012811d1019b3d
:1032b00003f1c8023a2a20d8e660e368ff2b1dbf5d
:1032c0006122c3eb831393fbf2f3002318bf713b1e
:1032d00063602846264903ab02aafff799fd02283e
:1032e00035d16423029a5343039a9b1a03f5fa6279
:1032f000312a0ed8002323611ce003f12c022c2a72
:1033000002d86123e360d8e78d33602b88bfff23a9
:10331000f8e703f59671b1f5967f01d82223eae725
:1033200040f2716103f29e738b4214d83223b2fbd8
:10333000f3f222612369ff2b16d0092b0ddc052245
:1033400093fbf2f3072b02d80a4ad35ca3604ff039
:10335000ff3004b070bdff23cde71e2ba8bf1e2396
:103360000a3b9b100233efe70023efe747ed060827
:1033700061ed0608d0020708024630b5b2f5800fad
:1033800008461c4687b034d1002b32d0002363227c
:103390000493cde902234ff0ff3304ad059302ab54
:1033a00001931649009503ab05aafff731fd0028ec
:1033b0001fdd059b012863641bd00421284609f00a
:1033c0009afb637e02280cbf43f0010303f0fe0367
:1033d000637603a806f0e0ff6083284606f0dcff72
:1033e0009df80830a083092b8ebf0023044ad35ccc
:1033f00023704ff0ff3007b030bd00bf7bed0608f3
:1034000098ff0608024630b5b2f5800f08461c4604
:1034100087b017d1b3b105ab019304ab00930b494f
:1034200003ab02aafff7f4fc00280bdd04f108024d
:1034300002ab02eb400153f8045b22f8025b8a42c4
:10344000f9d160604ff0ff3007b030bd9fed060846
:10345000024630b5b2f5800f08461c468bb019d134
:10346000c3b109ab029308ab019307ab00930b49bf
:1034700006ab05aafff7ccfc00280bdd04f108021f
:1034800005ab02eb400153f8045b22f8025b8a4271
:10349000f9d160604ff0ff300bb030bdbaed0608d7
:1034a000024610b5b2f5800f08461c468ab017d107
:1034b000b3b109ab029308ab019307ab00930a4980
:1034c00006ab05aafff7a4fc052809d1059b63609c
:1034d000069ba360079be360089b2361099b6361d4
:1034e0004ff0ff300ab010bddaed060870b50d469a
:1034f0001c4688b0c3b11b68b3b16668012e13d9ee
:10350000b0f5800f10d100211c2201a8009107f016
:103510009ff92021064a6846731efff741fc694661
:1035200028462268fff774fc4ff0ff3008b070bdea
:10353000f7ed0608024670b508461c467ab973b125
:1035400003f15b052a461649fff762fc012806468f
:1035500005d12846134909f0dbfa18b126704ff05f
:10356000ff3070bd2846104909f0d2fa10b104238b
:103570002370f4e728460d4909f0cafa08b105237b
:10358000f6e728460a4909f0c3fa08b10723efe72e
:103590002846084909f0bcfa0028e0d00823e7e7ec
:1035a0000bee060814ee06081eee060828ee0608c6
:1035b00032ee06083cee060870b5b0f5800f0e46f8
:1035c0001c4688b01ed1ebb10021142203a8029141
:1035d00007f03ef90022002302adc4e90023304683
:1035e0002a460a490195fff713fc01280ad128460b
:1035f0000a2201a909f04cfc019b5d1b002dc8bfec
:10360000c4e900014ff0ff3008b070bd46ee060877
:103610000246b2f5800f13b508461c460bd153b1d4
:103620004ff0ff330649236001aafff7f1fb0128a1
:1036300004bf019b23604ff0ff3002b010bd00bffc
:103640005fee06080246b2f5800f13b508461c4629
:103650000bd153b14ff0ff330649236001aafff7a6
:10366000d7fb012804bf019b23604ff0ff3002b05d
:1036700010bd00bf6dee060808b5024b1b685b6805
:10368000019308bda001040808b5024b1b681b6824
:10369000019308bda001040808b5024b1b68db6d4f
:1036a000019308bda001020808b40fb5d0f8f031ad
:1036b0008b421adb002201200e4b0f49fff7ecff73
:1036c000002206ab1146012003930093059bfdf7f2
:1036d000cfff00220120074b0749fff7ddff002243
:1036e0000120064b0449fff7d7ff04b05df804eb57
:1036f00001b0704717fa06087dee060815fa0608ad
:103700000048704717fa0608fff7b6bffff7bcbfbf
:10371000fff7babff8b500254ff0ff36584804f060
:10372000dffc584b584cc3e900659d60574b40f295
:10373000014040f201472360fff7a6ffa0606060f0
:1037400038466561a5612561e760fff79dff504b35
:103750002062e06104f59a70e562c4e90c55a56247
:1037600067622587e36304f0d1faff2329467c22b0
:1037700004f1400084f80c32c4e98155c4e9845551
:10378000c4e9875584f8006284f8186207f060f88d
:103790002946482204f1e80007f05af829468c220d
:1037a00004f5aa7007f054f8032740f20113c4f897
:1037b0005461c4f86861c4f87c61c4f89061c4f8cd
:1037c000a461c4f8b861c4f8cc61a4f80661c4f877
:1037d0000861012684f8f051c4e93855c4e97e55e2
:1037e000c4e98955c4e98b75c4f83051a4f8e05197
:1037f000c4f8e451a4f8e85184f8ea51c4f84c51f3
:10380000a4f8dc30c4f8f451c4f8ec6104f0b2fa66
:103810000546204b31461a6b42f002021a631a6bbe
:1038200042f004021a63d0f87c34b0f880242920d6
:103830001a8304f097fad5f89834b5f89c243146e9
:103840001a832a2004f08efad5f8b434b5f8b824d7
:1038500031465a832b2004f085fa3946262004f09d
:1038600081fa0d4b03f1080224332260e3630b4a13
:103870000b4bc3e90122da6010221a80f8bd00bfa9
:10388000fcc30120b8c10120c8c1012040030708c2
:1038900050030708003802400403070817fa060817
:1038a000a8c1012010b504460368186804f008fc9c
:1038b000204610bd13b5084b0193fef721fa074bc4
:1038c00093f8e0410cb193f8e14101a8fff7eaff5a
:1038d000204602b010bd00bffcc30120c8c10120ba
:1038e00008b50549406808f06cfbfff7e3ff80f07e
:1038f0000100c0b2404208bd17fa060837b50446b9
:103900000c4b0d460193fef7fbf9062c10d814233f
:10391000094803fb0404d4f85431013308d0c4f837
:103920005851012401a8fff7bdff204603b030bd68
:103930000024f7e7fcc30120c8c1012013b5144cd3
:1039400094f84030082b21d1124b0193fef7d8f99f
:10395000114904f13c0004f0fefe00224ef6602303
:10396000114604f13c0004f013fc023005d194f937
:10397000180220f00404012c05d001a8fff792ffe3
:10398000002002b010bd01a8fff78cff0120f8e76e
:10399000c8c10120fcc3012085ee060873b5204b89
:1039a000204c0193fef7acf994f8e951b5b194f8c5
:1039b000f03103f0ff061bb104f13c0004f018f9ec
:1039c000194b0121194a1a48fff76efed4f830311d
:1039d00053b9002516b1164804f01cf901a8fff7e9
:1039e00061ff284602b070bd94f84030082b05d125
:1039f0000023c4f8303184f8e931ebe70120fdf70a
:103a000023ff0028e5d00b49094804f0a4fe00225a
:103a1000094b1146064804f0bbfb0230d9d1e7e759
:103a2000fcc30120c8c1012091ee060817fa060860
:103a300004c20120c3ee060820bf020008b5fff74c
:103a4000adff80f00100c0b2404208bd73b51e4b0f
:103a50001e4d0193fef754f995f8e84174b395f8bb
:103a6000f03103f0ff061bb105f13c0004f0c0f893
:103a70000121174b174a1848fff716fe0120fdf7e2
:103a8000e3fe0446b0b11549134804f064fe002279
:103a9000134b1146104804f07bfb00230022023038
:103aa00014bf1c4685f8e83111464ff47a730a4872
:103ab00004f06efb16b1084804f0acf801a8fff75b
:103ac000f1fe204602b070bdfcc30120c8c1012038
:103ad000d2ee060817fa060804c2012004ef060811
:103ae00020bf020073b5184d044695f8f03103f07d
:103af000ff0633bb154b0193fef702f9062c07d9dd
:103b00004ff0ff3401a8fff7cdfe204602b070bd94
:103b1000142000fb0454d4f854310133f0d094f84d
:103b20005c31002becd00a233246314605f13c00d3
:103b300004f02efb94f85c31002be1d0d4f8604106
:103b4000e0e74ff0ff34e0e7c8c10120fcc30120eb
:103b50002de9f04f91b0cde90c23c1f30743099350
:103b6000c1f307230a93cbb20b930b9b1a9c0493cc
:103b70000a9b4fea116b0393099b0592cde901b3b0
:103b800000908046002201205d4b5e490694fff7bd
:103b900083fdb4f5806f00dc5cb900215a4b5b4ab1
:103ba0005b48fff781fd4ff0ff34204611b0bde8c0
:103bb000f08f42f2107949f64043564d4ff0040a17
:103bc00095f84020082a08bf9946534b0f93fef7fb
:103bd00097f8b8f1060f2bd8142202fb0856d6f836
:103be0005431013324d00120fdf72efe00b3fff73e
:103bf000a5fe0746e0b10c9b049403930b9b474939
:103c000002930a9b42480193099b0093d6f85421e2
:103c10005b4604f0a0fd00224b4611463c4804f0f0
:103c2000b7fa461c07d1d5f8f4310133c5f8f431a1
:103c30000023002727e0011d0ed122460d993448ac
:103c400004f006fa00224b461146314804f0a0fa6f
:103c5000421ce8d0831c15d00330e9d1fdf722fec9
:103c600095f840200346082ae3d1ac28e1d10fa8fb
:103c7000fff718fe95f84030082b94d1baf1010aed
:103c8000a3d190e700230fa80993fff70bfe099b30
:103c90007fb3214b0f93fef733f8b8f1060f24d80a
:103ca00014201c4d00fb0858d8f8543101331cd0a7
:103cb000d8f86061ceb90120fdf7c6fda8b1d8f8eb
:103cc0005421174905f13c0004f045fd42f2107300
:103cd0003246314605f13c0004f05afa013002bf89
:103ce000d5f8f4310133c5f8f4310fa8fff7dafd48
:103cf0005be7b3f10b0418bf4ff0ff3455e700bf8b
:103d000012ef06087dee060838ef060817fa0608d7
:103d100004c20120c8c10120fcc3012050ef0608e5
:103d200072ef060850b4029c0b46a6786168e478ee
:103d300009ba029244ea062250bcfff709bf00000c
:103d40007fb5724b724c0193fdf7daff48220021d8
:103d500004f1e80006f07cfd4ff6ff73a4f806318d
:103d60004ff0ff33c4f8083194f84030082b79d174
:103d7000684904f13c0004f0eefc00224ef660239a
:103d8000114604f13c0004f003fa023040f0a9802f
:103d900094f9003223f00403012b74d15e4804f03f
:103da000e7fc023040f09d8010235c4d5c49a5f19a
:103db0001c000393029504f0cefc42f210735949a3
:103dc00002aaa5f11c0004f0e3f9023040f089805a
:103dd0005549a5f11c0004f0befc0022534b1146ce
:103de000a5f11c0004f0d4f902307ad15049a5f1b4
:103df0001c0004f0b0fc4d4b4e4905f19002a5f1ba
:103e00001c0004f0c5f902306bd194f84030082b47
:103e10005cd14949a5f11c0004f09dfc002242f24e
:103e200010731146a5f11c0004f0b2f9023058d10c
:103e3000ff234249a5f11c00c4e93d3304f08bfc8b
:103e400042f210733e4905f19002a5f11c0004f006
:103e50009ff9023045d194f84030012b20d184f8ed
:103e6000e8301de0374904f13c0004f074fc002206
:103e70004ef66023114604f13c0004f089f902304b
:103e80002fd1314975e794f90c3223f00403012b4b
:103e900084d094f9183223f00403012b3ff47eaf51
:103ea00094f84030082b23d194f9183294f8dc6050
:103eb00023f004035a1e554255419eb1012b10d1e7
:103ec00004f0bef83546c4f8e4000be01f49a5f144
:103ed0001c0004f040fc42f210731d4905f19002f1
:103ee000b3e7002501a8fff7ddfc284604b070bd4c
:103ef00094f9003223f00403012bf2d194f90c520f
:103f000025f004056b1e5d425d41ebe7fcc301201b
:103f1000c8c1012085ee060804c2012020c201208c
:103f200099ef0608f1800608a3ef0608e093040065
:103f3000b1ef060879330608bcef0608c9ef06089a
:103f40009132060882ef06088def0608d5ef0608c5
:103f50009131060873b5204b204c01930546fdf7bf
:103f6000cffe94f8e03133b9002601a8fff79afca0
:103f7000304602b070bd94f8e131002bf4d001203e
:103f8000fdf762fc06460028eed0154b154a0121cc
:103f900004f13c00fff788fb134904f13c0004f0f6
:103fa000dafb42f21073114904f59a7204f13c00f5
:103fb00004f0eef80230d7d1d4f838316b60d4f881
:103fc0003c31ab60d4f84031eb60d4f844312b6124
:103fd000d4f848316b61c8e7fcc30120c8c1012097
:103fe000deef060817fa06080cf00608a1340608ea
:103ff0002de9f047234b044693f8403086b0082b58
:104000003dd0684603f082fe6846fff7a3ff28b95b
:104010004ff0ff30606006b0bde8f087ddf8088043
:10402000a268a669019b42449642e569ddf80ce06e
:10403000206addf810c0616a059f63600ddce368eb
:104040000eeb0309a94508db23690ceb030a824543
:1040500003db63693b4499420cdda6eb0806a5eb44
:104060000e05a0eb0c00c91ba660e5602061616134
:104070000020d0e7c4e90629c4e908a3f8e74ff017
:10408000ff30c8e7c8c1012010b5154b044693f8ae
:10409000403086b0082b1fd0684603f037fe6846d4
:1040a000fff758ff20b94ff0ff30606006b010bd39
:1040b000019b029a6360a36900209b1aa360039a84
:1040c000e3699b1ae360049a236a9b1a2361059aa9
:1040d000636a9b1a6361e9e74ff0ff30e6e700bfd0
:1040e000c8c1012070b51d4b1d4d86b0009306461a
:1040f000fdf706fe95f8e0310bb9002427e095f8ae
:10410000e131002bf9d00120fdf79efb0446002889
:10411000f3d001a803f0f0fd124b134a012105f181
:104120003c00fff7c1fa114905f13c0004f013fb14
:1041300042f210730e4901aa05f13c0004f028f880
:104140000230dad11422304601a906f059fb684644
:10415000fff7a8fb204606b070bd00bffcc30120de
:10416000c8c1012019f0060817fa060848f0060829
:104170000534060808b5074b93f84030082b06d0e5
:10418000fff7b0ff80f00100c0b2404208bd4ff021
:10419000ff30fbe7c8c1012070b51d4b1d4d86b037
:1041a00000930646fdf7acfd95f8e0310bb900240d
:1041b00027e095f8e131002bf9d00120fdf744fb11
:1041c00004460028f3d001a803f096fd124b134ad1
:1041d000012105f13c00fff767fa114905f13c00a8
:1041e00004f0b9fa42f210730e4901aa05f13c003d
:1041f00003f0ceff0230dad11422304601a906f0d6
:10420000fffa6846fff74efb204606b070bd00bfc0
:10421000fcc30120c8c1012057f0060817fa0608a0
:1042200089f006085134060808b5074b93f840306a
:10423000082b06d0fff7b0ff80f00100c0b240426b
:1042400008bd4ff0ff30fbe7c8c101202de9f04f5a
:10425000b84bb94d89b0069383460e461746fdf715
:104260004ffd95f8e0313bb9002406a8fff71afb93
:10427000204609b0bde8f08f95f8e1310493002b9a
:10428000f2d095f84030002beed00024ab4b01214a
:10429000ab4a05f13c00fff707fa95f84030c5f846
:1042a0003041082b19d10122a64905f13c0004f048
:1042b00052fa42f21073a44905f5987205f13c00d8
:1042c00003f066ff0230cfd1012385f8e8310123e6
:1042d000d5f8304185f8e931c7e705f13c0007948e
:1042e00004f046fa0230bfd1984905f13c0004f0d1
:1042f00032fa22462146964b05f13c0003f048ff76
:104300000230b1d1934905f13c0004f024fa42f2a5
:104310001073914907aa05f13c0003f039ff023000
:10432000a2d1079b012b26d185f8e8318b498c4817
:1043300004f011fa8b4a42f210738b49a2f1f40097
:1043400003f026ff02308fd18849854804f003fa34
:10435000002242f210731146814803f019ff84498c
:104360007f4804f0f8f9002242f2107311467c48ad
:1043700003f00effabe7002bd8d185f8e831bbf195
:10438000000f40f0d380002e40f0d080002f40f08e
:10439000cf8095f85830002b3dd0ba46dff8fc911d
:1043a000d9f8004003222146724806f01bfa58bb98
:1043b00004f10308044698f800202c3a012a24d876
:1043c00098f80120303a092a1fd898f80220303a8c
:1043d000092a1ad8ccb998f803206748303a092a34
:1043e00094bf0322022208f10101059206f0faf9b6
:1043f000059a08b9d9f8044001329044dbe709f185
:104400000809002cccd007e000240af1010abaf117
:10441000180ff4d104b9594c5949514804f09bf98b
:10442000002242f2107311464d4803f0b1fe0230f3
:104430007ff41aafdff82881dff804a1002c00f028
:10444000af802078002814bfa346d346204608f04a
:1044500025fb01302718265c384608f01ffb013089
:104460003c18002e14bf3e4656463f5c204608f0de
:1044700015fb002f14bf2746574601300444002285
:104480000120cde901673f4b3f49cdf800b0fff770
:1044900003f99bf8003073b15a463c49404604f09a
:1044a0005af9002242f210731146404603f070fea2
:1044b00002307ff4d9ae002e78d1002f40f08980f1
:1044c0004ff000094a463249404604f044f90022c0
:1044d00042f210731146404603f05afe02307ff458
:1044e000c3ae2c49404604f036f90022184b114661
:1044f000404603f04dfe023008bf012309f10109d7
:104500000abf85f8e8310023049bb9f1030f74d189
:10451000002b7ff40baf14b12378002b8ed1002138
:104520001d4b074a0e48fff7bff89de6002473e7ce
:10453000344671e7fcc30120c8c1012099f0060888
:1045400017fa0608cbf0060841310608dbf006082a
:1045500020bf0200e8f00608a13006088ff1060827
:1045600004c20120f8c20120553006089ef1060859
:10457000adf1060820c2012023c201202cfc060850
:10458000f7f006080ff106087dee060836f106087a
:104590006ff1060880f10608bcf106081002070852
:1045a000bbf1000f7ff475af5c4684e73378002bd6
:1045b00083d032461349404604f0cdf8002242f23f
:1045c00010731146404603f0e3fd02303ff475af2f
:1045d0004ae63b78002b3ff473af3a460a4940461f
:1045e00004f0b9f8002242f210731146404603f07d
:1045f000cffd02303ff464af36e6002b3ff462afec
:1046000094e600bf49f106085cf106081fb5134b9c
:1046100004460093fdf774fb0c22002101a806f06c
:1046200017f94ff0ff3322460d490e48019304f06d
:1046300092f842f210730c490a4801aa03f0a8fd4f
:10464000023009d1019b013306d0039c6846fff775
:1046500029f9204604b010bd0024f7e7fcc301206f
:10466000ecf1060804c20120ed2f06082de9f04ff9
:104670008db0169d654ecde9021204462a460021f2
:104680001846994606f0e4f80896fdf739fb012034
:10469000fdf7daf840b908a8fff704f94ff0ff3545
:1046a00028460db0bde8f08f08a8fff7fbf803f02f
:1046b000c7fcb5f5806fa8bf4ff480650027dff811
:1046c00060a1019004960af13c0b049b0793fdf74f
:1046d00017fb0020fdf7b8f8804600283dd0062cd7
:1046e0003bd8142606fb04a6d6f85431013334d047
:1046f0002046fff7f7f9031e2fdb3ed04ff480630f
:10470000d6f854214249584604f025f8414942f26e
:104710001073584608aacdf820900b9503f038fd89
:10472000411c08d1daf8f4310133caf8f43107a892
:10473000fff7b8f8c9e7821c1ad1099b029a1360e7
:104740000a9b039a13600b9ad6f860319542a8bf72
:1047500015469b1ac6f86031474607a8fff7a2f82e
:104760002fbb3a4601202c4b2c49fef795ff95e7cd
:104770000330dcd1fdf796f8d9e7d6f8582101329d
:1047800009d1002358461a46194603f001fd431c7f
:104790005f425f41cbe7059303f052fc019bd6f8e3
:1047a0005821c01a9042059bebd91d46d4e7174b00
:1047b0000893fdf7a5fa062c24d81420184e00fb08
:1047c0000464d4f8543101331cd0d4f86071cfb9eb
:1047d0000120fdf739f8a8b1d4f85421114906f1a8
:1047e0003c0003f0b8ff42f210733a46394606f136
:1047f0003c0003f0cdfc013002bfd6f8f4310133a8
:10480000c6f8f43108a8fff74df849e7fcc30120ca
:10481000fdf10608792e06080ef206087dee060860
:10482000c8c1012072ef06082de9ff410546ddf8f9
:1048300030800e46414617460a9cfff75ff828462f
:10484000fff750f900281adb50ea080017d033466a
:104850002846009703aa02a9fff708ff00280eddeb
:1048600002212180bdf80c10029bbdf8082049ba36
:1048700052ba6180190e1b0c21716371e28004b081
:10488000bde8f0811fb50024cde90244079c0194e6
:10489000069c0094fff7c8ff04b010bd2de9f0415d
:1048a0009e4b98b00293fdf72bfa08239c4c019382
:1048b000d4f830329b4a0133009301219a4b04f122
:1048c0003c00fef7f1fe04f168030493102304f1a9
:1048d0008b02cde9062304f1ab0208921122099262
:1048e00004f15802cde90a23059304f1bc030c93ab
:1048f00020230d9304f143030e9315230f9394f893
:104900004030082b02d1fa2003f0d2fb87498848b7
:1049100003f021ff42f210738649854804aa03f090
:1049200037fc023007d0002402a8fef7bbff204668
:1049300018b0bde8f08194f84230032b08d0012b69
:10494000f1d100217c4b774a7948fef7adfeeae7ca
:104950007a49774803f0fffe42f2107375497448b4
:1049600006aa03f015fc0230ddd17549704803f04a
:10497000f2fe42f210736f496d4808aa03f008fc7a
:104980000230d0d1202200216e4805f061ff6e492f
:10499000674803f0e0fe42f21073664964480caacf
:1049a00003f0f6fb0230bed101256649674884f862
:1049b000dc5007f006fb10b1002384f8dc306449ba
:1049c000604884f8dd5008f0a3f830b961495d48cb
:1049d00008f09ef808b984f8dd005f49544803f0f8
:1049e000bafe42f210735d4951480eaa03f0d0fba3
:1049f000023098d15a494e4803f0adfe002242f2ef
:104a0000107311464a4803f0c3fb02308bd155495d
:104a1000474803f0a0fe002242f2107311464448ba
:104a200003f0b6fb02307ff47eaf4f49404803f0fd
:104a300092fe42f210733f493d480aaa03f0a8fbd8
:104a400002307ff470af4949394803f084fe0022f8
:104a5000474b1146364803f09bfb02307ff463afaf
:104a600094f84130abb1d4f8ec214249304803f01e
:104a700072fe002242f2107311462d4803f088fbab
:104a800002307ff450afd4f8ec3113b1022384f834
:104a9000413094f84030082b40f054814ff0ff3300
:104aa0003549039301f11500fcf7ceff3349054664
:104ab0001f4803f050fe42f2107331491c4803aa0c
:104ac00003f066fb033000f0fb80039b002b00f03b
:104ad000bb80032d5cd1642b40f0b8802949144879
:104ae00003f039fe002200232749cde910231048a6
:104af00042f2107310aa03f04bfb032d4ed1dde9f7
:104b00001001002341f61a02994208bf904245d095
:104b10001e49074803f01ffecbe000bffcc3012085
:104b2000c8c1012017fa060822f2060858f2060842
:104b300004c20120f180060862f2060875f2060838
:104b40007ff2060884c2012089f2060890f2060866
:104b5000a9f20608baf20608cbf20608ed340608f8
:104b6000d5f20608e1f2060899ef0608a3ef060859
:104b7000e0930400eff206080bc20120fcf20608e5
:104b80004536060891f30608b9350608a1f306086c
:104b9000022d40f0d180022b40f0c4806e496f4856
:104ba00003f0d9fd002242f2107311466b4803f066
:104bb000effa02307ff4b7ae6949684803f0cbfde5
:104bc000002242f210731146644803f0e1fa023009
:104bd0007ff4a9ae6349614803f0bdfd002242f2b3
:104be000107311465d4803f0d3fa02307ff49bae98
:104bf0005d495a4803f0affd1422002110a805f0ca
:104c000027fe42f210735949544810aa03f0c0fa23
:104c1000033055d000263346dff878814f4f10ad72
:104c2000149ab24240f38c80414655f8042b384622
:104c300003f091fd002242f210731146384603f052
:104c4000a7fa01360123ebe7032d58d194f8dd20b4
:104c5000002a6fd0002ba1d000254ff0ff3344492c
:104c60003e48109303f077fd42f2107341493b48f0
:104c700010aa03f08dfa02307ff455ae109b9bb161
:104c80003d49364803f067fd00223c4b114633484e
:104c900003f07efa02307ff446ae00224ff49663b2
:104ca00011462e4803f074fa2a4635492b4803f082
:104cb00052fd002242f210731146284803f068fab0
:104cc000d4f830320133072bc4f830323fd82348b0
:104cd00003f04efd02300cd12a49204803f03bfd81
:104ce0000022264b11461d4803f052fa1b4804f0df
:104cf0008ff8d4f83042b4fa84f4640914e6022d33
:104d000010d00125d4f83032012ba6d9002320225f
:104d1000cde910231c4a19460092282010aafcf75e
:104d2000affc3be719491a4807f0f2fe0028e8d02b
:104d30000225e7e7642590e7642b7ff42fafcde6eb
:104d4000002bbdd10023c4f830320124ece5002350
:104d5000c4f83032cde700bfbcef060804c2012022
:104d6000b7f30608c4f30608d0f306083581060831
:104d700075f306081136060804ef060820bf020086
:104d800080f30608eef306081cf306080bf306088a
:104d900084c20120ddf3060838b5114d044695f8ac
:104da00043200ab9fff77afd10220e4904f11700db
:104db00007f08efe15220c49a01c07f089fe2388ff
:104dc0002b2b0ad995f84020442ba26205d9192231
:104dd000064904f12c0007f07bfe002038bd00bf1f
:104de000c8c1012030c201200bc2012084c20120b1
:104df00008b5fff753fd80f00100c0b2404208bd86
:104e00002de9f04f42f21079564c85b0564b009286
:104e100094f840200646082a08bf9946142388467d
:104e200003fb0043009f0193002fdff84cb103ad5b
:104e300067ddb7f5806fba46cdf80cb0a8bf4ff468
:104e4000806afcf75dff062e58d8019bd3f85431d9
:104e5000013353d00120fcf7f7fc40b92846fef798
:104e600021fd4ff0ff37384605b0bde8f08ffef763
:104e700065fd83460028f1d0019a5346d2f85421ab
:104e80003a493b4803f067fc00224b46114638483c
:104e900003f07ef9431c10d1d4f8f4310133c4f887
:104ea000f4314ff0000b2846fef7fcfcbbf1000f7d
:104eb000d7d0d044a7eb0a07b6e7011d0ed1524662
:104ec00041462b4803f0c4f800224b4611462848bf
:104ed00003f05ef9421cdfd0831ce4d00330e0d144
:104ee000fcf7e0fc94f84030082b01d1ac2801d04d
:104ef0000b28d6d12846fef7d5fc95e72846fef7c5
:104f0000d1fccdf80cb0fcf7fbfe062e23d8142004
:104f100000fb0646d6f8543101331cd0d6f8608128
:104f2000b8f1000f17d10120fcf78efc98b1d6f82c
:104f3000542110490e4803f00efc42f21073424611
:104f400041460b4803f024f9013002bfd4f8f43194
:104f50000133c4f8f431009b2846df1bfef7a2fca6
:104f600081e700bfc8c10120c0d40100fdf30608dd
:104f700004c201200ef40608fcc30120fff740bf65
:104f800013b504460c4b0193fcf7bafe062c11d85e
:104f900014230a4803fb0404d4f85431013309d024
:104fa00094f85c41e4b201a8fef77cfc84f00100b7
:104fb00002b010bd0024f6e7fcc30120c8c10120e7
:104fc0002de9f04f1e46894689b01946054614461c
:104fd000fef794fc76b1634e0696fcf791fe012035
:104fe000fcf732fcb34678b906a8fef75bfc4ff03d
:104ff000ff3705e02846fef775fd071e00d0eadc06
:10500000384609b0bde8f08f06a8fef74bfc03f068
:1050100017f8142300276b43dff858a1019003937e
:10502000002c70d0b4f5806fb4bf23464ff480637a
:10503000cdf814b00293fcf763fe062d31d8039b24
:105040000aeb0308d8f8543101332ad00020fcf7ca
:10505000fbfb30b398f85c3103f0ff06002b50d017
:105060002846fef73ffd031e49db029a9342a8bf84
:105070001346002b2dddd8f854213b493b4803f063
:105080006afb3b4942f21073384806aacdf81890e3
:1050900003f07ef8411c06d1daf8f4310133caf886
:1050a000f43100260ae0821c0ed1079bd8f860215b
:1050b000e41ad21ac8f860211f44994405a8fef7e3
:1050c000f1fb002eacd192e70330ead1fcf7eafb0a
:1050d000e7e7d8f85831013309d1002323481a46ad
:1050e000194603f055f8431c5e425e41e6e702f0c4
:1050f000a7ff019bc01ad8f858319842edd9002477
:10510000dce70646fbe7cdf818b0fcf7f9fd062d05
:1051100024d81420174e00fb0565d5f8543101330f
:105120001cd0d5f86031cbb90120fcf78dfba8b1bc
:10513000d5f85421104906f13c0003f00cfb42f273
:1051400010732246214606f13c0003f021f801309d
:1051500002bfd6f8f4310133c6f8f43106a8fef7e1
:10516000a1fb4de7fcc301201ef4060804c2012088
:10517000752f0608c8c101200ef406082de9f04f6e
:10518000054687b091f802a091f803904f6841f26c
:105190008831fef7b3fb304b0593fcf7b1fd062dcc
:1051a0000dd9002405a8fef77dfb00212846fef757
:1051b000a5fb84f00100c0b207b0bde8f08f142653
:1051c000dff8a88006fb0586d6f854310133e8d015
:1051d00096f85c3103f0ff04002be2d10120fcf7cc
:1051e00033fb0028ddd0fef7a9fb83460028d8d08a
:1051f00049ea0a293fba22460120184b1849cde94d
:105200000059fef749fafbb20293c7f30723019353
:10521000c7f307430093cdf80c90d6f854211149f9
:105220003b0e08f13c0003f096fa0f4b2246214654
:1052300008f13c0002f0acff431c05d1d8f8f43172
:105240000133c8f8f431ade70230aad101235c463e
:1052500086f85c31a6e700bffcc301202ff40608e6
:105260007dee06084bf40608d0fb0100c8c1012002
:1052700007b5074b0193fcf743fd064802f082fd9a
:1052800001a8fef70ffb002003b05df804fb00bf90
:10529000fcc30120c8c1012013b5104b0193fcf7da
:1052a0002ffd0f4b93f839206ab193f8382052b98b
:1052b00001242820214683f8384002f053fd21467e
:1052c000282002f047fd074a01a8136823f02003b5
:1052d0001360fef7e7fa002002b010bdfcc3012006
:1052e000c8c101200c480040f7b5044600285ad038
:1052f000304b0193fcf704fd0120fcf7a5fa0646ac
:10530000b8b9002601a8fef7cdfa002e4dd0e388eb
:10531000002b4cd02389002b49d04ff6ff736289b4
:105320009a4244d0e3682448013318bf002003b0f8
:10533000f0bd2249224803f00efa0022214b11460b
:105340001f4802f025ff02301f4ddad11f4905f139
:105350003c0003f000fa1b4b1d4905f1e80205f182
:105360003c0002f015ff0230cbd123880f2bc8d9a7
:10537000224605f1fc0705f5867c3b4603cb6345d9
:10538000106051601f4602f10802f6d1002310227e
:1053900063702270a370e37095f84030012b08bf52
:1053a00085f8e830aee70b48c1e70b48bfe7024895
:1053b000bde700bffcc30120e8feffffa3ef060826
:1053c00004c20120e0930400c8c10120b1ef060827
:1053d00079330608f2feffff50fbffff70b5444d26
:1053e000064695f84030a0b0082b7ed0414b009384
:1053f000fcf786fc95f8e041002c6bd095f8e14174
:10540000002c67d000243c4b01213c4a05f13c00b4
:10541000fef74af9152221460ca80b9405f018fa5c
:1054200030460ba92246fdf7c3fc34490ba806f011
:10543000c8fd002857d001a802f05efc01a8fef7c5
:10544000abfe00284fd01522214613a8129405f078
:10545000fff9bdf80c3023b9012212a901a8fdf70c
:10546000a7fc06a802f048fc06a8fef73bfe04468f
:10547000002838d00025152229461aa8199505f0cc
:10548000e7f919a906a82a46fdf792fc1c490ba8c2
:1054900006f097fd20b912a919a806f092fdc8b12f
:1054a0000ba919a806f08dfda0b10120fcf7ccf9dd
:1054b000044678b113490baa134803f04cf90022b3
:1054c00049f640431146104802f062fe023014bf14
:1054d000002401246846fef7e5f984f00100c0b21b
:1054e000404220b070bd0024f4e74ff0ff30f8e7f1
:1054f000c8c10120fcc301206af4060817fa060897
:10550000d6fa060899f4060804c2012008b42de969
:10551000f34305460e46174609ac54f8049b0e4b60
:10552000dff8388001930094fcf7eafb22464946f5
:10553000404603f0d9f83b4632462946404602f041
:1055400027fe044601a8fef7adf9204602b0bde8eb
:10555000f04301b0704700bffcc3012004c201202a
:105560002de9f04f0c464ff00008814685b010b988
:10557000002900f04181a14ba14f0393fcf7c0fb30
:1055800097f8e0310bbb4ff0000a03a8fef78af949
:10559000baf1000f00f00f81b9f1000f04d0019ba8
:1055a000c9f800b0c9f80430002c00f0a58008f15b
:1055b000ff33062b00f2ee80dfe813f07400a20048
:1055c000a400ec00c400e800ea0097f8e131002be9
:1055d000d9d001218b4b8c4a07f13c00fef764f8cf
:1055e0000120fcf731f982460028ccd0874907f129
:1055f0003c0003f0b0f80022854b114607f13c0057
:1056000002f0c6fd0230bed1824907f13c0003f032
:10561000a2f87f4b804907f1e80207f13c0002f055
:10562000b7fd0230afd197f84030012b17d187f882
:10563000e8307a497a4803f08ef842f21073794ada
:105640007949a2f1ac0002f0a3fd02309bd1d7e969
:105650003bb3d7e93d6597f8e880019395e7082bc0
:10566000e7d197f8e830052b02d1062387f8e83018
:105670006e496b4803f06ff8002242f21073114636
:10568000674802f085fd02307ff47dafff23684953
:105690006348c7e93d3303f05ef842f21073614a94
:1056a0006449cee70223632e237117bf64234ff0b2
:1056b0000043a6f16f025343b8f1010fa3607dd1ff
:1056c000632d00f08e805c4b33f81530632e236120
:1056d0001dbf3f23c6eb064696fbf3f64ff0004690
:1056e000632de66000f085800723c5f10705c5eb53
:1056f000054595fbf3f56561002005b0bde8f08f29
:105700000323d0e70423ff2e23716dd14ff0004314
:10571000ff2da36017bf32234ff000436b43a3f666
:105720009213ff2e23611dbf6023c6eb064696fb36
:10573000f3f64ff00046ff2de6605ad03123c5eb5b
:105740000545d6e706232371ff2e17bf64234ff0cc
:105750000043a6f18d025343ff2da36017bf3223f0
:105760004ff000436b43a3f5fa63ff2e23611dbf87
:105770006123c6eb064696fbf3f64ff00046ff2d7d
:10578000e66036d02223c5eb0545b2e70823dae709
:105790000923d8e70023b8f1030f237104d9a8f136
:1057a0000508b8f1020fcfd94ff00043a360236181
:1057b0000023e36063616ff063009ee7632d10d008
:1057c0000723c5f10702c2eb421292fbf3f3063244
:1057d000fff67caf0a22c3f11f035343a3f5b9734d
:1057e00074e74ff0004371e76423a6f17902534355
:1057f0008ee74ff000457ee710487ee7fcc30120ae
:10580000c8c10120aaf4060817fa0608a3ef060883
:10581000e0930400b1ef060879330608d5ef0608d7
:1058200004c20120b0c2012091310608bcef060875
:10583000c9ef06089132060860030708f2feffff71
:105840002de9f3473f4b404c0193fcf759fa2046b2
:10585000002610f8405f7c22002104f0f9ff04f1db
:105860003c0084f84050c4f8f46103f045fb054661
:10587000e0b13746dff8eca004f13c0804f142093e
:1058800094f84230032b4ed094f8f031002b4ad1db
:105890005146404602f05fff42f210734a462b49e0
:1058a0002b4802f075fcc31c012b12d994f8f0317f
:1058b00003f0ff051bb10323002584f8423001a843
:1058c000fdf7f0ff85f00100c0b2404202b0bde834
:1058d000f087042f10d102300ed06eb9404603f08d
:1058e0001ffc10b9404603f0e1fa404603f004fb08
:1058f00006460028dad0002794f84230022b06d161
:10590000144b0021144a1248fdf7cefecee7032bbc
:1059100006d04ff47a734a460c490d4802f038fc21
:105920000137052facd194f84230032b06d194f8ff
:1059300040100029c3d1094b074ae4e7012bb5d138
:10594000074bdee7fcc30120c8c10120212e060859
:1059500004c20120e8f4060817fa060800f5060854
:1059600062f20608ddf406080246c3680069181ae8
:1059700044bf9368c01870472de9f843054689462f
:10598000174690462846fff7efff20b9a7eb080718
:105990003846bde8f8834045a8bf40462e69ab684d
:1059a00029689c1b8442a8bf0446314422464846cd
:1059b00004f026ffaa6826449642a8bfb61ab8eba0
:1059c00004082e61a144ddd1e2e710b50446fff7db
:1059d000cbff8142a8bf01462369a2680b449342d2
:1059e000a8bf9b1a6361401a10bd00002de9f04f5b
:1059f000041d85b00190204615468846fff7b4ff88
:105a0000019b01462046de68fff7aeff8d42a8bf2e
:105a10000d460027361a731e0293002d40f39b801b
:105a20000023009339462046fff7cfff804b009ab2
:105a300053f83260002e00f0a3804ff00009ca46f0
:105a40003178002900f099800af1010b5d45c0f220
:105a50008f802046fbf766fe96f800c0bcf1250f4c
:105a60000ed196f801c0bcf1640f1ad14ff00009b5
:105a7000a0f130025ffa82fcbcf1090f06d90236b0
:105a800016f8012b82427bd1da46d9e70a230bf1c3
:105a9000010b5d4503fb09296adb2046fbf742fe4b
:105aa000e6e7bcf1630f10d1d14409f10109cb4500
:105ab00003d14ff0ff390236e2e70bf1010b5d45f0
:105ac00056db2046fbf72efef1e7bcf1730f01d049
:105ad0000136d5e7222853d1da460bf1010b5d459b
