:02000004000feb
:1040000000f0032021420f0061420f00f5470f002e
:1040100065420f000d480f003d480f0000000000f2
:104020000000000000000000000000006b420f00d4
:104030006d420f00000000006f420f00d1480f00da
:1040400059a90f0073420f005db90f002db90f0081
:1040500039b90f00659f0f0041a60f0081a90f001d
:10406000cdb50f00e1b50f00f5b50f00e5ae0f00bf
:1040700073420f00ddb70f0073420f0073420f0051
:104080002db50f00f5ae0f006db80f0051b90f0040
:1040900049b80f004fb80f0055b80f005bb80f00bc
:1040a00061b80f0067b80f0009b60f001db60f000a
:1040b000f1ad0f0055a10f0000000000000000004e
:1040c00073420f0001ae0f0011ae0f0045b90f0093
:1040d00005af0f0073420f0073420f00d19a0f001b
:1040e00035b70f00ddb40f0073420f000000000071
:1040f0000000000021ae0f0000000000cdb70f004f
:1041000000000000000000000000000000000000af
:10411000000000000000000000000000000000009f
:10412000000000000000000000000000000000008f
:10413000000000000000000000000000000000007f
:10414000000000000000000000000000000000006f
:10415000000000000000000000000000000000005f
:10416000000000000000000000000000000000004f
:10417000000000000000000000000000000000003f
:10418000000000000000000000000000000000002f
:10419000000000000000000000000000000000001f
:1041a000000000000000000000000000000000000f
:1041b00000000000000000000000000000000000ff
:1041c00000000000000000000000000000000000ef
:1041d00000000000000000000000000000000000df
:1041e00000000000000000000000000000000000cf
:1041f00000000000000000000000000000000000bf
:1042000000400f00beff0f000000810c1a000200ea
:10421000000000000000000000000000000000009e
:104220000b490c4a0c4b9b1a03dd043bc858d05079
:10423000fbdc0949094a0020521a02dd043a885081
:10424000fcdc07f0ebfb00f057fa00f057f8000039
:10425000a4f90f00005c0020786100203c2c0120b4
:10426000fee7fee7fee7fee7fee7fee7fee7fee726
:10427000fee7fee7430803f05533c01a830803f056
:10428000333300f03330184400eb101000f00f30df
:1042900000eb002000eb0040000e7047034613f8cf
:1042a000012b002afbd1181a0138704781f30888c6
:1042b00000470000084b094a1b7830b101211170fa
:1042c00043b94ff0ff1004f0dfba107013b9e720c4
:1042d00004f05ebb704700bf7d6100207e6100205e
:1042e00038b5044c044dac4200d338bd54f8043bff
:1042f0009847f8e778f90f0080f90f002de9f04fa3
:1043000085b003f08bfb00f063fd042001f08cfe10
:10431000b44bb54c187003f0cffc00f0e8fab34b87
:1043200001221a7003f018fd04f0e6f9a38840f6a4
:104330008140834201d003f04dfda37c1bb10023db
:10434000a37403f025fdaa4d4ff420332b6023897d
:10435000052b27d1a74b01221a70a2894af6aa235e
:104360009a4204bfa44b01224ff0010008bf1a700b
:1043700000f014fa80b2adf80a00bdf80a304ff62a
:10438000ff719bb28b4200f08880bdf80a304ef678
:10439000fa529bb293420ed1984b0120187000f054
:1043a000f3f931e045f255529342d6d1914b0022b8
:1043b0001a70934bcfe7bdf80a3045f6fe229bb248
:1043c000934202d18f4b0120e8e7002004f0a2f9cc
:1043d000d0b1bdf80a309bb2022b4ed0032b56d081
:1043e000012b57d1864a1370bdf80a3001339bb2b6
:1043f000adf80a30bdf80a10012089b200f0c4f906
:1044000003f0e0fc04f090f9002000f01dfd7e4e6a
:10441000002849d13378dff8ec814bb10027012324
:10442000a371e77103f0b4fc744b1f7088f800703f
:1044300098f800301bb10123a37403f0a9fcdff846
:10444000b4816d4f98f80030012b40f09e804ff002
:10445000ff1004f019fa03f0b3fc694a6b4800231b
:104460003b70137088f80030337004f00dfa634b22
:1044700001221a7001f096fbfee75f4b01221a70d1
:104480000023a371e371bdf80a301344afe75b4b1f
:1044900001221a704ff6ff73aae70120adf80a0057
:1044a000bdf80a1089b27ae703f018fedff86891c8
:1044b000dff84481dff844a142f6e0630746c9f81b
:1044c0000030002000f0c0fc0028a3d0d9f8003054
:1044d000002b9fd0337803f0ff0063b900f0c4fcd9
:1044e00042f21073984206d96ff07f4004f0ccf985
:1044f00001233370e5e798f8003003f0ff0ba3b910
:10450000584600f0b1fc41f6641398420dd9002fd3
:10451000d7d04ff47f4004f0b7f9012384f806b0f8
:1045200084f807b088f80030cbe79af8003003f041
:10453000ff0063b900f098fc40f6b733984206d903
:10454000324804f0a1f901238af80030b9e7dff816
:10455000b4b09bf8002002f0ff03002ab1d1184646
:10456000019300f081fcb0f57a7f019ba9d3214a29
:1045700088f800301370224a4ff0ff10137004f0d7
:1045800083f901238bf800309be73b78002b45d063
:104590003b78012b21d1e388012b0cbf6ff07f40ca
:1045a0004ff47f4004f070f903f0f4fb014600285b
:1045b0007ff453af286800f0a1f800283ff44daf16
:1045c000bff34f8f1249134bca6802f4e0621343e2
:1045d000cb60bff34f8f00bffde700233b7003f0bc
:1045e000a5fb3ae77d610020c0f303202c270120c2
:1045f000786100207e6100207c6100208c610020b9
:104600007f610020816100208061002000ffff00a9
:1046100000ed00e00400fa0584610020124b1b78d5
:1046200003f0ff02002b7ff418af1048019203f053
:10463000dbff0328019a03d11146462000f0c4f89d
:10464000286803a900f05af800283ff406af41f2a9
:10465000883003f0dbfb03f055fb039b58681968b7
:10466000fff724fef9e600bf8c610020b5420f0081
:1046700010b5184b1a6812b11a68013a1a60164b35
:104680001b782bb9154c236833b12368013b236099
:10469000bde8104001f0eaba114b124a1b781278bb
:1046a0001343114a1278134302d1104b1b7823b1e4
:1046b000e72004f085f93223e9e70d4b1b781bb99d
:1046c0000c4b1b78002be3d0e72004f079f964232e
:1046d000dde700bf846100207d610020886100204b
:1046e0007c6100207f6100207e61002080610020cd
:1046f000816100208c610020fff7f2bd38b50246d1
:1047000004460d460146002003f059fda8b94ff4b8
:1047100040321146002003f052fde8b14ff4403121
:10472000002003f035fd4ff440310246002003f035
:104730006afd88b14ff440340ae02146002003f0be
:1047400027fd21460246002003f05dfd0028ded053
:1047500005b12c60012000e0002038bd07b5002322
:104760000df107008df8073007f024fc9df80700d5
:1047700003b05df804fbc0b207f02abc07f01abc16
:1047800007f026bc70477047013809289cbf024bd0
:1047900043f82010704700bf80f303200138092838
:1047a0009abf034b53f820004ff0ff30704700bf13
:1047b00080f3032020b1034b800143f0010318472d
:1047c000704700bf70ed0f00bff34f8f0549064bd8
:1047d000ca6802f4e0621343cb60bff34f8f00bf9f
:1047e000fde700bf00ed00e00400fa0572b600200e
:1047f000704700001ef0040f0cbfeff30880eff3ca
:1048000009808169004a10476d480f0000b58db0de
:104810002c22002101a874460af016fa054b0193d8
:10482000054b029304947b46002101a8039303f0f7
:104830009bfffee72c00040076ed0f0000b58db065
:104840002c22002101a874460af0fef9054b0193c1
:10485000054b029304947b46002101a8039303f0c7
:1048600083fffee72c0005007fed0f0000b597b039
:10487000036803934368049383680593c3680693ae
:10488000036907934369089383690993c3690a938a
:104890000c4b996a11f00071744601d0fff7cefffe
:1048a0002c220deb020001910af0cef9064b0b937e
:1048b000064b0c930e947b4601990d930ba803f0c5
:1048c00053fffee700ed00e02c0001008aed0f0031
:1048d00008b503f0cffa04f0c3f9fff7c9febde84d
:1048e000084000f0e1b90020704700207047704791
:1048f0004268436902b102221a70704713b50f4c27
:1049000013462278bab90122227000940a46014661
:104910000b4807f05efa58b92378012bfcd02078b9
:10492000003818bf012040420023237002b010bda0
:104930004ff0ff30f8e74ff0ff30f7e78d610020d0
:10494000005c002010b5fff71dff06490648002255
:1049500007f031fa0446fff716ff201e18bf0120aa
:10496000404210bdf4f60f00005c00207fb5cde999
:1049700004100392fff706ff00230193074b0093f7
:10498000dde90321064b059801f0d9fb0390fff701
:10499000fafe039807b05df804fb00bf31610f0019
:1049a000fd480f0073b5174c01910546fff7eafe6d
:1049b000237803f0ff06fbb9012325f47f61237000
:1049c000019a1148234621f00f0107f030fa38b15f
:1049d00026706ff00104fff7d6fe204602b070bdce
:1049e0002378012bfcd0237803f0ff003bb1002398
:1049f00023706ff00204eee74ff0ff34ebe704465c
:104a0000e9e700bf8d610020005c002013b504467b
:104a1000cde90021fff7b6fe009a019821460af081
:104a2000ebf8fff7b0fe002002b010bd08b5054b53
:104a3000588b02f04cfa012303fa00f0013880b2df
:104a400008bd00bf145c002038b518220b4b504342
:104a50001d181b5c012b0c460fd12b79d9070cd5e7
:104a6000fff7e4ff2a79034692072146688848bf8a
:104a7000191bbde8384002f0b9ba38bd145c0020fb
:104a800070b50d460646014601201446fff7dcffcf
:104a900029460220fff7d8ff21460320fff7d4ff65
:104aa00031460520fff7d0ff29460620fff7ccff4f
:104ab00021460720bde87040fff7c6bf70b5184e0d
:104ac0000546fff7b3ff337f13f0020f0446708be8
:104ad0001cd002f0f7f9201a80b2288096f8343002
:104ae000708e13f0020f14d002f0ecf9231a98b272
:104af000688096f84c30b6f84a0013f0020f0bd0dd
:104b000002f0e0f9241aa0b2a88070bd02f0daf930
:104b1000e3e702f0d7f9ebe702f0d4f9f4e700bfde
:104b2000145c0020064a137903f0020310b91bb984
:104b3000002102e0002bfbd10121508801f0b8bf19
:104b4000145c002070b5032886b005461ed9031feb
:104b5000182202fb03f4694604f64f6002f070fc71
:104b600060bb9df80030ff2b28d09df80430db0798
:104b700024d5134b6a46234406ae144603ccb442f4
:104b800018605960224603f10803f6d118200d4b36
:104b900045435e195c5d012c10d17088214601f0ff
:104ba00075ff3379708813f0020fc3f3400118bf0b
:104bb000214606b0bde8704001f07abf06b070bd76
:104bc000745c0020145c0020f8b5094d00242f46c9
:104bd000182606fb04731b79db0702d5688802f0f0
:104be000e3f80134082c05f11805f2d1f8bd00bf37
:104bf000145c0020704700001fb50023adf80d3095
:104c00008df80f30062302468df80c304001084b1a
:104c10000129185a03eb421407d103ab0093a37880
:104c2000044902f015fa04b010bd02f0f1fafae7f7
:104c3000d45c0020694c0f00094b03eb40120021ab
:104c40009180da783ab993f8233003f0ff0213b970
:104c5000044b1a705a600121c0b2fff7cdbf00bfec
:104c6000d45c002090610020084bc0b203eb4013dd
:104c700010b5002101249980dc70fff7bdff044bc3
:104c80001a7812b90a221c705a6010bdd45c002038
:104c90009061002008b54001024b185a01f03aff1c
:104ca000c0b208bdd45c002010b5294b1a78002a88
:104cb00049d05a68002a46d05a68013a5a60586862
:104cc000002840d1234c0a225a60e378f3b1fff761
:104cd000e1ffd8b9a3889bb21bb9a3880a339bb262
:104ce000a380a3880a339bb2a380238cff2b2ad0f6
:104cf00094f8233093b994f8233023b3002384f835
:104d000023300120bde81040fff796bfe378002b69
:104d1000ebd00020e070fff78fffe6e70120fff700
:104d2000b9ff94f822305a1e5342534183420bd1ab
:104d3000a38c9bb21bb9a38c0a339bb2a384a38c14
:104d40000a339bb2a38410bd238cff2bd3d1fae787
:104d500090610020d45c00202de9f0411a4c2278ab
:104d600005460f4602f0ff030ab923706360174e31
:104d700006eb45134fea45189b7836f80800012bdf
:104d80000cbf0321022101f081fe012f03d139461e
:104d90002846fff731ff36f80830ff2b06eb0807ef
:104da0000fd02846fff776ffbb785a1e5342534177
:104db000834206d10123fb70227812b923700a23a3
:104dc0006360bde8f08100bf90610020d45c0020ea
:104dd00030b589b020220021684609f035ff202235
:104de000694640f62f6002f02bfb9df80330aa2b9a
:104df0001bd1bdf804304bf6cc329bb2934214d198
:104e00000b4c6b4608ad1a4603caaa42206061608b
:104e1000134604f10804f6d1064b0022012183f861
:104e2000232008469a84fff797ff09b030bd00bfe2
:104e3000f45c0020d45c0020024b00221a705a60ff
:104e400002f004b990610020064901eb40130246cc
:104e5000db78d8b22ab90b8cff2b1cbf91f823301a
:104e600018437047d45c0020084a02eb4013014607
:104e70009b8898b241b9138cff2b05d0938c9bb2c1
:104e8000834284bf908c80b2704700bfd45c002006
:104e900000487047145d00201fb50a4b01934ff086
:104ea00080531a6e02925b6e039338b131b10c29b4
:104eb0000a4628bf0c2201a909f09efe0c2005b06d
:104ec0005df804fbe00fce6838b500f581552c463f
:104ed0000c34a54207d055f8040b0028f9d003681c
:104ee000db689847f5e7002038bd4ff0ff3070478a
:104ef0004ff0ff3070474ff0ff30704700f58053a0
:104f000000f581505b8e0b801030704738b5154628
:104f10008a1f042a1ad809d100f5825401221d34af
:104f20001a702046fff7baf928800de001f202411d
:104f300050f8214044b101221a70236820465b6a70
:104f4000984704460028edd1204638bd0024fbe7f1
:104f50000a23c37300f58250ff221d3009f0a2be60
:104f6000f8b5184b00f5815200f58057c0e90031c3
:104f700000230372c0f80a30c3810361c2e9003321
:104f80009360fb62104b04460d4607f1300203f1bb
:104f9000280c18685968164603c60833634532461c
:104fa000f7d118681b7930603371ff22002107f1b7
:104fb0005d0009f049fe2b6821461b68284698478a
:104fc0002046f8bdbcee0f00f0ec0f001fb58b883b
:104fd0004068042b07d103680e4a9c69cb88a04720
:104fe000002004b010bd052b0fd18a78cb881ab9e8
:104ff00002689469084af2e70022cde90122adf87f
:105000000c200268946901aae9e703681b6a9847c3
:10501000e6e700bf6eee0f00dced0f0010b50246b4
:1050200048780a280b4611d00b2815d006281dd128
:105030004b881b0a212b07d15068036802f5825266
:105040009c6914320923a047002015e050680368ca
:1050500008329c690123f6e74c88022c06d8506878
:10506000147203689c6900231a46ece750680268d2
:105070001946126a9047012010bd38b51d460a2313
:10508000044681724372837322b140680368002131
:105090001b6a98472db129462046bde83840fff7e6
:1050a00057bfe57338bd38b5427a092a044617d888
:1050b0000123934013f41b7f12d002234372c38158
:1050c000406803689d6900231a46a8476068036822
:1050d0005b6a9847606803689b6a9847002038bd00
:1050e000002301220e212046fff7c7fff6e710b587
:1050f000437a022b024601d0052b18d10b68c2f867
:1051000016304b68c2f81a30938b506843b10324b1
:105110005472d4810468e4692032a047002010bd95
:1051200006245472d481026894691a46f5e7002374
:1051300001220e21fff7a1fff0e710b5437a0a2bf9
:105140000bd102234372c38100238372406802683b
:1051500094691a46a047002010bd002301220e21a9
:10516000fff78bfff7e738b5437a042b02d0073bf4
:10517000012b06d8002301220e21fff77eff00201d
:1051800038bd4468236800f10e029d692046012362
:10519000a847f4e72de9f041437a022b04460d4677
:1051a00001d0092b57d12b68c4f816306b68c4f8ae
:1051b0001a30238b83b92a4b2362fb2384f82430d3
:1051c000606802236372e381036804f120029e6930
:1051d00005232946b0471be0012b2dd00926667216
:1051e000e681002003f01cfc012804f1200712d105
:1051f0000b23a3720a236372a37320461949fff796
:10520000a7fe606803683a469c6929460023a047c8
:105210000020bde8f081237a228b216903f58163a8
:10522000023a54f82300036801eb0232d3f81480e9
:10523000a38b3946c04730b1002301220e212046fe
:10524000fff71bffe4e760686672e68103683a4691
:105250009e69a38bbde7002301220e21f0e700bf6a
:10526000002141fa96ee0f0070b5437a062b0446f2
:105270000d4636d0072b3ad0032b3ad1838b63b33c
:1052800004234372c381002003f0cafb01280fd11d
:10529000238b23b994f82030fa3b012b08d90b2338
:1052a000a3720a231b496372a3732046fff750fec3
:1052b000237a227d03f5816304f10a0154f8230067
:1052c00003681b6a98476068036804f10a029e69d4
:1052d00029460623b047002070bd05236372e38191
:1052e000f1e707234372c38100238372ebe70823ae
:1052f000f4e70a2b06d8012202fa03f340f2ef6228
:105300001342e0d1002301220e212046fff7b5fe13
:10531000e1e700bf96ee0f00ff2303750023c0f8fe
:105320001630c0f81a3000f58050c362704738b5a7
:105330000021044602234372c381817204f5815522
:10534000fff7eaff21612c460c34a54207d055f83f
:10535000040b0028f9d003689b689847f5e7002004
:1053600038bd10b5427a092a044612d80123934069
:1053700013f41b7f0dd0022300224372c38182727b
:10538000fff7caff606803689c691346a0470020c6
:1053900010bd002301220e212046fff76efef6e726
:1053a00008b54b78062b21d8dfe803f004080c1071
:1053b00014181c00bde80840fff775bebde80840a2
:1053c000fff795bebde80840fff7e4bebde8084022
:1053d000fff74abfbde80840fff7afbebde8084091
:1053e000fff7c1bebde80840fff7bbbf40680368d8
:1053f0001b6a9847012008bd08b50b884ef6c162ac
:10540000934206d18b88052b0ad1bde80840fff7ef
:10541000ddbd4ef6c062934202d18b88042bf3e7c8
:105420000b7813f0600fc3f3411207d0012a09d0a3
:10543000406803681b6a9847002008bdbde8084023
:10544000fff7ecbdbde80840fff7aabf38b5437ac7
:10545000042b044604d0072b00f08d80002038bdbb
:10546000058b002d5bd1828b002a7ad090f82030fa
:105470000375922b4fd009d8212b0fd0412b16d07a
:10548000002bebd0002301220f2168e0fa2b39d04a
:10549000fb2bf7d103f088fb052339e0052a5bd10c
:1054a000d0f8213003614272c281a572d6e7052a85
:1054b00021d1284603f0b4fa012809d10b23a372a5
:1054c0000a2331496372a3732046fff741fdc5e704
:1054d000237ad4f8211003f581632a4654f8230077
:1054e0000368db699847002836d105236372e3819e
:1054f0000023a372b2e7012a2ed12b461146fff7f3
:10550000bcfdabe745f6fe210120fff73df9062380
:105510006372e381c9e72b4601220e21efe7012ddb
:105520001fd0002003f07cfa0128c7d0237a228bf9
:10553000216903f58163023a54f82300036801eb03
:1055400002329d69a38b04f12001a8470028ccd02a
:105550006ff4e1639842b1d0002301220e2120466e
:10556000cde70122204600231146fff786fd2046a5
:10557000fff7d2fe72e7082300f580544372c3811f
:105580004ff4fa73e36269e796ee0f0002299dbfbc
:1055900001f5816140f8212001200020704710b5fd
:1055a0000446fff7dbf8637a082b0cd104f580532f
:1055b000dc6a24b1013cdc62b4fa84f46409fff7cc
:1055c000daf8204610bd0024f9e77047816000201a
:1055d00070474ff0ff3070474ff0ff3070474ff08b
:1055e000ff307047f0b59df8146001b112b900208a
:1055f0001880f0bdbeb9541c6400b4f5807f88bf2c
:105600007f22541c03256400c575847505460a4431
:1056100011f8017b2f768a426e7605f10205f7d1eb
:105620001c801630e5e7941cb4f5807f88bffe220d
:10563000941c0325c575847500f118050a4411f8fa
:10564000016b05f8016b9142f9d1e9e7012003f004
:10565000d3bf04f031bb04f046b97fb51c46cb88fc
:105660001646d3b1a5b29d4228bf1d46a34212d90a
:10567000802004f049f8b4fbf0f303fb1044b4fac3
:1056800084f4640901a98020cde90165039404f044
:1056900041f804b070bd0024f4e704b0bde87040e8
:1056a00004f01eb97fb51c46cb880d4616467bb16b
:1056b00004f0d4f8a4b2eb880196002001a903906d
:1056c000a34294bf0293029404f024f804b070bd86
:1056d00004b0bde8704004f003b9000038b50e4dc9
:1056e0002c78bff35b8f14f0010413d1284600f02f
:1056f000c7fc78b1094b0a4a1a604ff080722846fd
:10570000c3e903241c719c609c8200f0befc054828
:1057100009f05cfa014838bd986100209c610020c6
:1057200048ef0f00cb550f0038b50446fff7d6ff02
:10573000012c054609d0022c16d0ecb903f086ffe7
:10574000d0b9bde8384003f0abbe04f0c9f82c7105
:1057500003f086ff08b104f0affa03f077ff58b109
:10576000bde8384004f0c6ba03f07aff20b9bde8be
:105770003840012003f040bf38bd0000f0b50546b9
:1057800093b0fff7abff2b780446062b16d8dfe863
:1057900013f007000f001300170017001900ad01e8
:1057a000806858b103685b6913b0bde8f0401847e2
:1057b00004f096f8012300e00323237113b0f0bd39
:1057c0000223fae704ae304604f026f896e8030018
:1057d00006ad85e803009df8183003f01f02012a8a
:1057e00000f03081022a00f03a813ab913f0600fdc
:1057f000c3f3411205d0032a40f0288104f073f866
:10580000dce79df81930092bf8d801a252f823f0f3
:1058100039580f0051580f00fd570f0051580f0015
:10582000fd570f00b5570f0067580f00fd570f00c9
:10583000d7590f00f1590f002379013b012bddd817
:10584000022304f10c0229462046fff706ffb5e7c4
:105850002379013b012bd1d8bdf81a30012bcdd1d2
:1058600004f03ef8aae7bdf81a100a0a0023022a3b
:10587000adf80e3013d0032a1ad0012abed1a38a64
:105880002069adf80e300028b8d0bdf80e30002bde
:10589000b4d0bdf81e20002ab0d00246d3e7a068dd
:1058a0000028abd003680df10e011b6a9847eae7a8
:1058b000c9b2052907d80139042920d8dfe801f049
:1058c000296530656500ee2966d0fa296bd0a0689d
:1058d000002893d001228df82020adf82c300368e9
:1058e0000baa5e6a08abb0479df82030bdf82c20ab
:1058f00083f00103009301460df10e0305e001233f
:10590000a149009302220df10e032046fff76afe23
:10591000b9e7002300939d490df10e030822f4e737
:105920000026152231460ca80b9609f08df90c21a2
:1059300008a8cde908660a96fff7aefa0bab08aaed
:105940001946b0421bd012f8017b4fea171e0ef128
:10595000300cbcf1390f88bf0ef1570c07f00f0760
:1059600083f800c007f1300cbcf1390f03f10203da
:1059700088bf07f1570c03f801cc0136e1e700239b
:10598000009318220df10e03bfe700230093804916
:105990000df10e031022b8e7012300937d490df1ac
:1059a0000e031022b1e71846cde90b3303f038f8a7
:1059b00078b903f01bf9784b784a002808bf1346e2
:1059c0001b680b930023009308220df10e030ba913
:1059d0009be7734bf5e72379012b06d0022b7ff46d
:1059e0000daf012304f10e022de704f10f022ae7a7
:1059f0002379012b0fd0022b7ff400afbdf81a10d2
:105a0000d9b9a0680123237100283ff429af0368a6
:105a10005b68984724e7bdf81a1000293ff420afcf
:105a200002232371a06800283ff4e8ae03681b68d6
:105a3000984700283ff414afe0e6a37b8b423ff485
:105a40000fafefe72379022b7ff4d8aea0680028d0
:105a50003ff4b4ae036829469b689847aee69df8cc
:105a600019309df81c00012b16d0032b2dd0002bd4
:105a70007ff4c4ae2379012b09d0022b7ff4beae94
:105a800003f0c8fe2246022322f8160fdbe6410689
:105a9000f6d003f0b3feb1e62379012b20d0022b20
:105aa0007ff4acaebdf81a30002b7ff4d9ae4206bd
:105ab0003ff4d6aea368002b3ff4d2ae04f034f925
:105ac000a068036829469b68a3e72379012b07d0c8
:105ad000022b7ff493aebdf81a30002b7ff4c0aeda
:105ae00043063ff4bdae03f089feb9e695f90230f6
:105af000a978002b2ada802920d1eb78b3b94ff0ae
:105b00008053d3f83021082a04d1d3f834310bb1b3
:105b100003f0e6fea06800283ff450ae0368db699e
:105b2000a978002213b0bde8f0401847032b3ff4da
:105b300045ae13b0bde8f04003f0d5be8068002844
:105b40003ff43cae0368db690022ebe7a1b9eb78d8
:105b5000002bebd14ff08053d3f83021082a04d129
:105b6000d3f834310bb103f0bbfea06800283ff43a
:105b700025ae03689b69d3e7806800283ff41eae1a
:105b800003689b69e0e700bfeeee0f00f1ee0f0047
:105b9000faee0f001cef0f00e4ee0f00e9ee0f002d
:105ba000736d3d7030b58db07546fff797fd264b90
:105bb000036112238382254a002104462448fff70b
:105bc000e5fc244a22480121fff7e0fc224a204854
:105bd0000221fff7dbfc214803f056fd78b12c22af
:105be000002101a809f030f81d4b01931d4b0293d1
:105bf00004957b46002101a8039302f0b5fd4021e6
:105c0000002003f03bfd8020402103f037fd03f02e
:105c100067fe012323716846134b009306f0a0f83a
:105c200078b12c22002101a809f00ef80c4b019349
:105c30000c4b029304957b46002101a8039302f0cc
:105c400093fd0db030bd00bf2cef0f001c74002081
:105c5000b8620020b4620020147400207d570f0049
:105c60002c000a000bef0f0029570f0008b506485b
:105c7000fff795fc38b1fff731fd04f01df8bde8e2
:105c8000084002f053b808bdb862002008b5fff71d
:105c900025fd01460648fff763f9064800f0b0f914
:105ca000054800f0b3f9bde80840044800f0b4b975
:105cb000b86200201c740020b4620020147400201c
:105cc000704700207047b1f5801f06d81144b1f528
:105cd000801f8cbf002001207047002070470020eb
:105ce000c8708870487070477047b1f5804f06d80b
:105cf0001144b1f5804f8cbf002001207047002077
:105d0000704700207047704710b50421044600f02a
:105d10009ff9204610bd10b50421044600f098f903
:105d2000204610bd10b50821044600f091f9204628
:105d300010bd13b50c4611461a460368cde9001292
:105d40001b69984738b1dde90012204608f054ff7e
:105d5000002002b010bd0120fbe7000008b50020c4
:105d600002f05efe034a044b012814bf1046184699
:105d700008bd00bf74ef0f00c5ef0f0008b500208d
:105d800002f04efe034a044b012814bf1046184689
:105d900008bd00bf16f00f0037f00f0008b5002057
:105da00002f03efe034a044b012814bf1046184679
:105db00008bd00bf58f00f0081f00f0037b5144642
:105dc0001a46036801920d461b692146984738b16f
:105dd000019a2946204603b0bde8304001f030bbaf
:105de000012003b030bd13b50c4611461a460368b6
:105df000cde900121b69984738b1dde90012204651
:105e000002b0bde8104001f057bb012002b010bd48
:105e100008b5002002f004fe18b9bde8084002f001
:105e2000e5be002008bd000008b543688b4214d8c9
:105e3000c91ab1f5000f10d80a44b2f5000f0cd8fa
:105e4000084ba1f5d101a1f58051994207d8fff780
:105e5000dfff80f00100c0b208bd0020fce7012098
:105e6000fae700bfff6f1700f0b51e46036814463f
:105e700087b00d461b6932462146984718b901255f
:105e8000284607b0f0bdfff7c3ffd8b92946324610
:105e90002046fef76bfd05460028f0d1b4f5342fff
:105ea000eed1172eecd92246214602f088f90028bf
:105eb000e6d001214ff45420fef774fd051e18bff3
:105ec0000125dde71b4b9c42e0d31b4a9442ddd207
:105ed0009c421a4f02d01a4b9c4224d10123b6f5a2
:105ee000067f3b7022d318220021684608f0acfee2
:105ef00000232a461946684602f004f9b0b9bdf8f5
:105f00000a2041f26f739a4210d93870c4f30b0320
:105f1000002bbbd106f6ff71090b2046fef742fdb0
:105f20000028b3d0abe73b78002befd06ff4e165ee
:105f3000a6e700bf0080020000400b002074002094
:105f40000000030010b503681b690c46984780b138
:105f5000fff75eff28b1094b9c4202d3084b9c42dd
:105f600009d301212046fef71dfd003818bf01208e
:105f700010bd0120fce70020fae700bf008002000e
:105f800000400b0073b514461a46036801920e4692
:105f90001b6921460546984740b16868019a314619
:105fa000201a02b0bde8704000f030ba012002b003
:105fb00070bd73b514461a46036801920e461b69fc
:105fc00021460546984740b16868019a3146201a33
:105fd00002b0bde8704000f0f7b9012002b070bd1a
:105fe00038b503681b6904460d46984730b16068b0
:105ff0000121281abde8384000f059ba012038bd07
:10600000014b0360704700bfe4f00f00014b0360d9
:10601000704700bf14f10f00024a02604ff00042c7
:1060200042607047b4f00f0013b504220023044609
:106030000deb020140f2da60019301f001fa019bdd
:106040001c4054ea00030cbf0120002002b010bd28
:106050007047000000b58db02c22002101a81d461c
:10606000744608f0f1fd054b0494cde901357b46fb
:10607000002101a8039302f077fbfee72c000a0041
:106080000078b0fa80f04009704701230370704730
:106090007047000010b5084c237853b9b2f5004f93
:1060a00007d8064a0260064a0a6001222270184692
:1060b00010bd0448fce700bf341f012024f4002079
:1060c00021740020fcfeffff014b00221a70704774
:1060d000341f0120002070472de9f34105460f468b
:1060e0001e46144612b320f003080422089b0deb51
:1060f00002014046984720b14ff0ff3002b0bde8a2
:10610000f081a8eb05000430844228bf044601abaf
:10611000a5eb080022463946184408f06dfd04221c
:106120000deb02014046b0470028e5d12046e5e7e7
:1061300008b50846ff2108f087fd002008bd2de9bd
:10614000f04fc3b08707ddf8309105460e46144680
:1061500098460dd0cdf80090fff7beff002804da76
:106160004ff0ff3043b0bde8f08f05440644241ad9
:10617000002c38d04d9b46ea050202f0030203f0e2
:106180000103134324f0030713d147b13a463146c4
:106190002846c0470028e3d13d443e44e41bcdf8e7
:1061a00000904346224631462846fff795ffc01728
:1061b000d8e7bb46bbf1000ff0d0bbf5807fda46d5
:1061c00028bf4ff4807a5246314602a808f014fde9
:1061d000524602a92846c0470028c1d1abeb0a0ba2
:1061e00055445644e6e72046bce72de9f047804693
:1061f00000200e4691461c468f0a0546a4b198b968
:10620000a919c1f309016318b3f5806f8cbfc1f5fb
:10621000806aa24609eb0502f8b25346c047a4ebd8
:106220000a0455440137e9e7bde8f08708b50b4695
:1062300011460246184605f017f901f079f908bd34
:10624000074b10b50024c3f8004101241c60d3f8ab
:106250000041002cfbd004f0e5ff01f069f910bd0e
:106260000090024007b50b468df8000011466846c5
:106270000022cdf802208df80130fff7e1ff03b0d6
:106280005df804fb02287fb5044616461d4637d844
:10629000cb18b3f5406f33d81a4b013418689b887c
:1062a000adf80c30e4b201eb043400230193230c6d
:1062b00002908df8043002a8230a8df806408df86c
:1062c000053004f0e9ff044610b101f031f915e0a2
:1062d0000d4b4ff4207043f00103984704222346ee
:1062e00021460deb020005f007f80028edd101234f
:1062f0002a46314605f000f80028e6d104b070bd0a
:106300000248fbe720ed0f0040f10f00f2feffff17
:1063100008b5094b0022c3f8002101221a60d3f806
:106320000021002afbd005f039f81128fbd0bde888
:10633000084001f0fdb800bf009002402de9f04197
:1063400015460446884600f09ffa002d0cbf4ff416
:1063500080574ff480370026b4fbf7f47c43464562
:1063600011d02146284605f0abf838b101f0e0f82d
:10637000044600f08bfa2046bde8f081fff7c8ff25
:106380003c440136ebe70024f3e7000010b500f0d1
:106390007bfa05f01ff84ff0a0430322c3f844270f
:1063a0004ff40032c3f808250422c3f854272920eb
:1063b00005f0e0fd034b00241c7000f067fa204656
:1063c00010bd00bf361f012030b585b00c46054614
:1063d000039200f059fa04f06043b3f1005318bf80
:1063e00001230193074b039a00932146064b28464d
:1063f000fff7a5fe0446fff78bff00f047fa2046a3
:1064000005b030bd31610f002d620f002de9f7435b
:106410000e4606f1030929f003091446054600f06b
:1064200033faa9eb0603a34294bfe71a271b37f000
:10643000030721d025f0030842463946484605f0b7
:1064400029f840b101f074f8044600f01ffa204624
:1064500003b0bde8f0834e4501d1454509d0a8eb16
:1064600005010f44a5eb08013a464944304608f0bf
:10647000d1fb3d443e44e41b002ce6d0291925f015
:1064800003080331a1eb0801424621f003016846ed
:1064900005f000f807460028d4d1a5eb08052246f0
:1064a0000deb0501304608f0a7fb3c46cde7002286
:1064b000fff744bf2de9f041dff88480044698f8e7
:1064c00000000d4616461f4600f0e2f958b3012cb5
:1064d0002ed18268eb19934228d84eb300f0d4f93c
:1064e00098f80030032b0bd112483b463246294620
:1064f000fff77bfe044600f0c9f92046bde8f081b5
:1065000021460022b120fff7adfe044628b93a46e5
:1065100031462846fff77aff044600220121c120b8
:10652000fff7a0fee7e76ff0a904e6e7024ce4e717
:10653000024ce2e785620f00defefffff2feffff86
:10654000351f01202de9f04186b00646ddf8308088
:106550000d461c4600f098f9002e40f0b5806d4eb7
:106560006d4ff068338a02903878adf80c3000f047
:106570008ff9002800f0a580ab1e062b00f2ab803f
:10658000dfe803f00408313323a93500b9238df87f
:10659000083020e03b78032b17d1ab238df808306f
:1065a00001238df809302246002102a8fff748fe9a
:1065b000041e4cdbeb1e012b25d8584b4ff4a0607a
:1065c00043f001039847002441e09f238df80830f1
:1065d00004238df80930002ce5d09df80930013beb
:1065e0004345e0d907e0c378d1e76623cfe73878a1
:1065f00000f04ef90cb94a4c29e0b8f1030ffad972
:10660000c3682360dfe7052dddd100229923114601
:1066100002a88df80830fff713fe041e17db3b7845
:10662000022b1ad0032b25d0012bccd13d4bd6f811
:1066300012009b88adf81430402304908df804308c
:10664000002201a904a8fff7fbfd041ebbda00f03d
:106650001df9204606b0bde8f081334bb0699a8839
:10666000adf814201b7af28b0490adf804208df85d
:106670000630e5e72b4bd6f812009a88adf81420c7
:10668000b6f821205b7c0490adf8042001a900221b
:1066900004a88df80630fff7d3fd041ed7db3123a5
:1066a00000220df1050104a88df81030fff7c8fd98
:1066b000041eccdb11238df8103000220df10601f1
:1066c000c0e76ff0a904c2e7012e7ff47caf012d73
:1066d00004d0072d11d06ff07704b8e70e4b8df87a
:1066e00010501b78013b012bf5d804aa02212f2062
:1066f000fff7b8fd00eae074a9e7074b187800f04f
:10670000c7f8002c3ff477afb8f1030f7ff673aff3
:10671000836876e720ed0f00351f012040f10f0060
:10672000f2feffff32ed0f0038ed0f00f0b54ff035
:10673000a0434ff400320326c3f844674b4dc3f81f
:10674000082504228fb0c3f8542700f09df80fcd20
:1067500004ac0fc400222b682360114604a804f087
:1067600075fc0d28424d0ed13446424e002716f8d6
:10677000013b2b70002300971a4604211846fff7af
:10678000e1fe013cf3d13c4b93f838308df80c30ee
:106790000022022303242b70062103ab1046009431
:1067a000adf80d20fff7cefe03a800f07bf80646fb
:1067b0002870a0b92f4f17f8013b2b7000230096cb
:1067c0001a4603211846fff7bdfe013cf3d103230f
:1067d0000093224603ab06212046fff7b3fe03a831
:1067e00000f060f8287000283cd000f051f8044612
:1067f00004f0f0fd214b0022cde9092341f216718e
:106800004ff48033cde90b131d4b0d93a378eb2b85
:1068100014bf002304238df82e306378322b14d05c
:10682000382b14bf002303230022114609a88df83a
:106830002f3004f00bfc034648b100f079fe04460b
:1068400000f024f820460fb0f0bd0223ece70d4a1b
:1068500001211170009002460521fff773fe00ea46
:10686000e074ede76ff0a904eae700bf44ed0f0024
:10687000351f01209460002020ed0f001311141526
:1068800000010700361f01200020704700207047dc
:106890000028034b08bf0220013803eb00107047ab
:1068a00048f10f000378c22b07d14378202b09d081
:1068b000282b14bf002002207047c82b14bf0020d3
:1068c000032070470120704703681f2b83bf03f02c
:1068d0001f03036001484ff0a040704700030050c1
:1068e00007b5019001a8fff7efff019a012393403c
:1068f000c0f8083503b05df804fb38b50446fef770
:10690000c7fa372c0dd8250100eb0414405dff2891
:1069100006d06078ff2803d0fef7bafa28448078c2
:1069200038bdff20fce700002de9f34180460d460d
:10693000fef7aefab8f1370f46d84fea081400eb6d
:106940000813025dff2a3fd05b78ff2b3cd0002d5f
:106950003ad0fef79dfa07192e79035d7c78ff2e59
:1069600014bf0121002104f01f04404644ea4314ef
:10697000fef740f96b79db071fd506f0fb03012b0f
:1069800001d0082e0ed1ab791bb12046fff7a8ff2e
:1069900008e001a80194fff797ff019a01239340b3
:1069a000c0f80c35082e0dd8082e0dd8dfe806f0fb
:1069b000200e2f380c410c0c5200052ee5d0082e6d
:1069c000f0d1e2e7ff2e56d02f481de06a8822b1b1
:1069d000eb79012b14bf0022032201a80194fff7d9
:1069e00073ff120242f00302019b03f5e07307e01c
:1069f00001a80194fff768ff019b002203f5e073f3
:106a000040f82320be70002002b0bde8f08101a84c
:106a10000194fff759ff019b0c2203f5e073efe7a8
:106a200001a80194fff750ff019b042203f5e073d6
:106a3000e6e76b8863b1eb79012b14bf06220722ce
:106a400001a81202019442f00102fff73dffcbe7db
:106a50000622f5e76b8863b1eb79012b14bf0622a0
:106a6000072201a81202019442f00d02fff72cff49
:106a7000bae70622f5e701a80194fff725ff019b7d
:106a8000022203f5e073bbe7f2feffff07b5074bf9
:106a90008df8041000226946adf805208df8072016
:106aa0000093fff741ff03b05df804fb080001000d
:106ab00073b505460e46fef7ebf9372d22d82c01ab
:106ac00000eb0513025dff2a1cd05b78ff2b19d069
:106ad000fef7def90319025d5c78db7804f01f0431
:106ae000062b44ea421403d101212846fff7ceffca
:106af00056b901a80194fff7e7fe019a01239340dc
:106b0000c0f80c3502b070bd204602b0bde8704040
:106b1000fff7e6be37b50446fef7baf9372c02d9bf
:106b2000002003b030bd250100eb0414435dff2bb2
:106b3000f6d06378ff2bf3d0fef7aaf94219415d36
:106b40005378927803f01f03082a43ea4113e7d8e9
:106b500040f22d11d140c90708d4012ae0d101a883
:106b60000193fff7b1fed0f8040505e001a80193f9
:106b7000fff7aafed0f81005019bd84000f00100f5
:106b8000cfe700001f2886bf00f01f00044b4ff026
:106b9000a04300f5e070022243f82020704700bfb8
:106ba000000300502de9f04f85b00e46044615460f
:106bb000fef76ef93a4900908e424ff02c0014fb1c
:106bc00000f028bf0e46374c00f1220300f10c0202
:106bd000042e00f1100004eb030e224438bf0426fb
:106be0000444002001964ff0010c80464ff002094a
:106bf0004ff0030a4ff0040b12f8013bff2b3cd07f
:106c0000019e2949b1fbf6f1009e54f8207006eb75
:106c10000313de790cfa06f3df1b012f34d0c7eb28
:106c2000c73737fa06f605d006fb0116b6f5004f52
:106c30002cd3f60b05238df80d3006238df80e307e
:106c400007238df80f30090136018df808808df883
:106c500009c08df80a908df80ba08df80cb00023b8
:106c6000b1f5004f14d2a98004a90b44b6b213f8b1
:106c7000083c2e80ab702ef8106001300428bbd188
:106c8000002005b0bde8f08f0026d3e70126d1e74c
:106c90000133082b4fea51014fea5606e0d1ece7e9
:106ca00020a107009860002040420f0038b505463b
:106cb000fef7eef8ff2d18d000eb05122b015478eb
:106cc000c35cadb204f01f04284644ea4314fff746
:106cd00014fe0128e4b206d12846fff71bff012865
:106ce00001d144f08004204638bd2c46fbe700006b
:106cf0002de9ff47dff870904ff02c0a0afb009453
:106d000007230026207b03964ff002080f46cde9ab
:106d100001668df80e808df80830fff7c7ff8df8fb
:106d20000400607bfff7c2ff8df80500a07bfff732
:106d3000bdff8df80600e07bfff7b8ffbb788df84c
:106d400007008df809303246bb88adf80c3001a938
:106d5000204603f02dff20b984f8208004b0bde860
:106d6000f0874ff0ff30f9e7986000201fb500234f
:106d7000cde9013303930423adf804302c23094cef
:106d8000584300f122032344009301220223694661
:106d9000204403f0ebff002814bf6ff00100002037
:106da00004b010bd986000202de9f3470646fef7b9
:106db0006ff8372e60d8370100eb06167379ff2b7a
:106dc0005ad0fef765f800eb0708814698f80540b1
:106dd00098f80630032c4dd8032b4bd8284d2c2087
:106de00000fb045a0aeb0302ff2111730b2202fb82
:106df00004330433002245f823209af82030022b74
:106e000005d1504603f096ff01238af8203098f808
:106e1000013019f8070003f01f0343ea4010fff7a1
:106e2000b1fe002388f803302c2303fb04531a7ba4
:106e3000ff2a08d15a7bff2a05d19a7bff2a02d16b
:106e4000db7bff2b16d000230093adf804302c23fe
:106e500003fb04556a46a9682046fff7a3fe0028f5
:106e600008db69462046fff743ff002802db204687
:106e7000fff77cff0823f37102b0bde8f08700bf85
:106e800098600020372810b5044601d9002010bdb5
:106e9000fdf7feff00eb04104279ff2af6d0084907
:106ea0002c2303fb021393f82030022beed18379bd
:106eb0000b2000fb0233043351f82300e7e700bf47
:106ec0009860002008b5fff7ddff80b208bd3728c5
:106ed00010b5044605d8fdf7dbff00eb0410c079c0
:106ee00010bd0020fce7000037282de9f74f0546cc
:106ef0008946174659d83b4b043a9a4255d8fff772
:106f0000e6ff012606fa00f048454ed3fdf7c0ff24
:106f100000eb05104fea051b4379ff2b45d0fdf729
:106f2000b7ff00eb0b0254799379032c3dd8032b68
:106f30003bd8dff8b4802c2101fb048101eb030c6a
:106f40009cf80cc0654503d18e68f61b18bf01265e
:106f50004ff02c0a0afb048a0aeb0301caf80870f6
:106f60000d730b2101fb04330433394648f8239099
:106f7000537810f80b0003f01f0343ea4010fff7ab
:106f800001fe00236a4620460093adf80430fff767
:106f900009fe002809db9af82030022b08d13eb9ff
:106fa0002046fff7e3fe002816da03b0bde8f08fb5
:106fb0002c2000fb048696f82030022b05d13046a9
:106fc00003f0b8fe012386f8203069462046fff71b
:106fd0008ffe0028e4dae8e706212846fdf70afede
:106fe000e3e700bf1ca10700986000204ff4fa728d
:106ff000fff77abf0a4b10b51c5cff2c0ed0fdf7d3
:1070000047ff00eb0410074b027a0c2101fb02330f
:107010005a681ab1bde810409868104710bd00bf0b
:1070200094ed0f00381f0120074a10b400230c24f0
:10703000ff2004fb03f10133092b8854f9d15df8db
:10704000044b03f04db900bf381f012003f0dcba38
:107050002de9ff470c9c05469a460e461746fdf75c
:1070600017ff00eb05182b0198f80190c35c09f09d
:107070001f0949ea4319baf1010f4ff000035ffa03
:1070800089f9adf80d3068d0baf1020f0cbf0223b8
:1070900003238df80c309df80e30404a23f0060390
:1070a00043f006038df80e30039badf804301b0c43
:1070b0008df80630019badf80c301b0c8df80e30ae
:1070c000039badf8003069461b0c48468df8023032
:1070d00003f070f9042829d10023baf1010fadf8ab
:1070e000093004d0baf1020f18bf4ff0030a9df81f
:1070f0000a308df808a043f004038df80a30029b93
:10710000adf80c301b0c8df80e30039badf8083039
:107110001b0c8df80a30029badf800301f4a1b0c87
:10712000694648468df8023003f044f9d8b91c4a44
:1071300003460c2000fb03f18c5cff2c0fd1501890
:10714000c0e90167555488f808304846012103f02a
:10715000b1f9002004b0bde8f087534699e7013348
:10716000092be7d1f1e7082813d11cb1e47814f01a
:107170000204ead10a4b0c2101fb04f2d05ca842c4
:1071800003d11344c3e90167dfe70134092cf3d1cc
:10719000dbe70428d9d10348dce700bff56f0f0017
:1071a000381f0120fcfeffff73b506460c46fdf7b5
:1071b0006ffe00eb061533012a7aff2a22d0c05c4d
:1071c0006b7803f01f0343ea4013d8b2019003f039
:1071d000bff9acb9019803f0ddf9297a0b4b0c2209
:1071e0005143ff205854297a02fb01314c60297a1f
:1071f00002fb013321469c6028723046fdf7fafc01
:10720000002001e06ff0d10002b070bd381f0120f6
:1072100000221146fff7c8bf38b5094c256828463b
:1072200000f0fbfa214651f8040b403006f0bcfa9e
:10723000206800f059fb2846bde8384000f0efba5e
:10724000a81f012010b50b460146044651f8040b57
:10725000044a403006f02bfdb0fa80f35b0984f855
:107260003c3010bd78f10f00014690f83c0038b179
:10727000002381f83c3051f8040b403006f094bafa
:10728000704700002de9f04f00210446cfb00846ba
:10729000754600f073fb0646206078b901462c2243
:1072a0000ca807f0d1fc524b0c93524b0d930f9549
:1072b0007b4631460ca80e9301f056fa27683846f3
:1072c00000f0abfa206800f0adfa78b12c22002172
:1072d0000ca807f0b9fc464b0c93464b0d930f9549
:1072e0007b4600210ca80e9301f03efa206842492b
:1072f000403006f0f1fb88b111300fd02c22002174
:107300000ca807f0a1fc3a4b0c933a4b0d930f9548
:107310007b4600210ca80e9301f026fa206837491d
:107320000caa403005f0c8fb00285ed10d9b002b55
:1073300040f2031618bf032631462046fff782ffae
:1073400078b12c22002101a807f07efc284b019384
:10735000284b029304957b46002101a8039301f07a
:1073600003faf30527d5ff23dff88490dff884a024
:107370008df80330002604f10408206801230df184
:1073800003024146403005f07dfdb0f1000b0ddcfd
:107390002c22002101a807f057fccde9019a0495a1
:1073a0007b46002101a8039301f0def95e4442f21e
:1073b000c6039e42e1d92046fff756ff78b12c2242
:1073c000002101a807f040fc094b0193094b0293ef
:1073d00004957b46002101a8039301f0c5f93846c6
:1073e00000f01dfa4fb0bde8f08f40f20316a3e79e
:1073f0002c000a000bef0f0085f10f0078f10f0051
:1074000038b50c4d2b78bff35b8f13f001040ed110
:107410002846fef735fe50b1074880f83c40fff79c
:1074200031ff2846fef731fe044807f0cffb024843
:1074300038bd00bfa41f0120a81f012019720f0032
:107440002de9f843814600200e469046fdf74bfaa1
:10745000fff7d6ff07680546384600f0def9012140
:107460002846fff7effe00280cda00f0b1fa0446d8
:10747000384600f0d4f90020fdf737fa04eae4704a
:10748000bde8f8832c46002354f8040b4a462146f5
:10749000403005f02fff002806da00f099fa044684
:1074a0002846fff7e1fee3e72868434632462146d7
:1074b000403005f0bbfef2e72de9f8430646012017
:1074c00089469046fdf70ffafff79aff07680546d1
:1074d000384600f0a2f902212846fff7b3fe002843
:1074e0000cda00f075fa0446384600f098f90120ed
:1074f000fdf7fbf904eae470bde8f8832c460023ad
:1075000054f8040b4a462146403005f0f3fe0028ab
:1075100006da00f05dfa04462846fff7a5fee3e729
:107520002868434632462146403005f0abfcf2e77e
:1075300011289abf024b33f910006ff063007047b7
:107540008af10f0070b50546012d084616461c4607
:1075500009d11a463146fdf759fa0028b4bf6ff039
:10756000da00204670bd022d04d11a463146fef7de
:107570004dfff2e7032d03d10120fef79bffece75f
:107580006ff0a900eee728b100f50053d3f8f01a28
:10759000fef79abd704738b5002505600446fef732
:1075a00099fd00280bdb04f500500123c0f8f85ac0
:1075b000c0f8fc5ac0f8083b80f80c5b284638bd80
:1075c0002de9f743054699461746002a3bd0a9b353
:1075d0000a789ab3a2f10803072b34d80126964003
:1075e0004ff00008324601a92846cdf80480fef786
:1075f00051fd041e1edb2b68019a03f50053c3f8ee
:10760000f02a2b6803f50053c3f8f46a2b6803f5de
:107610000053c3f8007b2a6802f50052c2f8049bad
:107620002868fff7b8ff041e0bda2868fff7abffe6
:10763000c5f80080204603b0bde8f0834ff4004653
:10764000cee74446f6e7014cf4e700bff2feffff49
:107650002de9f04f00f500549046d4f8082b002a8d
:1076600089b081468a4676dd00265b0003f002077a
:107670003546b346d4f8fc1ab9b3d4f8003b0593a9
:10768000d4f8f80ad4f8f03ad4f8042b1844059b3f
:10769000984700280cdac4f8080bd4f8083b002bf4
:1076a000a8bfc8f80050d4f8080b09b0bde8f08fa7
:1076b000d4f8fc3a834203d2284bc4f8083bece7e9
:1076c000d4f8f82ad4f8f41a02448a42c4f8f82a02
:1076d00007d1c4f8f8ba181ac4f8fc0a28b1022372
:1076e000ebe7f8d96ff0f903e7e70eb10123e4e720
:1076f00094f80c6bd8f800302eb19d4201d2184b93
:10770000dbe70023d9e75b1bd4f8f82a0693d4f80b
:10771000f43a9b1a0793d4f8f03a02971a4407a94f
:10772000019100920aeb050106aa484606f0c6fa46
:107730000028e4db0128079b0bd038b9012284f82c
:107740000c2bc4f8fc3a069b1d4493e7002bf8d1a0
:10775000c8e70646f5e76ff0d100a6e7defeffffbb
:10776000e8fefffff0b50d4e0a44914214d00768c1
:1077700011f8013b83ea070505f00f0556f825408f
:1077800084ea171484ea131303f00f0356f8233026
:1077900083ea14140460e8e7f0bd00bfb0f10f0005
:1077a00000207047036893f884203ab1d3f89c33e3
:1077b000c0690b4458430121fef779be6ff0d10038
:1077c000704770b40c461946036893f884601546f8
:1077d000039a46b1d3f89c33c0691c4400fb0450a3
:1077e00070bcfef7f1bd6ff0d10070bc704770b493
:1077f0000c461946036893f884601546039a46b10f
:10780000d3f89c33c0691c4400fb045070bcfef7e5
:10781000fdbd6ff0d10070bc7047002070470020a4
:10782000704700002de9f04105468cb07646fff721
:10783000f4ff95f88440002c4fd1012305f1400757
:1078400005f1080885f884304146384605f070f99e
:1078500000283ed005300fd12c22214601a807f088
:10786000f3f91f4b01931f4b029304967b4621466d
:1078700001a8039300f078ff6ff07f4001f004f857
:10788000e72001f061f84146384606f08df80446dd
:1078900028b94146384605f04bf90446c8b10023e3
:1078a00085f884302c22002101a807f0cdf90c4b7b
:1078b00001930c4b029304967b46002101a803938d
:1078c00000f052ff2846fff7aaff20460cb0bde8a3
:1078d000f08195f88440002ce4d00024f2e700bf4a
:1078e0002c000a000bef0f0038b50546fff795ff97
:1078f00095f88440a4b105f1400005f055f9002247
:10790000eb6c85f8842004464ff400216ff00040b2
:1079100033b1c3e90710c3e901225a611b68f7e7d5
:107920002846fff77cff204638bd00000f4bc360a0
:107930000f4b03610f4b43610f4b83614ff4807317
:10794000c0e907334ff4805343628023c36200f1e0
:107950008803036300f5c473436300f522738363f4
:1079600000f526738060c363704700bfef770f0098
:10797000c3770f00a5770f00a1770f0010b511494d
:107980000b680246b3b9104801240c600f4980f817
:107990009833c0f89c334ff480638362c1f89c3302
:1079a0004ff4007381f898438b62fff7bfff0846de
:1079b000fff7bcff22b1012a044818bf002010bd08
:1079c0000148fce728270120e81f01208823012027
:1079d000002807da3430322803d8034b33f910007b
:1079e00070470248704700bff0f10f0094f8ffffa6
:1079f000bff34f8f0549064bca6802f4e062134398
:107a0000cb60bff34f8f00bffde700bf00ed00e08c
:107a10000400fa0508b5fff7ebff000030b591b0a0
:107a2000744604f0f9f888b185280fd02c22002183
:107a300005a807f009f9964b0593964b0693089411
:107a40007b46002105a8079300f08efe002004f07d
:107a50002df904f055f90028fbd0002004f0f4f8cb
:107a600004f01cf905460028fad08b4bd3f800141b
:107a7000e1b18a490420fcf787fe894a4ff00043b0
:107a8000c2f808330023c2f87c310593059b4ff000
:107a9000a0434ff40032c3f844274ff08043012243
:107aa000c3f80025bff34f8f20bffde708460191c3
:107ab00004f032f988b185280fd001992c2205a84d
:107ac00007f0c2f8724b0593724b069308947b46fd
:107ad0000199079305a800f047fe724a92e8030057
:107ae00003ab83e80300184604f02af978b12c228e
:107af000002105a807f0a8f8654b0593654b069390
:107b000008947b46002105a8079300f02dfe4ff056
:107b100080434ff40012c3f884294ff44032c3f875
:107b20000829c3f81829c3f82829c3f83829c3f845
:107b30004829c3f85829c3f86829c3f878294ff4ad
:107b4000f812c3f88829fcf7fdfe78b12c22002139
:107b500005a807f079f84e4b05934e4b0693089411
:107b60007b46002105a8079300f0fefdfef7defd31
:107b700078b12c22002105a807f066f8444b059344
:107b8000444b069308947b46002105a8079300f018
:107b9000ebfd00f0c1ff01f035f84ff010239a69ba
:107ba000013203d09b69b3f53c3f3fd13e4b0122ec
:107bb000c3f80425d3f80024002afbd04ff010228c
:107bc0003a489061d3f80024002afbd00022c3f881
:107bd0000425354ad2f80034002bfbd003f0ccfe4c
:107be000002000f01dff012822d14ff01023d3f810
:107bf0000832dbb2ff2b1bd12b4bc3f80405d3f8a3
:107c00000024002afbd04ff010225a21c2f808129b
:107c1000d3f80024002afbd00022c3f80425224a0e
:107c2000d2f80034002bfbd0fff7e2fe0025d7e7a7
:107c3000002df9d14ff01023d3f80842e4b25a2caa
:107c400008d1284600f0ecfe01281cbf4ff080430d
:107c5000c3f85845164ad2f8fc3043f08073c2f896
:107c6000fc30144b00225a601a6842f001021a607c
:107c70000124e0b20134fcf765ff082cf9d1fff7cd
:107c8000d3f901210020fdf767f811b030bd00bf26
:107c90002c000a000bef0f0000000140efbeadde2c
:107ca000006000405ced0f0000e001400070020049
:107cb00000ed00e0001000e00c4b4ff47a721b68fe
:107cc000b3fbf2f3013bb3f1807f0dd24ff0e02222
:107cd000e0215361064b002083f8231090610720b8
:107ce000106183f823107047fee700bf7461002025
:107cf00000ed00e04ff0e022136923f0010313616f
:107d00007047000008b5bff34f8ffff7f3fffdf793
:107d100093f8fef73bfbfcf757ff034b0122c3f838
:107d20008020bff34f8f08bd00e100e008b5094b8c
:107d300001229a736ff02f02da7300221a724ff445
:107d4000a04150220a205a72fcf71efdbde80840ef
:107d500004f01eb9c0f3032010b50b4c0b4b226886
:107d60009a420fd01c22ff21201d06f06dff6ff0fc
:107d70003f0323706ff0530363706ff02103a37010
:107d80001a23e37010bd00bfc0f30320c0acde1a9d
:107d90007047000010b500f0abf9084b4ff0ff3210
:107da0001a735a73044638b100229a72da721a743e
:107db0005a225a74fff7baff204610bdc0f30320c1
:107dc00070470000024b00229a72da72704700bfbf
:107dd000c0f30320014b9880704700bfc0f303201d
:107de00010b502b11268084cd2430144884201d157
:107df000d04310bd10f8013b5340dbb254f82330a0
:107e000083ea1222f2e700bf58f20f0037b50546a9
:107e1000fff7a2ff002302220df106010e20adf8ac
:107e20000630fff70dfb124cd8b9bdf806204df215
:107e300001039a4215d14ff6ff7302220e210df174
:107e40000600adf80630fff737fb0123a3736ff090
:107e50002f03e37355b94ff0ff33a373e373fff7b9
:107e6000c7fde2894df201039a42f3d003b030bd61
:107e7000c0f30320704718df704710b5044608466a
:107e800011461a461cb1012c07d0002010bdfcf78a
:107e9000bdfdb0fa80f04009f8e7fef7b7faf8e761
:107ea0001f2a38b515461c4601d8002038bd0823c6
:107eb00022461831fff7e1ff0028f6d02388082b6f
:107ec00002d918339d42f0d3a078b0fa80f040096f
:107ed000ece710b50446084611461a461cb1012cc1
:107ee00007d0002010bdfcf741fdb0fa80f040093a
:107ef000f8e7fef769faf8e738b5d2f80031c3f5cc
:107f000080758d4228bf0d46144601462a46e0186a
:107f100006f072fed4f800312b44b3f5807fc4f82c
:107f200000311ad1d4f80411d4f8082101f5807079
:107f3000904202d94ff0ff3038bd94f80c01224630
:107f4000fff7c7ff0028f5d0d4f8043103f580739c
:107f5000c4f804310023c4f800312846ece72de9c9
:107f6000f043c1b08046489f0c4691461e460f44e0
:107f7000bc4201d301200de03d1bb5f5807f28bf39
:107f80004ff480752b466a4621464046fff775ff41
:107f900018b9002041b0bde8f0832b466a4631464f
:107fa0004846fff796ff0028f3d02c442e44dfe725
:107fb000013a0a4468b9b2f5801f08d9b1f1905f5f
:107fc0000dd3b2f1005f8cbf00200120704701206b
:107fd0007047012802d1b2f5000ff4e70020704786
:107fe00038b505460c461346fff7e2ff48b14db9d8
:107ff00003f6ff73190b2046fcf7d4fcb0fa80f0af
:10800000400938bd012d06d103f6ff73190b204638
:10801000fef74dfaf2e70020f3e72de9f0459bb0bb
:1080200001ae82460d4690463146642240f6243029
:108030001f460124fff704fa14224af6cd3302fb4f
:1080400004f0315a994206d10134052cf7d10020b1
:108050001bb0bde8f0851aaa1418229a24f8643cd3
:108060009df88c3004f8533c9df8903044f8582c1f
:1080700000f6243104f862ac44f8605c04f8618cca
:1080800044f85c7c04f8543c14223044fff714faa2
:108090000120dde710b514228ab00deb0201044681
:1080a00040f62430fff7ccf9bdf8142040f6ac734d
:1080b0009a4210d19df8243002939df82530019307
:1080c000089b00939df81720079b06999df81600c2
:1080d000a0470ab010bd0220fbe7000008b5034826
:1080e000fff7d8ffb0fa80f0400908bd15830f00f4
:1080f00008b50348fff7ceffb0fa80f0400908bd8d
:1081000071830f00f7b50c4615461e460746b0b3ff
:1081100099b912681c4b1340b3f1005f08bf05f515
:10812000007501464ff01802284608bf4ff400744e
:10813000fcf76cfcf8b103b0f0bd01291ad10422a0
:108140000deb02012846fef761f90028f3d1019af0
:108150000d4b1340b3f1005f0cbf05f500750446ed
:108160004ff018023946284608bf4ff40074fef756
:108170004df9dfe7002426b134600020dbe7034837
:10818000d9e73046d7e700bf0000fc2ff2feffff23
:1081900030b587b004460d4618220021684606f027
:1081a00053fd00232a4621466846fff7abff20b95e
:1081b000dde90030c01a07b030bd0020fbe770b524
:1081c00086b005460e46144600211822684606f081
:1081d0003bfd0023324629466846fff793ff80b9ee
:1081e000009ba34209d1019bb3f5801f05d8bdf8c0
:1081f0000c00a0f11a035842584100f0010006b0eb
:1082000070bd0020f9e7f7b50d461146024650b99a
:1082100059b34c59284624bafff7e2fd231a5842b5
:10822000584103b0f0bd01281dd1f1b14f1904220e
:1082300069463846fef7eaf80098002304ba01932d
:108240007e1b042e28bf0426324669462846fef7c8
:10825000ddf801aa31466846fff7c2fd3544af425a
:108260000190edd8dae70020dbe70846d9e72de9f1
:10827000f04786b006469146fff79afeddf8388053
:108280009df840a09df844500f46044600283dd07c
:108290000f9a41461846fff78bfe0446b0b315f01f
:1082a0000e0f33d018220021684606f0cdfc0023c3
:1082b0003a4631466846fff725ff30bbdde900321c
:1082c0009df80e100129a2eb030203d0bdf80c00ab
:1082d0001a281ad115f00a0f02d0101d814514d3a7
:1082e000280701d58a4510d1690707d5434505d030
:1082f000baf1020f09d1b8f5542f06d1ab0705d555
:1083000039463046fff77fff00b90024204606b00b
:10831000bde8f0872de9f04387b004469df8409012
:108320000e9e19f0200f0d46174698461ed00023ca
:10833000cde90433324604abfff7b2fd18b9022091
:1083400007b0bde8f083059b9df83c20cdf80c906c
:10835000cde90132cdf800803b4632462946204621
:10836000fff785ff80f00100c0b2e9e73346ebe795
:108370002de9f04fadf5117d1f469df870829df8f7
:108380006c32049318f0200b4ff00003cde90a3350
:108390009a9c82460d46914619d00aab2246fff7b9
:1083a0007ffd08b902200ee00b9e049bcdf80c80e7
:1083b000cde9016300974b46224629465046fff718
:1083c00056ff30b901200df5117dbde8f08f26462e
:1083d000ebe7049b022b40f09880b7f5542f23d194
:1083e00004f6ff7626f47f6626f00f0632464ff439
:1083f000c8010120fff7f4fd0028d3d000964ff408
:10840000c803012239460020fff7a9fd0028c9d082
:108410000022cde9012200963b464ff4c80101201d
:10842000fff7fbfd0028bdd0324639464846fff72e
:10843000d7fd0028b6d0bbf1000f00f09e80bdf83c
:10844000288008f11e03a342bcd808f118010d448e
:10845000a4eb0808a8f11c08a91e4ff0000b02238a
:108460000df11e0241445046adf81eb0fff705fd68
:10847000002897d0bdf81e404445a3d84ff4887219
:1084800059463e444ca806f0dffb8e9608ae554a8e
:108490008df83c924cab594630468d97cdf820b0c4
:1084a000fff78ef8002864d1a8eb040405eb04085c
:1084b0000596a84537d800285bd18c9b53b18d9980
:1084c0004caa4846fff705fd002852d0dde98c2371
:1084d00013448d93dde98d239a42089849d1fff723
:1084e00052f8049b022b7bd1b7f5542f78d1102280
:1084f00000214ca8033406f0a7fba4084ca84d9714
:108500004e94fff7b8fc03205de7049b052b8bd14d
:10851000b7f5342f88d14ff480524ff45421484698
:10852000fff75efd7ee7a8eb0506b6f5807f28bf66
:108530004ff4807633460caa29465046fff79dfc3f
:10854000b8b14ff0000b0598a6eb0b030ca90993eb
:108550000068012309aa5944fff77af8002808dbcc
:10856000abd0099b9b445e45edd80228ebd0354447
:108570009fe70898fff707f814e718f0100f29d1c4
:1085800018f00e0f1cd0182259464ca8cdf830b068
:1085900006f05afb0cab2a4651464ca8fff7b2fd39
:1085a00000287ff4ffae9df83931db0705d50c9b21
:1085b000002b7ff4f7ae48f0100818f0100f09d127
:1085c00000943b464a4629465046fff7c8fc00281f
:1085d00087d1e7e6172c7ff6f5ae1835183cefe7a4
:1085e0000020f0e6f97e0f002de9f04f99b0074624
:1085f000502204a940f63830fef722ff0446002836
:1086000078d104ad2e4640f63839824680464af687
:10861000cd3b33885b4526d1b8f1000f02d10fb1b5
:108620000120b847737c022b5fd0327ccde9013248
:10863000f3680093b368f2787168b078fff798fe3a
:1086400010b1032c18bf04464ff6ff73338002228b
:1086500049463046fef730ff002848d0032c4ff043
:10866000010800d0022409f1140940f68833994525
:1086700006f11406cdd1baf1000f2cd040f63836f1
:108680004af6cd394ff6ff7a2b884b451cd16a7cd0
:10869000022a19d131462846a5f800a0fef70cffa2
:1086a00010b1032c18bf02242b7c02936b7c019326
:1086b000eb680093ab68ea786968a878fff758fe22
:1086c00010b1032c18bf0446143640f688339e427e
:1086d00005f11405d8d1b8f1000f02d00fb1002078
:1086e000b847204619b0bde8f08f4ff0010a4ff0af
:1086f0000108b8e70224f4e74ff08043d3f80024e0
:10870000034b5969914202d05a61fff741bb704750
:10871000c0f3032030b94ff08043d3f80004c0f316
:1087200040007047002070474ff080434ff0ff3209
:10873000c3f800247047f8b504460e4617461d4698
:1087400024b92846bde8f840fcf734b8e72000f02b
:10875000fbf83046fcf72ef8e72000f019f9384610
:10876000fcf728f8013cebe72de9f843044600202c
:10877000fcf73cf830222a48002106f065fa294a25
:10878000234604f1280618685968154603c50833be
:10879000b3422a46f7d11868214b234a28601a6051
:1087a000224b1b6813b16168a07898474ff47f0093
:1087b00094f802901e4ddff888801e4f00f064f898
:1087c000602000f073f800f065f8e72000f0e0f8b2
:1087d0004ff47f0000f058f80226154a2b46414618
:1087e0000320fff7a8ff124a2b4639460320fff764
:1087f000a2ff114b2a4641460320fff79cff0f4b77
:108800000c493a464846fff796ff012e06d1a1785b
:108810000022bde8f8438220fbf7d6bf0126dce743
:1088200000f0032004f00320ffc03fb330270120f5
:10883000a0860100e0930400a0bb0d0000350c00f1
:10884000f049020010b5054b1b7800fb03f4044b04
:108850000020db6898476043000c10bd6261002077
:108860004861002038b50546c0f307400c46fff7c5
:10887000e9ff2080c5f30720fff7e4ff6080e8b23e
:10888000fff7e0ffa08038bd014b1860704700bfc4
:1088900038270120044b1a7822b1002101201970d9
:1088a00000f020ba704700bf34270120014b187038
:1088b000704700bf6261002010b5054b0446db68bd
:1088c000002098472402b4fbf0f0c0b210bd00bff6
:1088d0004861002010b4054b82885c68418800889c
:1088e000a44600235df8044b604700bf48610020a8
:1088f00030b50e4d85b00446fff7ecff2b689bb1f9
:108900002088fff7d9ff03906088fff7d5ff02901a
:10891000a088fff7d1ff03460020009004482c6890
:108920000068dde90221a04705b030bd40270120e5
:108930004427012007b56946fff794ff6846fff713
:10894000d7ff03b05df804fb08b510b1e72805d0e8
:1089500008bdbde808400120fcf7e4b8074b1b78d0
:1089600053b1074b1868fff7e5ff064b63221a70f7
:10897000054bff221a70ebe7044bf3e73427012085
:108980003c27012061610020606100203827012020
:1089900008b510b1e72804d008bdbde80840fcf7d1
:1089a000c1b80020fff7c6ff034b00221a70034b2b
:1089b00001221a70f0e700bf6161002060610020b1
:1089c00013b518b1e72807d002b010bd104b5b6992
:1089d00002b0bde8104018470e4b1b78a3b10e4bf8
:1089e0001c680b4b00219b6868469847bdf8022025
:1089f000bdf800301343bdf8042013439bb22bb1e4
:108a00000020fff797ffdfe7044be9e72046f8e790
:108a100048610020342701203c270120382701200d
:108a2000014b1868704700bf4c2701202de9f04327
:108a300095b00446884615460021182205a806f080
:108a400003f9012c56d0022c5ed10121002601ab86
:108a5000424605a80196fff755fb002847db9df825
:108a60002230022b52d1dde90597b9454ed2a7eb52
:108a70000907242231460ba8474406f0e5f82423d1
:108a80000baaa7f124012046fef75cfd00282edb8f
:108a9000bdf84e80b8f12c0f33d9a7eb0808b845c4
:108aa0002fd2042302aa414620460296fef74afd31
:108ab00000281cdbbdf80830132b1dd1052303aaa9
:108ac0004146204603968df81060fef73bfd0028d6
:108ad0000ddb9df81030012b0fd13db16a88052abe
:108ae00028bf052203a9284606f086f8002015b005
:108af000bde8f0830021a9e71bb1bdf80a30984416
:108b0000cde76ff0a900f2e70148f0e70148eee792
:108b1000f2feffffe8feffff1e4b73b55c6800200e
:108b20002146fff735fb214602460020fff76bfb8d
:108b3000002658b305236a462146012000968df889
:108b40000460adf80230fff771ff051e18db9df8d9
:108b50000440631e5c425c413546fff7fdf80e4a57
:108b6000137eff2b04d024b9ff231376fff710f9ef
:108b700023460a4a14600a4a2846136002b070bdb0
:108b800015f1aa0f344608bf3546e6e7054d044601
:108b9000e3e700bfc4ed0f00c0f303204827012026
:108ba0004c270120e8feffff37b50d4c0d4d226824
:108bb0002b689a4211d0fbf7d1fd0190fff7ccf85a
:108bc000094bff221a76fff7e3f82b680198236020
:108bd00003b0bde83040fbf7cebd03b030bd00bff1
:108be0004c27012048270120c0f30320034a044bef
:108bf00010681b68c01a18bf012070474827012061
:108c00004c270120f8b5134e134f32683b689a4247
:108c10001fd0fbf7a3fd114c0546fff79df8237eff
:108c2000ff2b06d13b6833602846bde8f840fbf7d0
:108c3000a2bd637e3bb9ff232376fff7a9f8237e0d
:108c4000ff2bf1d1eee7013bdbb26376002bf4d1d1
:108c5000f1e7f8bd4c27012048270120c0f303208d
:108c60002de9f0411b4fdff878803a68d8f80030e2
:108c70009a421bd0184c2368002bc2bf236803f113
:108c8000ff33236023688bb9fbf768fd134d06465d
:108c9000fff762f82b7eff2b0ad1d8f800303b603b
:108ca0003046fbf768fd4ff47a732360bde8f0812e
:108cb000d5f81a303bb9ff232b76fff769f82b7ee6
:108cc000ff2bedd1e9e7013bc5f81a30002bf4d1b9
:108cd000f1e700bf4c27012064610020c0f30320ae
:108ce0004827012010b50446fbf738fd094b1a8ac6
:108cf0005cb1013a92b21a821a8a92b20ab901227e
:108d00009a74bde81040fbf736bd013292b21a8268
:108d1000f7e700bf50270120064b1946002241f813
:108d2000042b5a601a828a805a81da6001229a746e
:108d3000704700bf5027012000f1804000f51c3033
:108d400001230360bff36f8fbff34f8f70470000a5
:108d5000020713d400f00f0310f0800f084a0bbf76
:108d600003f5887303f5847302eb830352f8230041
:108d700008bf5868431e584258417047002070474a
:108d80000070024010f0080f074b06d0d3f8c00463
:108d900010f4803f18bf0020704700f00f0000f56e
:108da000947053f820007047007002404ff08053d9
:108db000d3f83021082a05d1d3f83401003818bf80
:108dc000012070470020704730b54c689c4209d2a2
:108dd000002545600968016093420cd1201e18bf30
:108de000012030bd43600d6805600868e41a18442e
:108df0004c600860f0e70020f3e74b689a4228bf18
:108e00001a460b68c0e9003248680b68801a48604f
:108e10001a4400380a6018bf012070474b689a4214
:108e200028bf1a4662b10b68c0e900324b689b1a32
:108e30004b600b68101e13440b6018bf0120704775
:108e40001346f1e7054b10f0800fa3f1900208bf25
:108e5000134600f00f0003eb00107047d8280120e4
:108e600010f0800f14bf0023102300f00f001844ef
:108e700070470000034a0023c2f81c3c024a1370ea
:108e8000704700bf007002406527012007b5094afe
:108e900000231370084aadf8053013708df80730c1
:108ea00001238df80430054b01a81b68984703b0d7
:108eb0005df804fb642701206c290120682901204a
:108ec0007047000013b5124c0122236802fa01f129
:108ed0000b4323600f4b1b68194003060dd551b996
:108ee00006238df804308df806008df807100a4b24
:108ef00001a81b68984702b010bd0029fbd10623ca
:108f00008df804308df806008df80720efe700bfdc
:108f100044280120d42701206829012008b5054be9
:108f20001a781046fff79cffbde80840014610463e
:108f3000fff7c8bf6c29012013b5244bd3f80044b8
:108f4000c3f80044bff36f8fbff34f8fbff36f8f32
:108f5000bff34f8fe1050ed51d4b01221a70002380
:108f6000adf805308df8073002238df80430194b29
:108f700001a81b689847a2050dd5154a0023137058
:108f8000adf805308df8073003238df80430114b10
:108f900001a81b689847630516d50d4b1a789ab13e
:108fa00000221a70094b0121c3f808155820fff759
:108fb000c3fe04238df80430064badf805201b6872
:108fc0008df8072001a8984702b010bd007002403c
:108fd000642701206829012070b54b68934228bf9f
:108fe00013461d46094b0c4606462a460968184694
:108ff00005f002fec6e9000560682268401b60605b
:109000002a440038226018bf012070bd7429012055
:1090100070b54b68934228bf134606460d461c4662
:109020008bb10a4b09682246184605f0e5fd306011
:1090300074606b681b1b6b602b68201e23442b60c5
:1090400018bf012070bd0360f2e700bf7429012042
:1090500008b5fff70fff084b93f89e20032a06d1af
:10906000bde8084005486ff0010102f0bdbcd3f82f
:109070009030002bf4d008bd48280120d4270120cf
:1090800008b5fff7f7fe0146fff7dcfe837b032bf5
:109090000ad10846fff7e4fe01218140bde80840ff
:1090a0000348c94302f0a0bc0368002bf1d008bdff
:1090b000d42701208720fff7e3bf8620fff7e0bf1a
:1090c0008520fff7ddbf8420fff7dabf8320fff79d
:1090d000d7bf8220fff7d4bf8120fff7d1bf0000a8
:1090e00007b500238df804300b4bd3f82025adf8dd
:1090f0000620d3f8c034094a002b13680cbf4ff484
:1091000080714ff001210b431360054b01a81b68d0
:10911000984703b05df804fb00700240442801202a
:109120006829012007b5fff7a5fe114b93f81e2112
:10913000032a07d10f486ff4807103b05df804eb88
:1091400002f052bcd3f8103173b90a486ff4807141
:1091500002f04afc06238df804308823adf806306f
:10916000054b01a81b68984703b05df804fb00bfde
:1091700048280120d42701206829012007b5fff7de
:1091800079fe0d4b93f88e20032a11d0d3f880304e
:1091900073b90a486ff0807102f026fc06238df83f
:1091a00004300823adf80630054b01a81b6898472a
:1091b00003b05df804fb00bf48280120d42701203c
:1091c000682901202de9f04fdff8d48198f80030ac
:1091d00085b0002b7ed16c4d6c4b19682b68194003
:1091e00078d011f0012378d093faa3f1b1fa81f18c
:1091f0000f298abfa1f1100441f08004e4b2204697
:10920000fff720fe4ff0010b4ffa84fa0bfa01f141
:10921000baf1000f81466fea010b61da03688289b7
:10922000416802a8984708b9c9f80000584b822243
:10923000c3f81c2c2968012201ea0b0188f80020e0
:109240002960039ad9f80810baf1000f1144c9f83f
:10925000081004f00800029904f00f046eda0028e8
:1092600064d0c3f8a016c3f8a426fff79ffd26b26a
:10927000a300484a48496400054600286ed1baf167
:10928000000fb2bf042628260a46414f1e4414444c
:10929000c7f80451bff36f8fbff34f8f3046fff70e
:1092a0004bfd022002f036f9d7f80431002befd045
:1092b0001e2002f02ff9d7f874349b064cd50120fc
:1092c00002f028f9238803f1804303f51c331b685f
:1092d000002bddd005b0bde8f08f91faa1f185e754
:1092e0002046fff74ffdb9f80c20d9f80410d9f843
:1092f00000600346074602a8b047029a002a92d0af
:10930000039a97428fd9022789f80e7059461f4851
:1093100002f06afb06238df80430204b8df80640de
:109320001b688df8077001a8984755e7142000fbcb
:109330000433c3f80016c3f8042696e720b1c3f837
:10934000a017c3f8a42790e7142000fb0433c3f848
:109350000017c3f8042788e70220aae7baf1000f34
:10936000b4bf0420282012ea2a0238bf0a46184453
:10937000fff7e2fc32f8163003f1804303f51c33ab
:109380001a68002afcd0a5e744280120d427012030
:109390000070024058f60f006af60f00682901209d
:1093a0006527012038b5174bd3f86c44c3f86c44db
:1093b000bff36f8fbff34f8ffff7f8fc38b9124a36
:1093c000136823f0011103f001130c43136001250e
:1093d0001cb9bde83840fff7f5be94faa4f1b1fa24
:1093e00081f30f2bc8bfa3f110001946d4bf43f07f
:1093f0008000c0b205fa03f324ea0304fff762fd1c
:10940000e6e700bf007002407029012037b5fff782
:1094100031fd0446fff716fd837b032b0dd120465b
:10942000fff71efd01218140c943104802f0dcfa1c
:1094300003b0bde83040fff7c5be0568002df7d189
:109440002046fff70dfd01218140c943074802f086
:10945000cbfa06238df80430054b8df806401b68c7
:109460008df8075001a89847e2e700bfd4270120f4
:10947000682901200720fff7c9bf0620fff7c6bff4
:109480000520fff7c3bf0420fff7c0bf0320fff78d
:10949000bdbf0220fff7babf0120fff7b7bf000032
:1094a0004f4b4ff4006210b5c3f80024bff36f8f29
:1094b000bff34f8ffff77afc98b10020fbf75ef9fe
:1094c000484bd3f8001c032200297bd149f27531a7
:1094d000c3f8001cc3f8142dc3f8001c0020fbf7d0
:1094e0004ff90020fbf74af93e4bd3f8001cc0228d
:1094f00000296ad149f27531c3f8001cc3f8142c55
:10950000c3f8001c0020fbf73bf9354b0122c3f8e0
:109510000025bff36f8fbff34f8fd3f800241205e0
:10952000fbd54ff40062c3f80024bff36f8fbff385
:109530004f8f0020fbf722f92a4bd3f8001c00299b
:1095400046d149f27532c3f8002cc3f8141cc3f895
:10955000002c0020fbf714f9214b40f2e372c3f812
:1095600000284022c3f80428bff36f8fbff34f8f4a
:1095700000248022c3f81c25c3f830451a4b40f262
:10958000ff121a60194b1c60fff774fc184b1c701b
:10959000184b02221a70fff709fc00b32046fbf7b4
:1095a000edf8104bd3f8001cb1b949f27532c3f88d
:1095b000002cc3f8141dc3f8002cbde81040002097
:1095c000fbf7deb8c3f8142d88e7c3f8142c99e72d
:1095d0000022c3f8142cbce7c3f8144dede710bd0e
:1095e0000070024000e0064044280120d4270120fa
:1095f0006c2901206627012008b50f4b00221a7044
:10960000b8b9fff7d3fb0d4b0d4a002818bf13461e
:109610000c4ac2f804330c4be02183f82713802155
:1096200059600123c2f80435bff36f8fbff34f8f2a
:1096300008bd024bece700bf642701200714e001de
:109640000714c0010070024000e100e0034b1878ed
:10965000012894bf00200120704700bf6627012029
:10966000044b1b78012b83bf034b5868c0f3c01019
:10967000002070476627012000e100e008b5fff7f1
:10968000e1fb818108bd000073b51d4b1c78002ce7
:1096900033d11c4a106001221a702546264615f067
:1096a000080f65f07f00c0b20cbf40214ff400717d
:1096b0000190fff7e3ff0198fff7c4fb0135092d87
:1096c000867306608660ead1402100252046fff7b8
:1096d000d5ff2046fff7b6fb0134e4b2092c8573b1
:1096e0000560856002d1002002b070bd14f0080f43
:1096f00014bf4ff400714021e8e70820f4e700bff1
:10970000662701206829012008b5fff79bfb8089a7
:1097100008bd00002de9f843064600200f46fbf780
:109720002df816f00f0503d1294b1b78b3424bd10e
:10973000284bdff8c4801c68d8f80030e443a4b29a
:1097400030461c43fff78cfb4ff0010909fa00f982
:1097500014ea09043ad13046fff774fb0c22554352
:10976000320603462cd51c4a3968154401f0604185
:10977000ba68b1f1005f02f001021cd1cab9174a00
:109780001a6097e8070085e80700d8f800005d60d8
:1097900000229a609a73124b40ea09008022c8f8ae
:1097a0000000c3f804210020faf7eaff2046bde8d4
:1097b000f8830c4ae4e70ab90b4ae1e70b4adfe712
:1097c0000b4a15440b4adbe71024ece71124eae7c7
:1097d0006c29012044280120d8270120fb8d0f008f
:1097e00000e100e01d8e0f00d98f0f0011900f00d7
:1097f00068270120c98d0f00d4270120044b40f4b5
:109800008070c3f81805bff36f8fbff34f8f704799
:1098100000700240fff79cba0023036043600e4bc8
:10982000d3f880240270d3f884244270d3f88824bb
:10983000d3f88c1442ea01224280d3f89024d3f862
:10984000941442ea01228280d3f89824d3f89c34fd
:1098500042ea0323c38070470070024008b5fff757
:10986000a5fa58b9eff3108272b64c20fff764faec
:109870004c20fff761fa82f3108808bdbde808406c
:109880004c20fff759ba000013b5fff7f3fa114b5c
:109890009a7b032a07d110486ff4803102b0bde8eb
:1098a000104002f0a1b81c687cb96ff480310a48fe
:1098b00002f09af806238df80430084badf8064004
:1098c0001b6801a8984702b010bd02b0bde8104067
:1098d000fff7c4bf48280120d427012068290120b0
:1098e0005020fff729ba5420fff726baf8b50446ee
:1098f000fff75cfa06462046fff7b2fa012303faa7
:1099000000f5184fed43b6b93046faf737ff3b681c
:1099100004f00f042b403b606400134b04f2c57449
:10992000c3f80048c3f80468d3f80438bde8f84029
:109930000020faf725bf0020faf720ff3b6814f05b
:10994000080203ea05033b60f0d104f00f04064b64
:1099500004f5947443f82420bff36f8fbff34f8f47
:10996000e4e700bf4428012000700240f7b5044638
:109970000020faf703ff2046fff764fa0546204669
:10998000fff76efa012214f0800f02fa00f22e485f
:1099900019d1036832ea03030ad02046fff7a6ff75
:1099a0000323ab73002003b0bde8f040faf7e8be34
:1099b0002b60036823ea02030360244b186820ea43
:1099c00002001860ece7230715d4802c204b2ed022
:1099d00004f00f0101f2da314900c3f80018d3f89e
:1099e0000418d3f80468c9b241f002013143c3f846
:1099f0000418d3f80438154e0168336861ea030788
:109a00001742cfd0134321ea0201336000230160e3
:109a10002b600323ab738df807300e4b8df8064097
:109a200006221b688df8042001a89847bae740f287
:109a3000b471c3f80018d3f80418d3f80468c9b295
:109a400041f00401d2e700bfd427012044280120bf
:109a5000007002406829012073b5184b184cd3f8e8
:109a600080542368174eda43174b31781b6892b243
:109a700008461a43fff7f4f9012303fa00f01042f5
:109a800002d00846fff772ff6ff0011105f0800564
:109a90000d48357001f0a8ff236843f001032360ef
:109aa0000023adf805308df8073005238df804301c
:109ab000064b01a81b68984702b070bd00700240b9
:109ac000442801206c290120d42701206829012085
:109ad0002de9f0415f4bd3f80443002122460e46a6
