:020000041000EA
:10100000FFFFFFFFFFFFFFFFFFFFFFFFFFFFFFFFF0
:10101000FFFFFFFF00400F00FFFFFFFFFFFFFFFF8D
:10102000FFFFFFFFFFFFFFFFFFFFFFFFFFFFFFFFD0
:10103000FFFFFFFFFFFFFFFFFFFFFFFFFFFFFFFFC0
:10104000FFFFFFFFFFFFFFFFFFFFFFFFFFFFFFFFB0
:10105000FFFFFFFFFFFFFFFFFFFFFFFFFFFFFFFFA0
:10106000FFFFFFFFFFFFFFFFFFFFFFFFFFFFFFFF90
:10107000FFFFFFFFFFFFFFFFFFFFFFFFFFFFFFFF80
:10108000FFFFFFFFFFFFFFFFFFFFFFFFFFFFFFFF70
:10109000FFFFFFFFFFFFFFFFFFFFFFFFFFFFFFFF60
:1010A000FFFFFFFFFFFFFFFFFFFFFFFFFFFFFFFF50
:1010B000FFFFFFFFFFFFFFFFFFFFFFFFFFFFFFFF40
:1010C000FFFFFFFFFFFFFFFFFFFFFFFFFFFFFFFF30
:1010D000FFFFFFFFFFFFFFFFFFFFFFFFFFFFFFFF20
:1010E000FFFFFFFFFFFFFFFFFFFFFFFFFFFFFFFF10
:1010F000FFFFFFFFFFFFFFFFFFFFFFFFFFFFFFFF00
:10110000FFFFFFFFFFFFFFFFFFFFFFFFFFFFFFFFEF
:10111000FFFFFFFFFFFFFFFFFFFFFFFFFFFFFFFFDF
:10112000FFFFFFFFFFFFFFFFFFFFFFFFFFFFFFFFCF
:10113000FFFFFFFFFFFFFFFFFFFFFFFFFFFFFFFFBF
:10114000FFFFFFFFFFFFFFFFFFFFFFFFFFFFFFFFAF
:10115000FFFFFFFFFFFFFFFFFFFFFFFFFFFFFFFF9F
:10116000FFFFFFFFFFFFFFFFFFFFFFFFFFFFFFFF8F
:10117000FFFFFFFFFFFFFFFFFFFFFFFFFFFFFFFF7F
:10118000FFFFFFFFFFFFFFFFFFFFFFFFFFFFFFFF6F
:10119000FFFFFFFFFFFFFFFFFFFFFFFFFFFFFFFF5F
:1011A000FFFFFFFFFFFFFFFFFFFFFFFFFFFFFFFF4F
:1011B000FFFFFFFFFFFFFFFFFFFFFFFFFFFFFFFF3F
:1011C000FFFFFFFFFFFFFFFFFFFFFFFFFFFFFFFF2F
:1011D000FFFFFFFFFFFFFFFFFFFFFFFFFFFFFFFF1F
:1011E000FFFFFFFFFFFFFFFFFFFFFFFFFFFFFFFF0F
:1011F000FFFFFFFFFFFFFFFFFFFFFFFFFFFFFFFFFF
:101200001200000012000000FFFFFFFFFFFFFFFFC2
:10121000FFFFFFFFFFFFFFFFFFFFFFFFFFFFFFFFDE
:10122000FFFFFFFFFFFFFFFFFFFFFFFFFFFFFFFFCE
:10123000FFFFFFFFFFFFFFFFFFFFFFFFFFFFFFFFBE
:10124000FFFFFFFFFFFFFFFFFFFFFFFFFFFFFFFFAE
:02000004000feb
:1040000000f0032021420f0061420f00cd470f0056
:1040100065420f00e5470f00f9470f000000000060
:104020000000000000000000000000006b420f00d4
:104030006d420f00000000006f420f0051480f005a
:10404000799f0f0073420f0089af0f0059af0f0027
:1040500065af0f0085950f00619c0f00a19f0f00b9
:10406000f9ab0f000dac0f0021ac0f0005a50f0040
:1040700073420f0009ae0f0073420f0073420f002e
:1040800059ab0f0015a50f0099ae0f007daf0f00c3
:1040900075ae0f007bae0f0081ae0f0087ae0f0034
:1040a0008dae0f0093ae0f0035ac0f0049ac0f0082
:1040b00011a40f0075970f00000000000000000021
:1040c00073420f0021a40f0031a40f0071af0f0045
:1040d00025a50f0049aa0f0073420f00f1900f00b1
:1040e00061ad0f00f9a90f0073420f00000000003e
:1040f0000000000041a40f0000000000f9ad0f0017
:1041000000000000000000000000000000000000af
:10411000000000000000000000000000000000009f
:10412000000000000000000000000000000000008f
:10413000000000000000000000000000000000007f
:10414000000000000000000000000000000000006f
:10415000000000000000000000000000000000005f
:10416000000000000000000000000000000000004f
:10417000000000000000000000000000000000003f
:10418000000000000000000000000000000000002f
:10419000000000000000000000000000000000001f
:1041a000000000000000000000000000000000000f
:1041b00000000000000000000000000000000000ff
:1041c00000000000000000000000000000000000ef
:1041d00000000000000000000000000000000000df
:1041e00000000000000000000000000000000000cf
:1041f00000000000000000000000000000000000bf
:1042000000400f0022f40f00000060090d000200c2
:10421000000000000000000000000000000000009e
:104220000b490c4a0c4b9b1a03dd043bc858d05079
:10423000fbdc0949094a0020521a02dd043a885081
:10424000fcdc06f001ff00f059fa00f057f800001e
:1042500014ef0f00005c00209c600020102b012058
:10426000fee7fee7fee7fee7fee7fee7fee7fee726
:10427000fee7fee7430803f05533c01a830803f056
:10428000333300f03330184400eb101000f00f30df
:1042900000eb002000eb0040000e7047034613f8cf
:1042a000012b002afbd1181a0138704781f30888c6
:1042b00000470000084b094a1b7830b101211170fa
:1042c00043b94ff0ff1003f051bf107013b9e7204e
:1042d00003f0d0bf704700bfa1600020a2600020a3
:1042e00038b5044c044dac4200d338bd54f8043bff
:1042f0009847f8e7e8ee0f00f0ee0f002de9f04fd9
:1043000085b003f089f800f021fd042001f0fefce7
:10431000b54bb64c187003f04ff900f0a6fab44b49
:1043200001221a7003f0a6f903f074fea388b3f516
:10433000166f03d04ff4166003f0daf9a37c1bb1bb
:104340000023a37403f0b2f9aa4d4ff440332b605d
:104350002389052b27d1a84b01221a70a2894af67e
:10436000aa239a4204bfa54b01224ff0010008bfc7
:104370001a7000f0fff980b2adf80a00bdf80a30fb
:104380004ff6ff719bb28b4200f08880bdf80a3077
:104390004ef6fa529bb293420ed1994b01201870ff
:1043a00000f0def931e045f255529342d6d1924bfe
:1043b00000221a70934bcfe7bdf80a3045f6fe2273
:1043c0009bb2934202d1904b0120e8e7002003f01a
:1043d0002ffed0b1bdf80a309bb2022b4ed0032b7a
:1043e00056d0012b57d1874a1370bdf80a300133dc
:1043f0009bb2adf80a30bdf80a10012089b200f076
:10440000aff903f06df903f01dfe002000f0dafcb7
:104410007e4e002849d13378dff8ec814bb100277c
:104420000123a371e77103f041f9754b1f7088f800
:10443000007098f800301bb10123a37403f036f923
:10444000dff8b4816d4f98f80030012b40f09e806a
:104450004ff0ff1003f08afe03f040f9694a6c4800
:1044600000233b70137088f80030337003f07efe39
:10447000634b01221a7001f0b5fafee75f4b01228f
:104480001a700023a371e371bdf80a301344afe73b
:104490005b4b01221a704ff6ff73aae70120adf8bb
:1044a0000a00bdf80a1089b27ae703f0a5fadff82e
:1044b0006c91dff84881dff848a142f6e0630746d7
:1044c000c9f80030002000f07dfc0028a3d0d9f806
:1044d0000030002b9fd0337803f0ff0063b900f069
:1044e00081fc42f21073984206d96ff07f4003f0ce
:1044f0003dfe01233370e5e798f8003003f0ff0b31
:10450000a3b9584600f06efc41f6641398420dd9e9
:10451000002fd7d04ff47f4003f028fe012384f80a
:1045200006b084f807b088f80030cbe79af800307e
:1045300003f0ff0063b900f055fc40f6b733984232
:1045400006d9334803f012fe01238af80030b9e798
:10455000dff8b4b09bf8002002f0ff03002ab1d1cd
:104560001846019300f03efcb0f57a7f019ba9d379
:10457000214a88f800301370224a4ff0ff10137060
:1045800003f0f4fd01238bf800309be73b78002b10
:1045900046d03b78012b21d1e388012b0cbf6ff073
:1045a0007f404ff47f4003f0e1fd03f081f80146c6
:1045b00000287ff453af286800f0a2f800283ff4e9
:1045c0004dafbff34f8f1349134bca6802f4e0623b
:1045d0001343cb60bff34f8f00bffde700233b7059
:1045e00003f032f83ae700bfa1600020c0f30320d7
:1045f000502501209c600020a2600020a0600020c7
:10460000b0600020a3600020a5600020a46000200e
:1046100000ffff0000ed00e00400fa05a8600020a4
:10462000124b1b7803f0ff02002b7ff417af1048ea
:10463000019203f067fc0328019a03d1114646203a
:1046400000f0aef8286803a900f05af800283ff4fb
:1046500005af41f2883003f067f802f0d3ff039b07
:1046600058681968fff722fef8e600bfb060002026
:10467000b5420f0010b5184b1a6812b11a68013a0a
:104680001a60164b1b782bb9154c236833b123687d
:10469000013b2360bde8104001f0eeb9114b124a16
:1046a0001b7812781343114a1278134302d1104b2e
:1046b0001b7823b1e72003f0f5fd3223e9e70d4b2a
:1046c0001b781bb90c4b1b78002be3d0e72003f0c1
:1046d000e9fd6423dde700bfa8600020a1600020a1
:1046e000ac600020a0600020a3600020a260002039
:1046f000a4600020a5600020b0600020fff7f0bd9e
:1047000038b5024604460d460146002003f0e5f99f
:1047100008b9002038bd2146002003f0c7f9214622
:104720000246002003f0fdf90028f2d0002df1d060
:104730002c60efe707b500230df107008df8073077
:1047400006f04eff9df8070003b05df804fbc0b211
:1047500006f054bf06f044bf06f050bf70477047e4
:10476000013809289cbf024b43f82010704700bf56
:1047700080f30320013809289abf034b53f8200027
:104780004ff0ff30704700bf80f3032020b1034b90
:10479000800143f001031847704700bff0e30f00aa
:1047a000bff34f8f0549064bca6802f4e06213431a
:1047b000cb60bff34f8f00bffde700bf00ed00e00f
:1047c0000400fa0572b60020704700001ef0040fc6
:1047d0000cbfeff30880eff309808169004a1047ae
:1047e0000d480f0008b5034a0021042003f04afcdd
:1047f000fee700bf8d470f0008b5034a00210520e2
:1048000003f040fcfee700bf8d470f0000b589b004
:10481000036800934368019383680293c36803931a
:10482000036904934369059383690693c3690793f6
:10483000054b996a11f0007101d0fff7ddff034ac3
:10484000012003f01ffcfee700ed00e08d470f00a4
:1048500008b502f09dfffff70dffbde8084000f02e
:10486000e1b9002070470020704770470020704772
:104870004268436902b102221a70704713b50f4ca7
:1048800013462278bab90122227000940a460146e2
:104890000b4806f0b4fd58b92378012bfcd02078e2
:1048a000003818bf012040420023237002b010bd21
:1048b0004ff0ff30f8e74ff0ff30f7e7b16000202e
:1048c000005c002010b5fff749ff064906480022aa
:1048d00006f087fd0446fff742ff201e18bf0120a7
:1048e000404210bd04ec0f00005c00207fb5cde914
:1048f00004100392fff732ff074b0093dde9032119
:10490000064b059801f07ffa0390fff728ff039804
:1049100007b05df804fb00bff95d0f007d480f0094
:1049200073b5174c01910546fff718ff237803f084
:10493000ff06fbb9012325f47f612370019a11481a
:10494000234621f00f0106f088fd38b126706ff084
:104950000104fff704ff204602b070bd2378012b4d
:10496000fcd0237803f0ff003bb1002323706ff0ed
:104970000204eee74ff0ff34ebe70446e9e700bf3f
:10498000b1600020005c002013b50446cde9002191
:10499000fff7e4fe009a0198214609f0a9fbfff712
:1049a000defe002002b010bd08b5054b588b02f0aa
:1049b0002af8012303fa00f0013880b208bd00bfd5
:1049c000145c002038b518220b4b50431d181b5c9b
:1049d000012b0c460fd12b79d9070cd5fff7e4ff3b
:1049e0002a79034692072146688848bf191bbde80b
:1049f000384002f097b838bd145c002070b50d4601
:104a00000646014601201446fff7dcff2946022036
:104a1000fff7d8ff21460320fff7d4ff31460520da
:104a2000fff7d0ff29460620fff7ccff21460720dd
:104a3000bde87040fff7c6bf70b5184e0546fff7da
:104a4000b3ff337f13f0020f0446708b1cd001f0cc
:104a5000d5ff201a80b2288096f83430708e13f07b
:104a6000020f14d001f0caff231a98b2688096f89a
:104a70004c30b6f84a0013f0020f0bd001f0beff25
:104a8000241aa0b2a88070bd01f0b8ffe3e701f0de
:104a9000b5ffebe701f0b2fff4e700bf145c0020c4
:104aa000064a137903f0020310b91bb9002102e092
:104ab000002bfbd10121508801f094bd145c002033
:104ac00070b5032886b005461ed9031f182202fbc5
:104ad00003f4694604f64f6002f00cfa60bb9df8df
:104ae0000030ff2b28d09df80430db0724d5134b72
:104af0006a46234406ae144603ccb442186059609b
:104b0000224603f10803f6d118200d4b45435e19e8
:104b10005c5d012c10d17088214601f051fd337984
:104b2000708813f0020fc3f3400118bf214606b08e
:104b3000bde8704001f056bd06b070bd745c002049
:104b4000145c0020f8b5094d00242f46182606fbfa
:104b500004731b79db0702d5688801f0c1fe0134bc
:104b6000082c05f11805f2d1f8bd00bf145c002037
:104b7000704700001fb50023adf80d308df80f30e1
:104b8000062302468df80c304001084b0129185ac3
:104b900003eb421407d103ab0093a378044901f05f
:104ba000f3ff04b010bd02f0cff8fae7d45c0020a8
:104bb000e54b0f00094b03eb401200219180da789e
:104bc0003ab993f8233003f0ff0213b9044b1a707b
:104bd0005a600121c0b2fff7cdbf00bfd45c0020f6
:104be000b4600020084bc0b203eb401310b50021a5
:104bf00001249980dc70fff7bdff044b1a7812b9cd
:104c00000a221c705a6010bdd45c0020b4600020e1
:104c100008b54001024b185a01f018fdc0b208bd9a
:104c2000d45c002010b5294b1a78002a49d05a6864
:104c3000002a46d05a68013a5a605868002840d184
:104c4000234c0a225a60e378f3b1fff7e1ffd8b9a9
:104c5000a3889bb21bb9a3880a339bb2a380a38805
:104c60000a339bb2a380238cff2b2ad094f82330e5
:104c700093b994f8233023b3002384f82330012020
:104c8000bde81040fff796bfe378002bebd0002083
:104c9000e070fff78fffe6e70120fff7b9ff94f818
:104ca00022305a1e5342534183420bd1a38c9bb2f4
:104cb0001bb9a38c0a339bb2a384a38c0a339bb287
:104cc000a38410bd238cff2bd3d1fae7b46000205e
:104cd000d45c00202de9f0411a4c227805460f469d
:104ce00002f0ff030ab923706360174e06eb451309
:104cf0004fea45189b7836f80800012b0cbf0321ba
:104d0000022101f05dfc012f03d139462846fff74f
:104d100031ff36f80830ff2b06eb08070fd0284686
:104d2000fff776ffbb785a1e53425341834206d1a8
:104d30000123fb70227812b923700a236360bde857
:104d4000f08100bfb4600020d45c002030b589b091
:104d500020220021684609f0f3f92022694640f636
:104d60002f6002f0c7f89df80330aa2b1bd1bdf8c5
:104d700004304bf6cc329bb2934214d10b4c6b46b1
:104d800008ad1a4603caaa4220606160134604f1c6
:104d90000804f6d1064b0022012183f8232008469f
:104da0009a84fff797ff09b030bd00bff45c002084
:104db000d45c0020024b00221a705a6001f0e2be5f
:104dc000b4600020064901eb40130246db78d8b2fc
:104dd0002ab90b8cff2b1cbf91f823301843704766
:104de000d45c0020084a02eb401301469b8898b22d
:104df00041b9138cff2b05d0938c9bb2834284bfa7
:104e0000908c80b2704700bfd45c0020004870478f
:104e1000145d00201fb50a4b01934ff080531a6eaa
:104e200002925b6e039338b131b10c290a4628bf58
:104e30000c2201a909f05cf90c2005b05df804fb17
:104e4000e00fce6838b500f581552c460c34a542ec
:104e500007d055f8040b0028f9d00368db689847a1
:104e6000f5e7002038bd4ff0ff3070474ff0ff30be
:104e700070474ff0ff30704700f5805300f58150c8
:104e80005b8e0b801030704738b515468a1f032a99
:104e900011d801f2024150f8214054b101221a7098
:104ea000236820465b6a9847044610b1fff7f6f97d
:104eb0002880204638bd0024fbe7036800211b6ad8
:104ec00018470000f8b5154b0d46c0e9003100f554
:104ed000805300f5815100220272c0f80a20c2817d
:104ee0000261c1e900228a60da620d4a0446303369
:104ef00002f12807106851681e4603c60832ba42fc
:104f00003346f7d110681279306032712b68214630
:104f10001b68284698472046f8bd00bfe8e40f000c
:104f200074e30f001fb58b884068042b07d103681a
:104f30000e4a9c69cb88a047002004b010bd052b09
:104f40000fd18a78cb881ab902689469084af2e7c7
:104f50000022cde90122adf80c200268946901aa73
:104f6000e9e703681b6a9847e6e700bfb8e40f006b
:104f700026e40f0010b5024648780a280b4611d0e7
:104f80000b2815d006281dd14b881b0a212b07d1d1
:104f90005068036802f582529c6914320923a047c5
:104fa000002015e05068036808329c690123f6e789
:104fb0004c88022c06d85068147203689c69002340
:104fc0001a46ece7506802681946126a90470120b9
:104fd00010bd38b5427a092a0446406816d8012324
:104fe000934013f41b7f11d002236372a3730368f1
:104ff0009d6900231a46a847606803685b6a984762
:10500000606803689b6a9847002038bd0e23a3722e
:105010000a236372a373fff750fff5e710b5437ad5
:10502000022b0246406801d0052b17d10b68c2f84d
:1050300016304b68c2f81a30938b43b10324547274
:1050400094730468e4692032a047002010bd062450
:1050500054729473026894691a46f5e70e239372aa
:105060000a2353729373fff728ffeee72de9f0410f
:10507000437a022b04460d4601d0092b32d12b680e
:10508000c4f81630228b6b68c4f81a309ab94ff402
:1050900004532384412384f822306068022363721e
:1050a000a373036804f120029e6903232946b047d5
:1050b0000020bde8f081012a14d0237a2169092655
:1050c00003f581636672a67354f82300036804f144
:1050d0002007023ad3f81480a38b01eb0232394641
:1050e000c04740b10e23a3720a2360686372a373a2
:1050f000fff7e3fedce760686672a67303683a4672
:105100009e69a38bd2e770b5437a062b04460d4601
:1051100021d0072b25d0032b25d1838bbbb10423b2
:1051200043728373037a227d03f5816304f10a01dc
:1051300050f8230003681b6a98476068036804f10d
:105140000a029e6929460623b047002070bd052348
:105150006372a373f1e7072343728373002383729f
:10516000ebe70823f4e70a2b406806d8012202fa8d
:1051700003f340f2ef621342dfd10e23a3720a233e
:105180006372a373fff799fedfe710b5024640682c
:10519000537a0a2b0ad1022353729373002393721a
:1051a000026894691a46a047002010bd0e2393722e
:1051b0000a2353729373fff780fef5e710b5437a25
:1051c000042b0246406802d0073b012b08d80e236f
:1051d00093720a2353729373fff76ffe002010bd82
:1051e00003680e329c690123a047f7e7ff2303758c
:1051f0000023c0f81630c0f81a3000f58050c362a2
:10520000704738b5002104460223437283738172cc
:1052100004f58155fff7eaff21612c460c34a542c5
:1052200007d055f8040b0028f9d003689b6898470d
:10523000f5e7002038bd38b5447a092c024613d86a
:105240000123a34013f41b7f0ed0022300244372da
:1052500083738472fff7caff5068036822469d6912
:105260002346a847002038bd0e2393720a235068b6
:1052700053729373fff721fef4e708b54b78062bc2
:1052800021d8dfe803f004080c1014181c00bde856
:105290000840fff79ebebde80840fff7bfbebde86f
:1052a0000840fff7e3bebde80840fff72cbfbde8ac
:1052b0000840fff76abfbde80840fff77fbfbde8c1
:1052c0000840fff7b8bf406803681b6a9847012091
:1052d00008bd08b50b884ef6c162934206d18b8893
:1052e000052b0ad1bde80840fff71cbe4ef6c06290
:1052f000934202d18b88042bf3e70b7813f0600ff5
:10530000c3f3411207d0012a09d0406803681b6a21
:105310009847002008bdbde80840fff72bbebde858
:105320000840fff7aabf38b5437a042b044603d0e0
:10533000072b63d0002038bd028b002a40d1838b1d
:10534000002b4fd090f820100175412918d00ad8b1
:105350000029efd021290ad00f23a3720a23606805
:105360006372a37329e09229f6d10e23f5e7052b8a
:10537000fbd1d0f821100161437283738272d9e7a7
:10538000052b11d1037ad4f8211003f5816350f86d
:1053900023000368db6998470028e6d10523637280
:1053a000a3730023a372c5e7012b4ff00a0218bfb5
:1053b0000e234068a3726272a273fff77efdb9e705
:1053c000012a0fd0037a216903f58163023a50f86c
:1053d0002300036801eb02329d69a38b04f12001d5
:1053e000a847d9e70123a3720a2360686372a373f5
:1053f000fff763fd2046fff7f9fe9be7082300f562
:105400008054437283734ff4fa73e36292e7022984
:105410009dbf01f5816140f82120012000207047e7
:1054200010b50446fff786f9637a082b0cd104f512
:105430008053dc6a24b1013cdc62b4fa84f4640970
:10544000fff785f9204610bd0024f9e77047816019
:10545000002070474ff0ff3070474ff0ff3070472b
:105460004ff0ff307047f0b59df8146001b112b9ec
:1054700000201880f0bdbeb9541c6400b4f5807fd4
:1054800088bf7f22541c03256400c57584750546ba
:105490000a4411f8017b2f768a426e7605f10205e7
:1054a000f7d11c801630e5e7941cb4f5807f88bfe7
:1054b000fe22941c0325c575847500f118050a4465
:1054c00011f8016b05f8016b9142f9d1e9e7012070
:1054d00003f0a2bb03f000bf03f015bd7fb51c466f
:1054e000cb881646d3b1a5b29d4228bf1d46a34224
:1054f00012d9802003f018fcb4fbf0f303fb104436
:10550000b4fa84f4640901a98020cde9016503940b
:1055100003f010fc04b070bd0024f4e704b0bde853
:10552000704003f0edbc7fb51c46cb880d46164697
:105530007bb103f0a3fca4b2eb880196002001a983
:105540000390a34294bf0293029403f0f3fb04b0d0
:1055500070bd04b0bde8704003f0d2bc38b50e4d4c
:105560002c78bff35b8f14f0010413d1284600f0b0
:10557000edfb78b1094b0a4a1a604ff08072284659
:10558000c3e903241c719c609c8200f0e4fb054885
:1055900008f090fd014838bdbc600020c0600020cc
:1055a00058e50f004d540f0038b50446fff7d6fffd
:1055b000012c054609d0022c16d0ecb903f056fb9d
:1055c000d0b9bde8384003f07bba03f099fc2c71e8
:1055d00003f056fb08b103f07ffe03f047fb58b120
:1055e000bde8384003f096be03f04afb20b9bde8a1
:1055f0003840012003f010bb38bd0000f0b505466f
:1056000093b0fff7abff2b780446062b16d8dfe8e4
:1056100013f007000f001300170017001900930183
:10562000806858b103685b6913b0bde8f040184763
:1056300003f066fc012300e00323237113b0f0bde7
:105640000223fae704ae304603f0f6fb96e80300c7
:1056500006ad85e803009df8183003f01f02012a0b
:1056600000f01681022a00f020813ab913f0600f91
:10567000c3f3411205d0032a40f00e8103f043fc2e
:10568000dce79df81930092bf8d801a252f823f075
:10569000b9560f00d1560f007d560f00d1560f009e
:1056a0007d560f0035560f00e7560f007d560f0050
:1056b00023580f003d580f002379013b012bddd803
:1056c000022304f10c0229462046fff707ffb5e745
:1056d0002379013b012bd1d8bdf81a30012bcdd154
:1056e00003f00efcaae7bdf81a100b0a0022022be9
:1056f000adf80e2013d0032b1ad0012bbed1a38af4
:105700002069adf80e300028b8d0bdf80e30002b5f
:10571000b4d0bdf81e20002ab0d00246d3e7a0685e
:105720000028abd003680df10e011b6a9847eae729
:10573000c9b2052907d8013904291ed8dfe801f0cc
:1057400027632e636300ee2964d0a068002895d0fb
:105750000123adf82c208df8203003680baa5e6a77
:1057600008abb0479df82030bdf82c2083f0010332
:10577000009301460df10e0305e0012395490093c6
:1057800002220df10e032046fff76dfebbe700235a
:10579000009391490df10e030822f4e7002615222b
:1057a00031460ca80b9608f0cbfc0c2108a8cde9db
:1057b00008660a96fff72efb0bab08aa1946b04203
:1057c0001bd012f8017b4fea171e0ef1300cbcf112
:1057d000390f88bf0ef1570c07f00f0783f800c090
:1057e00007f1300cbcf1390f03f1020388bf07f158
:1057f000570c03f801cc0136e1e70023009318228f
:105800000df10e03bfe70023009374490df10e0361
:105810000e22b8e70123009371490df10e03102207
:10582000b1e72379012b06d0022b7ff427af0123a8
:1058300004f10e0247e704f10f0244e72379012b3c
:105840000fd0022b7ff41aafbdf81a10d9b9a06897
:105850000123237100283ff443af03685b68984736
:105860003ee7bdf81a1000293ff43aaf0223237136
:10587000a06800283ff402af03681b68984700281f
:105880003ff42eaffae6a37b8b423ff429afefe75c
:105890002379022b7ff4f2aea06800283ff4ceae4d
:1058a000036829469b689847c8e69df819309df81b
:1058b0001c00012b16d0032b2dd0002b7ff4deae65
:1058c0002379012b09d0022b7ff4d8ae03f0b2fa72
:1058d0002246022322f8160ff5e64106f6d003f021
:1058e0009dfacbe62379012b20d0022b7ff4c6aea4
:1058f000bdf81a30002b7ff4f3ae42063ff4f0ae51
:10590000a368002b3ff4ecae03f01efda068036813
:1059100029469b68a3e72379012b07d0022b7ff44c
:10592000adaebdf81a30002b7ff4daae43063ff47b
:10593000d7ae03f073fad3e695f90230a978002bbd
:105940002ada802920d1eb78b3b94ff08053d3f80d
:105950003021082a04d1d3f834310bb103f0d0fa46
:10596000a06800283ff46aae0368db69a9780022ca
:1059700013b0bde8f0401847032b3ff45fae13b0ff
:10598000bde8f04003f0bfba806800283ff456ae8f
:105990000368db690022ebe7a1b9eb78002bebd1c0
:1059a0004ff08053d3f83021082a04d1d3f8343192
:1059b0000bb103f0a5faa06800283ff43fae0368de
:1059c0009b69d3e7806800283ff438ae03689b6981
:1059d000e0e700bf10e50f0013e50f001ce50f0026
:1059e0002be50f0013b5fff7b9fd1b4b0361122325
:1059f00083821a4a002104461948fff708fd194a14
:105a000017480121fff703fd174a15480221fff748
:105a1000fefc164803f048f920b1154a00210a207f
:105a200002f030fb4021002003f038f980204021b3
:105a300003f034f903f064fa0123237101a80d4b3c
:105a4000019305f0a3fc20b1094a00210a2002f0cd
:105a500019fb02b010bd00bf3be50f0044720020ef
:105a6000dc610020d86100203c720020fd550f0051
:105a70008d470f00a9550f0008b50648fff7d0fc69
:105a800038b1fff76bfd03f027fcbde8084001f0db
:105a9000dbbd08bddc61002008b5fff75ffd0146f6
:105aa0000648fff70ffa064800f01cf9054800f019
:105ab0001ff9bde80840044800f020b9dc6100206f
:105ac00044720020d86100203c7200207047002002
:105ad0007047b1f5801f06d81144b1f5801f8cbf07
:105ae000002001207047002070470020c870887097
:105af000487070470048704784e50f007047b1f563
:105b0000804f06d81144b1f5804f8cbf0020012092
:105b10007047002070470020704700000048704721
:105b2000d5e50f007047406888420ad8091ab1f5d8
:105b3000800f06d81144b1f5800f8cbf00200120e2
:105b4000704700207047000000487047f6e50f00de
:105b500010b50421044600f0edf8204610bd10b544
:105b60000421044600f0e6f8204610bd10b50821d7
:105b7000044600f0dff8204610bd13b50c46114670
:105b80001a460368cde900121b69984738b1dde970
:105b90000012204608f0acfa002002b010bd01202f
:105ba000fbe737b514461a46036801920d461b6998
:105bb0002146984738b1019a2946204603b0bde8ee
:105bc000304001f097b9012003b030bd13b50c4649
:105bd00011461a460368cde900121b69984738b18f
:105be000dde90012204602b0bde8104001f0b7b96f
:105bf000012002b010bd70b51e46036815460c4664
:105c00001b6932462946984710b90124204670bdc9
:105c1000214632462846fef769fe04460028f4d1a4
:105c2000b5f5342ff2d1172ef0d92a46294601f0c6
:105c300054ff0028ead001214ff45420fef770fef3
:105c4000041e18bf0124e1e710b503681b690c4668
:105c5000984738b101212046fef762fe003818bf90
:105c6000012010bd0120fce773b514461a460368f5
:105c700001920e461b6921460546984740b1686867
:105c8000019a3146201a02b0bde8704000f0aeb96a
:105c9000012002b070bd73b514461a460368019224
:105ca0000e461b6921460546984740b16868019a2f
:105cb0003146201a02b0bde8704000f07db90120e5
:105cc00002b070bd38b503681b6904460d4698479d
:105cd00030b160680121281abde8384000f0d7b91a
:105ce000012038bd014b0360704700bf58e60f002c
:105cf000014b0360704700bf88e60f00024a026054
:105d00004ff000424260704728e60f0013b50422ae
:105d1000002304460deb020140f2da60019301f02a
:105d2000e9f8019b1c4054ea00030cbf012000204d
:105d300002b010bd7047000008b5034a00210a20d8
:105d400002f0a0f9fee700bf8d470f000078b0fa1f
:105d500080f04009704701230370704710b5084c6c
:105d6000237853b9b2f5004f07d8064a0260064ab5
:105d70000a6001222270184610bd0448fce700bfeb
:105d8000581d012048f2002048720020fcfeffff51
:105d9000014b00221a707047581d012000207047e7
:105da0002de9f34105460f461e46144612b320f076
:105db00003080422089b0deb02014046984720b1de
:105dc0004ff0ff3002b0bde8f081a8eb05000430d1
:105dd000844228bf044601aba5eb080022463946a1
:105de000184408f085f904220deb02014046b04743
:105df0000028e5d12046e5e708b50846ff2108f070
:105e00009ff9002008bd2de9f04fc3b08707ddf8ea
:105e1000309105460e46144698460dd0cdf80090b8
:105e2000fff7beff002804da4ff0ff3043b0bde8b3
:105e3000f08f05440644241a9cb346ea05039b07e9
:105e400024f0030713d147b13a4631462846c047ec
:105e50000028e9d13d443e44e41bcdf80090434680
:105e6000224631462846fff79bffc017dee7bb46b8
:105e7000bbf1000ff0d0bbf5807fda4628bf4ff4ae
:105e8000807a5246314602a808f032f9524602a9f9
:105e90002846c0470028c7d1abeb0a0b55445644ef
:105ea000e6e72046c2e708b50b461146024618460b
:105eb00004f068fd01f088f808bd0000074b10b53c
:105ec0000024c3f8004101241c60d3f80041002cd9
:105ed000fbd004f0b7fc01f077f810bd0090024051
:105ee00007b50b468df80000114668460022cdf834
:105ef00002208df80130fff7e1ff03b05df804fbed
:105f000008b5094b0022c3f8002101221a60d3f81a
:105f10000021002afbd004f0cffc1128fbd0bde803
:105f2000084001f051b800bf009002402de9f04157
:105f300015460446884600f04ffa002d0cbf4ff47a
:105f400080574ff480370026b4fbf7f47c43464576
:105f500011d02146284604f041fd38b101f034f853
:105f6000044600f03bfa2046bde8f081fff7c8ff89
:105f70003c440136ebe70024f3e7000010b500f0e5
:105f80002bfa04f0b5fc4ff0a0430322c3f84427da
:105f90004ff40032c3f808250422c3f854272920ff
:105fa00005f0fefa034b00241c7000f017fa20469f
:105fb00010bd00bf5a1d01201fb50446cde90221c6
:105fc00000f00afa074b0093dde90221064b204658
:105fd000fff719ff0446fff793ff00f0fff9204693
:105fe00004b010bdf95d0f00a75e0f002de9f74367
:105ff0000e4606f1030929f003091446054600f090
:10600000ebf9a9eb0603a34294bfe71a271b37f06d
:10601000030721d025f0030842463946484604f0dc
:10602000c7fc40b100f0d0ff044600f0d7f920468d
:1060300003b0bde8f0834e4501d1454509d0a8eb3a
:1060400005010f44a5eb08013a464944304608f0e3
:106050005df83d443e44e41b002ce6d0291925f0b0
:1060600003080331a1eb0801424621f00301684611
:1060700004f09efc07460028d4d1a5eb0805224673
:106080000deb0501304608f033f83c46cde7002221
:10609000fff74cbf2de9f04186b00646ddf83080b1
:1060a0000d461c4600f098f9002e40f0b5806d4e6c
:1060b0006d4ff068338a02903878adf80c3000f0fc
:1060c0008ff9002800f0a580ab1e062b00f2ab80f4
:1060d000dfe803f00408313323a93500b9238df834
:1060e000083020e03b78032b17d1ab238df8083024
:1060f00001238df809302246002102a8fff7defeb9
:10610000041e4cdbeb1e012b25d8584b4ff4a0602e
:1061100043f001039847002441e09f238df80830a5
:1061200004238df80930002ce5d09df80930013b9f
:106130004345e0d907e0c378d1e76623cfe7387855
:1061400000f04ef90cb94a4c29e0b8f1030ffad926
:10615000c3682360dfe7052dddd1002299231146b6
:1061600002a88df80830fff7a9fe041e17db3b7864
:10617000022b1ad0032b25d0012bccd13d4bd6f8c6
:1061800012009b88adf81430402304908df8043041
:10619000002201a904a8fff791fe041ebbda00f05b
:1061a0001df9204606b0bde8f081334bb0699a88ee
:1061b000adf814201b7af28b0490adf804208df812
:1061c0000630e5e72b4bd6f812009a88adf814207c
:1061d000b6f821205b7c0490adf8042001a90022d0
:1061e00004a88df80630fff769fe041ed7db3123c3
:1061f00000220df1050104a88df81030fff75efeb6
:10620000041eccdb11238df8103000220df10601a5
:10621000c0e76ff0a904c2e7012e7ff47caf012d27
:1062200004d0072d11d06ff07704b8e70e4b8df82e
:1062300010501b78013b012bf5d804aa02212f2016
:10624000fff74efe00eae074a9e7074b187800f06c
:10625000c7f8002c3ff477afb8f1030f7ff673afa8
:10626000836876e7a4e30f00591d0120b0e60f0014
:10627000f2feffffb6e30f00bce30f00f0b54ff0f6
:10628000a0434ff400320326c3f844674b4dc3f8d4
:10629000082504228fb0c3f8542700f09df80fcdd5
:1062a00004ac0fc400222b682360114604a804f03c
:1062b000ddf90d28424d0ed13446424e002716f826
:1062c000013b2b70002300971a4604211846fff764
:1062d000e1fe013cf3d13c4b93f838308df80c30a3
:1062e0000022022303242b70062103ab10460094e6
:1062f000adf80d20fff7cefe03a800f07bf80646b0
:106300002870a0b92f4f17f8013b2b70002300967f
:106310001a4603211846fff7bdfe013cf3d10323c3
:106320000093224603ab06212046fff7b3fe03a8e5
:1063300000f060f8287000283cd000f051f80446c6
:1063400004f0d6fa214b0022cde9092341f216715f
:106350004ff48033cde90b131d4b0d93a378eb2b3a
:1063600014bf002304238df82e306378322b14d011
:10637000382b14bf002303230022114609a88df8ef
:106380002f3004f073f9034648b100f01dfe0446b7
:1063900000f024f820460fb0f0bd0223ece70d4ad0
:1063a00001211170009002460521fff773fe00eafb
:1063b000e074ede76ff0a904eae700bfc8e30f005f
:1063c000591d0120545f0020a4e30f001311141580
:1063d000000107005a1d012000207047002070476f
:1063e0000028034b08bf0220013803eb0010704760
:1063f000b8e60f000378c22b07d14378202b09d0d1
:10640000282b14bf002002207047c82b14bf002087
:10641000032070470120704703681f2b83bf03f0e0
:106420001f03036001484ff0a04070470003005075
:1064300038b50446fef7eafc232c0dd8250100eb05
:106440000414405dff2806d06078ff2803d0fef7d3
:10645000ddfc2844807838bdff20fce72de9f341be
:1064600080460d46fef7d2fcb8f1230f45d84fea1f
:10647000081400eb0813025dff2a3ed05b78ff2b67
:106480003bd0002d39d0fef7c1fc07192e79035df2
:106490007c78ff2e14bf0121002104f01f04404628
:1064a00044ea4314fef764fb6b79db0710d506f072
:1064b000fb03012b01d0082e0ad1ab79019401a86e
:1064c0008bb1fff7a9ff019a01239340c0f808356b
:1064d000082e10d8082e10d8dfe806f02311323b22
:1064e0000f440f0f5500fff797ff019a01239340c8
:1064f000c0f80c35ece7ff2e56d030481de06a8816
:1065000022b1eb79012b14bf0022032201a80194d0
:10651000fff782ff120242f00302019b03f5e073d2
:1065200007e001a80194fff777ff019b002203f524
:10653000e07340f82320be70002002b0bde8f08177
:1065400001a80194fff768ff019b0c2203f5e0739b
:10655000efe701a80194fff75fff019b042203f519
:10656000e073e6e76b8863b1eb79012b14bf062279
:10657000072201a81202019442f00102fff74cff2a
:10658000cbe70622f5e76b8863b1eb79012b14bfeb
:106590000622072201a81202019442f00d02fff721
:1065a0003bffbae70622f5e701a80194fff734ffa5
:1065b000019b022203f5e073bbe700bff2feffff81
:1065c00007b5074b8df8041000226946adf8052089
:1065d0008df807200093fff741ff03b05df804fb3f
:1065e0000800010073b505460e46fef70ffc232d8b
:1065f00022d82c0100eb0513025dff2a1cd05b782a
:10660000ff2b19d0fef702fc0319025d5c78db78e2
:1066100004f01f04062b44ea421403d1012128464a
:10662000fff7ceff019401a846b9fff7f5fe019ae6
:1066300001239340c0f80c3502b070bdfff7ecfeab
:10664000019a01239340c0f80835f5e737b50446b1
:10665000fef7dcfb232c02d9002003b030bd25015e
:1066600000eb0414435dff2bf6d06378ff2bf3d0cf
:10667000fef7ccfb4219415d5378927803f01f037b
:10668000082a43ea4113e7d840f22d11d140c90747
:1066900008d4012ae0d101a80193fff7bdfed0f88c
:1066a000040505e001a80193fff7b6fed0f8100538
:1066b000019bd84000f00100cfe700001f2886bff3
:1066c00000f01f00044b4ff0a04300f5e0700222e1
:1066d00043f82020704700bf000300502de9f04f21
:1066e00085b00e4604461546fef790fb3a490090e9
:1066f0008e424ff02c0014fb00f028bf0e46374ca2
:1067000000f1220300f10c02042e00f1100004eb52
:10671000030e224438bf04260444002001964ff0a3
:10672000010c80464ff002094ff0030a4ff0040bb2
:1067300012f8013bff2b3cd0019e2949b1fbf6f139
:10674000009e54f8207006eb0313de790cfa06f372
:10675000df1b012f34d0c7ebc73737fa06f605d059
:1067600006fb0116b6f5004f2cd3f60b05238df86a
:106770000d3006238df80e3007238df80f300901f8
:1067800036018df808808df809c08df80a908df8d3
:106790000ba08df80cb00023b1f5004f14d2a980e6
:1067a00004a90b44b6b213f8083c2e80ab702ef847
:1067b000106001300428bbd1002005b0bde8f08f87
:1067c0000026d3e70126d1e70133082b4fea510118
:1067d0004fea5606e0d1ece720a10700585f002001
:1067e00040420f0038b50546fef710fbff2d18d0cc
:1067f00000eb05122b015478c35cadb204f01f040a
:10680000284644ea4314fff713fe0128e4b206d1f8
:106810002846fff71bff012801d144f080042046e1
:1068200038bd2c46fbe700002de9ff47dff87090ec
:106830004ff02c0a0afb009407230026207b0396c6
:106840004ff002080f46cde901668df80e808df8f5
:106850000830fff7c7ff8df80400607bfff7c2ff29
:106860008df80500a07bfff7bdff8df80600e07beb
:10687000fff7b8ffbb788df807008df80930324676
:10688000bb88adf80c3001a9204603f0a1fc20b96b
:1068900084f8208004b0bde8f0874ff0ff30f9e7be
:1068a000585f00201fb50023cde901330393042373
:1068b000adf804302c23094c584300f12203234443
:1068c0000093012202236946204403f05ffd002863
:1068d00014bf6ff00100002004b010bd585f00200d
:1068e0002de9f3470646fef791fa232e60d83701cb
:1068f00000eb06167379ff2b5ad0fef787fa00ebf0
:106900000708814698f8054098f80630032c4dd8c2
:10691000032b4bd8284d2c2000fb045a0aeb030212
:10692000ff2111730b2202fb04330433002245f8cc
:1069300023209af82030022b05d1504603f00afd9f
:1069400001238af8203098f8013019f8070003f085
:106950001f0343ea4010fff7b1fe002388f803301d
:106960002c2303fb04531a7bff2a08d15a7bff2aee
:1069700005d19a7bff2a02d1db7bff2b16d00023a7
:106980000093adf804302c2303fb04556a46a96834
:106990002046fff7a3fe002808db69462046fff7e4
:1069a00043ff002802db2046fff77cff0823f3713a
:1069b00002b0bde8f08700bf585f0020232810b563
:1069c000044601d9002010bdfef720fa00eb0410a8
:1069d0004279ff2af6d008492c2303fb021393f8cf
:1069e0002030022beed183790b2000fb02330433dd
:1069f00051f82300e7e700bf585f002008b5fff714
:106a0000ddff80b208bd232810b5044605d8fef787
:106a1000fdf900eb0410c07910bd0020fce7000078
:106a200023282de9f74f05468946174659d83b4b91
:106a3000043a9a4255d8fff7e6ff012606fa00f01d
:106a400048454ed3fef7e2f900eb05104fea051b6f
:106a50004379ff2b45d0fef7d9f900eb0b025479af
:106a60009379032c3dd8032b3bd8dff8b4802c213d
:106a700001fb048101eb030c9cf80cc0654503d1bc
:106a80008e68f61b18bf01264ff02c0a0afb048af9
:106a90000aeb0301caf808700d730b2101fb0433e4
:106aa0000433394648f82390537810f80b0003f06c
:106ab0001f0343ea4010fff701fe00236a46204609
:106ac0000093adf80430fff709fe002809db9af8bf
:106ad0002030022b08d13eb92046fff7e3fe002804
:106ae00016da03b0bde8f08f2c2000fb048696f880
:106af0002030022b05d1304603f02cfc012386f810
:106b0000203069462046fff78ffe0028e4dae8e7e8
:106b100006212846fef72cf8e3e700bf1ca107007a
:106b2000585f00204ff4fa72fff77abf0a4b10b596
:106b30001c5cff2c0ed0fef769f900eb0410074b2c
:106b4000027a0c2101fb02335a681ab1bde81040e9
:106b50009868104710bd00bff6e30f005c1d0120d0
:106b6000074a10b400230c24ff2004fb03f1013377
:106b7000092b8854f9d15df8044b02f0c1be00bf67
:106b80005c1d012003f050b82de9ff470c9c054621
:106b90009a460e461746fef739f900eb05182b0109
:106ba00098f80190c35c09f01f0949ea4319baf14a
:106bb000010f4ff000035ffa89f9adf80d3068d08e
:106bc000baf1020f0cbf022303238df80c309df89d
:106bd0000e30404a23f0060343f006038df80e30d2
:106be000039badf804301b0c8df80630019badf80b
:106bf0000c301b0c8df80e30039badf8003069464d
:106c00001b0c48468df8023002f0e4fe042829d11e
:106c10000023baf1010fadf8093004d0baf1020f28
:106c200018bf4ff0030a9df80a308df808a043f012
:106c300004038df80a30029badf80c301b0c8df864
:106c40000e30039badf808301b0c8df80a30029b08
:106c5000adf800301f4a1b0c694648468df80230db
:106c600002f0b8fed8b91c4a03460c2000fb03f121
:106c70008c5cff2c0fd15018c0e90167555488f87f
:106c800008304846012102f025ff002004b0bde88d
:106c9000f087534699e70133092be7d1f1e708283c
:106ca00013d11cb1e47814f00204ead10a4b0c2190
:106cb00001fb04f2d05ca84203d11344c3e901678d
:106cc000dfe70134092cf3d1dbe70428d9d10348ed
:106cd000dce700bf2d6b0f005c1d0120fcfefffff9
:106ce00073b506460c46fef791f800eb0615330126
:106cf0002a7aff2a22d0c05c6b7803f01f0343ea94
:106d00004013d8b2019002f033ffacb9019802f001
:106d100051ff297a0b4b0c225143ff205854297afa
:106d200002fb01314c60297a02fb013321469c6051
:106d300028723046fdf71cff002001e06ff0d10003
:106d400002b070bd5c1d012000221146fff7c8bfd4
:106d500038b5094c2568284600f08bfa214651f8d1
:106d6000040b403005f094ff206800f0c9fa284673
:106d7000bde8384000f07fbacc1d012010b50b46ad
:106d80000146044651f8040b044a403006f003fa69
:106d9000b0fa80f0400984f83c0010bde8e60f002e
:106da00008b5014690f83c0050b1002381f83c3012
:106db00051f8040b403005f06bffb0fa80f0400949
:106dc00008bd00002de9f04300210446c5b0084687
:106dd00000f0e0fa0146206018b9334a0a2001f0b9
:106de00051f92668304600f044fa206800f046fa6f
:106df00020b12d4a00210a2001f044f920682b49d6
:106e0000403006f0ddf830b1113004d0264a0021c0
:106e10000a2001f037f92068254902aa403005f020
:106e2000ebf800283cd1039b002b40f2031518bf60
:106e3000032529462046fff7a1ff014618b91a4a43
:106e40000a2001f01ff9eb051bd5ff23dff858904e
:106e50008df80730002704f10408206801230df1a4
:106e600007024146403005f0adfa051e04dc4a46f3
:106e700000210a2001f006f92f4442f2c6039f4286
:106e8000ebd92046fff78cff014618b9064a0a20c5
:106e900001f0f8f8304600f0eef945b0bde8f083b7
:106ea00040f20315c5e700bf8d470f00f5e60f0060
:106eb000e8e60f0038b50c4d2b78bff35b8f13f06d
:106ec00001040ed12846fef741ff50b1074880f873
:106ed0003c40fff777ff2846fef73dff044807f0e8
:106ee000e9f8024838bd00bfc81d0120cc1d0120b3
:106ef000516d0f002de9f8430546002090460f46de
:106f0000fdf7affcfff7d6ffd0f800900446264609
:106f1000484600f0aef901212046fff72fff56f852
:106f2000040b2a4600233146403005f067fc051e5d
:106f30000cda2046fff734ff484600f09cf90020a9
:106f4000fdf791fc05eae570bde8f883206843464b
:106f50003a463146403005f0edfb0546e9e72de9bc
:106f6000f843074601200d469046fdf77afcfff7ef
:106f7000a1ffd0f8009004462646484600f079f973
:106f800002212046fff7fafe56f8040b2a4600239a
:106f90003146403005f032fc051e0cda2046fff782
:106fa000fffe484600f067f90120fdf75cfc05eaaa
:106fb000e570bde8f883206843463a4631464030e4
:106fc00005f000fa0546e9e711289abf024b33f9ac
:106fd00010006ff063007047fae60f0028b100f56b
:106fe0000053d3f8f01afef7d3be704738b500252a
:106ff00005600446fef7d2fe00280bdb04f50050c6
:107000000123c0f8f85ac0f8fc5ac0f8083b80f8d1
:107010000c5b284638bd00002de9f743054699462c
:107020001746002a3bd0a9b30a789ab3a2f1080305
:10703000072b34d8012696404ff00008324601a9ac
:107040002846cdf80480fef789fe041e1edb2b685f
:10705000019a03f50053c3f8f02a2b6803f5005397
:10706000c3f8f46a2b6803f50053c3f8007b2a6861
:1070700002f50052c2f8049b2868fff7b7ff041e10
:107080000bda2868fff7aaffc5f80080204603b096
:10709000bde8f0834ff40046cee74446f6e7014ce6
:1070a000f4e700bff2feffff2de9f04f00f50054ba
:1070b0009046d4f8082b002a89b081468a4676ddae
:1070c00000265b0003f002073546b346d4f8fc1aed
:1070d000b9b3d4f8003b0593d4f8f80ad4f8f03ae1
:1070e000d4f8042b1844059b984700280cdac4f800
:1070f000080bd4f8083b002ba8bfc8f80050d4f800
:10710000080b09b0bde8f08fd4f8fc3a834203d2f3
:10711000284bc4f8083bece7d4f8f82ad4f8f41a62
:1071200002448a42c4f8f82a07d1c4f8f8ba181af7
:10713000c4f8fc0a28b10223ebe7f8d96ff0f90391
:10714000e7e70eb10123e4e794f80c6bd8f80030c0
:107150002eb19d4201d2184bdbe70023d9e75b1b20
:10716000d4f8f82a0693d4f8f43a9b1a0793d4f883
:10717000f03a02971a4407a9019100920aeb05011f
:1071800006aa484606f00ef80028e4db0128079b13
:107190000bd038b9012284f80c2bc4f8fc3a069bba
:1071a0001d4493e7002bf8d1c8e70646f5e76ff0da
:1071b000d100a6e7defeffffe8fefffff0b50d4eb3
:1071c0000a44914214d0076811f8013b83ea07058d
:1071d00005f00f0556f8254084ea171484ea1313c6
:1071e00003f00f0356f8233083ea14140460e8e731
:1071f000f0bd00bf20e70f0000207047036893f840
:1072000084203ab1d3f89c33c0690b445843012120
:10721000fef73dbf6ff0d100704770b40c461946c1
:10722000036893f884601546039a46b1d3f89c33fb
:10723000c0691c4400fb045070bcfef7bdbe6ff07b
:10724000d10070bc704770b40c461946036893f8bf
:1072500084601546039a46b1d3f89c33c0691c4438
:1072600000fb045070bcfef7c1be6ff0d10070bcd3
:10727000704700207047002070470000f8b50546b1
:10728000fff7f7ff95f88440b4bb012305f14006f2
:1072900005f1080785f884303946304604f0e8fee9
:1072a00030b3053004d1154a21460a2000f0eafe29
:1072b0006ff07f4000f05affe72000f0b7ff39463b
:1072c000304605f0e5fd044628b93946304604f05d
:1072d000cffe044660b1002385f88430074a0021c0
:1072e0000a2000f0cffe2846fff7c5ff2046f8bd74
:1072f00095f88440002cf1d00024f4e78d470f006e
:1073000038b50546fff7b5ff95f88440a4b105f1ff
:10731000400004f0e9fe0022eb6c85f8842004466e
:107320004ff400216ff0004033b1c3e90710c3e907
:1073300001225a611b68f7e72846fff79cff2046a9
:1073400038bd00000f4bc3600f4b03610f4b43610f
:107350000f4b83614ff48073c0e907334ff48053c0
:1073600043628023c36200f18803036300f5c473a2
:10737000436300f52273836300f526738060c36363
:10738000704700bf47720f001b720f00fd710f00a6
:10739000f9710f0010b512490b680246c3b91148c4
:1073a000012480f89833c0f89c330c604ff40073cc
:1073b0000d4983624ff43873c1f89c334ff49073d6
:1073c00081f898438b62fff7bdff0846fff7baffcd
:1073d00022b1012a044818bf002010bd0148fce773
:1073e0004c2501200c1e0120ac210120bff34f8f42
:1073f0000549064bca6802f4e0621343cb60bff351
:107400004f8f00bffde700bf00ed00e00400fa056c
:1074100008b5fff7ebff00001fb503f013ff30b115
:10742000852804d05b4a00210a2000f02bfe0020b2
:1074300003f052ff03f07aff0028fbd0002003f096
:1074400019ff03f041ff0028fbd0534bd3f8001481
:10745000e1b152490420fdf783f9514a4ff000434e
:10746000c2f808330023c2f87c310293029b4ff02c
:10747000a0434ff40032c3f844274ff08043012269
:10748000c3f80025bff34f8f20bffde708460191e9
:1074900003f058ff30b1852804d03e4a01990a20f4
:1074a00000f0f0fd3f4a92e8030002ab83e80300de
:1074b000184603f05bff20b1364a00210a2000f095
:1074c000e1fd4ff080434ff40012c3f884294ff4dc
:1074d0004032c3f80829c3f81829c3f82829c3f88b
:1074e0003829c3f84829c3f85829c3f86829c3f8cc
:1074f00078294ff4f812c3f888292b4ad2f8fc30c7
:1075000043f08073c2f8fc30284b00245c601a689a
:1075100042f001021a604ff010239b69013319d128
:10752000234b0122c3f80425d3f80024002afbd002
:107530004ff010221f499161d3f80024002afbd09c
:107540000022c3f804251a4ad2f80034002bfbd0dd
:10755000fff74cfffdf7b6f920b10e4a21460a208d
:1075600000f090fdfef78afe20b10a4a00210a20b1
:1075700000f088fd0124e0b20134fdf7a1fa082ce7
:10758000f9d1fff7edfa01210020fdf7a3fb04b0cc
:1075900010bd00bf8d470f0000000140efbeadde03
:1075a00000600040e0e30f0000ed00e0001000e0ac
:1075b00000e0014000f002000c4b4ff47a721b68af
:1075c000b3fbf2f3013bb3f1807f0dd24ff0e02229
:1075d000e0215361064b002083f8231090610720bf
:1075e000106183f823107047fee700bf3060002071
:1075f00000ed00e04ff0e022136923f00103136176
:107600007047000008b5bff34f8ffff7f3fffdf79a
:10761000d1fbfef7b3fcfdf795fa4ff080434ff432
:107620007972c3f808231b22c3f80823bff34f8fd6
:10763000044b0122c3f88021402283f80023bff3ca
:107640004f8f08bd00e100e008b5094b01229a7395
:107650006ff02f02da7300221a724ff4a041502209
:107660000a205a72fdf77cf8bde8084003f0a6bf77
:10767000c0f3032010b50b4c0b4b22689a420fd07d
:107680001c22ff21201d06f05bfd6ff03f032370dd
:107690006ff0530363706ff02103a3701a23e3703c
:1076a00010bd00bfc0f30320c0acde1a704700005d
:1076b00010b500f0abf9084b4ff0ff321a735a7354
:1076c000044638b100229a72da721a745a225a7435
:1076d000fff7baff204610bdc0f30320704700003b
:1076e000024b00229a72da72704700bfc0f3032087
:1076f000014b9880704700bfc0f3032010b502b162
:107700001268084cd2430144884201d1d04310bdd5
:1077100010f8013b5340dbb254f8233083ea1222c5
:10772000f2e700bf60e70f0037b50546fff7a2ff9d
:10773000002302220df106010e20adf80630fff7fe
:10774000d9fb124cd8b9bdf806204df201039a427c
:1077500015d14ff6ff7302220e210df10600adf890
:107760000630fff7fcfb0123a3736ff02f03e373d5
:1077700055b94ff0ff33a373e373fff737fee28988
:107780004df201039a42f3d003b030bdc0f30320a1
:10779000704718df704710b50446084611461a4670
:1077a0001cb1012c07d0002010bdfdf7edf8b0fa98
:1077b00080f04009f8e7fef719fcf8e71f2a38b512
:1077c00015461c4601d8002038bd08232246183132
:1077d000fff7e1ff0028f6d02388082b02d91833e1
:1077e0009d42f0d3a078b0fa80f04009ece710b5e4
:1077f0000446084611461a461cb1012c07d0002049
:1078000010bdfdf773f8b0fa80f04009f8e7fef715
:10781000d3fbf8e738b5d2f80031c3f580758d4257
:1078200028bf0d46144601462a46e01806f060fcc3
:10783000d4f800312b44b3f5807fc4f800311ad15d
:10784000d4f80411d4f8082101f58070904202d9cf
:107850004ff0ff3038bd94f80c012246fff7c7ff08
:107860000028f5d0d4f8043103f58073c4f804314e
:107870000023c4f800312846ece72de9f043c1b0fd
:107880008046489f0c4691461e460f44bc4201d399
:1078900001200de03d1bb5f5807f28bf4ff48075ba
:1078a0002b466a4621464046fff775ff18b900206f
:1078b00041b0bde8f0832b466a4631464846fff7a3
:1078c00096ff0028f3d02c442e44dfe7013a0a4407
:1078d00068b9b2f5801f08d9b1f1905f0dd3b2f14c
:1078e000005f8cbf002001207047012070470128f5
:1078f00002d1b2f5800ff4e70020704738b5054695
:107900000c461346fff7e2ff48b14db903f6ff738b
:10791000190b2046fdf704f8b0fa80f0400938bd95
:10792000012d06d103f6ff73190b2046fef7affbbe
:10793000f2e70020f3e72de9f0459bb001ae824667
:107940000d4690463146642240f624301f460124fd
:10795000fff7d0fa14224af6cd3302fb04f0315a75
:10796000994206d10134052cf7d100201bb0bde8a7
:10797000f0851aaa1418229a24f8643c9df88c30d9
:1079800004f8533c9df8903044f8582c00f624310c
:1079900004f862ac44f8605c04f8618c44f85c7ce8
:1079a00004f8543c14223044fff7d9fa0120dde7f3
:1079b00010b514228ab00deb0201044640f62430c3
:1079c000fff798fabdf8142040f6ac739a4210d134
:1079d0009df8243002939df825300193089b009375
:1079e0009df81720079b06999df81600a0470ab03e
:1079f00010bd0220fbe7000008b50348fff7d8ffe1
:107a0000b0fa80f0400908bd317c0f0008b503488a
:107a1000fff7ceffb0fa80f0400908bd8d7c0f0063
:107a2000f7b50c4615461e460746b0b399b912681d
:107a30001c4b1340b3f1005f08bf05f5007501460c
:107a40004ff01802284608bf4ff40074fcf79cff63
:107a5000f8b103b0f0bd01291ad104220deb0201e7
:107a60002846fef7c3fa0028f3d1019a0d4b1340c4
:107a7000b3f1005f0cbf05f5007504464ff0180226
:107a80003946284608bf4ff40074fef7affadfe727
:107a9000002426b134600020dbe70348d9e73046f4
:107aa000d7e700bf0000fc2ff2feffff30b587b024
:107ab00004460d4618220021684606f041fb0023cb
:107ac0002a4621466846fff7abff20b9dde90030c2
:107ad000c01a07b030bd0020fbe770b586b0054680
:107ae0000e46144600211822684606f029fb0023a2
:107af000324629466846fff793ff80b9009ba342b0
:107b000009d1019bb3f5801f05d8bdf80c00a0f189
:107b10000d035842584100f0010006b070bd00202e
:107b2000f9e7f7b50d461146024650b959b34c591d
:107b3000284624bafff7e2fd231a5842584103b001
:107b4000f0bd01281dd1f1b14f1904226946384614
:107b5000fef74cfa0098002304ba01937e1b042e12
:107b600028bf0426324669462846fef73ffa01aa96
:107b700031466846fff7c2fd3544af420190edd86b
:107b8000dae70020dbe70846d9e72de9f04786b0c1
:107b900006469146fff79afeddf838809df840a032
:107ba0009df844500f46044600283dd00f9a4146a8
:107bb0001846fff78bfe0446b0b315f00e0f33d016
:107bc00018220021684606f0bbfa00233a463146e7
:107bd0006846fff725ff30bbdde900329df80e1047
:107be0000129a2eb030203d0bdf80c000d281ad125
:107bf00015f00a0f02d0101d814514d3280701d5b6
:107c00008a4510d1690707d5434505d0baf1020f5f
:107c100009d1b8f5542f06d1ab0705d53946304602
:107c2000fff77fff00b90024204606b0bde8f087cb
:107c30002de9f04387b004469df840900e9e19f060
:107c4000200f0d46174698461ed00023cde9043379
:107c5000324604abfff7b2fd18b9022007b0bde809
:107c6000f083059b9df83c20cdf80c90cde90132c6
:107c7000cdf800803b46324629462046fff785ff77
:107c800080f00100c0b2e9e73346ebe72de9f04fa1
:107c9000adf5117d1f469df870829df86c320493fe
:107ca00018f0200b4ff00003cde90a339a9c82466e
:107cb0000d46914619d00aab2246fff77ffd08b961
:107cc00002200ee00b9e049bcdf80c80cde90163f1
:107cd00000974b46224629465046fff756ff30b9db
:107ce00001200df5117dbde8f08f2646ebe7049be2
:107cf000022b40f09880b7f5542f23d104f6ff767d
:107d000026f47f6626f00f0632464ff4101101204c
:107d1000fff7f4fd0028d3d000964ff41013012292
:107d200039460020fff7a9fd0028c9d00022cde97f
:107d3000012200963b464ff410110120fff7fbfd96
:107d40000028bdd0324639464846fff7d7fd002807
:107d5000b6d0bbf1000f00f09e80bdf8288008f17e
:107d60001e03a342bcd808f118010d44a4eb080877
:107d7000a8f11c08a91e4ff0000b02230df11e02f2
:107d800041445046adf81eb0fff705fd002897d0de
:107d9000bdf81e404445a3d84ff4887259463e446e
:107da0004ca806f0cdf98e9608ae554a8df83c9257
:107db0004cab594630468d97cdf820b0fff72cf9e3
:107dc000002864d1a8eb040405eb04080596a84537
:107dd00037d800285bd18c9b53b18d994caa48466b
:107de000fff705fd002852d0dde98c2313448d9365
:107df000dde98d239a42089849d1fff7eff8049bfb
:107e0000022b7bd1b7f5542f78d1102200214ca83a
:107e1000033406f095f9a4084ca84d974e94fff74b
:107e2000b8fc03205de7049b052b8bd1b7f5342ffd
:107e300088d14ff480524ff454214846fff75efd3d
:107e40007ee7a8eb0506b6f5807f28bf4ff4807665
:107e500033460caa29465046fff79dfcb8b14ff0b7
:107e6000000b0598a6eb0b030ca9099300680123ee
:107e700009aa5944fff718f9002808dbabd0099b81
:107e80009b445e45edd80228ebd035449fe7089827
:107e9000fff7a4f814e718f0100f29d118f00e0f0f
:107ea0001cd0182259464ca8cdf830b006f048f93d
:107eb0000cab2a4651464ca8fff7b2fd00287ff4d0
:107ec000ffae9df83931db0705d50c9b002b7ff405
:107ed000f7ae48f0100818f0100f09d100943b4697
:107ee0004a4629465046fff7c8fc002887d1e7e6f6
:107ef000172c7ff6f5ae1835183cefe70020f0e6ba
:107f000015780f002de9f04f99b00746502204a9cb
:107f100040f63830fef7eeff0446002878d104ad75
:107f20002e4640f63839824680464af6cd3b3388a5
:107f30005b4526d1b8f1000f02d10fb10120b8473f
:107f4000737c022b5fd0327ccde90132f368009361
:107f5000b368f2787168b078fff798fe10b1032c1f
:107f600018bf04464ff6ff7333800222494630465d
:107f7000fef7f5ff002848d0032c4ff0010800d091
:107f8000022409f1140940f68833994506f11406d4
:107f9000cdd1baf1000f2cd040f638364af6cd39a3
:107fa0004ff6ff7a2b884b451cd16a7c022a19d1e7
:107fb00031462846a5f800a0fef7d1ff10b1032cea
:107fc00018bf02242b7c02936b7c0193eb68009317
:107fd000ab68ea786968a878fff758fe10b1032cff
:107fe00018bf0446143640f688339e4205f1140546
:107ff000d8d1b8f1000f02d00fb10020b847204609
:1080000019b0bde8f08f4ff0010a4ff00108b8e752
:108010000224f4e74ff08043d3f80024034b59695e
:10802000914202d05a61fff741bb7047c0f3032071
:1080300030b94ff08043d3f80004c0f340007047dc
:10804000002070474ff080434ff0ff32c3f8002408
:108050007047f8b504460e4617461d4624b9284613
:10806000bde8f840fcf792bbe72000f0dff83046af
:10807000fcf78cfbe72000f0fdf83846fcf786fba8
:10808000013cebe72de9f341044600200191fcf7a8
:1080900099fb1f4b1b6813b10199204698474ff479
:1080a0007f0000f063f8602000f072f800f064f8e0
:1080b000e72000f0dff84ff47f0000f057f8154d8f
:1080c000dff86080144f0226124a2b4641460320f7
:1080d000fff7bfff0f4a2b4639460320fff7b9ffd2
:1080e0000e4b2a4641460320fff7b3ff0c4b0a49cb
:1080f0003a462046fff7adff012e07d10022214668
:10810000822002b0bde8f041fcf74abb0126dbe764
:1081100054250120a0860100e0930400a0bb0d00bf
:1081200000350c00f049020010b5054b1b7800fb30
:1081300003f4044b0020db6898476043000c10bd3b
:10814000226000200860002038b50546c0f30740d3
:108150000c46fff7e9ff2080c5f30720fff7e4ff97
:108160006080e8b2fff7e0ffa08038bd014b1860e7
:10817000704700bf5c250120044b1a7822b1002112
:108180000120197000f0beb8704700bf58250120cb
:10819000014b1870704700bf2260002010b5054bde
:1081a0000446db68002098472402b4fbf0f0c0b21c
:1081b00010bd00bf0860002010b4054b82885c68c9
:1081c00041880088a44600235df8044b604700bf47
:1081d0000860002030b50e4d85b00446fff7ecff77
:1081e0002b689bb12088fff7d9ff03906088fff7c9
:1081f000d5ff0290a088fff7d1ff03460020009032
:1082000004482c680068dde90221a04705b030bdb4
:10821000642501206825012007b56946fff794ff12
:108220006846fff7d7ff03b05df804fb08b510b14f
:10823000e72805d008bdbde808400120fcf730bca8
:10824000074b1b7853b1074b1868fff7e5ff064b48
:1082500063221a70054bff221a70ebe7044bf3e719
:108260005825012060250120216000202060002089
:108270005c25012008b510b1e72804d008bdbde891
:108280000840fcf70dbc0020fff7c6ff034b00229f
:108290001a70034b01221a70f0e700bf2160002022
:1082a0002060002013b518b1e72807d002b010bd38
:1082b000104b5b6902b0bde8104018470e4b1b78ad
:1082c000a3b10e4b1c680b4b00219b686846984776
:1082d000bdf80220bdf800301343bdf8042013435d
:1082e0009bb22bb10020fff797ffdfe7044be9e7d4
:1082f0002046f8e70860002058250120602501206d
:108300005c25012010b50446fcf714fa094b1a8ac3
:108310005cb1013a92b21a821a8a92b20ab9012267
:108320009a74bde81040fcf712ba013292b21a8278
:10833000f7e700bf6c250120064b1946002241f8e3
:10834000042b5a601a828a805a81da6001229a7458
:10835000704700bf6c25012000f1804000f51c3003
:1083600001230360bff36f8fbff34f8f704700008f
:10837000020713d400f00f0310f0800f084a0bbf60
:1083800003f5887303f5847302eb830352f823002b
:1083900008bf5868431e5842584170470020704734
:1083a0000070024010f0080f074b06d0d3f8c0044d
:1083b00010f4803f18bf0020704700f00f0000f558
:1083c000947053f820007047007002404ff08053c3
:1083d000d3f83021082a05d1d3f83401003818bf6a
:1083e000012070470020704730b54c689c4209d28c
:1083f000002545600968016093420cd1201e18bf1a
:10840000012030bd43600d6805600868e41a184417
:108410004c600860f0e70020f3e74b689a4228bf01
:108420001a460b68c0e9003248680b68801a486039
:108430001a4400380a6018bf012070474b689a42fe
:1084400028bf1a4662b10b68c0e900324b689b1a1c
:108450004b600b68101e13440b6018bf012070475f
:108460001346f1e7054b10f0800fa3f1900208bf0f
:10847000134600f00f0003eb00107047f4260120b4
:1084800010f0800f14bf0023102300f00f001844d9
:1084900070470000034a0023c2f81c3c024a1370d4
:1084a000704700bf007002408125012007b5094ace
:1084b00000231370084aadf8053013708df80730ab
:1084c00001238df80430054b01a81b68984703b0c1
:1084d0005df804fb802501208827012084270120e6
:1084e0007047000013b5124c0122236802fa01f113
:1084f0000b4323600f4b1b68194003060dd551b980
:1085000006238df804308df806008df807100a4b0d
:1085100001a81b68984702b010bd0029fbd10623b3
:108520008df804308df806008df80720efe700bfc6
:1085300060260120f02501208427012008b5054b85
:108540001a781046fff79cffbde808400146104628
:10855000fff7c8bf8827012013b5244bd3f8004488
:10856000c3f80044bff36f8fbff34f8fbff36f8f1c
:10857000bff34f8fe1050ed51d4b01221a7000236a
:10858000adf805308df8073002238df80430194b13
:1085900001a81b689847a2050dd5154a0023137042
:1085a000adf805308df8073003238df80430114bfa
:1085b00001a81b689847630516d50d4b1a789ab128
:1085c00000221a70094b0121c3f808155820fff743
:1085d000c3fe04238df80430064badf805201b685c
:1085e0008df8072001a8984702b010bd0070024026
:1085f000802501208427012070b54b68934228bf55
:1086000013461d46094b0c4606462a46096818467d
:1086100005f06efdc6e9000560682268401b6060d9
:108620002a440038226018bf012070bd9027012025
:1086300070b54b68934228bf134606460d461c464c
:108640008bb10a4b09682246184605f051fd30608f
:1086500074606b681b1b6b602b68201e23442b60af
:1086600018bf012070bd0360f2e700bf9027012012
:1086700008b5fff70fff084b93f89e20032a06d199
:10868000bde8084005486ff0010102f0c3bcd3f813
:108690009030002bf4d008bd64260120f025012085
:1086a00008b5fff7f7fe0146fff7dcfe837b032bdf
:1086b0000ad10846fff7e4fe01218140bde80840e9
:1086c0000348c94302f0a6bc0368002bf1d008bde3
:1086d000f02501208720fff7e3bf8620fff7e0bfea
:1086e0008520fff7ddbf8420fff7dabf8320fff787
:1086f000d7bf8220fff7d4bf8120fff7d1bf000092
:1087000007b500238df804300b4bd3f82025adf8c6
:108710000620d3f8c034094a002b13680cbf4ff46d
:1087200080714ff001210b431360054b01a81b68ba
:10873000984703b05df804fb0070024060260120fa
:108740008427012007b5fff7a5fe114b93f81e21e2
:10875000032a07d10f486ff4807103b05df804eb72
:1087600002f058bcd3f8103173b90a486ff4807125
:1087700002f050fc06238df804308823adf8063053
:10878000054b01a81b68984703b05df804fb00bfc8
:1087900064260120f02501208427012007b5fff77a
:1087a00079fe0d4b93f88e20032a11d0d3f8803038
:1087b00073b90a486ff0807102f02cfc06238df823
:1087c00004300823adf80630054b01a81b68984714
:1087d00003b05df804fb00bf64260120f0250120f2
:1087e000842701202de9f04fdff8d48198f800307c
:1087f00085b0002b7ed16c4d6c4b19682b681940ed
:1088000078d011f0012378d093faa3f1b1fa81f175
:108810000f298abfa1f1100441f08004e4b2204680
:10882000fff720fe4ff0010b4ffa84fa0bfa01f12b
:10883000baf1000f81466fea010b61da03688289a1
:10884000416802a8984708b9c9f80000584b82222d
:10885000c3f81c2c2968012201ea0b0188f80020ca
:108860002960039ad9f80810baf1000f1144c9f829
:10887000081004f00800029904f00f046eda0028d2
:1088800064d0c3f8a016c3f8a426fff79ffd26b254
:10889000a300484a48496400054600286ed1baf151
:1088a000000fb2bf042628260a46414f1e44144436
:1088b000c7f80451bff36f8fbff34f8f3046fff7f8
:1088c0004bfd022002f0b4f8d7f80431002befd0b2
:1088d0001e2002f0adf8d7f874349b064cd5012069
:1088e00002f0a6f8238803f1804303f51c331b68cc
:1088f000002bddd005b0bde8f08f91faa1f185e73e
:108900002046fff74ffdb9f80c20d9f80410d9f82c
:1089100000600346074602a8b047029a002a92d098
:10892000039a97428fd9022789f80e7059461f483b
:1089300002f070fb06238df80430204b8df80640c2
:108940001b688df8077001a8984755e7142000fbb5
:108950000433c3f80016c3f8042696e720b1c3f821
:10896000a017c3f8a42790e7142000fb0433c3f832
:108970000017c3f8042788e70220aae7baf1000f1e
:10898000b4bf0420282012ea2a0238bf0a4618443d
:10899000fff7e2fc32f8163003f1804303f51c3395
:1089a0001a68002afcd0a5e760260120f0250120e6
:1089b0000070024060eb0f0072eb0f008427012073
:1089c0008125012038b5174bd3f86c44c3f86c44ab
:1089d000bff36f8fbff34f8ffff7f8fc38b9124a20
:1089e000136823f0011103f001130c4313600125f8
:1089f0001cb9bde83840fff7f5be94faa4f1b1fa0e
:108a000081f30f2bc8bfa3f110001946d4bf43f068
:108a10008000c0b205fa03f324ea0304fff762fd05
:108a2000e6e700bf007002408c27012037b5fff752
:108a300031fd0446fff716fd837b032b0dd1204645
:108a4000fff71efd01218140c943104802f0e2fa00
:108a500003b0bde83040fff7c5be0568002df7d173
:108a60002046fff70dfd01218140c943074802f070
:108a7000d1fa06238df80430054b8df806401b68ab
:108a80008df8075001a89847e2e700bff0250120c4
:108a9000842701200720fff7c9bf0620fff7c6bfc4
:108aa0000520fff7c3bf0420fff7c0bf0320fff777
:108ab000bdbf0220fff7babf0120fff7b7bf00001c
:108ac0004f4b4ff4006210b5c3f80024bff36f8f13
:108ad000bff34f8ffff77afc98b10020fbf73afe07
:108ae000484bd3f8001c032200297bd149f2753191
:108af000c3f8001cc3f8142dc3f8001c0020fbf7ba
:108b00002bfe0020fbf726fe3e4bd3f8001cc022b4
:108b100000296ad149f27531c3f8001cc3f8142c3e
:108b2000c3f8001c0020fbf717fe354b0122c3f8e9
:108b30000025bff36f8fbff34f8fd3f800241205ca
:108b4000fbd54ff40062c3f80024bff36f8fbff36f
:108b50004f8f0020fbf7fefd2a4bd3f8001c0029a5
:108b600046d149f27532c3f8002cc3f8141cc3f87f
:108b7000002c0020fbf7f0fd214b40f2e372c3f81c
:108b800000284022c3f80428bff36f8fbff34f8f34
:108b900000248022c3f81c25c3f830451a4b40f24c
:108ba000ff121a60194b1c60fff774fc184b1c7005
:108bb000184b02221a70fff709fc00b32046fbf79e
:108bc000c9fd104bd3f8001cb1b949f27532c3f896
:108bd000002cc3f8141dc3f8002cbde81040002081
:108be000fbf7babdc3f8142d88e7c3f8142c99e736
:108bf0000022c3f8142cbce7c3f8144dede710bdf8
:108c00000070024000e0064060260120f0250120af
:108c1000882701208225012008b50f4b00221a70f9
:108c2000b8b9fff7d3fb0d4b0d4a002818bf134608
:108c30000c4ac2f804330c4be02183f8271380213f
:108c400059600123c2f80435bff36f8fbff34f8f14
:108c500008bd024bece700bf802501200714e001ae
:108c60000714c0010070024000e100e0034b1878d7
:108c7000012894bf00200120704700bf82250120f9
:108c8000044b1b78012b83bf034b5868c0f3c01003
:108c9000002070478225012000e100e008b5fff7c1
:108ca000e1fb818108bd000073b51d4b1c78002cd1
:108cb00033d11c4a106001221a702546264615f051
:108cc000080f65f07f00c0b20cbf40214ff4007167
:108cd0000190fff7e3ff0198fff7c4fb0135092d71
:108ce000867306608660ead1402100252046fff7a2
:108cf000d5ff2046fff7b6fb0134e4b2092c85739b
:108d00000560856002d1002002b070bd14f0080f2c
:108d100014bf4ff400714021e8e70820f4e700bfda
:108d2000822501208427012008b5fff79bfb80895d
:108d300008bd00002de9f843064600200f46fbf76a
:108d400009fd16f00f0503d1294b1b78b3424bd117
:108d5000284bdff8c4801c68d8f80030e443a4b284
:108d600030461c43fff78cfb4ff0010909fa00f96c
:108d700014ea09043ad13046fff774fb0c2255433c
:108d8000320603462cd51c4a3968154401f060416f
:108d9000ba68b1f1005f02f001021cd1cab9174aea
:108da0001a6097e8070085e80700d8f800005d60c2
:108db00000229a609a73124b40ea09008022c8f898
:108dc0000000c3f804210020fbf7c6fc2046bde8e4
:108dd000f8830c4ae4e70ab90b4ae1e70b4adfe7fc
:108de0000b4a15440b4adbe71024ece71124eae7b1
:108df0008827012060260120f42501201b840f0014
:108e000000e100e03d840f00f9850f0031860f007e
:108e100084250120e9830f00f0250120044b40f454
:108e20008070c3f81805bff36f8fbff34f8f704783
:108e300000700240fff79cba0023036043600e4bb2
:108e4000d3f880240270d3f884244270d3f88824a5
:108e5000d3f88c1442ea01224280d3f89024d3f84c
:108e6000941442ea01228280d3f89824d3f89c34e7
:108e700042ea0323c38070470070024008b5fff741
:108e8000a5fa58b9eff3108272b64c20fff764fad6
:108e90004c20fff761fa82f3108808bdbde8084056
:108ea0004c20fff759ba000013b5fff7f3fa114b46
:108eb0009a7b032a07d110486ff4803102b0bde8d5
:108ec000104002f0a7b81c687cb96ff480310a48e2
:108ed00002f0a0f806238df80430084badf80640e8
:108ee0001b6801a8984702b010bd02b0bde8104051
:108ef000fff7c4bf64260120f0250120842701204c
:108f00005020fff729ba5420fff726baf8b50446d7
:108f1000fff75cfa06462046fff7b2fa012303fa90
:108f200000f5184fed43b6b93046fbf713fc3b682c
:108f300004f00f042b403b606400134b04f2c57433
:108f4000c3f80048c3f80468d3f80438bde8f84013
:108f50000020fbf701bc0020fbf7fcfb3b6814f092
:108f6000080203ea05033b60f0d104f00f04064b4e
:108f700004f5947443f82420bff36f8fbff34f8f31
:108f8000e4e700bf6026012000700240f7b5044608
:108f90000020fbf7dffb2046fff764fa054620467a
:108fa000fff76efa012214f0800f02fa00f22e4849
:108fb00019d1036832ea03030ad02046fff7a6ff5f
:108fc0000323ab73002003b0bde8f040fbf7c4bb44
:108fd0002b60036823ea02030360244b186820ea2d
:108fe00002001860ece7230715d4802c204b2ed00c
:108ff00004f00f0101f2da314900c3f80018d3f888
:109000000418d3f80468c9b241f002013143c3f82f
:109010000418d3f80438154e0168336861ea030771
:109020001742cfd0134321ea0201336000230160cd
:109030002b600323ab738df807300e4b8df8064081
:1090400006221b688df8042001a89847bae740f271
:10905000b471c3f80018d3f80418d3f80468c9b27f
:1090600041f00401d2e700bff02501206026012075
:10907000007002408427012073b5184b184cd3f8b8
:1090800080542368174eda43174b31781b6892b22d
:1090900008461a43fff7f4f9012303fa00f01042df
:1090a00002d00846fff772ff6ff0011105f080054e
:1090b0000d48357001f0aeff236843f001032360d3
:1090c0000023adf805308df8073005238df8043006
:1090d000064b01a81b68984702b070bd00700240a3
:1090e0006026012088270120f02501208427012007
:1090f0002de9f0415f4bd3f80443002122460e4690
:109100000125002a40f09180fff760f900287dd109
:10911000594b1b78002b79d18d0277d5554b554f84
:1091200040f2a972c3f80028d3f8040810f0ff0039
:109130001cbfd3f80428104040f2aa72c3f80028dc
:10914000d3f8042812f0ff021cbfd3f804381a40e9
:1091500040f2ab73c7f80038d7f8043813f0ff03b8
:109160001cbfd7f804582b4040f2ac75c7f8005824
:10917000d7f804582840414d0ad02e6806432e6087
:1091800040f2a976c7f80068c7f80408d7f80408c1
:10919000384840f2ad76c0f80068d0f80468324034
:1091a0000bd02e6846ea02462e6040f2aa76c0f83e
:1091b0000068c0f80428d0f804282e4a40f2ae70a7
:1091c000c2f80008d2f80428134010d0d80748bfce
:1091d00041f40001da06274a40f2ab70c2f80008f9
:1091e000c2f80438d2f8043848bf41f001012b68b6
:1091f00033f001121cbf04f08070014313f0011f13
:1092000004d0630544bf2a6041f480611c4f01f41f
:10921000000621f400044ff00108e4b9fff7e2fa78
:109220002eb3bde8f041fff727bf92faa2f315482d
:10923000b3fa83f39f00384407683fb10660bff379
:109240006f8fbff34f8f05fa03f0014305fa03f365
:1092500022ea030255e794faa4f5b5fa85f557f822
:10926000253008fa05f5984724ea0504d5e7bde856
:10927000f08100bf00700240812501208c27012071
:1092800084eb0f0000710240f8b5114e114b3468a9
:109290001b68240c24041c4301271cb940f2ff1353
:1092a0003360f8bd94faa4f0b0fa80f50f2d28468b
:1092b000c6bfa5f11000c0b240f08000030701d482
:1092c000fff764fe07fa05f524ea0504e5e700bfa9
:1092d00060260120f025012038b50c4c8025c4f80b
:1092e000845163681b060fd5fff7ceff084b0022a1
:1092f000c3f80425bff36f8fbff34f8f4ff0ff32da
:10930000c4f88450c3f8082338bd00bf00e100e072
:109310000070024008b5fff7dfff094bd3f80423c4
:10932000c3f808230022c3f80025bff36f8fbff3f3
:109330004f8ffff7aff8034b01221a7008bd00bf33
:109340000070024082250120030610b5044605d4b2
:10935000fff70ef810b12046fff7d8fd034bc3f816
:109360001845bff36f8fbff34f8f10bd00700240e1
:10937000044a137923b9012110609180184670477f
:1093800085207047d0270120084a136813f0010395
:1093900002bf82f80033012313604ff080420123a3
:1093a000c2f81835024a1370704700bf00e100e0b0
:1093b000d82701204ff080430022c3f8042182b057
:1093c000d3f804210192019a0222c3f80423012256
:1093d0009a6002b070474ff080430022c3f800212a
:1093e00082b0d3f800210192019a0122c3f804232c
:1093f0001a6002b07047000007b54ff08043d3f801
:1094000000217ab10022c3f80021d3f80021009294
:10941000009a0122c3f808230f4b587910b95a71ea
:109420001b6898474ff08043d3f8042182b1002293
:10943000c3f80421d3f804210192019a0222c3f84f
:109440000823054b1b68012003b05df804eb1847a7
:1094500003b05df804fb00bfd0270120034bd3f815
:109460003c0410f0030018bf01207047005000407a
:1094700010b5084b5b7804462bb120b9064b01228e
:109480005a7200f05bf804f1804000f5a04001231f
:10949000036010bde82701202460002030b5234d73
:1094a00087b02a788df8070012b9214b1b7a43bb8d
:1094b0009df80730032b07d1fff7d0ff002814bf1a
:1094c000022301238df807309df80730012bdcb211
:1094d00019d0022c15d1174d6b7a93b94ab9144c97
:1094e000012320462381a27201f082fb204601f075
:1094f00071fb01236b72022302936b680bb102a80c
:10950000984707b030bd0820fff7b2ff2a780a4b12
:1095100002b11c614ff48f62c3f80823054b00228f
:109520005a7204225b680292e8e700bfe827012034
:1095300024600020dc2701200050004010b50e4bb5
:109540000e4c1a783ab100221a7022720320bde83c
:109550001040fff7a3bf627a6ab1a27a5ab10849f4
:10956000012220460a601a7001f042fb2046bde845
:10957000104001f02fbb10bdd9270120246000202e
:10958000005000401fb5734bd3f8040150b1d3f81d
:10959000040310f0020005d00022c3f80421bff339
:1095a0004f8f0220d3f808217ab1d3f80423510752
:1095b0000bd50022c3f80821bff34f8f90420cbf98
:1095c00001200320fff76aff01e00028fad1614b78
:1095d000d3f81821a2b3d3f80423520630d50021c2
:1095e000c3f81811bff34f8f402201910092d3f8b6
:1095f00010250392d3f82425c2f30b02103ac2f3cc
:10960000cc020292d3f828217ab1d3f80423500572
:109610000bd5d3f80c2402f00d020192c3f82811e7
:10962000bff34f8f0d22c3f80c244b4b5b680bb17b
:1096300068469847474b0022c3f80c21bff34f8f71
:10964000444bd3f81021aab1d3f80423d10611d585
:109650000022c3f81021bff34f8fcde901220392fe
:10966000102200921822c3f808233b4b5b680bb111
:1096700068469847374bd3f84c214ab3d3f80423b4
:10968000120325d50022c3f84c21bff34f8fc3f836
:109690001821bff34f8fc3f82821bff34f8fc3f8b2
:1096a0000c21bff34f8fc3f81021bff34f8f0d2153
:1096b000c3f80c140121c3f804144ff400230093e1
:1096c000254b03925b68cde901220bb168469847b0
:1096d000204bd3f81c21f2b1d3f8042310061ad57d
:1096e0000022d3f80414c3f81c21bff34f8fcde937
:1096f00001220392c9074ff08002009207d5012290
:10970000c3f80424144b5b680bb168469847114baf
:109710000122c3f804240f4bd3f80c21bab1d3f8bb
:109720000423120713d50022c3f80c21bff34f8f77
:10973000094a52685ab108210091d3f810150291d4
:10974000d3f81c35c3f3c80301936846904705b0ae
:109750005df804fb00500040dc27012000f1804050
:1097600000f5e830002382b0036003680193019b99
:1097700002b070471fb53c493c4cd1f80021002a8b
:1097800047d04ff48070fff7e9ffa37cda4302f083
:10979000010204eb8201496811b9617c02292dd1d3
:1097a000607c022818bf04eb83034ff000010bbf5d
:1097b00001235868637459604ff001038df80c1051
:1097c000e1740ebf02910290a2748df804302368f8
:1097d00001a89847637c022b01d101236374237d88
:1097e00053b101238df80430002302938df80c301f
:1097f000237501a82368984704b010bde37c002bb3
:10980000e8d18df80430029301238df80c30e37415
:10981000dde7d1f80431002be1d04ff48270fff77f
:109820009dffc1f80025a37c627404eb83038df8cf
:109830000c2059688df8042021b15a6002912368e8
:1098400001a89847a37cdb4303f0010304eb8303e7
:109850005a682ab1029200225a6001a823689847e8
:109860000023a374bbe700bf00d00140ec27012018
:1098700000f1804000f5c040002382b0036003681f
