:020000041000EA
:10100000FFFFFFFFFFFFFFFFFFFFFFFFFFFFFFFFF0
:10101000FFFFFFFF00400F00FFFFFFFFFFFFFFFF8D
:10102000FFFFFFFFFFFFFFFFFFFFFFFFFFFFFFFFD0
:10103000FFFFFFFFFFFFFFFFFFFFFFFFFFFFFFFFC0
:10104000FFFFFFFFFFFFFFFFFFFFFFFFFFFFFFFFB0
:10105000FFFFFFFFFFFFFFFFFFFFFFFFFFFFFFFFA0
:10106000FFFFFFFFFFFFFFFFFFFFFFFFFFFFFFFF90
:10107000FFFFFFFFFFFFFFFFFFFFFFFFFFFFFFFF80
:10108000FFFFFFFFFFFFFFFFFFFFFFFFFFFFFFFF70
:10109000FFFFFFFFFFFFFFFFFFFFFFFFFFFFFFFF60
:1010A000FFFFFFFFFFFFFFFFFFFFFFFFFFFFFFFF50
:1010B000FFFFFFFFFFFFFFFFFFFFFFFFFFFFFFFF40
:1010C000FFFFFFFFFFFFFFFFFFFFFFFFFFFFFFFF30
:1010D000FFFFFFFFFFFFFFFFFFFFFFFFFFFFFFFF20
:1010E000FFFFFFFFFFFFFFFFFFFFFFFFFFFFFFFF10
:1010F000FFFFFFFFFFFFFFFFFFFFFFFFFFFFFFFF00
:10110000FFFFFFFFFFFFFFFFFFFFFFFFFFFFFFFFEF
:10111000FFFFFFFFFFFFFFFFFFFFFFFFFFFFFFFFDF
:10112000FFFFFFFFFFFFFFFFFFFFFFFFFFFFFFFFCF
:10113000FFFFFFFFFFFFFFFFFFFFFFFFFFFFFFFFBF
:10114000FFFFFFFFFFFFFFFFFFFFFFFFFFFFFFFFAF
:10115000FFFFFFFFFFFFFFFFFFFFFFFFFFFFFFFF9F
:10116000FFFFFFFFFFFFFFFFFFFFFFFFFFFFFFFF8F
:10117000FFFFFFFFFFFFFFFFFFFFFFFFFFFFFFFF7F
:10118000FFFFFFFFFFFFFFFFFFFFFFFFFFFFFFFF6F
:10119000FFFFFFFFFFFFFFFFFFFFFFFFFFFFFFFF5F
:1011A000FFFFFFFFFFFFFFFFFFFFFFFFFFFFFFFF4F
:1011B000FFFFFFFFFFFFFFFFFFFFFFFFFFFFFFFF3F
:1011C000FFFFFFFFFFFFFFFFFFFFFFFFFFFFFFFF2F
:1011D000FFFFFFFFFFFFFFFFFFFFFFFFFFFFFFFF1F
:1011E000FFFFFFFFFFFFFFFFFFFFFFFFFFFFFFFF0F
:1011F000FFFFFFFFFFFFFFFFFFFFFFFFFFFFFFFFFF
:101200001200000012000000FFFFFFFFFFFFFFFFC2
:10121000FFFFFFFFFFFFFFFFFFFFFFFFFFFFFFFFDE
:10122000FFFFFFFFFFFFFFFFFFFFFFFFFFFFFFFFCE
:10123000FFFFFFFFFFFFFFFFFFFFFFFFFFFFFFFFBE
:10124000FFFFFFFFFFFFFFFFFFFFFFFFFFFFFFFFAE
:02000004000feb
:1040000000f0032021420f0061420f00f5470f002e
:1040100065420f000d480f0021480f00000000000e
:104020000000000000000000000000006b420f00d4
:104030006d420f00000000006f420f0079480f0032
:1040400025a70f0073420f0039b80f0009b80f0001
:1040500015b80f00319d0f000da40f004da70f00e4
:10406000a9b40f00bdb40f00d1b40f00b1ac0f0064
:1040700073420f00b9b60f0073420f0073420f0076
:1040800009b40f00c1ac0f0049b70f002db80f00e5
:1040900025b70f002bb70f0031b70f0037b70f0050
:1040a0003db70f0043b70f00e5b40f00f9b40f00a0
:1040b000bdab0f00219f0f000000000000000000ba
:1040c00073420f00cdab0f00ddab0f0021b80f0026
:1040d000d1ac0f00f9b20f0073420f009d980f0092
:1040e00011b60f00a9b20f0073420f0000000000cc
:1040f00000000000edab0f0000000000a9b60f00ab
:1041000000000000000000000000000000000000af
:10411000000000000000000000000000000000009f
:10412000000000000000000000000000000000008f
:10413000000000000000000000000000000000007f
:10414000000000000000000000000000000000006f
:10415000000000000000000000000000000000005f
:10416000000000000000000000000000000000004f
:10417000000000000000000000000000000000003f
:10418000000000000000000000000000000000002f
:10419000000000000000000000000000000000001f
:1041a000000000000000000000000000000000000f
:1041b00000000000000000000000000000000000ff
:1041c00000000000000000000000000000000000ef
:1041d00000000000000000000000000000000000df
:1041e00000000000000000000000000000000000cf
:1041f00000000000000000000000000000000000bf
:1042000000400f005efb0f0000001d0c0c000200c0
:10421000000000000000000000000000000000009e
:104220000b490c4a0c4b9b1a03dd043bc858d05079
:10423000fbdc0949094a0020521a02dd043a885081
:10424000fcdc07f059fb00f057fa00f057f80000cb
:10425000b4f60f00005c002038600020142b012011
:10426000fee7fee7fee7fee7fee7fee7fee7fee726
:10427000fee7fee7430803f05533c01a830803f056
:10428000333300f03330184400eb101000f00f30df
:1042900000eb002000eb0040000e7047034613f8cf
:1042a000012b002afbd1181a0138704781f30888c6
:1042b00000470000084b094a1b7830b101211170fa
:1042c00043b94ff0ff1004f0c5b9107013b9e720df
:1042d00004f044ba704700bf3d6000203e600020fb
:1042e00038b5044c044dac4200d338bd54f8043bff
:1042f0009847f8e788f60f0090f60f002de9f04f89
:1043000085b003f0b9fa00f037fd042001f044fe57
:10431000b44bb54c187003f0c3fb00f0bcfab34bc0
:1043200001221a7003f01afc04f0e8f8a38840f6a2
:104330001d40834201d003f04ffca37c1bb100233e
:10434000a37403f027fcaa4d4ff420332b6023897c
:10435000052b27d1a74b01221a70a2894af6aa235e
:104360009a4204bfa44b01224ff0010008bf1a700b
:1043700000f014fa80b2adf80a00bdf80a304ff62a
:10438000ff719bb28b4200f08880bdf80a304ef678
:10439000fa529bb293420ed1984b0120187000f054
:1043a000f3f931e045f255529342d6d1914b0022b8
:1043b0001a70934bcfe7bdf80a3045f6fe229bb248
:1043c000934202d18f4b0120e8e7002004f0a4f8cb
:1043d000d0b1bdf80a309bb2022b4ed0032b56d081
:1043e000012b57d1864a1370bdf80a3001339bb2b6
:1043f000adf80a30bdf80a10012089b200f0c4f906
:1044000003f0e2fb04f092f8002000f0f1fc7e4e95
:10441000002849d13378dff8ec814bb10027012324
:10442000a371e77103f0b6fb744b1f7088f800703e
:1044300098f800301bb10123a37403f0abfbdff845
:10444000b4816d4f98f80030012b40f09e804ff002
:10445000ff1004f0fff803f0b5fb694a6b48002336
:104460003b70137088f80030337004f0f3f8634b3e
:1044700001221a7001f06afbfee75f4b01221a70fd
:104480000023a371e371bdf80a301344afe75b4b1f
:1044900001221a704ff6ff73aae70120adf80a0057
:1044a000bdf80a1089b27ae703f01afddff86891c7
:1044b000dff84481dff844a142f6e0630746c9f81b
:1044c0000030002000f094fc0028a3d0d9f8003080
:1044d000002b9fd0337803f0ff0063b900f098fc05
:1044e00042f21073984206d96ff07f4004f0b2f8a0
:1044f00001233370e5e798f8003003f0ff0ba3b910
:10450000584600f085fc41f6641398420dd9002fff
:10451000d7d04ff47f4004f09df8012384f806b013
:1045200084f807b088f80030cbe79af8003003f041
:10453000ff0063b900f06cfc40f6b733984206d92f
:10454000324804f087f801238af80030b9e7dff831
:10455000b4b09bf8002002f0ff03002ab1d1184646
:10456000019300f055fcb0f57a7f019ba9d3214a55
:1045700088f800301370224a4ff0ff10137004f0d7
:1045800069f801238bf800309be73b78002b45d07e
:104590003b78012b21d1e388012b0cbf6ff07f40ca
:1045a0004ff47f4004f056f803f0f6fa0146002875
:1045b0007ff453af286800f0a1f800283ff44daf16
:1045c000bff34f8f1249134bca6802f4e0621343e2
:1045d000cb60bff34f8f00bffde700233b7003f0bc
:1045e000a7fa3ae73d600020c0f30320ec25012044
:1045f000386000203e6000203c6000204c600020bd
:104600003f600020416000204060002000ffff006c
:1046100000ed00e00400fa0544600020124b1b7816
:1046200003f0ff02002b7ff418af1048019203f053
:10463000ddfe0328019a03d11146462000f0c4f89c
:10464000286803a900f05af800283ff406af41f2a9
:10465000883003f0ddfa03f049fa039b58681968c3
:10466000fff724fef9e600bf4c600020b5420f00c2
:1046700010b5184b1a6812b11a68013a1a60164b35
:104680001b782bb9154c236833b12368013b236099
:10469000bde8104001f0a4ba114b124a1b78127801
:1046a0001343114a1278134302d1104b1b7823b1e4
:1046b000e72004f06bf83223e9e70d4b1b781bb9b8
:1046c0000c4b1b78002be3d0e72004f05ff8642349
:1046d000dde700bf446000203d600020486000200e
:1046e0003c6000203f6000203e60002040600020d1
:1046f000416000204c600020fff7f2bd38b5024653
:1047000004460d460146002003f05bfca8b94ff4b7
:1047100040321146002003f054fce8b14ff4403120
:10472000002003f037fc4ff440310246002003f034
:104730006cfc88b14ff440340ae02146002003f0bd
:1047400029fc21460246002003f05ffc0028ded051
:1047500005b12c60012000e0002038bd07b5002322
:104760000df107008df8073007f092fb9df8070068
:1047700003b05df804fbc0b207f098bb07f088bb3c
:1047800007f094bb70477047013809289cbf024b63
:1047900043f82010704700bf80f303200138092838
:1047a0009abf034b53f820004ff0ff30704700bf13
:1047b00080f3032020b1034b800143f0010318472d
:1047c000704700bf10eb0f00bff34f8f0549064b3a
:1047d000ca6802f4e0621343cb60bff34f8f00bf9f
:1047e000fde700bf00ed00e00400fa0572b600200e
:1047f000704700001ef0040f0cbfeff30880eff3ca
:1048000009808169004a104735480f0008b5034afe
:104810000021042003f0aafefee700bfb5470f0009
:1048200008b5034a0021052003f0a0fefee700bf03
:10483000b5470f0000b589b0036800934368019342
:1048400083680293c36803930369049343690593e0
:1048500083690693c3690793054b996a11f0007148
:1048600001d0fff7ddff034a012003f07ffefee7e2
:1048700000ed00e0b5470f0008b503f0fdf904f0c6
:10488000d5f8fff7f5febde8084000f0e1b90020db
:1048900070470020704770474268436902b10222a6
:1048a0001a70704713b50f4c13462278bab901221b
:1048b000227000940a4601460b4807f0f8f958b9ef
:1048c0002378012bfcd02078003818bf012040420b
:1048d0000023237002b010bd4ff0ff30f8e74ff017
:1048e000ff30f7e74d600020005c002010b5fff7b7
:1048f00049ff06490648002207f0cbf90446fff7b6
:1049000042ff201e18bf0120404210bd04f40f00da
:10491000005c00207fb5cde904100392fff732ff61
:1049200000230193074b0093dde90321064b059813
:1049300001f0b1fb0390fff726ff039807b05df885
:1049400004fb00bf89600f00a5480f0073b5174c2a
:1049500001910546fff716ff237803f0ff06fbb928
:10496000012325f47f612370019a1148234621f029
:104970000f0107f0caf938b126706ff00104fff794
:1049800002ff204602b070bd2378012bfcd02378b3
:1049900003f0ff003bb1002323706ff00204eee749
:1049a0004ff0ff34ebe70446e9e700bf4d6000201d
:1049b000005c002013b50446cde90021fff7e2febc
:1049c000009a0198214609f0e3fffff7dcfe002082
:1049d00002b010bd08b5054b588b02f024fa012334
:1049e00003fa00f0013880b208bd00bf145c00205b
:1049f00038b518220b4b50431d181b5c012b0c467d
:104a00000fd12b79d9070cd5fff7e4ff2a7903469c
:104a100092072146688848bf191bbde8384002f05c
:104a200091ba38bd145c002070b50d4606460146ab
:104a300001201446fff7dcff29460220fff7d8ffcc
:104a400021460320fff7d4ff31460520fff7d0ffb2
:104a500029460620fff7ccff21460720bde870401d
:104a6000fff7c6bf70b5184e0546fff7b3ff337f9b
:104a700013f0020f0446708b1cd002f0cff9201afd
:104a800080b2288096f83430708e13f0020f14d064
:104a900002f0c4f9231a98b2688096f84c30b6f840
:104aa0004a0013f0020f0bd002f0b8f9241aa0b29a
:104ab000a88070bd02f0b2f9e3e702f0aff9ebe7ce
:104ac00002f0acf9f4e700bf145c0020064a137949
:104ad00003f0020310b91bb9002102e0002bfbd147
:104ae0000121508801f090bf145c002070b50328ac
:104af00086b005461ed9031f182202fb03f469463f
:104b000004f64f6002f006fc60bb9df80030ff2bfe
:104b100028d09df80430db0724d5134b6a46234484
:104b200006ae144603ccb44218605960224603f125
:104b30000803f6d118200d4b45435e195c5d012c2e
:104b400010d17088214601f04dff3379708813f041
:104b5000020fc3f3400118bf214606b0bde8704004
:104b600001f052bf06b070bd745c0020145c0020e0
:104b7000f8b5094d00242f46182606fb04731b794f
:104b8000db0702d5688802f0bbf80134082c05f178
:104b90001805f2d1f8bd00bf145c0020704700007a
:104ba0001fb50023adf80d308df80f3006230246f7
:104bb0008df80c304001084b0129185a03eb4214c0
:104bc00007d103ab0093a378044902f0edf904b0d8
:104bd00010bd02f0c9fafae7d45c0020114c0f00b6
:104be000094b03eb401200219180da783ab993f82f
:104bf000233003f0ff0213b9044b1a705a600121ed
:104c0000c0b2fff7cdbf00bfd45c002050600020d1
:104c1000084bc0b203eb401310b50021012499806a
:104c2000dc70fff7bdff044b1a7812b90a221c7022
:104c30005a6010bdd45c00205060002008b54001cf
:104c4000024b185a01f012ffc0b208bdd45c00201c
:104c500010b5294b1a78002a49d05a68002a46d044
:104c60005a68013a5a605868002840d1234c0a22f9
:104c70005a60e378f3b1fff7e1ffd8b9a3889bb29c
:104c80001bb9a3880a339bb2a380a3880a339bb2c3
:104c9000a380238cff2b2ad094f8233093b994f867
:104ca000233023b3002384f823300120bde81040d3
:104cb000fff796bfe378002bebd00020e070fff702
:104cc0008fffe6e70120fff7b9ff94f822305a1e64
:104cd0005342534183420bd1a38c9bb21bb9a38c8b
:104ce0000a339bb2a384a38c0a339bb2a38410bd66
:104cf000238cff2bd3d1fae750600020d45c002036
:104d00002de9f0411a4c227805460f4602f0ff03c8
:104d10000ab923706360174e06eb45134fea451836
:104d20009b7836f80800012b0cbf0321022101f00b
:104d300059fe012f03d139462846fff731ff36f8d7
:104d40000830ff2b06eb08070fd02846fff776ff49
:104d5000bb785a1e53425341834206d10123fb7054
:104d6000227812b923700a236360bde8f08100bf86
:104d700050600020d45c002030b589b02022002192
:104d8000684609f02dfe2022694640f62f6002f0a9
:104d9000c1fa9df80330aa2b1bd1bdf804304bf6a5
:104da000cc329bb2934214d10b4c6b4608ad1a46e1
:104db00003caaa4220606160134604f10804f6d1d8
:104dc000064b0022012183f8232008469a84fff72e
:104dd00097ff09b030bd00bff45c0020d45c002018
:104de000024b00221a705a6002f0dcb850600020ba
:104df000064901eb40130246db78d8b22ab90b8c86
:104e0000ff2b1cbf91f8233018437047d45c00205f
:104e1000084a02eb401301469b8898b241b9138cb3
:104e2000ff2b05d0938c9bb2834284bf908c80b2c1
:104e3000704700bfd45c002000487047145d00201c
:104e40001fb50a4b01934ff080531a6e02925b6eae
:104e5000039338b131b10c290a4628bf0c2201a9ad
:104e600009f096fd0c2005b05df804fbe00fce685c
:104e700038b500f581552c460c34a54207d055f8bd
:104e8000040b0028f9d00368db689847f5e7002099
:104e900038bd4ff0ff3070474ff0ff3070474ff094
:104ea000ff30704700f5805300f581505b8e0b801a
:104eb0001030704738b515468a1f042a1ad809d110
:104ec00000f5825401221d341a702046fff7e6f9de
:104ed00028800de001f2024150f8214044b1012246
:104ee0001a70236820465b6a984704460028edd173
:104ef000204638bd0024fbe70a23c37300f5825027
:104f0000ff221d3009f09abdf8b5184b00f581520b
:104f100000f58057c0e9003100230372c0f80a3061
:104f2000c3810361c2e900339360fb62104b044606
:104f30000d4607f1300203f1280c1868596816462f
:104f400003c6083363453246f7d118681b793060d1
:104f50003371ff22002107f15d0009f041fd2b684c
:104f600021461b68284698472046f8bd40ec0f00b4
:104f700088ea0f001fb58b884068042b07d10368af
:104f80000e4a9c69cb88a047002004b010bd052bb9
:104f90000fd18a78cb881ab902689469084af2e777
:104fa0000022cde90122adf80c200268946901aa23
:104fb000e9e703681b6a9847e6e700bff2eb0f00da
:104fc00060eb0f0010b5024648780a280b4611d056
:104fd0000b2815d006281dd14b881b0a212b07d181
:104fe0005068036802f582529c6914320923a04775
:104ff000002015e05068036808329c690123f6e739
:105000004c88022c06d85068147203689c690023ef
:105010001a46ece7506802681946126a9047012068
:1050200010bd38b51d460a2304468172437283734e
:1050300022b14068036800211b6a98472db12946b8
:105040002046bde83840fff757bfe57338bd38b597
:10505000427a092a044617d80123934013f41b7f90
:1050600012d002234372c381406803689d69002304
:105070001a46a847606803685b6a984760680368d7
:105080009b6a9847002038bd002301220e2120464c
:10509000fff7c7fff6e710b5437a022b024601d0af
:1050a000052b18d10b68c2f816304b68c2f81a30bd
:1050b000938b506843b103245472d4810468e4692b
:1050c0002032a047002010bd06245472d48102680b
:1050d00094691a46f5e7002301220e21fff7a1ff8c
:1050e000f0e710b5437a0a2b0bd102234372c38138
:1050f000002383724068026894691a46a047002022
:1051000010bd002301220e21fff78bfff7e738b512
:10511000437a042b02d0073b012b06d8002301223f
:105120000e21fff77eff002038bd4468236800f1a0
:105130000e029d6920460123a847f4e72de9f041be
:10514000437a022b04460d4601d0092b57d12b6818
:10515000c4f816306b68c4f81a30238b83b92a4b15
:105160002362fb2384f82430606802236372e381a6
:10517000036804f120029e6905232946b0471be01d
:10518000012b2dd009266672e681002003f02efb4c
:10519000012804f1200712d10b23a3720a236372a2
:1051a000a37320461949fff7a7fe606803683a46d3
:1051b0009c6929460023a0470020bde8f081237a9e
:1051c000228b216903f58163023a54f823000368b6
:1051d00001eb0232d3f81480a38b3946c04730b1bb
:1051e000002301220e212046fff71bffe4e7606841
:1051f0006672e68103683a469e69a38bbde7002389
:1052000001220e21f0e700bf002141fa1aec0f0045
:1052100070b5437a062b04460d4636d0072b3ad09c
:10522000032b3ad1838b63b304234372c3810020e1
:1052300003f0dcfa01280fd1238b23b994f8203036
:10524000fa3b012b08d90b23a3720a231b49637273
:10525000a3732046fff750fe237a227d03f5816376
:1052600004f10a0154f8230003681b6a9847606838
:10527000036804f10a029e6929460623b04700200c
:1052800070bd05236372e381f1e707234372c38195
:1052900000238372ebe70823f4e70a2b06d80122e8
:1052a00002fa03f340f2ef621342e0d1002301223d
:1052b0000e212046fff7b5fee1e700bf1aec0f0014
:1052c000ff2303750023c0f81630c0f81a3000f52c
:1052d0008050c362704738b50021044602234372f0
:1052e000c381817204f58155fff7eaff21612c46e5
:1052f0000c34a54207d055f8040b0028f9d00368f8
:105300009b689847f5e7002038bd10b5427a092a16
:10531000044612d80123934013f41b7f0dd00223bf
:1053200000224372c3818272fff7caff606803687c
:105330009c691346a047002010bd002301220e21c6
:105340002046fff76efef6e708b54b78062b21d80e
:10535000dfe803f004080c1014181c00bde8084036
:10536000fff775bebde80840fff795bebde80840f1
:10537000fff7e4bebde80840fff74abfbde80840bc
:10538000fff7afbebde80840fff7c1bebde808406b
:10539000fff7bbbf406803681b6a9847012008bd40
:1053a00008b50b884ef6c162934206d18b88052b57
:1053b0000ad1bde80840fff7ddbd4ef6c06293425a
:1053c00002d18b88042bf3e70b7813f0600fc3f343
:1053d000411207d0012a09d0406803681b6a984728
:1053e000002008bdbde80840fff7ecbdbde808405f
:1053f000fff7aabf38b5437a042b044604d0072b25
:1054000000f08d80002038bd058b002d5bd1828b94
:10541000002a7ad090f820300375922b4fd009d80b
:10542000212b0fd0412b16d0002bebd000230122d3
:105430000f2168e0fa2b39d0fb2bf7d103f09afa51
:10544000052339e0052a5bd1d0f82130036142728f
:10545000c281a572d6e7052a21d1284603f0c6f9f4
:10546000012809d10b23a3720a2331496372a37364
:105470002046fff741fdc5e7237ad4f8211003f554
:1054800081632a4654f823000368db6998470028a3
:1054900036d105236372e3810023a372b2e7012aa8
:1054a0002ed12b461146fff7bcfdabe745f6fe219a
:1054b0000120fff769f906236372e381c9e72b46f0
:1054c00001220e21efe7012d1fd0002003f08ef9fd
:1054d0000128c7d0237a228b216903f58163023a20
:1054e00054f82300036801eb02329d69a38b04f199
:1054f0002001a8470028ccd06ff4e1639842b1d0d6
:10550000002301220e212046cde701222046002360
:105510001146fff786fd2046fff7d2fe72e708230b
:1055200000f580544372c3814ff4fa73e36269e774
:105530001aec0f0002299dbf01f5816140f821207e
:1055400001200020704710b50446fff707f9637a81
:10555000082b0cd104f58053dc6a24b1013cdc62d9
:10556000b4fa84f46409fff706f9204610bd00245c
:10557000f9e770478160002070474ff0ff307047b7
:105580004ff0ff3070474ff0ff307047f0b59df897
:10559000146001b112b900201880f0bdbeb9541cce
:1055a0006400b4f5807f88bf7f22541c032564000b
:1055b000c575847505460a4411f8017b2f768a4229
:1055c0006e7605f10205f7d11c801630e5e7941cd4
:1055d000b4f5807f88bffe22941c0325c5758475b1
:1055e00000f118050a4411f8016b05f8016b9142ae
:1055f000f9d1e9e7012003f0e5be04f043ba04f075
:1056000058b87fb51c46cb881646d3b1a5b29d428b
:1056100028bf1d46a34212d9802003f05bffb4fbd4
:10562000f0f303fb1044b4fa84f4640901a9802068
:10563000cde90165039403f053ff04b070bd00246d
:10564000f4e704b0bde8704004f030b87fb51c4604
:10565000cb880d4616467bb103f0e6ffa4b2eb887b
:105660000196002001a90390a34294bf02930294e3
:1056700003f036ff04b070bd04b0bde8704004f024
:1056800015b8000038b50e4d2c78bff35b8f14f0c1
:10569000010413d1284600f09ffc78b1094b0a4a57
:1056a0001a604ff080722846c3e903241c719c6085
:1056b0009c8200f096fc054809f054f9014838bd79
:1056c000586000205c600020b8ec0f0073550f009c
:1056d00038b50446fff7d6ff012c054609d0022c49
:1056e00016d0ecb903f098fed0b9bde8384003f00d
:1056f000bdbd03f0dbff2c7103f098fe08b104f090
:10570000c1f903f089fe58b1bde8384004f0d8b9ba
:1057100003f08cfe20b9bde83840012003f052bef2
:1057200038bd0000f0b5054693b0fff7abff2b780e
:105730000446062b16d8dfe813f007000f0013000d
:10574000170017001900ad01806858b103685b6944
:1057500013b0bde8f040184703f0a8ff012300e0b4
:105760000323237113b0f0bd0223fae704ae3046e1
:1057700003f038ff96e8030006ad85e803009df8c6
:10578000183003f01f02012a00f03081022a00f0d5
:105790003a813ab913f0600fc3f3411205d0032ade
:1057a00040f0288103f085ffdce79df81930092bd4
:1057b000f8d801a252f823f0e1570f00f9570f0073
:1057c000a5570f00f9570f00a5570f005d570f00a1
:1057d0000f580f00a5570f007f590f0099590f0060
:1057e0002379013b012bddd8022304f10c02294669
:1057f0002046fff706ffb5e72379013b012bd1d8ff
:10580000bdf81a30012bcdd103f050ffaae7bdf847
:105810001a100a0a0023022aadf80e3013d0032a08
:105820001ad0012abed1a38a2069adf80e30002813
:10583000b8d0bdf80e30002bb4d0bdf81e20002a21
:10584000b0d00246d3e7a0680028abd003680df1c2
:105850000e011b6a9847eae7c9b2052907d8013942
:10586000042920d8dfe801f0296530656500ee29bc
:1058700066d0fa296bd0a068002893d001228df859
:105880002020adf82c3003680baa5e6a08abb04745
:105890009df82030bdf82c2083f0010300930146d1
:1058a0000df10e0305e00123a149009302220df141
:1058b0000e032046fff76afeb9e7002300939d49d7
:1058c0000df10e030822f4e70026152231460ca83c
:1058d0000b9609f085f80c2108a8cde908660a9610
:1058e000fff7aefa0bab08aa1946b0421bd012f86c
:1058f000017b4fea171e0ef1300cbcf1390f88bf47
:105900000ef1570c07f00f0783f800c007f1300cb9
:10591000bcf1390f03f1020388bf07f1570c03f8fc
:1059200001cc0136e1e70023009318220df10e03ac
:10593000bfe70023009380490df10e030e22b8e764
:10594000012300937d490df10e031022b1e71846a3
:10595000cde90b3302f04aff78b903f02df8784b0c
:10596000784a002808bf13461b680b930023009356
:1059700008220df10e030ba99be7734bf5e7237982
:10598000012b06d0022b7ff40daf012304f10e0290
:105990002de704f10f022ae72379012b0fd0022b08
:1059a0007ff400afbdf81a10d9b9a06801232371a4
:1059b00000283ff429af03685b68984724e7bdf8e7
:1059c0001a1000293ff420af02232371a068002899
:1059d0003ff4e8ae03681b68984700283ff414af13
:1059e000e0e6a37b8b423ff40fafefe72379022b76
:1059f0007ff4d8aea06800283ff4b4ae036829460f
:105a00009b689847aee69df819309df81c00012b65
:105a100016d0032b2dd0002b7ff4c4ae2379012b9d
:105a200009d0022b7ff4beae03f0dafd224602233a
:105a300022f8160fdbe64106f6d003f0c5fdb1e60d
:105a40002379012b20d0022b7ff4acaebdf81a30a5
:105a5000002b7ff4d9ae42063ff4d6aea368002bec
:105a60003ff4d2ae04f046f8a068036829469b686c
:105a7000a3e72379012b07d0022b7ff493aebdf867
:105a80001a30002b7ff4c0ae43063ff4bdae03f0e6
:105a90009bfdb9e695f90230a978002b2ada802916
:105aa00020d1eb78b3b94ff08053d3f83021082ad6
:105ab00004d1d3f834310bb103f0f8fda06800280d
:105ac0003ff450ae0368db69a978002213b0bde84b
:105ad000f0401847032b3ff445ae13b0bde8f0404b
:105ae00003f0e7bd806800283ff43cae0368db6943
:105af0000022ebe7a1b9eb78002bebd14ff08053fc
:105b0000d3f83021082a04d1d3f834310bb103f093
:105b1000cdfda06800283ff425ae03689b69d3e75c
:105b2000806800283ff41eae03689b69e0e700bf71
:105b300072ec0f0075ec0f007eec0f008dec0f0087
:105b400068ec0f006dec0f00736d3d7013b5fff73f
:105b500099fd1b4b0361122383821a4a00210446dc
:105b60001948fff7e7fc194a17480121fff7e2fc43
:105b7000174a15480221fff7ddfc164803f06afcbe
:105b800020b1154a00210a2002f0f0fc402100203b
:105b900003f05afc8020402103f056fc03f086fd00
:105ba0000123237101a80d4b019306f047f820b1a2
:105bb000094a00210a2002f0d9fc02b010bd00bf42
:105bc0009dec0f00dc7200207861002074610020e1
:105bd000d472002025570f00b5470f00d1560f0093
:105be00008b50648fff7affc38b1fff74bfd03f0ef
:105bf00049ffbde8084001f09bbf08bd7861002067
:105c000008b5fff73ffd01460648fff77df9064856
:105c100000f0aef9054800f0b1f9bde808400448cd
:105c200000f0b2b978610020dc72002074610020bd
:105c3000d4720020704700207047b1f5801f06d84d
:105c40001144b1f5801f8cbf002001207047002057
:105c500070470020c8708870487070477047b1f571
:105c6000804f06d81144b1f5804f8cbf0020012031
:105c700070470020704700207047704710b504211e
:105c8000044600f09df9204610bd10b504210446dd
:105c900000f096f9204610bd10b50821044600f02a
:105ca0008ff9204610bd13b50c4611461a460368fd
:105cb000cde900121b69984738b1dde90012204692
:105cc00008f066fe002002b010bd0120fbe70000d6
:105cd00008b5002002f08afd034a044b012814bfd6
:105ce0001046184608bd00bfe4ec0f0035ed0f006c
:105cf00008b5002002f07afd034a044b012814bfc6
:105d00001046184608bd00bf86ed0f00a7ed0f0036
:105d100008b5002002f06afd034a044b012814bfb5
:105d20001046184608bd00bfc8ed0f00f1ed0f008a
:105d300037b514461a46036801920d461b69214681
:105d4000984738b1019a2946204603b0bde8304053
:105d500001f0e0ba012003b030bd13b50c46114686
:105d60001a460368cde900121b69984738b1dde98e
:105d70000012204602b0bde8104001f000bb012037
:105d800002b010bd08b5002002f030fd18b9bde822
:105d9000084002f011be002008bd000008b54368ad
:105da0008b4212d8c91ab1f5800f0ed80a44b2f549
:105db000800f0ad8074ba1f51311994207d8fff7b6
:105dc000e1ff80f00100c0b208bd0020fce7012027
:105dd000fae700bfff6f1700f0b51e4603681446d0
:105de00087b00d461b6932462146984718b90125f0
:105df000284607b0f0bdfff7c5ffd8b9294632469f
:105e00002046fef787fd05460028f0d1b4f5342f73
:105e1000eed1172eecd92246214602f0d2f8002806
:105e2000e6d001214ff45420fef790fd051e18bf67
:105e30000125dde71b4b9c42e0d31b4a9442ddd297
:105e40009c421a4f02d01a4b9c4224d10123b6f532
:105e5000067f3b7022d318220021684608f0c0fd5f
:105e600000232a461946684602f04ef8b0b9bdf83c
:105e70000a2041f26f739a4210d93870c4f30b03b1
:105e8000002bbbd106f6ff71090b2046fef75efd25
:105e90000028b3d0abe73b78002befd06ff4e1657f
:105ea000a6e700bf0080020000400b00e072002067
:105eb0000000030010b503681b690c46984780b1c9
:105ec000fff760ff28b1094b9c4202d3084b9c426c
:105ed00009d301212046fef739fd003818bf012003
:105ee00010bd0120fce70020fae700bf008002009f
:105ef00000400b0073b514461a46036801920e4623
:105f00001b6921460546984740b16868019a3146a9
:105f1000201a02b0bde8704000f024ba012002b09f
:105f200070bd73b514461a46036801920e461b698c
:105f300021460546984740b16868019a3146201ac3
:105f400002b0bde8704000f0ebb9012002b070bdb6
:105f500038b503681b6904460d46984730b1606840
:105f60000121281abde8384000f04dba012038bda3
:105f7000014b0360704700bf54ee0f00014b0360fc
:105f8000704700bf84ee0f00024a02604ff00042eb
:105f90004260704724ee0f0013b50422002304462c
:105fa0000deb020140f2da60019301f0b3f9019bbd
:105fb0001c4054ea00030cbf0120002002b010bdb9
:105fc0007047000008b5034a00210a2002f0cefa0b
:105fd000fee700bfb5470f000078b0fa80f0400937
:105fe00070470123037070477047000010b5084cdc
:105ff000237853b9b2f5004f07d8064a0260064a23
:106000000a6001222270184610bd0448fce700bf58
:10601000f41d0120e4f20020e1720020fcfeffffed
:10602000014b00221a707047f41d012000207047b8
:106030002de9f34105460f461e46144612b320f0e3
:1060400003080422089b0deb02014046984720b14b
:106050004ff0ff3002b0bde8f081a8eb050004303e
:10606000844228bf044601aba5eb0800224639460e
:10607000184408f08dfc04220deb02014046b047a5
:106080000028e5d12046e5e708b50846ff2108f0dd
:10609000a7fc002008bd2de9f04fc3b08707ddf84d
:1060a000309105460e46144698460dd0cdf8009026
:1060b000fff7beff002804da4ff0ff3043b0bde821
:1060c000f08f05440644241a002c38d04d9b46ea34
:1060d000050202f0030203f00103134324f0030757
:1060e00013d147b13a4631462846c0470028e3d18c
:1060f0003d443e44e41bcdf80090434622463146e1
:106100002846fff795ffc017d8e7bb46bbf1000f45
:10611000f0d0bbf5807fda4628bf4ff4807a524634
:10612000314602a808f034fc524602a92846c0476e
:106130000028c1d1abeb0a0b55445644e6e7204694
:10614000bce72de9f047804600200e4691461c46ec
:106150008f0a0546a4b198b9a919c1f309016318ba
:10616000b3f5806f8cbfc1f5806aa24609eb0502ca
:10617000f8b25346c047a4eb0a0455440137e9e797
:10618000bde8f08708b50b4611460246184605f0f3
:1061900051f801f029f908bd074b10b50024c3f8e8
:1061a000004101241c60d3f80041002cfbd004f016
:1061b0001fff01f019f910bd0090024007b50b4612
:1061c0008df80000114668460022cdf802208df8b7
:1061d0000130fff7e1ff03b05df804fb02287fb553
:1061e000044616461d4637d8cb18b3f5406f33d852
:1061f0001a4b013418689b88adf80c30e4b201ebff
:10620000043400230193230c02908df8043002a87b
:10621000230a8df806408df8053004f023ff04466c
:1062200010b101f0e1f815e00d4b4ff4207043f090
:10623000010398470422234621460deb020004f097
:1062400041ff0028edd101232a46314604f03afff0
:106250000028e6d104b070bd0248fbe7b8ea0f00a1
:10626000b0ee0f00f2feffff08b5094b0022c3f8a5
:10627000002101221a60d3f80021002afbd004f08b
:1062800073ff1128fbd0bde8084001f0adb800bf96
:10629000009002402de9f04115460446884600f082
:1062a0009ffa002d0cbf4ff480574ff48037002623
:1062b000b4fbf7f47c43464511d02146284604f050
:1062c000e5ff38b101f090f8044600f08bfa204663
:1062d000bde8f081fff7c8ff3c440136ebe700243e
:1062e000f3e7000010b500f07bfa04f059ff4ff01f
:1062f000a0430322c3f844274ff40032c3f8082513
:106300000422c3f85427292005f0a2fd034b0024e2
:106310001c7000f067fa204610bd00bff61d01207a
:1063200030b585b00c460546039200f059fa04f0ea
:106330006043b3f1005318bf01230193074b039a45
:1063400000932146064b2846fff7a5fe0446fff7bb
:106350008bff00f047fa204605b030bd89600f0082
:1063600085610f002de9f7430e4606f1030929f078
:1063700003091446054600f033faa9eb0603a342cd
:1063800094bfe71a271b37f0030721d025f0030835
:1063900042463946484604f063ff40b101f024f814
:1063a000044600f01ffa204603b0bde8f0834e45d6
:1063b00001d1454509d0a8eb05010f44a5eb080123
:1063c0003a464944304608f0f1fa3d443e44e41b65
:1063d000002ce6d0291925f003080331a1eb0801b0
:1063e000424621f00301684604f03aff07460028c0
:1063f000d4d1a5eb080522460deb0501304608f087
:10640000c7fa3c46cde70022fff744bf2de9f04133
:10641000dff88480044698f800000d4616461f46b3
:1064200000f0e2f958b3012c2ed18268eb199342a7
:1064300028d84eb300f0d4f998f80030032b0bd1d4
:1064400012483b4632462946fff77bfe044600f0e1
:10645000c9f92046bde8f08121460022b120fff7ae
:10646000adfe044628b93a4631462846fff77aff82
:10647000044600220121c120fff7a0fee7e76ff0ec
:10648000a904e6e7024ce4e7024ce2e7dd610f0015
:10649000defefffff2fefffff51d01202de9f041ba
:1064a00086b00646ddf830800d461c4600f098f9af
:1064b000002e40f0b5806d4e6d4ff068338a02902b
:1064c0003878adf80c3000f08ff9002800f0a58086
:1064d000ab1e062b00f2ab80dfe803f0040831337b
:1064e00023a93500b9238df8083020e03b78032b31
:1064f00017d1ab238df8083001238df809302246df
:10650000002102a8fff748fe041e4cdbeb1e012b06
:1065100025d8584b4ff4a06043f00103984700245e
:1065200041e09f238df8083004238df80930002cba
:10653000e5d09df80930013b4345e0d907e0c37839
:10654000d1e76623cfe7387800f04ef90cb94a4c12
:1065500029e0b8f1030ffad9c3682360dfe7052dfe
:10656000ddd100229923114602a88df80830fff7eb
:1065700013fe041e17db3b78022b1ad0032b25d009
:10658000012bccd13d4bd6f812009b88adf81430ce
:10659000402304908df80430002201a904a8fff7dd
:1065a000fbfd041ebbda00f01df9204606b0bde875
:1065b000f081334bb0699a88adf814201b7af28bc6
:1065c0000490adf804208df80630e5e72b4bd6f8a3
:1065d00012009a88adf81420b6f821205b7c049054
:1065e000adf8042001a9002204a88df80630fff7b9
:1065f000d3fd041ed7db312300220df1050104a8d1
:106600008df81030fff7c8fd041eccdb11238df888
:10661000103000220df10601c0e76ff0a904c2e7b7
:10662000012e7ff47caf012d04d0072d11d06ff027
:106630007704b8e70e4b8df810501b78013b012b07
:10664000f5d804aa02212f20fff7b8fd00eae07474
:10665000a9e7074b187800f0c7f8002c3ff477af94
:10666000b8f1030f7ff673af836876e7b8ea0f00df
:10667000f51d0120b0ee0f00f2feffffcaea0f0089
:10668000d0ea0f00f0b54ff0a0434ff400320326dc
:10669000c3f844674b4dc3f8082504228fb0c3f8f4
:1066a000542700f09df80fcd04ac0fc400222b68d6
:1066b0002360114604a804f0affb0d28424d0ed113
:1066c0003446424e002716f8013b2b7000230097fa
:1066d0001a4604211846fff7e1fe013cf3d13c4b7a
:1066e00093f838308df80c300022022303242b70ed
:1066f000062103ab10460094adf80d20fff7cefe47
:1067000003a800f07bf806462870a0b92f4f17f8b1
:10671000013b2b70002300961a4603211846fff711
:10672000bdfe013cf3d103230093224603ab0621b7
:106730002046fff7b3fe03a800f060f82870002899
:106740003cd000f051f8044604f02afd214b002211
:10675000cde9092341f216714ff48033cde90b13d3
:106760001d4b0d93a378eb2b14bf002304238df84e
:106770002e306378322b14d0382b14bf0023032320
:106780000022114609a88df82f3004f045fb03467e
:1067900048b100f029fe044600f024f820460fb06e
:1067a000f0bd0223ece70d4a012111700090024672
:1067b0000521fff773fe00eae074ede76ff0a9042e
:1067c000eae700bfdcea0f00f51d0120545f00205e
:1067d000b8ea0f001311141500010700f61d01207f
:1067e00000207047002070470028034b08bf02209c
:1067f000013803eb00107047b8ee0f000378c22b8e
:1068000007d14378202b09d0282b14bf0020022069
:106810007047c82b14bf0020032070470120704729
:1068200003681f2b83bf03f01f03036001484ff071
:10683000a04070470003005007b5019001a8fff782
:10684000efff019a01239340c0f8083503b05df8cb
:1068500004fb38b50446fef7effa232c0dd82501ca
:1068600000eb0414405dff2806d06078ff2803d0b9
:10687000fef7e2fa2844807838bdff20fce70000ec
:106880002de9f34180460d46fef7d6fab8f1230f05
:1068900046d84fea081400eb0813025dff2a3fd0e8
:1068a0005b78ff2b3cd0002d3ad0fef7c5fa0719d4
:1068b0002e79035d7c78ff2e14bf0121002104f0a6
:1068c0001f04404644ea4314fef768f96b79db077e
:1068d0001fd506f0fb03012b01d0082e0ed1ab799a
:1068e0001bb12046fff7a8ff08e001a80194fff7bd
:1068f00097ff019a01239340c0f80c35082e0dd85c
:10690000082e0dd8dfe806f0200e2f380c410c0cb5
:106910005200052ee5d0082ef0d1e2e7ff2e56d02a
:106920002f481de06a8822b1eb79012b14bf0022a9
:10693000032201a80194fff773ff120242f0030241
:10694000019b03f5e07307e001a80194fff768ffde
:10695000019b002203f5e07340f82320be70002065
:1069600002b0bde8f08101a80194fff759ff019b37
:106970000c2203f5e073efe701a80194fff750ff45
:10698000019b042203f5e073e6e76b8863b1eb79c2
:10699000012b14bf0622072201a81202019442f023
:1069a0000102fff73dffcbe70622f5e76b8863b1f5
:1069b000eb79012b14bf0622072201a812020194d1
:1069c00042f00d02fff72cffbae70622f5e701a817
:1069d0000194fff725ff019b022203f5e073bbe75b
:1069e000f2feffff07b5074b8df804100022694641
:1069f000adf805208df807200093fff741ff03b0a5
:106a00005df804fb0800010073b505460e46fef76d
:106a100013fa232d22d82c0100eb0513025dff2a67
:106a20001cd05b78ff2b19d0fef706fa0319025d24
:106a30005c78db7804f01f04062b44ea421403d18f
:106a400001212846fff7ceff56b901a80194fff7b0
:106a5000e7fe019a01239340c0f80c3502b070bde7
:106a6000204602b0bde87040fff7e6be37b50446e9
:106a7000fef7e2f9232c02d9002003b030bd250136
:106a800000eb0414435dff2bf6d06378ff2bf3d0ab
:106a9000fef7d2f94219415d5378927803f01f0353
:106aa000082a43ea4113e7d840f22d11d140c90723
:106ab00008d4012ae0d101a80193fff7b1fed0f874
:106ac000040505e001a80193fff7aafed0f8100520
:106ad000019bd84000f00100cfe700001f2886bfcf
:106ae00000f01f00044b4ff0a04300f5e0700222bd
:106af00043f82020704700bf000300502de9f04ffd
:106b000085b00e4604461546fef796f93a490090c0
:106b10008e424ff02c0014fb00f028bf0e46374c7d
:106b200000f1220300f10c02042e00f1100004eb2e
:106b3000030e224438bf04260444002001964ff07f
:106b4000010c80464ff002094ff0030a4ff0040b8e
:106b500012f8013bff2b3cd0019e2949b1fbf6f115
:106b6000009e54f8207006eb0313de790cfa06f34e
:106b7000df1b012f34d0c7ebc73737fa06f605d035
:106b800006fb0116b6f5004f2cd3f60b05238df846
:106b90000d3006238df80e3007238df80f300901d4
:106ba00036018df808808df809c08df80a908df8af
:106bb0000ba08df80cb00023b1f5004f14d2a980c2
:106bc00004a90b44b6b213f8083c2e80ab702ef823
:106bd000106001300428bbd1002005b0bde8f08f63
:106be0000026d3e70126d1e70133082b4fea5101f4
:106bf0004fea5606e0d1ece720a10700585f0020dd
:106c000040420f0038b50546fef716f9ff2d18d0a3
:106c100000eb05122b015478c35cadb204f01f04e5
:106c2000284644ea4314fff714fe0128e4b206d1d3
:106c30002846fff71bff012801d144f080042046bd
:106c400038bd2c46fbe700002de9ff47dff87090c8
:106c50004ff02c0a0afb009407230026207b0396a2
:106c60004ff002080f46cde901668df80e808df8d1
:106c70000830fff7c7ff8df80400607bfff7c2ff05
:106c80008df80500a07bfff7bdff8df80600e07bc7
:106c9000fff7b8ffbb788df807008df80930324652
:106ca000bb88adf80c3001a9204603f067fe20b97f
:106cb00084f8208004b0bde8f0874ff0ff30f9e79a
:106cc000585f00201fb50023cde90133039304234f
:106cd000adf804302c23094c584300f1220323441f
:106ce0000093012202236946204403f025ff002877
:106cf00014bf6ff00100002004b010bd585f0020e9
:106d00002de9f3470646fef797f8232e60d83701a2
:106d100000eb06167379ff2b5ad0fef78df800ebc7
:106d20000708814698f8054098f80630032c4dd89e
:106d3000032b4bd8284d2c2000fb045a0aeb0302ee
:106d4000ff2111730b2202fb04330433002245f8a8
:106d500023209af82030022b05d1504603f0d0feb4
:106d600001238af8203098f8013019f8070003f061
:106d70001f0343ea4010fff7b1fe002388f80330f9
:106d80002c2303fb04531a7bff2a08d15a7bff2aca
:106d900005d19a7bff2a02d1db7bff2b16d0002383
:106da0000093adf804302c2303fb04556a46a96810
:106db0002046fff7a3fe002808db69462046fff7c0
:106dc00043ff002802db2046fff77cff0823f37116
:106dd00002b0bde8f08700bf585f0020232810b53f
:106de000044601d9002010bdfef726f800eb041080
:106df0004279ff2af6d008492c2303fb021393f8ab
:106e00002030022beed183790b2000fb02330433b8
:106e100051f82300e7e700bf585f002008b5fff7ef
:106e2000ddff80b208bd232810b5044605d8fef763
:106e300003f800eb0410c07910bd0020fce700004f
:106e400023282de9f74f05468946174659d83b4b6d
:106e5000043a9a4255d8fff7e6ff012606fa00f0f9
:106e600048454ed3fdf7e8ff00eb05104fea051b40
:106e70004379ff2b45d0fdf7dfff00eb0b02547980
:106e80009379032c3dd8032b3bd8dff8b4802c2119
:106e900001fb048101eb030c9cf80cc0654503d198
:106ea0008e68f61b18bf01264ff02c0a0afb048ad5
:106eb0000aeb0301caf808700d730b2101fb0433c0
:106ec0000433394648f82390537810f80b0003f048
:106ed0001f0343ea4010fff701fe00236a462046e5
:106ee0000093adf80430fff709fe002809db9af89b
:106ef0002030022b08d13eb92046fff7e3fe0028e0
:106f000016da03b0bde8f08f2c2000fb048696f85b
:106f10002030022b05d1304603f0f2fd012386f824
:106f2000203069462046fff78ffe0028e4dae8e7c4
:106f300006212846fdf732fee3e700bf1ca107004b
:106f4000585f00204ff4fa72fff77abf0a4b10b572
:106f50001c5cff2c0ed0fdf76fff00eb0410074bfd
:106f6000027a0c2101fb02335a681ab1bde81040c5
:106f70009868104710bd00bf16eb0f00f81d0120e8
:106f8000074a10b400230c24ff2004fb03f1013353
:106f9000092b8854f9d15df8044b03f087b800bf82
:106fa000f81d012003f016ba2de9ff470c9c054699
:106fb0009a460e461746fdf73fff00eb05182b01da
:106fc00098f80190c35c09f01f0949ea4319baf126
:106fd000010f4ff000035ffa89f9adf80d3068d06a
:106fe000baf1020f0cbf022303238df80c309df879
:106ff0000e30404a23f0060343f006038df80e30ae
:10700000039badf804301b0c8df80630019badf8e6
:107010000c301b0c8df80e30039badf80030694628
:107020001b0c48468df8023003f0aaf8042829d139
:107030000023baf1010fadf8093004d0baf1020f04
:1070400018bf4ff0030a9df80a308df808a043f0ee
:1070500004038df80a30029badf80c301b0c8df840
:107060000e30039badf808301b0c8df80a30029be4
:10707000adf800301f4a1b0c694648468df80230b7
:1070800003f07ef8d8b91c4a03460c2000fb03f13c
:107090008c5cff2c0fd15018c0e90167555488f85b
:1070a00008304846012103f0ebf8002004b0bde8a9
:1070b000f087534699e70133092be7d1f1e7082818
:1070c00013d11cb1e47814f00204ead10a4b0c216c
:1070d00001fb04f2d05ca84203d11344c3e9016769
:1070e000dfe70134092cf3d1dbe70428d9d10348c9
:1070f000dce700bf4d6f0f00f81d0120fcfeffff15
:1071000073b506460c46fdf797fe00eb06153301f6
:107110002a7aff2a22d0c05c6b7803f01f0343ea6f
:107120004013d8b2019003f0f9f8acb9019803f01c
:1071300017f9297a0b4b0c225143ff205854297a16
:1071400002fb01314c60297a02fb013321469c602d
:1071500028723046fdf722fd002001e06ff0d100db
:1071600002b070bdf81d012000221146fff7c8bf14
:1071700038b5094c2568284600f0abfa214651f88d
:10718000040b403006f0dcf9206800f0e9fa2846ec
:10719000bde8384000f09fba681e012010b50b46cc
:1071a0000146044651f8040b044a403006f04bfcfb
:1071b000b0fa80f0400984f83c0010bde8ee0f0002
:1071c00008b5014690f83c0050b1002381f83c30ee
:1071d00051f8040b403006f0b3f9b0fa80f04009e2
:1071e00008bd00002de9f04300210446c5b0084663
:1071f00000f000fb0146206018b9334a0a2001f074
:10720000b5f92668304600f064fa206800f066faa6
:1072100020b12d4a00210a2001f0a8f920682b494d
:10722000403006f025fb30b1113004d0264a002151
:107230000a2001f09bf92068254902aa403005f098
:1072400033fb00283cd1039b002b40f2031518bff1
:10725000032529462046fff7a1ff014618b91a4a1f
:107260000a2001f083f9eb051bd5ff23dff85890c6
:107270008df80730002704f10408206801230df180
:1072800007024146403005f0f5fc051e04dc4a4685
:1072900000210a2001f06af92f4442f2c6039f42fe
:1072a000ebd92046fff78cff014618b9064a0a20a1
:1072b00001f05cf9304600f00efa45b0bde8f0830d
:1072c00040f20315c5e700bfb5470f00f5ee0f000c
:1072d000e8ee0f0038b50c4d2b78bff35b8f13f041
:1072e00001040ed12846fef777fe50b1074880f81a
:1072f0003c40fff777ff2846fef773fe044807f08f
:1073000031fb024838bd00bf641e0120681e012009
:1073100071710f002de9f8430546002090460f4695
:10732000fdf7b5fafff7d6ffd0f8009004462646e1
:10733000484600f0cef901212046fff72fff56f80e
:10734000040b2a4600233146403005f0affe051eef
:107350000cda2046fff734ff484600f0bcf9002065
:10736000fdf797fa05eae570bde8f8832068434623
:107370003a463146403005f035fe0546e9e72de94d
:10738000f843074601200d469046fdf780fafff7c7
:10739000a1ffd0f8009004462646484600f099f92f
:1073a00002212046fff7fafe56f8040b2a46002376
:1073b0003146403005f07afe051e0cda2046fff714
:1073c000fffe484600f087f90120fdf762fa05ea62
:1073d000e570bde8f883206843463a4631464030c0
:1073e00005f048fc0546e9e711289abf024b33f93e
:1073f00010006ff063007047faee0f0070b505469d
:10740000012d084616461c4609d11a463146fdf79d
:10741000d1fa0028b4bf6ff0da00204670bd022d0b
:1074200004d11a463146fef79dfff2e7032d03d142
:107430000120fef7ebffece76ff0a900eee728b1c3
:1074400000f50053d3f8f01afef7eabd704738b5df
:10745000002505600446fef7e9fd00280bdb04f576
:1074600000500123c0f8f85ac0f8fc5ac0f8083b95
:1074700080f80c5b284638bd2de9f7430546994650
:107480001746002a3bd0a9b30a789ab3a2f10803a1
:10749000072b34d8012696404ff00008324601a948
:1074a0002846cdf80480fef7a1fd041e1edb2b68e4
:1074b000019a03f50053c3f8f02a2b6803f5005333
:1074c000c3f8f46a2b6803f50053c3f8007b2a68fd
:1074d00002f50052c2f8049b2868fff7b8ff041eab
:1074e0000bda2868fff7abffc5f80080204603b031
:1074f000bde8f0834ff40046cee74446f6e7014c82
:10750000f4e700bff2feffff2de9f04f00f5005455
:107510009046d4f8082b002a89b081468a4676dd49
:1075200000265b0003f002073546b346d4f8fc1a88
:10753000b9b3d4f8003b0593d4f8f80ad4f8f03a7c
:10754000d4f8042b1844059b984700280cdac4f89b
:10755000080bd4f8083b002ba8bfc8f80050d4f89b
:10756000080b09b0bde8f08fd4f8fc3a834203d28f
:10757000284bc4f8083bece7d4f8f82ad4f8f41afe
:1075800002448a42c4f8f82a07d1c4f8f8ba181a93
:10759000c4f8fc0a28b10223ebe7f8d96ff0f9032d
:1075a000e7e70eb10123e4e794f80c6bd8f800305c
:1075b0002eb19d4201d2184bdbe70023d9e75b1bbc
:1075c000d4f8f82a0693d4f8f43a9b1a0793d4f81f
:1075d000f03a02971a4407a9019100920aeb0501bb
:1075e00006aa484606f036fa0028e4db0128079b85
:1075f0000bd038b9012284f80c2bc4f8fc3a069b56
:107600001d4493e7002bf8d1c8e70646f5e76ff075
:10761000d100a6e7defeffffe8fefffff0b50d4e4e
:107620000a44914214d0076811f8013b83ea070528
:1076300005f00f0556f8254084ea171484ea131361
:1076400003f00f0356f8233083ea14140460e8e7cc
:10765000f0bd00bf20ef0f0000207047036893f8d3
:1076600084203ab1d3f89c33c0690b4458430121bc
:10767000fef7c9be6ff0d100704770b40c461946d2
:10768000036893f884601546039a46b1d3f89c3397
:10769000c0691c4400fb045070bcfef741be6ff093
:1076a000d10070bc704770b40c461946036893f85b
:1076b00084601546039a46b1d3f89c33c0691c44d4
:1076c00000fb045070bcfef74dbe6ff0d10070bce3
:1076d000704700207047002070470000f8b505464d
:1076e000fff7f7ff95f88440b4bb012305f140068e
:1076f00005f1080785f884303946304605f010f961
:1077000030b3053004d1154a21460a2000f02eff7f
:107710006ff07f4000f09effe72000f0fbff39464e
:10772000304606f00df8044628b93946304605f0d3
:10773000f7f8044660b1002385f88430074a002139
:107740000a2000f013ff2846fff7c5ff2046f8bdca
:1077500095f88440002cf1d00024f4e7b5470f00e1
:1077600038b50546fff7b5ff95f88440a4b105f19b
:10777000400005f011f90022eb6c85f884200446e6
:107780004ff400216ff0004033b1c3e90710c3e9a3
:1077900001225a611b68f7e72846fff79cff204645
:1077a00038bd00000f4bc3600f4b03610f4b4361ab
:1077b0000f4b83614ff48073c0e907334ff480535c
:1077c00043628023c36200f18803036300f5c4733e
:1077d000436300f52273836300f526738060c363ff
:1077e000704700bfa7760f007b760f005d760f0015
:1077f00059760f0010b512490b680246c3b91148fb
:10780000012480f89833c0f89c330c604ff4007367
:107810000d4983624ff43873c1f89c334ff4907371
:1078200081f898438b62fff7bdff0846fff7baff68
:1078300022b1012a044818bf002010bd0148fce70e
:10784000e8250120a81e012048220120bff34f8f08
:107850000549064bca6802f4e0621343cb60bff3ec
:107860004f8f00bffde700bf00ed00e00400fa0508
:1078700008b5fff7ebff000030b585b004f03af92a
:1078800030b1852804d07d4a00210a2000f06efe28
:10789000002004f079f904f0a1f90028fbd00020c1
:1078a00004f040f904f068f904460028fad0744b5b
:1078b000d3f80014e1b173490420fcf765ff724a64
:1078c0004ff00043c2f808330023c2f87c31029322
:1078d000029b4ff0a0434ff40032c3f844274ff00f
:1078e00080430122c3f80025bff34f8f20bffde77f
:1078f0000846019104f07ef930b1852804d05f4a32
:1079000001990a2000f032fe604a92e8030002abbf
:1079100083e80300184604f081f920b1574a00219a
:107920000a2000f023fe4ff080434ff40012c3f80a
:1079300084294ff44032c3f80829c3f81829c3f842
:107940002829c3f83829c3f84829c3f85829c3f8a7
:107950006829c3f878294ff4f812c3f88829fcf78e
:10796000c5ff20b1454a00210a2000f0fffdfef7c7
:1079700089fe20b1414a00210a2000f0f7fd00f005
:10798000b1ff01f025f84ff010239a69013203d0be
:107990009b69b3f53c3f3fd13d4b0122c3f8042521
:1079a000d3f80024002afbd04ff010223948906110
:1079b000d3f80024002afbd00022c3f80425344a5f
:1079c000d2f80034002bfbd003f044ff002000f07d
:1079d0000dff012822d14ff01023d3f80832dbb27b
:1079e000ff2b1bd12a4bc3f80405d3f80024002a2f
:1079f000fbd04ff010225a21c2f80812d3f800240d
:107a0000002afbd00022c3f80425214ad2f8003412
:107a1000002bfbd0fff71aff0024d7e7002cf9d189
:107a20004ff01023d3f80852edb25a2d08d120465a
:107a300000f0dcfe01281cbf4ff08043c3f858550e
:107a4000154ad2f8fc3043f08073c2f8fc30134b77
:107a500000225a601a6842f001021a600124e0b262
:107a60000134fdf743f8082cf9d1fff789fa012119
:107a70000020fdf745f905b030bd00bfb5470f0048
:107a800000000140efbeadde00600040f4ea0f00f0
:107a900000e001400070020000ed00e0001000e096
:107aa0000c4b4ff47a721b68b3fbf2f3013bb3f15a
:107ab000807f0dd24ff0e022e0215361064b002081
:107ac00083f8231090610720106183f8231070471a
:107ad000fee700bf3460002000ed00e04ff0e02240
:107ae000136923f0010313617047000008b5bff369
:107af0004f8ffff7f3fffdf773f9fef7f3fbfdf789
:107b000037f84ff080434ff47972c3f808231b22f3
:107b1000c3f80823bff34f8f044b0122c3f8802121
:107b2000402283f80023bff34f8f08bd00e100e03f
:107b300008b5094b01229a736ff02f02da73002205
:107b40001a724ff4a04150220a205a72fcf71cfe10
:107b5000bde8084004f08ab9c0f3032010b50b4c0f
:107b60000b4b22689a420fd01c22ff21201d06f0e9
:107b700037ff6ff03f0323706ff0530363706ff0b4
:107b80002103a3701a23e37010bd00bfc0f30320cc
:107b9000c0acde1a7047000010b500f0abf9084b1e
:107ba0004ff0ff321a735a73044638b100229a72aa
:107bb000da721a745a225a74fff7baff204610bdbf
:107bc000c0f3032070470000024b00229a72da7261
:107bd000704700bfc0f30320014b9880704700bf7f
:107be000c0f3032010b502b11268084cd24301441f
:107bf000884201d1d04310bd10f8013b5340dbb2a5
:107c000054f8233083ea1222f2e700bf60ef0f003e
:107c100037b50546fff7a2ff002302220df106014a
:107c20000e20adf80630fff775fb124cd8b9bdf841
:107c300006204df201039a4215d14ff6ff7302223e
:107c40000e210df10600adf80630fff798fb012379
:107c5000a3736ff02f03e37355b94ff0ff33a37392
:107c6000e373fff7f3fde2894df201039a42f3d08b
:107c700003b030bdc0f30320704718df704710b564
:107c80000446084611461a461cb1012c07d00020b4
:107c900010bdfcf78ffeb0fa80f04009f8e7fef760
:107ca00061fbf8e71f2a38b515461c4601d80020ad
:107cb00038bd082322461831fff7e1ff0028f6d02f
:107cc0002388082b02d918339d42f0d3a078b0fa4c
:107cd00080f04009ece710b50446084611461a4604
:107ce0001cb1012c07d0002010bdfcf713feb0fa28
:107cf00080f04009f8e7fef713fbf8e738b5d2f853
:107d00000031c3f580758d4228bf0d4614460146eb
:107d10002a46e01806f03cfed4f800312b44b3f5b7
:107d2000807fc4f800311ad1d4f80411d4f80821a6
:107d300001f58070904202d94ff0ff3038bd94f8c1
:107d40000c012246fff7c7ff0028f5d0d4f8043114
:107d500003f58073c4f804310023c4f800312846c9
:107d6000ece72de9f043c1b08046489f0c469146b0
:107d70001e460f44bc4201d301200de03d1bb5f56a
:107d8000807f28bf4ff480752b466a4621464046c7
:107d9000fff775ff18b9002041b0bde8f0832b460e
:107da0006a4631464846fff796ff0028f3d02c4438
:107db0002e44dfe7013a0a4468b9b2f5801f08d9ba
:107dc000b1f1905f0dd3b2f1005f8cbf00200120b4
:107dd000704701207047012802d1b2f5800ff4e707
:107de0000020704738b505460c461346fff7e2ff02
:107df00048b14db903f6ff73190b2046fcf7a6fdf9
:107e0000b0fa80f0400938bd012d06d103f6ff73aa
:107e1000190b2046fef7f7faf2e70020f3e72de909
:107e2000f0459bb001ae82460d4690463146642235
:107e300040f624301f460124fff76cfa14224af65c
:107e4000cd3302fb04f0315a994206d10134052c9e
:107e5000f7d100201bb0bde8f0851aaa1418229aa9
:107e600024f8643c9df88c3004f8533c9df8903025
:107e700044f8582c00f6243104f862ac44f8605cf5
:107e800004f8618c44f85c7c04f8543c14223044bf
:107e9000fff775fa0120dde710b514228ab00deb6b
:107ea0000201044640f62430fff734fabdf81420ee
:107eb00040f6ac739a4210d19df8243002939df89d
:107ec00025300193089b00939df81720079b069986
:107ed0009df81600a0470ab010bd0220fbe7000085
:107ee00008b50348fff7d8ffb0fa80f0400908bd95
:107ef00019810f0008b50348fff7ceffb0fa80f0f4
:107f0000400908bd75810f00f7b50c4615461e46a1
:107f10000746b0b399b912681c4b1340b3f1005f28
:107f200008bf05f5007501464ff01802284608bf46
:107f30004ff40074fcf73efdf8b103b0f0bd012929
:107f40001ad104220deb02012846fef70bfa002895
:107f5000f3d1019a0d4b1340b3f1005f0cbf05f54f
:107f6000007504464ff018023946284608bf4ff402
:107f70000074fef7f7f9dfe7002426b13460002033
:107f8000dbe70348d9e73046d7e700bf0000fc2f06
:107f9000f2feffff30b587b004460d4618220021df
:107fa000684606f01dfd00232a4621466846fff775
:107fb000abff20b9dde90030c01a07b030bd0020aa
:107fc000fbe770b586b005460e4614460021182220
:107fd000684606f005fd0023324629466846fff74d
:107fe00093ff80b9009ba34209d1019bb3f5801f89
:107ff00005d8bdf80c00a0f10c035842584100f020
:10800000010006b070bd0020f9e7f7b50d46114636
:10801000024650b959b34c59284624bafff7e2fd3d
:10802000231a5842584103b0f0bd01281dd1f1b1c7
:108030004f19042269463846fef794f90098002348
:1080400004ba01937e1b042e28bf042632466946db
:108050002846fef787f901aa31466846fff7c2fdb8
:108060003544af420190edd8dae70020dbe708465f
:10807000d9e72de9f04786b006469146fff79afe0c
:10808000ddf838809df840a09df844500f46044626
:1080900000283dd00f9a41461846fff78bfe044654
:1080a000b0b315f00e0f33d018220021684606f049
:1080b00097fc00233a4631466846fff725ff30bb60
:1080c000dde900329df80e100129a2eb030203d076
:1080d000bdf80c000c281ad115f00a0f02d0101da3
:1080e000814514d3280701d58a4510d1690707d5e2
:1080f000434505d0baf1020f09d1b8f5542f06d186
:10810000ab0705d539463046fff77fff00b900249d
:10811000204606b0bde8f0872de9f04387b004465d
:108120009df840900e9e19f0200f0d461746984678
:108130001ed00023cde90433324604abfff7b2fd75
:1081400018b9022007b0bde8f083059b9df83c20dc
:10815000cdf80c90cde90132cdf800803b46324697
:1081600029462046fff785ff80f00100c0b2e9e70d
:108170003346ebe72de9f04fadf5117d1f469df835
:1081800070829df86c32049318f0200b4ff00003be
:10819000cde90a339a9c82460d46914619d00aab26
:1081a0002246fff77ffd08b902200ee00b9e049bdc
:1081b000cdf80c80cde9016300974b462246294655
:1081c0005046fff756ff30b901200df5117dbde88f
:1081d000f08f2646ebe7049b022b40f09880b7f522
:1081e000542f23d104f6ff7626f47f6626f00f067f
:1081f00032464ff410110120fff7f4fd0028d3d0d0
:1082000000964ff41013012239460020fff7a9fd14
:108210000028c9d00022cde9012200963b464ff448
:1082200010110120fff7fbfd0028bdd03246394672
:108230004846fff7d7fd0028b6d0bbf1000f00f08d
:108240009e80bdf8288008f11e03a342bcd808f127
:1082500018010d44a4eb0808a8f11c08a91e4ff052
:10826000000b02230df11e0241445046adf81eb032
:10827000fff705fd002897d0bdf81e404445a3d860
:108280004ff4887259463e444ca806f0a9fb8e96de
:1082900008ae554a8df83c924cab594630468d9706
:1082a000cdf820b0fff7e8f8002864d1a8eb04046b
:1082b00005eb04080596a84537d800285bd18c9bb0
:1082c00053b18d994caa4846fff705fd002852d0be
:1082d000dde98c2313448d93dde98d239a420898c0
:1082e00049d1fff7acf8049b022b7bd1b7f5542f93
:1082f00078d1102200214ca8033406f071fba408a9
:108300004ca84d974e94fff7b8fc03205de7049b03
:10831000052b8bd1b7f5342f88d14ff480524ff411
:1083200054214846fff75efd7ee7a8eb0506b6f54b
:10833000807f28bf4ff4807633460caa29465046ea
:10834000fff79dfcb8b14ff0000b0598a6eb0b03af
:108350000ca909930068012309aa5944fff7d4f82e
:10836000002808dbabd0099b9b445e45edd8022872
:10837000ebd035449fe70898fff761f814e718f051
:10838000100f29d118f00e0f1cd0182259464ca8f6
:10839000cdf830b006f024fb0cab2a4651464ca871
:1083a000fff7b2fd00287ff4ffae9df83931db07ff
:1083b00005d50c9b002b7ff4f7ae48f0100818f0a1
:1083c000100f09d100943b464a4629465046fff714
:1083d000c8fc002887d1e7e6172c7ff6f5ae1835e4
:1083e000183cefe70020f0e6fd7c0f002de9f04f90
:1083f00099b00746502204a940f63830fef78affac
:108400000446002878d104ad2e4640f6383982461d
:1084100080464af6cd3b33885b4526d1b8f1000f44
:1084200002d10fb10120b847737c022b5fd0327ca0
:10843000cde90132f3680093b368f2787168b078df
:10844000fff798fe10b1032c18bf04464ff6ff73d8
:108450003380022249463046fef791ff002848d07b
:10846000032c4ff0010800d0022409f1140940f652
:108470008833994506f11406cdd1baf1000f2cd0fe
:1084800040f638364af6cd394ff6ff7a2b884b4501
:108490001cd16a7c022a19d131462846a5f800a0d1
:1084a000fef76dff10b1032c18bf02242b7c029342
:1084b0006b7c0193eb680093ab68ea786968a878f5
:1084c000fff758fe10b1032c18bf0446143640f6cf
:1084d00088339e4205f11405d8d1b8f1000f02d0bf
:1084e0000fb10020b847204619b0bde8f08f4ff01b
:1084f000010a4ff00108b8e70224f4e74ff0804387
:10850000d3f80024034b5969914202d05a61fff716
:1085100041bb7047c0f3032030b94ff08043d3f81c
:108520000004c0f340007047002070474ff08043c4
:108530004ff0ff32c3f800247047f8b504460e46ea
:1085400017461d4624b92846bde8f840fcf732b965
:10855000e72000f0dff83046fcf72cf9e72000f0c8
:10856000fdf83846fcf726f9013cebe72de9f3412d
:10857000044600200191fcf739f91f4b1b6813b129
:108580000199204698474ff47f0000f063f860207f
:1085900000f072f800f064f8e72000f0dff84ff424
:1085a0007f0000f057f8154ddff86080144f022669
:1085b000124a2b4641460320fff7bfff0f4a2b46c6
:1085c00039460320fff7b9ff0e4b2a4641460320e8
:1085d000fff7b3ff0c4b0a493a462046fff7adffc1
:1085e000012e07d100222146822002b0bde8f041d1
:1085f000fcf7eab80126dbe7f0250120a0860100a0
:10860000e0930400a0bb0d0000350c00f04902000f
:1086100010b5054b1b7800fb03f4044b0020db680e
:1086200098476043000c10bd2260002008600020c5
:1086300038b50546c0f307400c46fff7e9ff208038
:10864000c5f30720fff7e4ff6080e8b2fff7e0ff23
:10865000a08038bd014b1860704700bff82501208d
:10866000044b1a7822b100210120197000f020bac1
:10867000704700bff4250120014b1870704700bf00
:108680002260002010b5054b0446db6800209847a7
:108690002402b4fbf0f0c0b210bd00bf086000209f
:1086a00010b4054b82885c6841880088a44600238a
:1086b0005df8044b604700bf0860002030b50e4de8
:1086c00085b00446fff7ecff2b689bb12088fff7cd
:1086d000d9ff03906088fff7d5ff0290a088fff7cd
:1086e000d1ff03460020009004482c680068dde9b3
:1086f0000221a04705b030bd00260120042601203c
:1087000007b56946fff794ff6846fff7d7ff03b048
:108710005df804fb08b510b1e72805d008bdbde839
:1087200008400120fcf7d2b9074b1b7853b1074b27
:108730001868fff7e5ff064b63221a70054bff220e
:108740001a70ebe7044bf3e7f4250120fc25012028
:108750002160002020600020f825012008b510b11c
:10876000e72804d008bdbde80840fcf7afb90020f9
:10877000fff7c6ff034b00221a70034b01221a7049
:10878000f0e700bf216000202060002013b518b181
:10879000e72807d002b010bd104b5b6902b0bde8fe
:1087a000104018470e4b1b78a3b10e4b1c680b4ba7
:1087b00000219b6868469847bdf80220bdf800304c
:1087c0001343bdf8042013439bb22bb10020fff7e5
:1087d00097ffdfe7044be9e72046f8e70860002051
:1087e000f4250120fc250120f8250120014b186803
:1087f000704700bf0c2601202de9f04395b00446d8
:10880000884615460021182205a806f0e9f8012c33
:1088100056d0022c5ed10121002601ab424605a8ac
:108820000196fff771fb002847db9df82230022bf1
:1088300052d1dde90597b9454ed2a7eb09072422ad
:1088400031460ba8474406f0cbf824230baaa7f126
:1088500024012046fef7d2fd00282edbbdf84e8015
:10886000b8f12c0f33d9a7eb0808b8452fd2042351
:1088700002aa414620460296fef7c0fd00281cdbf6
:10888000bdf80830132b1dd1052303aa414620460d
:1088900003968df81060fef7b1fd00280ddb9df802
:1088a0001030012b0fd13db16a88052a28bf05225f
:1088b00003a9284606f06cf8002015b0bde8f08347
:1088c0000021a9e71bb1bdf80a309844cde76ff04d
:1088d000a900f2e70148f0e70148eee7f2feffffea
:1088e000e8feffff1e4b73b55c6800202146fff7d2
:1088f00051fb214602460020fff787fb002658b3b4
:1089000005236a462146012000968df80460adf8e3
:108910000230fff771ff051e18db9df80440631e4f
:108920005c425c413546fff719f90e4a137eff2b76
:1089300004d024b9ff231376fff72cf923460a4a03
:1089400014600a4a2846136002b070bd15f1aa0fe0
:10895000344608bf3546e6e7054d0446e3e700bf69
:1089600048eb0f00c0f30320082601200c2601204d
:10897000e8feffff37b50d4c0d4d22682b689a427b
:1089800011d0fbf7ebfe0190fff7e8f8094bff224f
:108990001a76fff7fff82b680198236003b0bde853
:1089a0003040fbf7e8be03b030bd00bf0c2601200d
:1089b00008260120c0f30320034a044b10681b68fb
:1089c000c01a18bf01207047082601200c2601207c
:1089d000f8b5134e134f32683b689a421fd0fbf72d
:1089e000bdfe114c0546fff7b9f8237eff2b06d1db
:1089f0003b6833602846bde8f840fbf7bcbe637ea9
:108a00003bb9ff232376fff7c5f8237eff2bf1d177
:108a1000eee7013bdbb26376002bf4d1f1e7f8bd62
:108a20000c26012008260120c0f303202de9f04187
:108a30001b4fdff878803a68d8f800309a421bd094
:108a4000184c2368002bc2bf236803f1ff33236057
:108a500023688bb9fbf782fe134d0646fff77ef8bd
:108a60002b7eff2b0ad1d8f800303b603046fbf755
:108a700082fe4ff47a732360bde8f081d5f81a3096
:108a80003bb9ff232b76fff785f82b7eff2bedd12b
:108a9000e9e7013bc5f81a30002bf4d1f1e700bf3c
:108aa0000c26012024600020c0f3032008260120aa
:108ab00010b50446fbf752fe094b1a8a5cb1013a25
:108ac00092b21a821a8a92b20ab901229a74bde845
:108ad0001040fbf750be013292b21a82f7e700bf96
:108ae00010260120064b1946002241f8042b5a603b
:108af0001a828a805a81da6001229a74704700bf14
:108b00001026012000f1804000f51c300123036095
:108b1000bff36f8fbff34f8f70470000020713d46e
:108b200000f00f0310f0800f084a0bbf03f58873a5
:108b300003f5847302eb830352f8230008bf5868df
:108b4000431e584258417047002070470070024051
:108b500010f0080f074b06d0d3f8c00410f4803f84
:108b600018bf0020704700f00f0000f5947053f814
:108b700020007047007002404ff08053d3f830213e
:108b8000082a05d1d3f83401003818bf01207047f6
:108b90000020704730b54c689c4209d200254560e2
:108ba0000968016093420cd1201e18bf012030bd1e
:108bb00043600d6805600868e41a18444c6008605a
:108bc000f0e70020f3e74b689a4228bf1a460b688b
:108bd000c0e9003248680b68801a48601a440038bf
:108be0000a6018bf012070474b689a4228bf1a4696
:108bf00062b10b68c0e900324b689b1a4b600b688e
:108c0000101e13440b6018bf012070471346f1e794
:108c1000054b10f0800fa3f1900208bf134600f03f
:108c20000f0003eb001070479827012010f0800f11
:108c300014bf0023102300f00f00184470470000f9
:108c4000034a0023c2f81c3c024a1370704700bf5d
:108c5000007002402526012007b5094a0023137041
:108c6000084aadf8053013708df8073001238df8f0
:108c70000430054b01a81b68984703b05df804fb5e
:108c8000242601202c2801202828012070470000dc
:108c900013b5124c0122236802fa01f10b43236041
:108ca0000f4b1b68194003060dd551b906238df8eb
:108cb00004308df806008df807100a4b01a81b68d8
:108cc000984702b010bd0029fbd106238df804306f
:108cd0008df806008df80720efe700bf042701207c
:108ce000942601202828012008b5054b1a78104643
:108cf000fff79cffbde8084001461046fff7c8bfdc
:108d00002c28012013b5244bd3f80044c3f80044a9
:108d1000bff36f8fbff34f8fbff36f8fbff34f8fd3
:108d2000e1050ed51d4b01221a700023adf8053068
:108d30008df8073002238df80430194b01a81b6809
:108d40009847a2050dd5154a00231370adf80530dc
:108d50008df8073003238df80430114b01a81b68f0
:108d60009847630516d50d4b1a789ab100221a70f0
:108d7000094b0121c3f808155820fff7c3fe04234f
:108d80008df80430064badf805201b688df80720e0
:108d900001a8984702b010bd0070024024260120af
:108da0002828012070b54b68934228bf13461d4602
:108db000094b0c4606462a460968184605f0e8fda8
:108dc000c6e9000560682268401b60602a440038dc
:108dd000226018bf012070bd3428012070b54b6897
:108de000934228bf134606460d461c468bb10a4bdc
:108df00009682246184605f0cbfd306074606b6848
:108e00001b1b6b602b68201e23442b6018bf0120a6
:108e100070bd0360f2e700bf3428012008b5fff7fa
:108e20000fff084b93f89e20032a06d1bde80840a7
:108e300005486ff0010102f045bdd3f89030002bda
:108e4000f4d008bd082701209426012008b5fff7bb
:108e5000f7fe0146fff7dcfe837b032b0ad10846b1
:108e6000fff7e4fe01218140bde808400348c94303
:108e700002f028bd0368002bf1d008bd9426012024
:108e80008720fff7e3bf8620fff7e0bf8520fff7cd
:108e9000ddbf8420fff7dabf8320fff7d7bf822032
:108ea000fff7d4bf8120fff7d1bf000007b5002333
:108eb0008df804300b4bd3f82025adf80620d3f8fd
:108ec000c034094a002b13680cbf4ff480714ff077
:108ed00001210b431360054b01a81b68984703b0a1
:108ee0005df804fb007002400427012028280120bf
:108ef00007b5fff7a5fe114b93f81e21032a07d1f2
:108f00000f486ff4807103b05df804eb02f0dabc37
:108f1000d3f8103173b90a486ff4807102f0d2fcb3
:108f200006238df804308823adf80630054b01a8e0
:108f30001b68984703b05df804fb00bf08270120b9
:108f4000942601202828012007b5fff779fe0d4b54
:108f500093f88e20032a11d0d3f8803073b90a48d1
:108f60006ff0807102f0aefc06238df80430082308
:108f7000adf80630054b01a81b68984703b05df8b3
:108f800004fb00bf08270120942601202828012087
:108f90002de9f04fdff8d48198f8003085b0002b30
:108fa0007ed16c4d6c4b19682b68194078d011f04c
:108fb000012378d093faa3f1b1fa81f10f298abf86
:108fc000a1f1100441f08004e4b22046fff720fe36
:108fd0004ff0010b4ffa84fa0bfa01f1baf1000fce
:108fe00081466fea010b61da03688289416802a851
:108ff000984708b9c9f80000584b8222c3f81c2cc6
:109000002968012201ea0b0188f800202960039aef
:10901000d9f80810baf1000f1144c9f8081004f08b
:109020000800029904f00f046eda002864d0c3f837
:10903000a016c3f8a426fff79ffd26b2a300484a56
:1090400048496400054600286ed1baf1000fb2bf4e
:10905000042628260a46414f1e441444c7f80451ea
:10906000bff36f8fbff34f8f3046fff74bfd0220ea
:1090700002f036f9d7f80431002befd01e2002f0b1
:109080002ff9d7f874349b064cd5012002f028f94b
:10909000238803f1804303f51c331b68002bddd0cc
:1090a00005b0bde8f08f91faa1f185e72046fff702
:1090b0004ffdb9f80c20d9f80410d9f80060034628
:1090c000074602a8b047029a002a92d0039a974214
:1090d0008fd9022789f80e7059461f4802f0f2fb1b
:1090e00006238df80430204b8df806401b688df860
:1090f000077001a8984755e7142000fb0433c3f814
:109100000016c3f8042696e720b1c3f8a017c3f8e9
:10911000a42790e7142000fb0433c3f80017c3f81a
:10912000042788e70220aae7baf1000fb4bf0420a1
:10913000282012ea2a0238bf0a461844fff7e2fc48
:1091400032f8163003f1804303f51c331a68002a05
:10915000fcd0a5e7042701209426012000700240de
:1091600060f30f0072f30f0028280120252601204c
:1091700038b5174bd3f86c44c3f86c44bff36f8f0a
:10918000bff34f8ffff7f8fc38b9124a136823f08a
:10919000011103f001130c43136001251cb9bde854
:1091a0003840fff7f5be94faa4f1b1fa81f30f2b22
:1091b000c8bfa3f110001946d4bf43f08000c0b26d
:1091c00005fa03f324ea0304fff762fde6e700bfb4
:1091d000007002403028012037b5fff731fd04460a
:1091e000fff716fd837b032b0dd12046fff71efdf5
:1091f00001218140c943104802f064fb03b0bde87f
:109200003040fff7c5be0568002df7d12046fff7b7
:109210000dfd01218140c943074802f053fb06239d
:109220008df80430054b8df806401b688df807500b
:1092300001a89847e2e700bf9426012028280120d2
:109240000720fff7c9bf0620fff7c6bf0520fff7bd
:10925000c3bf0420fff7c0bf0320fff7bdbf02203c
:10926000fff7babf0120fff7b7bf00004f4b4ff425
:10927000006210b5c3f80024bff36f8fbff34f8fa8
:10928000fff77afc98b10020fbf778fa484bd3f847
:10929000001c032200297bd149f27531c3f8001c60
:1092a000c3f8142dc3f8001c0020fbf769fa002056
:1092b000fbf764fa3e4bd3f8001cc02200296ad1a8
:1092c00049f27531c3f8001cc3f8142cc3f8001c14
:1092d0000020fbf755fa354b0122c3f80025bff3f8
:1092e0006f8fbff34f8fd3f800241205fbd54ff4d7
:1092f0000062c3f80024bff36f8fbff34f8f0020cd
:10930000fbf73cfa2a4bd3f8001c002946d149f25e
:109310007532c3f8002cc3f8141cc3f8002c0020cd
:10932000fbf72efa214b40f2e372c3f800284022eb
:10933000c3f80428bff36f8fbff34f8f0024802240
:10934000c3f81c25c3f830451a4b40f2ff121a60cf
:10935000194b1c60fff774fc184b1c70184b022251
:109360001a70fff709fc00b32046fbf707fa104b11
:10937000d3f8001cb1b949f27532c3f8002cc3f818
:10938000141dc3f8002cbde810400020fbf7f8b90d
:10939000c3f8142d88e7c3f8142c99e70022c3f80a
:1093a000142cbce7c3f8144dede710bd007002406b
:1093b00000e0064004270120942601202c280120eb
:1093c0002626012008b50f4b00221a70b8b9fff706
:1093d000d3fb0d4b0d4a002818bf13460c4ac2f8a8
:1093e00004330c4be02183f82713802159600123bb
:1093f000c2f80435bff36f8fbff34f8f08bd024b28
:10940000ece700bf242601200714e0010714c00187
:109410000070024000e100e0034b1878012894bf7f
:1094200000200120704700bf26260120044b1b7836
:10943000012b83bf034b5868c0f3c0100020704756
:109440002626012000e100e008b5fff7e1fb81815d
:1094500008bd000073b51d4b1c78002c33d11c4a8d
:10946000106001221a702546264615f0080f65f097
:109470007f00c0b20cbf40214ff400710190fff794
:10948000e3ff0198fff7c4fb0135092d86730660e1
:109490008660ead1402100252046fff7d5ff20460f
:1094a000fff7b6fb0134e4b2092c857305608560d3
:1094b00002d1002002b070bd14f0080f14bf4ff4a9
:1094c00000714021e8e70820f4e700bf26260120cc
:1094d0002828012008b5fff79bfb808908bd000004
:1094e0002de9f843064600200f46fbf747f916f032
:1094f0000f0503d1294b1b78b3424bd1284bdff822
:10950000c4801c68d8f80030e443a4b230461c4341
:10951000fff78cfb4ff0010909fa00f914ea09047e
:109520003ad13046fff774fb0c225543320603460e
:109530002cd51c4a3968154401f06041ba68b1f174
:10954000005f02f001021cd1cab9174a1a6097e8fd
:10955000070085e80700d8f800005d6000229a60e7
:109560009a73124b40ea09008022c8f80000c3f841
:1095700004210020fbf704f92046bde8f8830c4adb
:10958000e4e70ab90b4ae1e70b4adfe70b4a154467
:109590000b4adbe71024ece71124eae72c28012032
:1095a0000427012098260120c78b0f0000e100e06e
:1095b000e98b0f00a58d0f00dd8d0f0028260120ff
:1095c000958b0f0094260120044b40f48070c3f863
:1095d0001805bff36f8fbff34f8f704700700240c5
:1095e000fff79cba0023036043600e4bd3f880243e
:1095f0000270d3f884244270d3f88824d3f88c14f2
:1096000042ea01224280d3f89024d3f8941442ea2b
:1096100001228280d3f89824d3f89c3442ea0323b1
:10962000c38070470070024008b5fff7a5fa58b92b
:10963000eff3108272b64c20fff764fa4c20fff76c
:1096400061fa82f3108808bdbde808404c20fff79e
:1096500059ba000013b5fff7f3fa114b9a7b032aae
:1096600007d110486ff4803102b0bde8104002f01d
:1096700029b91c687cb96ff480310a4802f022f9dc
:1096800006238df80430084badf806401b6801a88e
:10969000984702b010bd02b0bde81040fff7c4bf4c
:1096a0000827012094260120282801205020fff7b8
:1096b00029ba5420fff726baf8b50446fff75cfa3a
:1096c00006462046fff7b2fa012303fa00f5184fc9
:1096d000ed43b6b93046fbf751f83b6804f00f0490
:1096e0002b403b606400134b04f2c574c3f8004880
:1096f000c3f80468d3f80438bde8f8400020fbf74d
:109700003fb80020fbf73af83b6814f0080203ea80
:1097100005033b60f0d104f00f04064b04f594748c
:1097200043f82420bff36f8fbff34f8fe4e700bff0
:109730000427012000700240f7b504460020fbf723
:109740001df82046fff764fa05462046fff76efa3b
:10975000012214f0800f02fa00f22e4819d103689a
:1097600032ea03030ad02046fff7a6ff0323ab73b8
:10977000002003b0bde8f040fbf702b82b6003689f
:1097800023ea02030360244b186820ea02001860f1
:10979000ece7230715d4802c204b2ed004f00f01ca
:1097a00001f2da314900c3f80018d3f80418d3f8ed
:1097b0000468c9b241f002013143c3f80418d3f878
:1097c0000438154e0168336861ea03071742cfd0a9
:1097d000134321ea02013360002301602b6003235d
:1097e000ab738df807300e4b8df8064006221b68d0
:1097f0008df8042001a89847bae740f2b471c3f885
:109800000018d3f80418d3f80468c9b241f0040171
:10981000d2e700bf942601200427012000700240f7
:109820002828012073b5184b184cd3f880542368ae
:10983000174eda43174b31781b6892b208461a4329
:10984000fff7f4f9012303fa00f0104202d00846b2
:10985000fff772ff6ff0011105f080050d483570bc
:1098600002f030f8236843f0010323600023adf8d1
:1098700005308df8073005238df80430064b01a81c
