:020000040806ec
:1000000000000608b89016080000b6141c00040191
:100010000200360800000000005000102100060811
:100020000d490e4a0e4b9b1a03dd043bc858d050b5
:10003000fbdc0b490b4a0020521a02dd043a8850bf
:10004000fcdc0949094a0a4b9b1a03dd043bc858ea
:10005000d050fbdc07488047281a160820510010b2
:1000600040c6001078200210800006080000000240
:10007000a819100281000002780afa790100000034
:10008000f83d0e02e0b20d023cb30d0284430e02b5
:1000900058420e02a8410e02ac440e02e8400e0285
:1000a00050440e020c450e0274b40d0224b40d022d
:1000b00050400e0254450e0238440e02a43f0e0278
:1000c00098410e02e0e00d02d4b40d023c430e0252
:1000d0006c430e02b8420e021c440e02d0450e02c2
:1000e000703e0e02ac430e02fc440e02ac3f0e0208
:1000f000b4450e02683e0e02ffffffffffffffff49
:100100005bf074fb1ff058fb28f00eff1ff0e0fbc4
:1001100081f0004102e000bf83f0004330b54feab8
:1001200041044fea430594ea050f08bf90ea020f25
:100130001fbf54ea000c55ea020c7fea645c7feab8
:10014000655c00f0e2804fea5454d4eb5555b8bfdb
:100150006d420cdd2c4480ea020281ea030382ea4c
:10016000000083ea010180ea020281ea0303362dde
:1001700088bf30bd11f0004f4fea01314ff4801cb1
:100180004cea113102d0404261eb410113f0004fc3
:100190004fea03334cea133302d0524263eb43037a
:1001a00094ea050f00f0a780a4f10104d5f1200e18
:1001b0000ddb02fa0efc22fa05f2801841f1000173
:1001c00003fa0ef2801843fa05f359410ee0a5f147
:1001d00020050ef1200e012a03fa0efc28bf4cf078
:1001e000020c43fa05f3c01851ebe37101f000452e
:1001f00007d54ff0000edcf1000c7eeb00006eeb3b
:100200000101b1f5801f1bd3b1f5001f0cd34908c4
:100210005fea30004fea3c0c04f101044fea44521b
:1002200012f5800f80f09a80bcf1004f08bf5feaa2
:10023000500c50f1000041eb045141ea050130bd82
:100240005fea4c0c404141eb0101013c28bfb1f594
:10025000801fe9d291f0000f04bf01460020b1fadf
:1002600081f308bf2033a3f10b03b3f120020cdab2
:100270000c3208dd02f1140cc2f10c0201fa0cf090
:1002800021fa02f10ce002f11402d8bfc2f1200cf5
:1002900001fa02f120fa0cfcdcbf41ea0c019040ab
:1002a000e41aa2bf01eb0451294330bd6fea0404f4
:1002b0001f3c1cda0c340edc04f11404c4f12002df
:1002c00020fa04f001fa02f340ea030021fa04f3f1
:1002d00045ea030130bdc4f10c04c4f1200220fa48
:1002e00002f001fa04f340ea0300294630bd21fa86
:1002f00004f0294630bd94f0000f83f4801306bf4c
:1003000081f480110134013d4ee77fea645c18bf3f
:100310007fea655c29d094ea050f08bf90ea020fd6
:1003200005d054ea000c04bf1946104630bd91eace
:10033000030f1ebf0021002030bd5fea545c05d1d1
:100340004000494128bf41f0004130bd14f5800410
:100350003cbf01f5801130bd01f0004545f0fe4184
:1003600041f470014ff0000030bd7fea645c1abfb9
:10037000194610467fea655c1cbf0b46024650eaf0
:10038000013406bf52ea033591ea030f41f400211c
:1003900030bd00bf90f0000f04bf0021704730b5a2
:1003a0004ff4806404f132044ff000054ff0000177
:1003b00050e700bf90f0000f04bf0021704730b538
:1003c0004ff4806404f1320410f0004548bf40420d
:1003d0004ff000013ee700bf42004feae2014fea62
:1003e00031014fea02701fbf12f07f4393f07f4f3d
:1003f00081f06051704732f07f4208bf704793f040
:100400007f4f04bf41f40021704730b54ff4607452
:1004100001f0004521f000411ce700bf50ea010255
:1004200008bf704730b54ff000050ae050ea0102fe
:1004300008bf704730b511f0004502d5404261eb6e
:1004400041014ff4806404f132045fea915c3ff4af
:10045000d8ae4ff003025feadc0c18bf03325fea4c
:10046000dc0c18bf033202ebdc02c2f1200300fafd
:1004700003fc20fa02f001fa03fe40ea0e0021fa22
:1004800002f11444bde600bf70b54ff0ff0c4cf410
:10049000e06c1cea11541dbf1cea135594ea0c0fc2
:1004a00095ea0c0f00f0def82c4481ea030621eafd
:1004b0004c5123ea4c5350ea013518bf52ea033538
:1004c00041f4801143f4801338d0a0fb02ce4ff0ea
:1004d0000005e1fb02e506f00042e0fb03e54ff01a
:1004e0000006e1fb03569cf0000f18bf4ef0010e12
:1004f000a4f1ff04b6f5007f64f5407404d25fea0e
:100500004e0e6d4146eb060642eac62141ea5551c0
:100510004feac52040ea5e504feace2eb4f1fd0c02
:1005200088bfbcf5e06f1ed8bef1004f08bf5fea80
:10053000500e50f1000041eb045170bd06f0004632
:1005400046ea010140ea020081ea0301b4eb5c04df
:10055000c2bfd4eb0c0541ea045170bd41f48011d7
:100560004ff0000e013c00f3ab8014f1360fdebffc
:10057000002001f0004170bdc4f10004203c35dad8
:100580000c341bdc04f11404c4f1200500fa05f35b
:1005900020fa04f001fa05f240ea020001f00042fc
:1005a00021f0004110ebd37021fa04f642eb060172
:1005b0005eea430e08bf20ead37070bdc4f10c049c
:1005c000c4f1200500fa04f320fa05f001fa04f260
:1005d00040ea020001f0004110ebd37041f100014c
:1005e0005eea430e08bf20ead37070bdc4f1200557
:1005f00000fa05f24eea020e20fa04f301fa05f2bf
:1006000043ea020321fa04f001f0004121fa04f266
:1006100020ea020000ebd3705eea430e08bf20ea36
:10062000d37070bd94f0000f0fd101f00046400070
:1006300041eb010111f4801f08bf013cf7d041eaf2
:10064000060195f0000f18bf704703f000465200f6
:1006500043eb030313f4801f08bf013df7d043eac7
:100660000603704794ea0c0f0cea135518bf95ea7d
:100670000c0f0cd050ea410618bf52ea4306d1d104
:1006800081ea030101f000414ff0000070bd50ea23
:10069000410606bf1046194652ea430619d094eaad
:1006a0000c0f02d150ea013613d195ea0c0f05d197
:1006b00052ea03361cbf104619460ad181ea0301eb
:1006c00001f0004141f0fe4141f470014ff00000a3
:1006d00070bd41f0fe4141f4780170bd70b54ff03e
:1006e000ff0c4cf4e06c1cea11541dbf1cea1355be
:1006f00094ea0c0f95ea0c0f00f0a7f8a4eb0504a0
:1007000081ea030e52ea03354fea013100f0888096
:100710004fea03334ff0805545ea131343ea12635f
:100720004fea022245ea111545ea10654fea002614
:100730000ef000419d4208bf964244f1fd0404f5cd
:10074000407402d25b084fea3202b61a65eb030529
:100750005b084fea32024ff480104ff4002cb6ebe6
:10076000020e75eb030e22bfb61a754640ea0c0066
:100770005b084fea3202b6eb020e75eb030e22bfa6
:10078000b61a754640ea5c005b084fea3202b6ebe7
:10079000020e75eb030e22bfb61a754640ea9c00a6
:1007a0005b084fea3202b6eb020e75eb030e22bf76
:1007b000b61a754640eadc0055ea060e18d04fea34
:1007c000051545ea16754fea06164feac30343ead4
:1007d00052734feac2025fea1c1cc0d111f4801fa1
:1007e0000bd141ea00014ff000004ff0004cb6e79a
:1007f00011f4801f04bf01430020b4f1fd0c88bf39
:10080000bcf5e06f3ff6afaeb5eb030c04bfb6eb43
:10081000020c5fea500c50f1000041eb045170bd36
:100820000ef0004e4eea113114eb5c04c2bfd4eb63
:100830000c0541ea045170bd41f480114ff0000ee7
:10084000013c90e645ea060e8de60cea135594ea63
:100850000c0f08bf95ea0c0f3ff43baf94ea0c0f66
:100860000ad150ea01347ff434af95ea0c0f7ff4db
:1008700025af104619462ce795ea0c0f06d152ea2f
:1008800003353ff4fdae1046194622e750ea410613
:1008900018bf52ea43067ff4c5ae50ea41047ff424
:1008a0000daf52ea43057ff4ebae12e74ff0ff3c89
:1008b00006e000bf4ff0010c02e000bf4ff0010c5a
:1008c0004df804cd4fea410c7fea6c5c4fea430cd3
:1008d00018bf7fea6c5c1bd001b050ea410c0cbf22
:1008e00052ea430c91ea030f02bf90ea020f002084
:1008f000704710f1000f91ea030f58bf994208bfeb
:1009000090422cbfd8176feae37040f001007047a7
:100910004fea410c7fea6c5c02d150ea013c07d1fe
:100920004fea430c7fea6c5cd6d152ea033cd3d049
:100930005df8040b704700bf8446104662468c4643
:100940001946634600e000bf01b5fff7b7ff002876
:1009500048bf10f1000f01bd4df808edfff7f4ff9f
:100960000cbf012000205df808fb00bf4df808ed2a
:10097000fff7eaff34bf012000205df808fb00bf4d
:100980004df808edfff7e0ff94bf012000205df86f
:1009900008fb00bf4df808edfff7ceff94bf012024
:1009a00000205df808fb00bf4df808edfff7c4ff1d
:1009b00034bf012000205df808fb00bf4fea410c66
:1009c0007fea6c5c02d150ea013c0ad14fea430c49
:1009d0007fea6c5c02d152ea033c02d14ff0000086
:1009e00070474ff0010070474fea410212f50012c4
:1009f00015d211d56ff47873b3eb625212d94fea66
:100a0000c12343f0004343ea505311f0004f23fa4f
:100a100002f018bf404270474ff00000704750eaa4
:100a2000013005d111f0004008bf6ff00040704761
:100a30004ff00000704700bf4a0011d212f50012bb
:100a400011d20dd56ff47873b3eb62520ed44fea26
:100a5000c12343f0004343ea505323fa02f07047a6
:100a60004ff00000704750ea013002d14ff0ff30e4
:100a700070474ff0000070477bb972b90029bebfc4
:100a800000204ff0004106e008bf00281cbf6ff0b7
:100a900000414ff0ff3000f0e1b9adf1080c6de915
:100aa00004ce002909db002b1adb00f061f8ddf829
:100ab00004e0dde9022304b07047404261eb4101ec
:100ac000002b1bdb00f054f8ddf804e0dde9022325
:100ad00004b0404261eb4101524263eb4303704773
:100ae000524263eb430300f043f8ddf804e0dde934
:100af000022304b0404261eb41017047524263eb74
:100b0000430300f035f8ddf804e0dde9022304b02a
:100b1000524263eb4303704753b94ab9002908bff7
:100b200000281cbf4ff0ff314ff0ff3000f096b9a6
:100b3000adf1080c6de904ce00f01af8ddf804e020
:100b4000dde9022304b07047430803f05533c01aaf
:100b5000830800f0333003f03333184400eb1010f7
:100b600000f00f3000eb002000eb0040000e70475b
:100b70002de9f04f099d04460f46002b48d18a42cb
:100b8000944661d9b2fa82f343b1c3f120019f4088
:100b900002fa03fc9c4020fa01f10f434fea1c418a
:100ba0001ffa8cfe220cb7fbf1f601fb167706fb51
:100bb0000ef042ea0742904208d91ceb020206f10d
:100bc000ff3702d2904200f237813e46121aa4b299
:100bd000b2fbf1f001fb102200fb0efe44ea0244de
:100be000a64508d91ceb040400f1ff3202d2a64549
:100bf00000f21c81104640ea0640a4eb0e040026d9
:100c00001db1dc400023c5e900433146bde8f08f4b
:100c10008b4209d9002d00f0fd800026c5e90001b6
:100c200030463146bde8f08fb3fa83f6002e4bd143
:100c30008b42c0f0f280824240f2ef803046002dbd
:100c4000e3d0c5e90047e0e702b9ffdeb2fa82f37c
:100c5000002b40f09d80891a4fea124e97b2012670
:100c6000200cb1fbfef20efb121140ea014107fb22
:100c700002f088420fd91ceb010102f1ff382cbfb2
:100c80004ff001094ff00009884203d9b9f1000f74
:100c900000f0cf804246091aa4b2b1fbfef00efb71
:100ca000101100fb07f744ea0144a74208d91cebe6
:100cb000040400f1ff3102d2a74200f2b4800846da
:100cc000e41b40ea02409be7c6f12007b34001fa6b
:100cd00006f422fa07fcf940b2404cea030c20fa71
:100ce00007f34fea1c491c431ffa8cfe00fa06f377
:100cf000200cb1fbf9f809fb181140ea014108fb8f
:100d00000ef088420fd91ceb010108f1ff3a2cbf0d
:100d10004ff0010b4ff0000b884203d9bbf1000fdd
:100d200000f08d80d046091aa4b2b1fbf9f009fb9e
:100d3000101100fb0efe44ea01418e4507d91ceb61
:100d4000010100f1ff3401d28e457fd8204640eaf0
:100d50000840a1eb0e01a0fb029841454c46c64657
:100d600002d306d14b4504d20138b9eb020468eb3b
:100d70000c0e002d70d01a1b61eb0e0122fa06f347
:100d800001fa07f7f14000261f43c5e900713ce76f
:100d900002fa03fcc3f1200001fa03f221fa00f683
:100da0004fea1c4e24fa00f11ffa8cf79c401143c5
:100db000b6fbfef00a0c0efb106642ea064200fb90
:100dc00007f696420ed91ceb020200f1ff382cbf49
:100dd0004ff001094ff00009964202d9b9f1000f16
:100de00031d04046921b89b2b2fbfef60efb1622b2
:100df00041ea024106fb07f28a4207d91ceb0101d6
:100e000006f1ff3801d28a4223d84646891a46eabb
:100e1000004625e72e462846f7e6841a61eb0303d1
:100e200001201f460be76444023849e76444023856
:100e3000e1e6023a61442ee7023e6244c6e6a8f1ca
:100e4000020861446fe702386244cbe7023861442c
:100e50007de7023e6144d9e72e46d6e6704700bfe3
:100e600010f8012b11f8013b012a28bf9a42f7d054
:100e7000d01a7047034613f8012b002afbd1181a29
:100e80000138704709b504480068044b03441b68e7
:100e90001b68029309bd000088cc0010040000000c
:100ea00009b504480068044b03441b685b6802935f
:100eb00009bd000088cc00100400000009b50448fa
:100ec0000068044b03441b689b68029309bd000043
:100ed00088cc00100400000000b1807b704708b18e
:100ee000c07b7047ff20704708b1408970474ff6bc
:100ef000ff70704708b1808970474ff6ff707047e8
:100f000042680068101a704709b504480068044b2d
:100f100003441b681b68029309bd000088cc0010c5
:100f2000000000007047000010b5002101201ef0f5
:100f300083fa04461ef002fb24b9bde810400420e9
:100f40000df0fabf0028f8d1024831f0edfd00287d
:100f5000f3d110bd60cc001008b50ef00bf80438ca
:100f600018bf012008bd000010b5fff7f5ff20b144
:100f7000bde81040014bdb69184710bd60cc001084
:100f800010b5fff7e9ff20b1bde81040014b5b6ae7
:100f9000184710bd60cc001010b5fff7ddff20b181
:100fa000bde81040014b1b6a184710bd60cc001013
:100fb000f8b504460e4617461d4624b92846bde836
:100fc000f84029f06ebce72000f042f9304629f0e5
:100fd00068fce72000f060f9384629f062fc013c2b
:100fe000ebe70000014b1860704700bf8ccc00108d
:100ff0002de9ff410446002003911ef0d1fc234b54
:101000001b6813b12046039998474ff47f0000f006
:101010007ff8602000f09ef800f090f80023009325
:1010200001231b4a18461b4901f042fce72000f04f
:1010300033f94ff47f0000f06bf80226164ddff80d
:101040006880164f2b4641460320134afff7b0ff36
:101050002b4639460320104afff7aaff2a4641468d
:1010600003200f4bfff7a4ff3a4620460d4b0b49d8
:10107000fff79eff012e07d100222146822004b0f7
:10108000bde8f0411ef02cba0126dbe78ccc001045
:1010900029360e02ccb40d02a0860100e0930400b4
:1010a000a0bb0d0000350c00f049020037b500254b
:1010b0000195069d079c009500f074fa04b120602c
:1010c0007f28a8bf7f2040b203b030bd10b5054bcc
:1010d0001b7800fb03f4044b0020db689847604357
:1010e000000c10bd3a5100102051001038b50546d3
:1010f000c0f307400c46fff7e9ff2080c5f3072047
:10110000fff7e4ff6080e8b2fff7e0ffa08038bda2
:10111000014b1860704700bf94cc0010014b186061
:10112000704700bf98cc001010b9024b1868704788
:10113000014bfbe794cc001098cc0010044b1a78bc
:1011400022b100210120197001f0cebc704700bf10
:1011500090cc0010014b1870704700bf3a5100103e
:10116000014b1878704700bf3a510010024b1860cd
:10117000024b1960704700bf9ccc0010a0cc00103f
:1011800010b5054b0446db68002098472402b4fbe9
:10119000f0f0c0b210bd00bf205100102de9f341a6
:1011a000dff83480044600216846d8f808309847b4
:1011b0006e46671e02340020d8f80c3036f8025b09
:1011c00098472d02b5fbf0f507f8015fa742f2d171
:1011d00002b0bde8f08100bf2051001010b4054bf3
:1011e00082885c684188a446002300885df8044b2f
:1011f000604700bf2051001030b50e4d85b0044649
:10120000fff7ecff2b689bb12088fff7b9ff039035
:101210006088fff7b5ff0290a088fff7b1ffdde916
:10122000022103460020009003482c680068a04774
:1012300005b030bd9ccc0010a0cc001007b56946ad
:10124000fff754ff6846fff7d7ff03b05df804fbd4
:1012500008b510b1e72805d008bd0120bde8084059
:1012600028f0bfbc074b1b7853b1074b1868fff73a
:10127000e5ff6322054b1a70ff22054b1a70ebe75e
:10128000044bf3e790cc001098cc001039510010bb
:101290003851001094cc001008b510b1e72804d0e4
:1012a00008bdbde8084028f09cbc0020fff7c6ff41
:1012b0000022034b1a700122024b1a70f0e700bfa4
:1012c000395100103851001013b518b1e72807d074
:1012d00002b010bd104b5b6902b0bde8104018476a
:1012e0000e4b1b78a3b10e4b1c680b4b00219b6867
:1012f00068469847bdf80220bdf800301343bdf89a
:10130000042013439bb22bb10020fff797ffdfe7c8
:10131000044be9e72046f8e72051001090cc00107c
:1013200098cc001094cc001038b5094b1a7802f014
:10133000ff0462b90125214620461d7001f0d4fb4f
:101340002046fff77bff034b1c70034b1d7038bd1d
:1013500090cc0010395100103851001013b50446dc
:1013600008466946fff7c2fe6322bdf800306343ba
:10137000b3fbf2f3adf80030bdf802306343b3fbca
:10138000f2f3adf80230bdf8043004fb03f0b0fb1b
:10139000f2f0adf804006846fff72eff02b010bd72
:1013a00010b40f4c024623780e4983b9012008700f
:1013b0000878e72a0344d8b220700ed10a4b1b7874
:1013c0004bb10a4b19685df8044bfff7c7bf632b9d
:1013d000eed1ff20ebe7064bf4e75df8044b7047d6
:1013e000395100103851001090cc001098cc0010ea
:1013f00094cc0010024b1878003818bf01207047b9
:1014000090cc001084b030b503ac84e80f00064cdb
:1014100003ad0fcd0fc495e8030084e80300bde8d9
:10142000304004b0704700bf2051001070b5054631
:1014300000200e46144638f0a3fe40b12346324643
:10144000696840305ff092fe231a5842584170bddf
:1014500070b5054600200e46144638f091fe40b1a6
:10146000234632466968403060f03bf8231a584200
:10147000584170bd01211020c3f068bb08b510b100
:10148000c3f05afd012008bd01210c20c3f05ebb52
:1014900008b510b1c3f050fd012008bd30b50446b9
:1014a00085b078b1684640f00fff6a46234604ad28
:1014b000144603ccac4218605960224603f108037d
:1014c000f6d1012005b030bd1fb5044648b101a8d2
:1014d00041f0a0fa01ab03cb206018686160a06006
:1014e000012004b010bd000038b50d46044608b90f
:1014f000002038bd0029fbd0002038f041fe002834
:10150000f6d00023e360044b0120c4e900354ff01e
:10151000ff33a360ede700bfad130002f8b50e4640
:10152000054608b90020f8bd0029fbd0002038f09e
:1015300027fe04460028f5d04034314620465ff0af
:101540001afc0746314620465ff017fc002fe9db06
:101550000028e7db034bc01ba860c5e9003601206b
:10156000e1e700bfd1130002002908bf3221024b7e
:101570001970024b186070473b510010a8cc001046
:1015800070470cb402b07047034b1860034b1960ee
:10159000034b1a60704700bfaccc0010b0cc0010f9
:1015a000a4cc00102de9f04f4ff0010c00244ff0b7
:1015b000ff36d0f804e0964504d211f80e80b8f159
:1015c000000f09d18268511e03eb0213002980f23b
:1015d000a8812046bde8f08fb8f13a0f7dd033d80e
:1015e000b8f1220f00f0a58010d8a8f109085ffa21
:1015f00088f8b8f1170f0dd8ac4d0cfa08f818eab6
:10160000050f07d0456801354560d2e7b8f12c0fca
:1016100000f02981d0f8048042450ed911f8085015
:101620005db13a2d00f25e811f2d00f246810a2d38
:1016300000f25581082d40f24b81002b40f057817c
:1016400008f1ff354560a4e0b8f17b0f1dd00ad842
:10165000b8f15b0f19d0b8f15d0fdbd1002bd1d001
:101660004ff0020906e0b8f17d0fd3d1002bc9d0ad
:101670004ff001098568013d03eb0518002d2fdab5
:101680000135bfd16ff00104a3e70134002bb9d0bd
:101690008568099faf4265d905f1010ec0f808e0e1
:1016a0004fea051a03eb051e0025cee90166cef8c8
:1016b0000c50c5686f1c1fbf03eb0519d9f80c50ff
:1016c0000135c9f80c50b8f17b0f0cbf012502257c
:1016d00003f80a504568cef804508568013d1ce0c7
:1016e000d8f8047001371ad0d8f808a0baf1ff3f33
:1016f00015d198f800b0cb45c4d10ef1010ec0f859
:101700000ca0c8f808e003eb051edef804700137f2
:1017100009d0def80870013705d1c56072e7013dd8
:10172000a8f11008aae7013d6f1caef1100eecd134
:1017300068e70ef10109c0f80490d0f80480424532
:1017400002d911f8085025b9c0f804e06ff002047e
:101750003fe7222d2dd1e3b18568099faf4204d820
:10176000c0f804e04ff0ff3433e700274ff0030ade
:1017700005f1010e4fea051803eb0515c0f808e066
:10178000c5e90166ef60d0f804e003f808a0c5e9f8
:10179000019ec56801346f1c3ff434af002b3ff449
:1017a00031af03eb051edef80c500135cef80c50be
:1017b00028e75c2d11d108f1010595420dd2456055
:1017c0004d5d752d2cd86d2d0bd8662d28d85b2d31
:1017d0001ed8222d01d02f2d22d14568013545601c
:1017e000abe76e3d072d1bd801a757f825f000bfca
:1017f0005b170002a1170002a1170002a117000247
:101800005b170002a11700025b170002a717000276
:1018100040f241475c3dedb20cfa05f53d42dcd1aa
:10182000c0f804e02ee74ff0040a08f10205456015
:10183000d0f80480424512d911f808507db1a5f1c5
:10184000300bbbf1090f04d925f02005413d052dd2
:10185000e6d808f10105baf1010a4560e8d145680a
:10186000013d4560b9e7002b3ff4ccaec5682d01c2
:101870005d5d013d012d7ff6c5ae856805f1ff3840
:1018800003eb051eb8f1000ffff6bcae1ef8105cae
:10189000013d012d0cd85ef80c5c013508d05ef8d6
:1018a000085c013504d1c0f80c80abe61300800061
:1018b00008f1ff38aef1100ee4e7a5f120091f4f43
:1018c0005ffa89f90cfa09f919ea070f7ff4b5ae46
:1018d000203d5e2da4d808f1010545609ae60d2d46
:1018e000f6d1aae605f0df09b9f15d0ff8e78568e2
:1018f000099faf427ff634af002705f101084fea98
:10190000051903eb0515c0f80880c5e90166ef600d
:10191000d0f8048003f80970c5e901e84568013d85
:1019200090e653f80c2c013204d053f8082c013205
:101930003ff40caf0139103b48e600bf0110000432
:101940000023c0e901334ff0ff33c36070476ff0ed
:10195000770070476ff0770070476ff0770070473f
:101960006ff0770070476ff0770070470020704786
:101970000020704738f05ebb38f038bb38b50d46f4
:10198000002104460171816038220c30c3f021fb34
:1019900025b90a20074a0849fff72afb2846c4f060
:1019a00001fc206020b90a20024a0449fff720fb0d
:1019b000204638bd23a80202a8b50d02c9b50d0204
:1019c00010b50446006808b1c3f0b6fa204610bd51
:1019d00010b58368044623b90a20034a0349fff778
:1019e00007fba068403010bd23a80202ebb50d0232
:1019f00038b5044685682846fff7beff237963b1f2
:101a00002046fff7e5ff04f10c015ff0b6f904464c
:101a10002846fff7afff204638bd6ff0d104f7e747
:101a200070b5054686683046fff7a6ff2c794cb1a5
:101a3000002328462b71fff7cbff05f10c0160f066
:101a40005df804463046fff795ff204670bd2de94e
:101a5000f0430c7807460e46c3b0acb30846fff718
:101a600009fa2f2c804601d101282cd02f21701c7f
:101a7000c4f075fb002405464ff02f0925b3ab1bbe
:101a8000434521d804bb2c703846fff7a1ff6a46b6
:101a900031465ff07bf9041e0eda3846fff798fff7
:101aa000314660f0d1f9044628462f2100f8019b09
:101ab000c4f055fb0546e1e79df80030222b18bf26
:101ac0006ff0d104f0e70024204643b0bde8f08376
:101ad00037b50d4604460192fff77aff2a46019b6f
:101ae00004f10c0103b0bde830405ff05ebd37b5d6
:101af0000d4604460192fff76bff2a46019b04f155
:101b00000c0103b0bde830405ff0ebbc38b50446d3
:101b10000d46fff76dff002802db0f2801dc0948a6
:101b200038bda0f1100100222046fff7d1ff0028a8
:101b3000f5db102229462046fff7d9ff1028eed109
:101b40000020ede7e8feffff1fb50446002110224c
:101b50006846c3f03efa69462046fff7d7ff28b92a
:101b6000034a0399034b914218bf184604b010bdb5
:101b7000e5114f71e8feffff2de9ff41054687683b
:101b80003846fff7f9fe95f80480b8f1000f07d04a
:101b900000243846fff7eefe204604b0bde8f08191
:101ba0002e462846fff714ff56f80c2b40f203137d
:101bb000314660f047fa04460028ead10123014685
:101bc000102268462b71c3f004fa2846fff7bcffc9
:101bd0000028ddd0154b284603930194fff7f8fe4b
:101be000224631465ff0fafc041e16db42464146af
:101bf0002846fff76dff041e0fdb2846fff7e8febf
:101c000010236a4631465ff0b1fa041e05db284610
:101c100000f04cf804460028bad02846fff7d8fe5a
:101c200031465ff06bff00232b71b2e7e5114f7176
:101c3000f8b50646002038f0a3fa054620b90a2078
:101c4000174a1849fff7d4f92846fff795fe2846aa
:101c5000b56038f011fa20b10a20114a1249fff795
:101c6000c7f937682f213846c5f049f8044640b90e
:101c70003046fff781ff04462846fff77bfe2046eb
:101c8000f8bd8742f4d00023037031683046fff777
:101c9000defe2f23237004460028e9d0ece700bfc6
:101ca00023a8020200b60d0214b60d0270b5044658
:101cb00086683046fff760fe23799bb12046fff728
:101cc00087fe04f10c015ff0d1fe054628b12046e5
:101cd000fff7a6fe2046fff74fff3046fff74afe0c
:101ce000284670bd6ff0d105f7e737b50d460446bd
:101cf0000192fff76dfe2a46019b04f10c015ff093
:101d000035fa051e09da2046fff7d0ff28b1204634
:101d1000fff786fe2046fff72fff284603b030bdb1
:101d20002de9f0430646856887b028461f46894658
:101d30009046fff721fe3379002b40d0304602a9b0
:101d4000fff7e4fe041e33db039c002c30db21464e
:101d500000223046fff7bcfe041e29db0023adf84d
:101d6000063044f6ad63082269463046adf80030cf
:101d7000adf80290adf80470fff7b7ff041e17db53
:101d80003a4641463046fff7b0ff041e10db0d4bcc
:101d900010220593039b304608331f4402a9039782
:101da000fff7a3ff041e03db3046fff77fff044667
:101db0002846fff7dffd204607b0bde8f0836ff04f
:101dc000d104f5e7e5114f712de9f04f89b001918c
:101dd00004a9814617469846fff798fe0446002856
:101de00043d14ff0ff34054682462646059905f15a
:101df00008028a42ab4617d8002229464846fff718
:101e000067fe002835db082248460deb0201fff78c
:101e10006efe07282fdd44f6ad62bdf80810914232
:101e20000cd00235002de1da002f1ada01361ad073
:101e3000b8f1000f19d0a8f800a016e0bdf80a10fc
:101e4000019bbdf80c20994208d10136b742924659
:101e500006d908322c4602eb0b05e3e72546f8e7e6
:101e60002c46b742e4d06ff0a904204609b0bde883
:101e7000f08f0446f9e7014cf7e700bfe8feffffeb
:101e80002de9ff410546d0f808801c46404616461d
:101e90000191fff771fd2b7923b3019906b924bb9a
:101ea00028460a9a0df10e03fff78eff011e1edb76
:101eb000bdf80e70a74228bf2746c7b100222846aa
:101ec0000831fff705fe041e05db3a463146284679
:101ed000fff70dfe04464046fff74cfd204604b0d8
:101ee000bde8f0816ff0d104f5e7024cf3e76ff045
:101ef000a904f0e7f2feffff2de9f04f0446d0f809
:101f0000089097b048460f461646fff735fd94f8ff
:101f100004a0baf1000f00f08c804ff00008c34617
:101f20003246394620460df10e03adf80eb0fff7ec
:101f30004bff051e0cda002e03dab8f1000f18bfb4
:101f400000254846fff716fd284617b0bde8f08f7c
:101f50002046fff74dfd04a980462046fff7d6fd39
:101f60000246002863d12046fff732fd2268012394
:101f700008a960f067f80246002858d1bdf80e3075
:101f8000294620460193fff7a3fd021e4fdb019b6c
:101f9000204608331d44fff71bfd2a46002308a9ed
:101fa0005ff003fb021e42db0599a94215d9aab3d3
:101fb0002046fff70dfd0df10d02012308a95ff08a
:101fc00090fa021e2adb012220460df10d01fff7d7
:101fd0008cfe021e22db0135e6e7fab16ff0070541
:101fe0001022bdf80e302046eb1a0b440deb020117
:101ff0000593fff77afe021e19db2046fff7e8fc87
:10200000bdf80e2004f10c01aa1a42445ff0e6fa72
:10201000021e0cdb2046fff749fe024620460192d5
:10202000fff7d6fc08a95ff069fd019a22b11546b9
:1020300087e76ff0d10584e7002ef8dad0466fe726
:102040002de9f3410546d0f808801f464046164664
:102050000191fff791fc2b79bbb101992846089ab1
:10206000fff74aff0199044610b110f1aa0f05d1fc
:102070003b4632462846fff753fe04464046fff7ec
:1020800079fc204602b0bde8f0816ff0d104f5e79d
:102090000148fff795bc00bfb8cc001010b504464e
:1020a0000249fff76bfc204610bd00bf3cb60d0295
:1020b00010b50b4cd4e88f3fdb070cd4204629f039
:1020c0001dfe40b10748fff7e9ff204629f050fe0a
:1020d0000548c2f030fd0348fff7aafd014810bdd6
:1020e000b4cc0010b8cc00101120000213b50024ad
:1020f0009bb20094fff7c4fe02b010bdb3f5803f61
:1021000013b506d200249bb20094fff799ff02b0ea
:1021100010bd6ff0bd00fae72de9f34180460c4693
:1021200000262bf0a8fb37460546d8f8003040467d
:102130009b699847002834db18d0d8f8003001227a
:1021400040461b698df807700df10701984700287c
:1021500027dbd8f80030012140465b69984700280a
:102160001fdb0136e1e700241d46dee7c4b1d8f8e5
:102170000030224653f8140c012158f80030404436
:102180009b68984710f1a00f0ad0002809db2bf0bc
:1021900072fb431b9c42e6d92c440346241ae3e716
:1021a000304602b0bde8f0812de9f0418046c2b072
:1021b00000200d46174637f0e3ff044618b34ff4ee
:1021c0008472002168464034c2f003ff6a46294603
:1021d00020465ef0dbfd50b32f212846c4f08ffd72
:1021e000b8b1854215d0411b2846c4f059fd0646ba
:1021f000c8b1014620465ff027fe38b1113005d046
:102200003046c2f099fe6ff0e0000de03046c2f0bb
:1022100093fe47f480773b462a46414620465ff0ce
:1022200011ff08b1efe7044842b0bde8f0819df826
:102230000030112befd0e6e7fcfefffff8b50746b4
:1022400000200d461646fff71ff90446a0b10022f4
:102250003946fff763f928b132462946204641f056
:102260007ef838b96ff0e00500212046fff710f93d
:102270002846f8bd0025f7e7004df9e7fcfeffff13
:10228000f8b5074600200d461646fff7f3f804465a
:10229000a0b100223946fff727f928b13246294676
:1022a000204640f0dafa38b96ff0e0050021204608
:1022b000fff7e4f82846f8bd0025f7e7004df9e7f9
:1022c000fcfeffff0fb413b50a4b586e32f007f84f
:1022d00058b1094c05ab80212046049a0193c5f002
:1022e000d3f80028bcbf0023237002b0bde8104023
:1022f00004b0704778ce0010fccc001008b5044b39
:10230000586e31f0ecff10b10022024b1a7008bd7c
:1023100078ce0010fccc0010021e80f2ab81a74bdf
:102320009a4200f0a98101339a4280f2a88012f506
:10233000c86f6bdc6ff494710b449a4246da12f565
:10234000e16f00f09b8102f5d6620c2a4dd99c48c2
:102350007047c9320b2afad801a353f822f000bf04
:102360000925000205250002cf220002cf2200022b
:10237000cf220002cf220002cf220002cf22000291
:10238000cf220002cf220002012500020126000216
:10239000e6320b2adbd801a353f822f019250002fc
:1023a000cf220002cf220002cf220002cf22000261
:1023b00015250002cf220002cf220002cf22000208
:1023c000112500020d2500020526000202f24562d9
:1023d000052a00f2eb80dfe812f0e700e500e300f9
:1023e000e10057010600774870470c2aafd8dfe8b4
:1023f00012f03f013d013b01390137013501330145
:1024000031012f01e300e100df004d016e4b9a42e4
:1024100000f03e8101339a421cda1e3b9a4200f0e2
:10242000398101339a420ada12f5af6f00f0348134
:102430006649634b66488a4218bf18467047654b29
:102440009a4200f02b815e48634b12f5aa6f08bfd9
:102450001846704761498a4200f0228101318a4260
:1024600006da9a4200f01e81554b5d480a39e2e7d0
:1024700000f01a8152485b4b12f5a56fe7e712f1a5
:10248000da0f40da12f1e60f82da12f5967f00f0e9
:102490000d811bdc544b9a4200f00a8101339a42b1
:1024a0000bda4f3b9a4200f0058112f5966f00f06f
:1024b00003814e49424b4e48bde74e4b9a4200f0d5
:1024c000fd803f484c4b12f57a7fc0e712f5827fc2
:1024d00000f0f6800cdc12f58c7f00f0f38012f532
:1024e000877f00f0f1803648444b12f5917faee7cc
:1024f00012f1fa0f00f0ea80314b414812f1f00f6f
:1025000018bf1846704712f1aa0f00f0e18012f1cf
:10251000a90f14da12f1bd0f0ada12f1c90fbff6d2
:1025200018af274b374812f1d20f18bf1846704723
:10253000234b354812f1b40f18bf1846704712f1fb
:10254000820f00f0c78012f1810f0eda12f1960fa0
:1025500000f0c28012f18c0f00f0c080184b2b48a5
:1025600012f1a00f18bf1846704712f1780f00f053
:10257000b780134b264812f16e0f18bf18467047ec
:1025800024487047244870472448704724487047bf
:1025900024487047244870472448704724487047af
:1025a000244870472448704724487047244870479f
:1025b000244870472448704724487047e2faffffd8
:1025c00067b60d02ecba0d02b9faffff92faffffef
:1025d0006eb80d02a6faffffc7b80d02cdfaffffd5
:1025e000dfb80d027bb90d0294fbffffecfaffff91
:1025f00060b90d02b4fbffffd1b90d02dcb90d02c9
:1026000080ba0d0272ba0d02c1ba0d024bb60d02ac
:10261000f5ba0d0253ba0d0244ba0d0236ba0d02d4
:1026200023ba0d0211ba0d0206ba0d02f8b90d0255
:1026300001b80d02efb70d02ddb70d02cbb70d02e9
:10264000b4b70d0287b70d026cb70d024fb70d027c
:1026500024487047244870472448704724487047ee
:1026600024487047244870472448704724487047de
:1026700024487047244870472448704724487047ce
:1026800024487047244870472448704724487047be
:1026900024487047244870472448704724487047ae
:1026a000244870472448704724487047244870479e
:1026b000244870472448704724487047244870478e
:1026c000244870472448704724487047244870477e
:1026d000244870472448704724487047244870476e
:1026e0002448704740b70d0230b70d0210b70d02f5
:1026f000f8b60d02e5b60d02d8b60d02bfb60d0252
:10270000adb60d0288b60d02c3c30e0275b60d023a
:10271000d0ba0d0263ba0d021dba0d021cb80d022b
:10272000a2b70d025ab80d022fb80d024db80d0216
:1027300084b80d029ab80d02b0b80d02feb80d02b1
:1027400055b90d022fb90d0239b90d021cb90d0290
:1027500071b90d02a5b90d02bdb90d0294b90d02f2
:10276000e9b90d022cba0d02a3ba0d02afba0d02df
:102770008fba0d0259b60d0210b5084b0446586ebb
:1027800031f0adfd10b1064803782bb92046bde805
:1027900010400021fff7c0bd10bd00bf78ce001073
:1027a000fccc0010a0f13003dab2092a01d8184697
:1027b0007047a0f16103052b01d857387047a0f18d
:1027c0004103052b94bf37384ff0ff307047102a74
:1027d000f8b506460c461bd900252078fff7e2ff26
:1027e000071e15db6078fff7ddff031e10db43eaf1
:1027f0000713052d735505d102340135062decd193
:10280000012006e0a278e31c3a2a01d11c46f4e735
:102810000020f8bd034b1860034b1960034b1a608e
:10282000704700bf7ccd001080cd001084cd00101b
:10283000f0b5164b05461e680f461446abb036b9c8
:10284000134b1b6803b3134b1b7883421cdc2379a7
:102850001b0706d42bf00ff82379606143f00803bf
:1028600023718eb1dde93023a02102a8c4f00cfe53
:102870009f28c4bf7e238df8a63000233a460093dc
:102880002946234602a8b0472bb0f0bd7ccd0010ee
:10289000a8cc00103b51001030b585b008ac54f8fe
:1028a000045bcde900540394fff7c2ff05b030bdcf
:1028b00070b404460d46104619464bb1054b1e68d0
:1028c00036b1002322460393b4462b4670bc6047c2
:1028d00070bc704780cd001070b51a46134b04468b
:1028e0001d680e46aab035b9114b1b68bbb1114b20
:1028f0001b78834213dc2e9ba02102a8c4f0c4fde8
:102900009f28c8bf7e230146c4bf8df8a6309f21f3
:102910003db100232246009302a83346a8472ab0bf
:1029200070bd034b02a81b689847f8e780cd0010e4
:10293000a8cc00103b51001008b410b585b007ac0e
:1029400054f8043b00940394fff7c6ff05b0bde8bc
:10295000104001b0704700002de9f04f884629492a
:1029600007460d68adb0002b3ad035b92649096845
:10297000b1b326490978814232dc00211446dff8e0
:102980009090dff884b08df8ac10d61814f8013ba5
:102990002ca84fea131c19f80cc0084403f00f03cd
:1029a0004a1c00f8a4cc19f8033002312ca80244c8
:1029b000a02902f8a43c09d1adb14ff0000a43466a
:1029c0003a46cdf800a003a8a8475146a642ddd15b
:1029d00031b175b100233a46009303a84346a84796
:1029e0002db0bde8f08fdbf8003003a898472946ea
:1029f000ece72cab1944044b01f8a45c1b6803a85a
:102a00009847ede780cd0010a8cc00103b51001096
:102a100038bb0d02074b02461b680bb1002218475a
:102a2000054b186828b1054b1b789a42b4bf0020ab
:102a30000120704784cd0010a8cc00103b5100103d
:102a40004528dabf0a2390fbf3f00620034bd8bfda
:102a500020eae07053f82000704700bf1cbb0d0255
:102a600070b50d46044620b90a201c4a1c49fef7e1
:102a7000bffa1cf0dbfba37bdb070bd563680bb154
:102a8000a2689a60d4e9013282b15360a37b03f05b
:102a9000fe03a37313490b686db1002283b11e7b43
:102aa000257bae420bd91a465b68f7e70d4a1360e7
:102ab000ece70c6007e063b901238b7409e09c60cc
:102ac000002af6d05460c4e90132a37b43f001032d
:102ad000a373bde870401cf0adbb00bf23a8020289
:102ae00049bb0d0288cd001010b504461cf09efbba
:102af000094b1a8a5cb1013a92b21a821a8a92b2ce
:102b00000ab901229a74bde810401cf093bb01324f
:102b100092b21a82f7e700bf88cd001010b51cf002
:102b200085fb044b1c8a1cf085fba4b2b4fa84f02c
:102b3000400910bd88cd00102de9f04f85b04ff051
:102b4000000905461cf072fbca4683464b4601202d
:102b500049464f464e464a46614cd4f8008010b371
:102b6000b8f1000f1fd098f80d300f2b5ffa83fae1
:102b700015d1d8e90531284698470022d8f81060c9
:102b800098f80e10238a94f812909bb2b3fa83f34c
:102b90000020c9b25b095ffa89f9a274dde7b8f8d1
:102ba0001470bfb2eae75846cde902131cf042fbad
:102bb000dde90213a27a524502d1a289ba4261d05c
:102bc000002284f80aa0a781e281002b57d011f0df
:102bd000020067d1434bc6f307481f78424bffb250
:102be000db6898477843f5b2c6f3072700fb08f87f
:102bf00047434543b4f80cc04fea18413a0c280c3f
:102c0000884617460546bcf1000f05d0a67ae38931
:102c1000022e44d0032e49d0b9f1000f08d1a38869
:102c2000434505d1e388bb4202d12389ab4226d07c
:102c3000dff8b4900023d9f804602a4639464046ac
:102c4000b0472a4e3368b3b1d9f80c30002098470a
:102c50004fea08212b023a02b3fbf0f3b2fbf0f289
:102c6000b1fbf0f000210091c1b221483668006844
:102c7000dbb2d2b2b047a4f80480e780258105b06a
:102c8000bde8f08f002fa0d0e0890544adb2bd4271
:102c900024bfb5fbf7f207fb1255e58195e7b3ebcf
:102ca0005c0fb9d300252f46a846b5e74fea5c066e
:102cb000b3eb5c0f34bff31a9b1b9bb203fb01f811
:102cc00003fb02f703fb00f5b8fbf6f8b7fbf6f7da
:102cd000b5fbf6f51ffa88f8bfb2adb29ce700bfae
:102ce00088cd00103a510010205100109ccc0010eb
:102cf000a0cc0010064b0022194641f8042b5a6064
:102d00001a828a805a81da6001229a74704700bf61
:102d100088cd001070b5d0e90043204643f31d0371
:102d2000002b0ddd5a1050f8226000eb8205b688aa
:102d30008e4203d29b1a281d013bf1e71346efe7b1
:102d4000001b801070bd000070b51048d0e88f5f88
:102d500015f001050e4e16d128f0d0ff98b11020c5
:102d600026f0d6fd044650b1c0e9005585600573d4
:102d70008020c2f0d9f810b120232060a36003485e
:102d8000346028f0f5ff306870bd00bf9ccd0010a6
:102d9000a0cd0010f8b50746fff7d6ff037b044629
:102da00073bbb988fff7b6ff0546d4e90006b54204
:102db00004da50f825309b888b4224d0a3689e42c9
:102dc0000ddb0136002e05ddb100c3f083f820b91c
:102dd0000e4814e0c2f0b0f800202060a66026681b
:102de000626806eb85019200a2eb8502081dc2f025
:102df000d6f8002046f82570636801336360f8bd9b
:102e00006ff0d100fbe76ff0b300f8e7fcfeffffc7
:102e10002de9f84307460e469046fff795ff037be2
:102e20000546a3b177b1d0e9004304eb83094c45d3
:102e3000234607d0414618680434b8470028f6d026
:102e4000bde8f88336b16b6800203360f8e76ff0b7
:102e5000d100f5e73046f3e770b506460c46fff7bc
:102e600073ff037b05467bb13146fff753ff6b6869
:102e700098420cda2b6853f820309a88b24206d177
:102e800044b10020236070bd6ff0d100fbe76ff00c
:102e9000a900f8e72046f6e710b50446fff754ff0f
:102ea000022c05bf012303736ff07700002010bdd3
:102eb00038b538220d4600210446c2f08af84ff09a
:102ec000ff3200232046c4e90f23a56338bd00006c
:102ed00030b505468db0002037f052f9044618b3de
:102ee00037f084f82b6c990706d40025204637f07c
:102ef000a1f828460db030bd294604f140005ef02f
:102f0000b5fd0028f1da202200230290cde9042348
:102f1000aa6b32200192064a0649009204aafff7e2
:102f2000bbfc6ff0e005e1e76ff0e005e1e700bf13
:102f300069bb0d0261bb0d02002370b501f14006b3
:102f4000044601461a4630468eb05ef02efb00283d
:102f50004ff0000511da2023cde90635a36b02906e
:102f600001930f4b322000930e492b4606aafff720
:102f700093fc6ff0e0000eb070bd04232146304694
:102f800005aa05955ef0adfa042807d02023cde907
:102f90000635a36b02900193034be3e70598eae73c
:102fa00088bb0d0261bb0d02a7bb0d0210b5044624
:102fb000236c08468cb0abb1214640305ef09efddc
:102fc00000280dda20220023cde90423a26b029011
:102fd0000192054a32200092044904aafff75cfce2
:102fe000002323640cb010bdc6bb0d0261bb0d02f3
:102ff00038b50546002037f0c3f8044650b136f026
:10300000f5ff28462146fff7d1ff2046bde83840ae
:1030100037f010b838bd000030b505468db000203f
:1030200037f0aef8044610b336f0e0ff21462846ec
:10303000fff7bcffa96b04f140005ff00bf800281c
:103040000fda811c0dd020220023cde90423aa6bc6
:1030500002900192074a32200092074904aafff722
:103060001bfc20460db0bde8304036f0e3bf0db08c
:1030700030bd00bfe6bb0d0261bb0d02002a70b57a
:1030800040f6031518bf0125036c044635ea030317
:103090000e468cb01fd0fff789ff2b462146a26b4e
:1030a00006f140005ef0ceff002813da811c14d038
:1030b00020220023cde90423a26b02900192084a4a
:1030c00032200092074904aafff7e6fb6ff0e00008
:1030d0000cb070bd25640020fae76ff0a900f7e797
:1030e00002bc0d0261bb0d022de9f04705468cb014
:1030f00000208946904637f043f80746002863d001
:1031000036f074ff012239462846fff7b7ff041e48
:103110001bdb07f1400a294650465df02efe061ed5
:1031200010da20200023aa6bcde904030192284a7b
:10313000029600923220274904aafff7adfb6ff0f8
:10314000e00402e0032e07dc234c384636f072ff21
:1031500020460cb0bde8f087eb6b002b09da39464e
:103160002846fff7e9fe041eefdb17d1042eebd152
:10317000ec63ea6b00239045a8bf90462946504671
:10318000b21a5ef012fa00280cda20210023aa6b92
:10319000cde9041301920290104acae7f31ea3423c
:1031a000e6dcd1e743464a46294650465ef099f9a7
:1031b00080450446c9d020220023cde90423aa6b10
:1031c00002900192064ab4e76ff0e004c0e700bf46
:1031d00021bc0d0261bb0d02e8feffff88bb0d02a2
:1031e000a7bb0d022de9f04705468eb000208946a9
:1031f000164636f0c5ff804600287fd036f0f6fe32
:10320000002241462846fff739ff041e18db08f16b
:10321000400a294650465df0b0fd071e17da4ff010
:10322000200c0023aa6bcde906c30192354a029710
:1032300000923220344906aafff72efb6ff0e0041b
:10324000404636f0f7fe20460eb0bde8f087032f6b
:103250000fdc0022294650465ef0c0f9002828da2b
:1032600020260023aa6bcde9066301920290274a2b
:10327000dee7eb6b002b06da41462846fff75cfee3
:10328000041edddbec63eb6bb342e2d13744b7f5f0
:10329000805fdedc33464a46294650465df066ffd5
:1032a00086420446ccd0202200230290cde906239a
:1032b0001ee0002329461a4650465ef076f90028a3
:1032c00008da20240023aa6bcde90643019202907c
:1032d0000f4aade704232946504605aa05965df03e
:1032e00045ff042808d020210023cde906130290d1
:1032f000aa6b0192074a9be7ee63cbe76ff0e0040d
:10330000a1e700bf21bc0d0261bb0d0240bc0d0254
:1033100088bb0d0263bc0d0210b401291346c068be
:1033200008d102685968146803f1080223465df861
:10333000044b18476ff077005df8044b704738b5c1
:10334000144619b904220846226038bd1368032bbd
:1033500007d903685b6898470028f6d104232360e7
:10336000f3e76ff0bd00f0e7836900200b60704762
:10337000836900200b60704713b5114b0c461b7e10
:10338000062b1ad0cbb10121684613f08dfc68469c
:1033900013f04dfc684613f007fedfed0a7a20eecd
:1033a000270abceec00a10ee103a9bb268462360b2
:1033b00013f08afc002002b010bd6ff0d100fae7d4
:1033c000bccd0010000080430a4b10b503601423ed
:1033d0004360012304464381074bc0e90320018178
:1033e000436100210430fff7d5fc044b20462360e5
:1033f00010bd00bfa8bc0d0299320002b4bc0d0282
:1034000010b50446fff7e0ff014b2046236010bdd6
:10341000e4bc0d0208b500f085fcbde8084000f0f2
:1034200097bc07b5019000f07dfc019903b05df8f1
:1034300004eb00f0b5be08b500f074fcbde8084030
:1034400000f0bfbc07b5019000f06cfc019903b01f
:103450005df804eb00f05ebd07b5019000f062fc82
:10346000019903b05df804eb00f06abd38b50025a2
:103470000b4c03210b4a0c48fff7c2ff07212046e3
:103480000a4afff7a1ff0a4ba5612360094c1821e6
:103490002046094afff798ff084ba561236038bd15
:1034a000bccd001083bc0d02a4cd00108cbc0d025d
:1034b000c4bc0d02d8cd001097bc0d02d4bc0d02c7
:1034c000074b1a7812b10021064a11705a7812b1ce
:1034d0000121054a11709b780bb10bf0fdbc7047c0
:1034e000f4cd00102ed200102cd20010fff7e8bf50
:1034f00010b5c36804460bb9c0f0c4ff03690430bb
:1035000098470021a0616069bde8104031f03ab8e9
:1035100010b50bf009fd124b124c1b780246b3faa2
:1035200083f35b09a070237080b101200022052184
:103530006070104604f068ff0bf0f0fcbde810402e
:1035400000231a461946184604f0fabf014604f053
:103550000ffe02460028e8d1014604f058fee5e7d8
:103560002ed20010f4cd0010012af8b5064603d182
:103570000b6803600020f8bd022a08d0032af9d1a5
:1035800000680028f6d01c2126f0caf9f2e71c20ba
:103590000c6826f0bdf9074630b105460fcc0fc5c3
:1035a00094e8070085e807003760e3e7012a70b573
:1035b000054603d10b680360002070bd022a08d0c5
:1035c000032af9d100680028f6d0102126f0a8f9c6
:1035d000f2e710200e6826f09bf9044618b196e831
:1035e0000f0084e80f002c60e6e721b18b8883424e
:1035f00001d08968f9e7084670470000f8b5037df7
:1036000005460f46164653b10368d9680120fff7f7
:10361000ecff044630b18389bb4201d18673f8bd0b
:103620008168f3e7014610200ef04efc08b92c75b6
:10363000f5e7054b0360012383802b698781836055
:1036400086732861ebe700bf1000030008b5c1686e
:103650000120fff7caff28b183891b2b01d08168a5
:10366000f6e7012008bd000038b5037d04460d468d
:103670003bb103680420d968fff7b7ff014608b1e2
:10368000c56038bd10200ef01ffc08b92075f8e7a2
:10369000044b0360042383802369c0e90235206161
:1036a000efe700bf1000030010b58368044613b1b4
:1036b000032201469847204610bd000010b504467d
:1036c000034b40f8043bfff7efff204610bd00bf5f
:1036d000f4bc0d0210b50446fff7f0ff204614219c
:1036e00026f01ef9204610bd10b5074b04460360b6
:1036f000406918b130f021ff002363612046fff7d5
:10370000ddff204610bd00bf08bd0d0210b5044608
:10371000fff7eaff2046182126f002f9204610bde7
:1037200010b50446024b0360fff7deff204610bdd4
:103730001cbd0d0210b50446fff7f2ff20461c2108
:1037400026f0eef8204610bd38b50446006928b1d1
:10375000856800210ef0e2fb2846f8e7204638bdd8
:10376000002330b587b0cde90233049301238df8ef
:1037700014301023adf80430032301ac00280d46ab
:103780000094adf806308df8083005dd4ff47a71fd
:1037900041436846fff768ffab0704d401220a21c2
:1037a0006846fff72bff2046fff750ff80f001002f
:1037b000c0b2fff736fe00222046114625f08ffcee
:1037c00004466846fff7c0ff204607b030bd000042
:1037d0002de9f0470e4698461021002388b0cde928
:1037e00004330693adf80c10012303211746109af9
:1037f0000df10c09002a0546cdf808908df81c3013
:10380000adf80e108df8103005dd4ff47a7102a876
:103810005143fff729ffb5b1beb1002f41d0b8f138
:10382000000f3ed0002407eb080ab4420dd04445f7
:1038300035f8141034bf3a5d1af8012c02a8fff7ce
:10384000ddfe0134f1e72c46ede74846fff7fefeca
:10385000002780f00100c0b2fff7e3fd3a4648467a
:1038600001a9019725f03bfc041e11dbfff7e3fde6
:103870000198c0b183883c46012b07d1b4420ed0d9
:1038800035f81430828901349a42f7d1c1f054fbe3
:1038900002a8fff759ff204608b0bde8f0870024d2
:1038a000f4e7024cf4e70446f2e700bff2feffff44
:1038b00073b506461c200d4626f02af8044628b3a8
:1038c000144b03600023c360ab683bb1022229465e
:1038d00004309847eb682361ab68e3600022204620
:1038e0000d4b0121236040f8142f30f01bfe0b4bd1
:1038f00030462360336801945b6801a99847054608
:1039000020b9236820469b6898472c46204602b081
:1039100070bd00bff4bc0d0208bd0d021cbd0d0240
:10392000f0b51f463c4b164693f86c2005460c46f6
:1039300089b0f2b1586e30f0d2fcd0b906901020a8
:1039400025f0e6ff18b1c0e901460570c760334baa
:1039500004900793324b304804a90693fff7a8ff61
:103960000546b8b9044604a8fff79efe204609b0f4
:10397000f0bd02f0f1fdc8b9f34313f0010300d12b
:1039800095bbfff7c5fd012d3ed0022d3cd0bdb14a
:103990000024ebe700224ff0ff31406930f0d2fd08
:1039a0002b6828469b68ac699847dce716f004034f
:1039b000e2d11a460621012000940ef011f8dbe74f
:1039c000002cd3d0e317cde9044301212b46154a3f
:1039d000009504a8cde906552af09af80446002877
:1039e000c4d0fff76dfdc1e7012d0dd0022dcfd161
:1039f0001a4618460521039304f006fd039b1a4658
:103a00001946184604f09cfd3146204609b0bde831
:103a1000f040fff7a5be00bf78ce0010a939000224
:103a20002d3500026d34000200684168d0e90223a0
:103a30000078fff775bf2de9f0411f4600230446cb
:103a40000d46164601211a46184604f0fefb3b4679
:103a5000324629462046bde8f041fff761bf00002d
:103a60002de9f04f9846554b174693f86c2087b0d8
:103a70000546dde910940e4622b3586e30f02ffc57
:103a800000bb04901c2025f043ff38b1129bc0e915
:103a90000056c0e90278c0e904948361484b029063
:103aa0000593484b454802a90493fff701ff0446dc
:103ab000002855d1054602a8fff7f6fd284607b0b5
:103ac000bde8f08f02f048fd8246002854d1e4435f
:103ad00014f001046dd0fff71bfd4ff0000a002128
:103ae0000846fff701f8e720fdf7d6fb43463a46c4
:103af00031462846cdf80090fff76afe00210546c2
:103b00000120fef7f1ffe720fdf7a2fb002c4dd1cd
:103b100020461ef0c6f80bf02dfa044600200bf0ec
:103b200035fa0646b8bb013ce4b2012c33d80bf0a1
:103b3000fbf980b3304629f091fe4ef6602604462c
:103b4000002029f08bfe001b61f10001b04271f1f1
:103b500000031ed202f000fdd8b902f00dfdefe720
:103b600000224ff0ff31406930f0ecfc2368204622
:103b70009b68a56998479ee714f0040ba7d15b46a4
:103b80005a4606210120cdf800900df029ffda46b3
:103b90009de702f0e1fcbaf1000f8fd007f0eefdd7
:103ba000002304211a4614f062fd87e7fff788fc22
:103bb000b1e720461ef072f891e700bf78ce001002
:103bc000493b0002e93400021fb500688369029393
:103bd0004369019303690093d0e90223d0e900010e
:103be000fff73eff05b05df804fb2de9f0471f46e7
:103bf000dde90889002304460d461646ddf828a0b5
:103c00001a460121184604f020fb3b46324629465d
:103c10002046cde9099acdf82080bde8f047fff7ae
:103c20001fbf70b51d46002388b00e461446adf880
:103c300016001a460121184604f007fb0c9b00945d
:103c4000cde9015301230df11f0219460df11600b4
:103c50008df81f60fff7c9ff08b070bd40f62873ec
:103c600084b0adf80c3040f6277341f2d832984258
:103c700088bf0df10603adf8060098bf03ab1988a5
:103c8000adf80e2091424ff0500288bf0df10e03a7
:103c90001b88a3f628739bb2adf80a30bdf80a3032
:103ca0009bb2b3fbf2f3adf80a30bdf80a309bb219
:103cb00003eb83031b019bb2adf80a30bdf80a3059
:103cc00003f628739bb2adf80a30bdf80a0080b243
:103cd00004b0704770b5002501260446202229460d
:103ce000c0e90055c0e90555c0e90755c0e90955c7
:103cf0000672c560067485853030c1f06af904210a
:103d00002b463246601830f057fb636823b90a200f
:103d1000024a0349fdf76cf9204670bd23a8020250
:103d200028bd0d0210b5084cd4e88f3fdb0709d43d
:103d3000204627f0e3ff28b10448fff7cbff2046d9
:103d400028f016f8014810bdf8cd0010fccd001089
:103d50001fb500234ff4c0620393cde90032084938
:103d6000084b092203a830f0a3fa039b23b90a20c9
:103d7000054a0649fdf73cf905b05df804fb00bfb4
:103d80004bbd0d02cd46000223a802024fbd0d021d
:103d900007b50122054b01a91a70002340681a4695
:103da000019330f014fb03b05df804fb3c510010ac
:103db00008b5fff7b7ffbde80840fff7e9bffff719
:103dc000f7bf07b5036843b102234ff0ff320193f9
:103dd0004068002301a930f0fafa03b05df804fb53
:103de000cb0744bf002380f829308a0741bf002356
:103df00080f82b3080f82d30c3614b0744bf00237f
:103e000080f82830002311f0080f1cbf036280f8ef
:103e10002c3080f82a30704737b504460d4601a88b
:103e2000012113f0bcfd236b01a85b0500d4bdb1db
:103e300013f071fe78b1ff212046fff7d1ff01a8f2
:103e400013f0d2ff01a814f0adf829f014fd606260
:103e50004ff47a73a36101a813f0c0fd03b030bd25
:103e600013f059fe0028f6d1ff212046fff7b8ffd6
:103e700001a813f09eff01a814f0abf8e8e707b51e
:103e8000002108462af0fbfe88b9014601902bf07c
:103e90002ff8019a1346114610462bf0f3f8019ab9
:103ea0001146104603b05df804eb2bf0b5b903b032
:103eb0005df804fb0023202210b504468ab0cde94a
:103ec0000223104a10490092282002aafef7e4fcbf
:103ed000236bd9050ad4012102a813f060fd01214a
:103ee00002a814f043f802a813f078fd1b2012f08a
:103ef00057fd0023054a9361054a936123600ab088
:103f000010bd00bf78bd0d026ebd0d02bccd00100e
:103f1000d8cd001037b50446084600213cf076fbaa
:103f20002368054643b101234ff0ff3201936068d7
:103f3000002301a930f04bfa284603b030bd000041
:103f400070b50c464e79204600213cf04bfb0546ef
:103f500038b92379ff2b04d06379013bdbb2fd2b09
:103f600007d9202e3246204628bf20221b49c1f007
:103f700009f84ff6fd72e3882846013b9bb2934255
:103f800088bf40f628734ff6fd7288bfe38023890f
:103f9000013b9bb2934288bf4ff461734ff6fd72b1
:103fa00088bf23816389013b9bb2934288bf4ff452
:103fb00060734ff6fd7288bf6381a389013b9bb29a
:103fc000934284bf41f21003a381a37b013bdbb288
:103fd000fd2b84bf1223a37370bd00bfb4bd0d02bf
:103fe00001462023303180f83530fff7a9bf0000ab
:103ff000f0b587b00446002101a813f0d0fc01a859
:1040000013f02efd02ad07462a46184bb4f838c00f
:1040100003f1100e2e4618685968083303c673451d
:104020003546f7d108206423194632f8023b9c45f7
:1040300002d30138f8d119468f4202d001a813f0fb
:104040005cfe01a813f03efd0546e08efff706fe7c
:10405000854206d0e08efff701fe014601a813f06d
:10406000c3fd01a813f0bafc07b0f0bdccae0d0241
:1040700013b50c4601a8002113f091fc01a813f020
:1040800021fd40f62871884202d001a813f0acfd52
:1040900014b101a813f0b5ff01a813f09ffc02b002
:1040a00010bd8009431e022b94bf013001207047d0
:1040b000f7b504460e4601a8012113f070fc01a8d3
:1040c00013f075fc01a813f03cffa18f01a813f0b9
:1040d000d5fe642101a813f070fd618f01a813f0d3
:1040e0009bfe4ff4807101a813f0fafe2b4b197e52
:1040f00011b18a1f514251412046fff78dfe01a8a0
:1041000013f01efd10b901a813f091ff01a813f0e0
:10411000cdfc054601a813f0ecfc28b901a813f06a
:1041200033fe002d18bf2e4601a813f0c5fc07462c
:1041300001a813f095fc64281fd93846fff7b1ff9a
:10414000012806d0226b12f4007318d0831e584247
:104150005841ceb105b9b8b929f08dfb054601a883
:1041600013f0a4fc68b129f086fb401bb0f57a7f00
:1041700007d2322026f093fbf1e70020e9e718464a
:10418000e7e701a813f03dffff212046fff728fed7
:1041900001a813f023fc03b0f0bd00bfbccd00109c
:1041a00037b5036804460d46abb10d4b1b7e062b9d
:1041b00002d10021fff77cff7db1237c6bb1002190
:1041c000684612f071fd684612f0a5fe00236846ad
:1041d000237412f079fd03b030bd01232374fae794
:1041e000bccd0010f0b587b0044615460f4629f047
:1041f00042fb42f210730026a361ab1f594260617b
:104200005941204684f82d60e661a662fff704fe5e
:10421000bd422dd1032d12d129f02dfb236ac01ae6
:1042200041f2873398421dd829f025fb94f82c30b1
:1042300020620133dbb2012b03d884f82c3007b0a5
:10424000f0bd314684f82c6004a813f0a8fb80214f
:1042500004a813f045fe4ff47a7304a8a36113f089
:10426000bdfbece729f007fb84f82c602062e6e751
:10427000062f0dd1314604a812f016fd04a812f045
:1042800041fe20460121fff713ff04a812f01cfd98
:10429000022d0ed0032d0fd0104b2a469d61002316
:1042a0004ff480300021cde90133009303f078f919
:1042b000c5e701232372efe729f0ddfa0021206230
:1042c00084f82c1004a813f06afb4ff4807104a842
:1042d00013f006fe04a813f081fbdde7bccd00104f
:1042e000012937b5054614461ad10b21fff778fd91
:1042f0002f4b1a7e012a39d01cb190f82840013486
:10430000e4b24ff47a72012c85f82840aa612dd9c5
:1043100001222846197e03b0bde83040fff762bf96
:10432000022914d10e21fff75bfd214b1a7e022ad0
:104330001cd01cb190f829400134e4b24ff47a72d9
:10434000012c85f82940aa6110d90222e1e703294e
:104350000cd10023038580f82a304ff47a738361ef
:1043600029f089fae8611cb985f82b4003b030bd0b
:1043700095f82b300133dbb2032b85f82b30f5d9c0
:1043800095f82d3013b10622094bc2e7012185f8bb
:104390002b3085f82d1001a813f001fb4ff4967116
:1043a00001a813f00afc01a813f018fbdee700bf18
:1043b000bccd001030b52ded028b002185b0044638
:1043c000fff72afd012102a812f06efc02a812f0ec
:1043d000bffc264db0ee408a297e91b9f7ee007af7
:1043e000b4eee70af1ee10fa4cbf06220122204695
:1043f000fff7f8fe02a812f067fc05b0bdec028bd7
:1044000030bd062912d1f7ee007ab4eee70af1eedc
:1044100010fa1ddd94f82a3013b94ff47a72a261b4
:104420000133dbb2012b84f82a30e3d9012101a842
:1044300013f0b5fa01a813f03ffb43070ad4042296
:10444000297e2046fff7cefe01a813f0c7fad1e778
:104450000a46cce7f7ee007ab4eee78af1ee10fafe
:10446000297e4cbf06220122ebe700bfbccd001025
:104470007fb52d4d0446012101a813f090fa2e7e40
:10448000062e28d101a813f046fb20bb29f0f3f932
:10449000636ac01ab0f5fa5f15d3012102a812f0c1
:1044a00003fc02a812f054fcf7ee007ab4eee70a1f
:1044b000f1ee10fa0cd520463246297efff792fe27
:1044c00002a812f001fc01a813f088fa04b070bd34
:1044d00002a812f0f9fb00212046fff79dfc01a87d
:1044e00013f0eafac0f30111032907d12b7e032b45
:1044f00015d001222046fff7f3fee4e70139012938
:1045000002d801220221f5e7430705d40422204600
:10451000297efff767fed6e701221146eae742f25d
:104520001073a361cfe700bfbccd001073b5294d58
:1045300004462b7e042b04d142f2107382699a4206
:1045400040d0e36993b929f096f96369c01aa36969
:10455000984237d329f08ff9236b60615b052046c1
:1045600032d502b0bde87040fff724bf29f083f9cf
:10457000e369c01ab0f57a7fe5d3012101a813f0f1
:104580000efa236b5a0510d401a813f0c4fa60b1d7
:1045900094f82d6003222046297efff723fe76b192
:1045a000642101a813f009fb09e0ff212046fff771
:1045b00017fc42f210730021a361fff72dfc01a844
:1045c00013f00cfa02b070bd02b0bde87040fff706
:1045d0004fbf00bfbccd00102de9f043584b04463f
:1045e0001a7889b0002a00f081800022012105a8f4
:1045f0001a7013f0d4f9012106a812f055fb05a892
:1046000013f05dfa8df8170005a813f058fa9df81d
:104610001730184302065ffa80f81fd501212046a3
:10462000fff746fd05a813f047fa10f0300f0546d6
:10463000444ec0f38007c0f3011915d005a813f04c
:104640006afa48b1b9f1030f07bf012249460022b7
:1046500002212046fff744fed7b14ee005a813f033
:1046600048fa0028dad0dde718f0080fc8f3c002d6
:1046700006d0354b05222046197efff7b3fdebe748
:10468000002f36d1304b04222046197efff7aafdb9
:104690002d4b1b7e042b0cbf05250025337eab4222
:1046a0000ad000232a464ff400300021cde901331f
:1046b0000093b56102f074ff06a812f098fb78b180
:1046c00006a812f002fc237a53b100234ff40040f5
:1046d0001a460021cde901332372009302f060fff6
:1046e00006a812f0f1fa05a813f078f909b0bde8b0
:1046f000f08301212046fff7f3fd05a8276b13f097
:10470000d5f901460028c3d12846fff7cafc032883
:10471000054610d004280ed0022801d1bb0504d5cf
:104720002046fff765fc0125b8e7b36913f0fd0fdc
:1047300014bf012100212046fff79afcaee700bf1d
:104740003c510010d8cd0010bccd00102de9f04137
:104750008eb0fff7e7fa044600202ff0befd206080
:104760002046fff73dfc256b15f4807514d000251d
:104770002023cde906354e4b4e49009306aa2b4621
:104780002820fef789f82046fff794fb28460eb054
:10479000bde8f0412ff0d7bd2046fff770fb0221a6
:1047a0000a2026f013ff0623cdf811508df81030a3
:1047b0009df8133004af43f004032a463e498df8b8
:1047c00013300a20022300972ef032ff02211b2013
:1047d00026f0fcfe4ff0ff33022238491b200095e3
:1047e00012f0b6f8012103a813f0d9f803a813f0ca
:1047f000def801212046fff75bfc03a813f05ff908
:1048000003a813f05cf9012106a812f04dfa06a8de
:1048100012f0a5fb236b5b0503d4142106a812f04c
:104820002ffb06a812f051fb42f2107306a8a361f9
:1048300012f04afa03a813f0d1f8dff884800023bd
:104840004ff47a72394660682ff0e2fd054658b998
:10485000049e012e0fd12046fff7c2fb29462046b9
:10486000fff726fc88f8006098f80030dbb9204696
:10487000fff75cfee3e7022ef6d101212046fff7a9
:1048800017fc237c7bb9012106a812f00dfa06a8bb
:1048900012f065fb01234ff4fa70237425f0ffff3b
:1048a00006a812f011fa2046fff796fedce700bfdb
:1048b00097bd0d026ebd0d023f3d0002313d00026d
:1048c0003c510010c1684a69506803681b6818476a
:1048d00038b50c461546c8683ab11146c1f0fafa27
:1048e00038b1e0600020256138bdc0f025fbe560ef
:1048f000f8e70148f8e700bffcfeffff10b591f8ac
:1049000043300c46db0748680cd500210df006fb50
:1049100094f8433023f0010384f843300023c4e9c2
:10492000013310bdc0f008fbf8e708b508b10af084
:10493000f5fa002301211a46184603f086fcbde86b
:10494000084000f093bf10b5c468a068c0f0ecfa4e
:1049500060601af06bfc94f842202ab963687bb15e
:10496000022384f8423014461af064fc6cb160688b
:10497000c0f0e2fa2046bde8104000210df0cebaaa
:10498000012284f842201c46eee710bd136810b5e2
:10499000032b17d90b685c1c0c6018700b685c1c2f
:1049a0000c60040a1c700b685c1c0c60040c1c700e
:1049b0000b68000e5c1c0c60187001201368043b2f
:1049c000136010bd0020fce773b58b6804460d46ec
:1049d00000931bb90026304602b070bdcb8800683a
:1049e000694601aa0193fff7d1ff06460028f1d0de
:1049f000019b012beed9009aa389511c00911370e1
:104a0000009a1b0a511c00911370019b2268023b03
:104a1000910701930ed5012bdcd9009ae389511c33
:104a200000911370009a1b0a511c00911370019b96
:104a3000023b019323685a070ed423681b0706d54f
:104a40006946606801aafff7a1ff0028c2d0aa68e2
:104a5000009b9b1aeb80bee76946a06801aafff79e
:104a600095ff0028e9d1b5e738b50c4b41600360ec
:104a70000023c0e90233036104461af0d7fb054660
:104a8000214607482df01aff214606482df022ff47
:104a900028461af0cffb204638bd00bfe4bd0d020a
:104aa0008f4e0002b14e00022de9ff41cb88064631
:104ab0003f2b0f4640f29380886860b1338a032b06
:104ac0000cd9002301220293cde900230323039391
:104ad0006846fff779ff04b0bde8f081002144206b
:104ae0000df0f2f9044638b90123cde90030042372
:104af000029003933946ebe718230380bb884ff0fd
:104b0000000843807b88c0e9038883606ff06303fb
:104b1000c0e90c8846614062c0f83880c363738a7c
:104b200001339bb273828568a0f8403080f84380df
:104b3000002d35d12b4b00f11801c3612a4804f038
:104b400055fa032384f8423063886560462b0ed003
:104b500010d8322b07d004d8283b012b03d90025cd
:104b600008e03c2bfbd10120fff7dffef7e72846ea
:104b7000fff7dbfe0023a362b368e36203b19c622c
:104b8000338ab460013333820023cde90133b4f8b2
:104b90004030adf80c50adf80e3003230093a9e778
:104ba000402d0fd8414628460df08ef9606048b17f
:104bb00094f8433043f0010384f84330022384f82f
:104bc0004230cce7094b0848e36104f1180104f0d6
:104bd0000dfa00230225636084f84230cae7002002
:104be00079e700bf454800024cf60010c7480002b4
:104bf00070b58b8884685cb1b4f840209a4209d0c3
:104c0000e46af8e7d8b9636833448b60012070bd6b
:104c10000020fce794f84230022bf9d1cd88a66b36
:104c2000a36872199a42f3d8402d8868ead8002800
:104c3000edd0636801462a469819c0f0a3f9a26b2b
:104c4000a36815449d42a563e0d1064b0648e36185
:104c500004f1180104f0caf90023a363032384f8c4
:104c60004230d3e7454800024cf60010f8b506463e
:104c70008b8884684cb1b4f840209a4207d0e46a2b
:104c8000f8e7e3683b448b6016e0002019e094f8f5
:104c90004230042bf9d1cd88002df6d0a76b2369c3
:104ca0007a199a42f1d8402debd8886848b1e1686a
:104cb0002a463944c0f066f9a06b2844a06301205d
:104cc000f460f8bdf0b54b780c46502b85b00cd194
:104cd00091f90030002b41dacb8833b1886888b372
:104ce0008a88142a03d01e2a2ed000202ae0102100
:104cf000684624f053fa1028f7d8e3884500b3eb50
:104d0000400ff2d36b46a2685619b24218d01f4624
:104d100019780232090901f13000392888bf01f100
:104d2000370002f8020c3978013301f00f0101f16c
:104d30003000392888bf01f1370002f8010ce4e7a0
:104d4000e580012005b0f0bd042bced90b4b1a68cd
:104d50001b79026003710523cb80f2e78b88282b37
:104d600006d0b3f5977fc0d10120fff7defde8e75d
:104d700000228c2011461af0b3fbe2e7d4bd0d02ed
:104d800010b5cb6a0c460bb18a6a9a62d4e90a2341
:104d900062b1d362038a013b038294f842300bb1c3
:104da000032b05d1042384f8423010bd8360f1e762
:104db000606840b194f84330db070dd500210df059
:104dc000adf800236360e36833b9216b21b9204655
:104dd000bde810400df0a2b8044b04f11801e361e6
:104de0000348bde8104004f001b900bf714f000254
:104df0004cf600101fb5cb880c463f2b38d98b687a
:104e0000002b37d08b88816829b1b1f840209a42b5
:104e100001d0c96af8e700230122cde90233cde9c8
:104e2000002319b391f84230042b0dd8dfe803f0ca
:104e300003070c0312000223adf80c3004e0042336
:104e4000adf80c30fff79cff21466846fff7bcfd2c
:104e500004b010bdcb6b0193092300930b691bb108
:104e600002930d230093efe7c160ede70523e3e72d
:104e70000020ede71846ebe77fb5cb8804463f2bd3
:104e80000d4615d98868a0b18b884bb96ff08b0699
:104e9000a368e3b1de632046a168fff771fff7e77f
:104ea000a16841b1b1f840209a420ad0c96af8e736
:104eb000002004b070bd01230291cde9003105232b
:104ec0000ae06ff08b032046cb63fff759ff002306
:104ed0000122cde900230293294668460393fff798
:104ee00073fde6e74b78013b042b0ed8dfe803f0b7
:104ef000030507090b00fff7d7bdfff77bbffff7df
:104f000077befff7b3befff7b7bf0020704708b505
:104f100003465a780846013a0e2a194605d8fff783
:104f2000e1ff80f00100c0b208bdfff7cbfef8e75b
:104f3000012838b50c460bd0022815d16ff0950525
:104f4000a3689bb1dd632046a168fff719fff7e76f
:104f5000c96849b18a6b0b699a4205d10025204680
:104f6000cd63fff70dffe560002038bde360fbe790
:104f700038b54b6805460c4613b103685b68984723
:104f8000e3682bb12b680022214628461b6898470e
:104f9000236b13b1616be06b98472046bde8384046
:104fa00000210cf0bbbf2de9f0411f464b680546c0
:104fb0000c461646ddf8188013b103685b68984705
:104fc000c4e90c781af032f994f84230032b01bf8f
:104fd0000423e66384f8423000241af02bf92cb144
:104fe00021462846bde8f041fff7c2bfbde8f08189
:104ff000c1684869fff7bcbf08b56bf0b1f818b1dc
:10500000bde808403cf068bf08bd000070b50e4622
:10501000002486b005ab019304ab009305461c4900
:10502000304603ab02aacde90244cde90444c1f005
:105030005bf8042818d1029eff2e23d8039bff2b78
:1050400020d8049aff2a1dd80599ff291ad81b04d5
:1050500043ea06630b4343ea02232c706870c5f8e9
:105060000230204606b070bd3046fbf703ff3f28f4
:105070000ad801236870c21831462b70a81cbff0f3
:1050800081ffeee70348ede76ff0bd00eae700bf00
:10509000f0bd0d02f2feffff70b5032092b00d4689
:1050a0001af05efb002800f08e80002305a8cde9f1
:1050b00005336af001f95b22444905a86bf0e6fc70
:1050c000044640b13cf008ff044605a86af0f8f831
:1050d000204612b070bdcde90700099006206af0a5
:1050e0007fff064600286bd007a86af085ff22469e
:1050f000314607a86af0d8ff002854d107a86bf002
:1051000013f818b13cf0e8fe041e50dbab68042233
:1051100004a907a80493fff76fff041e47dbd5e936
:10512000011207a8fff768ff041e40db2868fbf7a1
:10513000a1fe04220490064604a907a8fff75cff1d
:10514000041e34db3246296807a8fff755ff041e0a
:105150002ddb41f23462ab890df10e01002b08bf4b
:10516000134607a80222adf80e30fff745ff041ed4
:105170001ddb00211c220ba80a91bff02aff0aa9ff
:1051800007a86bf007f8b0b96b69062101932b698a
:105190000aaa009305a820236af0f6f80c4b041e17
:1051a00018bf1c4603e03cf097fe041ea6da07a8d1
:1051b0006af027ff89e73cf08ffe041ef7dbe3e788
:1051c0006ff07704f3e76ff0770481e7fbbf0d0220
:1051d000e8feffff004870474cce001010b50446b3
:1051e000006808b124f09afb204610bd2de9f04775
:1051f0000024a8b01d4616469df8c0705b4a5c4b63
:105200004ff0200aa74208bf134681468846019303
:10521000584b1e20584900930deb0a022346cde956
:1052200008a4fdf739fb554b1e20534900930deba5
:105230000a022346cde90198cde908a4fdf72cfb2d
:105240004f4b01204c4900930deb0a022346019578
:10525000cde908a4fdf720fb2b4632460120cde91d
:1052600000444549fdf778fb02230120454a4249a5
:105270000094fdf71dfb214680220deb0a00bff0d4
:10528000a8fe49460deb0a00fff7c0fe041e5edbd8
:10529000002f14bf4ff0c0094ff44079a945adf875
:1052a000628060d348463849bff0eaf80446079068
:1052b000002853d04a46ff21bff08bfe40f6a2588b
:1052c00040f6a213002f08bf984680224146204690
:1052d00025f03ffcb0bb40f6e24140f62203002f30
:1052e00008bf19464a460798059125f032fc48bb8d
:1052f0002a463046059925f02cfc18bb9df8202045
:10530000079b012a27d89df82120402a28d844222b
:1053100018460deb0a01bff035fe9df8202003462c
:1053200022b9d0f8022012bac0f80220b3f8422005
:1053300052baa3f8422080224146079825f009fc82
:10534000044608b16ff0db0407a8fff747ff2046cb
:1053500028b0bde8f087ff221a70ece70b4cf3e7aa
:105360006ff0bd04f0e76ff0bd04f0e700be0d0282
:10537000fcbd0d0204be0d0260c30d0220be0d0275
:1053800038be0d023f030f0213081002fcfeffffa0
:1053900013b50c4603201af0e3f9a18931b941f2a3
:1053a000346141f23363002808bf1946d4e9012370
:1053b00000902068fff71aff00eae07002b010bd0d
:1053c00007b503201af0ccf968b1012341f234612a
:1053d00000935b23084a0948fff708ff00eae070e2
:1053e00003b05df804fb00904ff4937341f2336116
:1053f000034a0448f0e700bfa0bf0d024fbe0d02f4
:105400007abe0d0263be0d022de9f0430320a9b060
:105410001af0a6f9061e14bfc0274ff440774c4976
:105420003846bff02df801460390002800f08e802a
:1054300040f6a21340f6a2508022002e08bf184664
:1054400025f052fb014640b16ff0db0403a8fff7e3
:10545000c5fe204629b0bde8f083802208a8bff031
:10546000b8fd039c23781bb1012b47d0394cede7e5
:105470006278042afad1d4f802301bba591e0331db
:10548000f4d88df82120cdf82230b4f842305bba40
:10549000adf862309df82030ff2be7d040f6e240b7
:1054a00040f622033a462146002e08bf184625f052
:1054b0001bfb0028c8d103993023cde9041005aaad
:1054c000394404a860f023fb0028cfd1dde9032391
:1054d0009a1a059b07901344cde9053006a869f098
:1054e000ebfe059a039906a86bf0d0fa194b041e3f
:1054f00006a818bf1c4669f0e3fea7e76578ab1c59
:10550000802bb3d83f2db1d86fea0409a11c04f158
:10551000010809eb0803ab4208d218f8010f01910a
:10552000bff0e4fb01990028f3d19fe701232a464d
:105530000df122008df820308df82150bff022fdb2
:1055400028ab1d44002305f87e3c9ee7024c7de716
:1055500013081002f8f8fffffcfefffff8b5044641
:1055600005462f4615f8016b3046bff0b7fb002803
:10557000f7d15f2ef5d0381bf8bd2de9f8430c4666
:105580001746994678b119b38e18a64205d9054633
:1055900015f8013b4bb904f8013b0023781e341b7e
:1055a00006f8013c001bbde8f883242b0dd12846ea
:1055b000fff7d4ff804630b122460146331b284610
:1055c000c847454404442846dfe704f8013bfae7ae
:1055d0000846e8e70023202200b58bb0cde902237e
:1055e000054a01200092054902aafdf755f94ff03e
:1055f000ff300bb05df804fb56c00d0260c30d0216
:10560000f0b5002420274ff4837605460e4bc5b035
:10561000009302aa23461e200c49cde90274fdf72f
:105620003bf93246214602a8bff0d3fc3a46214658
:105630002846bff0cefc23462246314602a805f09c
:10564000fff945b0f0bd00bfb2c00d0260c30d024e
:105650002de9f041ceb04ff4837204460e460ca8fb
:105660000021bff0b6fc00234ff483711a460ca84a
:1056700005f008fab0f5837f2dd1bdf83030b3f5d1
:10568000837f28d180213046149d19f0d3ff8542b5
:1056900034d00025202780213046ddf85080cde928
:1056a000047519f0c7ff214bcde90180009304aace
:1056b0002b4632201e49fdf7eff89df83530322099
:1056c00001931c4b1a49009304aa2b46cde904759b
:1056d000fdf7e2f80ae020210023174acde9041380
:1056e00000922820124904aafdf7d6f82046fff7b9
:1056f00087ff4ff0ff304eb0bde8f0819df83530a8
:10570000002bc6d00dad0fcd0fc495e807000023c8
:1057100084e807002022cde90423084a1e200092d5
:10572000034904aafdf7b8f8e3e700bffec00d0285
:1057300060c30d0223c10d02cac00d0236c10d02a5
:1057400010b504460846802119f074ffe06100207e
:1057500010bd000030b50020b1b004f09df803206a
:1057600019f0feff0446e0b1364b1d88802200216f
:1057700010a8bff02efc10a828f098ff9df840203c
:1057800020218ab1012a4ff000034cd001922e4a09
:10579000cde90813009228202c4908aafdf77cf8cf
:1057a0001fe041f23365e1e7ddf84230cde9081250
:1057b000bdf882101e200791d9b20691c3f30721cc
:1057c0000591c3f307411b0e03930df14203cde98d
:1057d00001231f4b049100931c49134608aafdf7af
:1057e0005bf84ff6fd71bdf88220531e9bb28b42d1
:1057f00002d81cb1aa4201d0adf8825010a91548b8
:10580000fff726ff002c14bf11200620114a10a913
:1058100003f0c4fd044618b90e4810a9fff790ff25
:10582000204631b030bdcde908130df14201cde97c
:105830000121094a1e200092044908aafdf72cf80c
:10584000cfe700bf48510010d7c10d0260c30d0261
:105850006dc10d0250ce0010afc10d0204f01cb896
:1058600008b5002004f05af8c0b208bd0122014b6f
:105870001a7070474dce001013b50f4b04461b78bd
:1058800023b102b0bde81040fff7a4be0b4b01915d
:105890001b78002bf5d1fff7e3ff0028f1d1084b6f
:1058a0001b7803f0ff02002bebd12046019902b0d8
:1058b000bde8104003f08cbf2dd200102ed2001096
:1058c0004dce0010fff7d8bf13b50f4b04461b7821
:1058d00023b102b0bde81040fff77cbe0b4b019135
:1058e0001b78002bf5d1fff7bbff0028f1d1084b47
:1058f0001b7803f0ff02002bebd12046019902b088
:10590000bde8104003f090bf2dd200102ed2001041
:105910004dce0010fff7d8bf08b5002003f0e8ff18
:1059200010f1780f08bf002008bd002003f0f2bf7f
:10593000f0b5022806460d4614468db005d00a285b
:1059400034d01f4c20460db0f0bd202000231d4f49
:10595000cde904033a68cde901211b4a00920120f8
:105960001a4904aafcf798ff3d6000f0f5fd10b954
:1059700014f00104e6d0164b00245b78b342e1d169
:105980002023cde90434134b04aa009301202346bd
:105990000e49fcf781ff082202232946cde90423a2
:1059a0002046234604aa00f0cdfecbe720210023a9
:1059b000094fcde904133a68cde90125074acde73f
:1059c000f2feffff4051001013c20d0260c30d0232
:1059d00050ce001076c20d024451001044c20d0298
:1059e00019b1022803d00a2806d004487047044b96
:1059f0001b6800200b607047024bf9e7f2feffffc7
:105a0000405100104451001003689b6818470eb4c1
:105a100003b503ab53f8042b0021019311f0a7fd4c
:105a200002b05df804eb03b070472de9f041064683
:105a30000d46904627f01fff074627f01cffc01bae
:105a400040450ed83468236820461b6998470028d3
:105a5000f3d0236820465b69984728700020bde892
:105a6000f0814ff0ff30fae72de9f04f16461a4665
:105a7000002385b00f4633600df10f01019282467d
:105a8000fff7d3ff019a044628b14ff0ff342046b8
:105a900005b0bde8f08f9df80f50182d13d008d831
:105aa000022d20d0042df2d0012deed14ff0800830
:105ab0001be005f0df03412b35d0202d14bf4ff044
:105ac000ff340224e3e750460df10f01fff7adff6d
:105ad00004460028d9d19df80f30182bd5d14ff0ae
